{
  "contractName": "DreamTicket",
  "abi": [
    {
      "constant": false,
      "inputs": [],
      "name": "renounceOwnership",
      "outputs": [],
      "payable": false,
      "stateMutability": "nonpayable",
      "type": "function"
    },
    {
      "constant": true,
      "inputs": [],
      "name": "owner",
      "outputs": [
        {
          "name": "",
          "type": "address"
        }
      ],
      "payable": false,
      "stateMutability": "view",
      "type": "function"
    },
    {
      "constant": true,
      "inputs": [],
      "name": "isOwner",
      "outputs": [
        {
          "name": "",
          "type": "bool"
        }
      ],
      "payable": false,
      "stateMutability": "view",
      "type": "function"
    },
    {
      "constant": false,
      "inputs": [
        {
          "name": "newOwner",
          "type": "address"
        }
      ],
      "name": "transferOwnership",
      "outputs": [],
      "payable": false,
      "stateMutability": "nonpayable",
      "type": "function"
    },
    {
      "inputs": [],
      "payable": false,
      "stateMutability": "nonpayable",
      "type": "constructor"
    },
    {
      "anonymous": false,
      "inputs": [
        {
          "indexed": false,
          "name": "buyer",
          "type": "address"
        }
      ],
      "name": "Buy",
      "type": "event"
    },
    {
      "anonymous": false,
      "inputs": [
        {
          "indexed": true,
          "name": "previousOwner",
          "type": "address"
        },
        {
          "indexed": true,
          "name": "newOwner",
          "type": "address"
        }
      ],
      "name": "OwnershipTransferred",
      "type": "event"
    },
    {
      "constant": true,
      "inputs": [],
      "name": "getName",
      "outputs": [
        {
          "name": "",
          "type": "string"
        }
      ],
      "payable": false,
      "stateMutability": "view",
      "type": "function"
    },
    {
      "constant": false,
      "inputs": [
        {
          "name": "_num",
          "type": "uint256"
        },
        {
          "name": "_passcode",
          "type": "uint256"
        }
      ],
      "name": "buy",
      "outputs": [],
      "payable": true,
      "stateMutability": "payable",
      "type": "function"
    },
    {
      "constant": false,
      "inputs": [
        {
          "name": "_num",
          "type": "uint256"
        },
        {
          "name": "_passcode",
          "type": "uint256"
        },
        {
          "name": "_introducer",
          "type": "address"
        }
      ],
      "name": "buyWithIntroducer",
      "outputs": [],
      "payable": true,
      "stateMutability": "payable",
      "type": "function"
    },
    {
      "constant": true,
      "inputs": [
        {
          "name": "_user",
          "type": "address"
        },
        {
          "name": "_num",
          "type": "uint256"
        },
        {
          "name": "_passcode",
          "type": "uint256"
        }
      ],
      "name": "createCommitment",
      "outputs": [
        {
          "name": "",
          "type": "bytes32"
        }
      ],
      "payable": false,
      "stateMutability": "pure",
      "type": "function"
    },
    {
      "constant": false,
      "inputs": [
        {
          "name": "_num",
          "type": "uint256"
        },
        {
          "name": "_passcode",
          "type": "uint256"
        }
      ],
      "name": "reveal",
      "outputs": [],
      "payable": false,
      "stateMutability": "nonpayable",
      "type": "function"
    },
    {
      "constant": false,
      "inputs": [],
      "name": "drawWinner",
      "outputs": [],
      "payable": false,
      "stateMutability": "nonpayable",
      "type": "function"
    },
    {
      "constant": true,
      "inputs": [
        {
          "name": "_user",
          "type": "address"
        }
      ],
      "name": "getIntroducedCount",
      "outputs": [
        {
          "name": "",
          "type": "uint256"
        }
      ],
      "payable": false,
      "stateMutability": "view",
      "type": "function"
    },
    {
      "constant": true,
      "inputs": [],
      "name": "getRound",
      "outputs": [
        {
          "name": "",
          "type": "uint256"
        }
      ],
      "payable": false,
      "stateMutability": "view",
      "type": "function"
    },
    {
      "constant": true,
      "inputs": [],
      "name": "getBuyCount",
      "outputs": [
        {
          "name": "",
          "type": "uint256"
        }
      ],
      "payable": false,
      "stateMutability": "view",
      "type": "function"
    },
    {
      "constant": true,
      "inputs": [],
      "name": "getRevealCount",
      "outputs": [
        {
          "name": "",
          "type": "uint256"
        }
      ],
      "payable": false,
      "stateMutability": "view",
      "type": "function"
    },
    {
      "constant": true,
      "inputs": [
        {
          "name": "_num",
          "type": "uint256"
        }
      ],
      "name": "getAddress",
      "outputs": [
        {
          "name": "",
          "type": "address"
        }
      ],
      "payable": false,
      "stateMutability": "view",
      "type": "function"
    },
    {
      "constant": true,
      "inputs": [
        {
          "name": "_address",
          "type": "address"
        }
      ],
      "name": "getNumbers",
      "outputs": [
        {
          "name": "",
          "type": "uint256[]"
        }
      ],
      "payable": false,
      "stateMutability": "view",
      "type": "function"
    },
    {
      "constant": false,
      "inputs": [],
      "name": "nextTerm",
      "outputs": [],
      "payable": false,
      "stateMutability": "nonpayable",
      "type": "function"
    },
    {
      "constant": true,
      "inputs": [],
      "name": "getTerm",
      "outputs": [
        {
          "name": "",
          "type": "uint8"
        }
      ],
      "payable": false,
      "stateMutability": "view",
      "type": "function"
    },
    {
      "constant": true,
      "inputs": [],
      "name": "getWinner",
      "outputs": [
        {
          "name": "",
          "type": "address"
        }
      ],
      "payable": false,
      "stateMutability": "view",
      "type": "function"
    },
    {
      "constant": true,
      "inputs": [
        {
          "name": "_from",
          "type": "uint256"
        },
        {
          "name": "_to",
          "type": "uint256"
        }
      ],
      "name": "getSelectableNumbers",
      "outputs": [
        {
          "name": "",
          "type": "uint256[]"
        }
      ],
      "payable": false,
      "stateMutability": "view",
      "type": "function"
    },
    {
      "constant": false,
      "inputs": [],
      "name": "nextGame",
      "outputs": [],
      "payable": false,
      "stateMutability": "nonpayable",
      "type": "function"
    },
    {
      "constant": false,
      "inputs": [
        {
          "name": "price",
          "type": "uint256"
        }
      ],
      "name": "setPrice",
      "outputs": [],
      "payable": false,
      "stateMutability": "nonpayable",
      "type": "function"
    },
    {
      "constant": true,
      "inputs": [],
      "name": "getPrice",
      "outputs": [
        {
          "name": "",
          "type": "uint256"
        }
      ],
      "payable": false,
      "stateMutability": "view",
      "type": "function"
    },
    {
      "constant": false,
      "inputs": [
        {
          "name": "num",
          "type": "uint256"
        }
      ],
      "name": "setTicketTotal",
      "outputs": [],
      "payable": false,
      "stateMutability": "nonpayable",
      "type": "function"
    },
    {
      "constant": true,
      "inputs": [],
      "name": "getContractBalance",
      "outputs": [
        {
          "name": "",
          "type": "uint256"
        }
      ],
      "payable": false,
      "stateMutability": "view",
      "type": "function"
    }
  ],
  "bytecode": "0x60806040526040805190810160405280600b81526020017f447265616d5469636b657400000000000000000000000000000000000000000081525060019080519060200190620000519291906200019e565b5066038d7ea4c680006002556113886003553480156200007057600080fd5b50336000806101000a81548173ffffffffffffffffffffffffffffffffffffffff021916908373ffffffffffffffffffffffffffffffffffffffff1602179055506000809054906101000a900473ffffffffffffffffffffffffffffffffffffffff1673ffffffffffffffffffffffffffffffffffffffff16600073ffffffffffffffffffffffffffffffffffffffff167f8be0079c531659141344cd1fd0a4f28419497f9722a3daafe3b4186f6b6457e060405160405180910390a360006008819055506200014e62000154640100000000026401000000009004565b6200024d565b600860008154809291906001019190505550600060046000600854815260200190815260200160002081905550600060096000600854815260200190815260200160002081905550565b828054600181600116156101000203166002900490600052602060002090601f016020900481019282601f10620001e157805160ff191683800117855562000212565b8280016001018555821562000212579182015b8281111562000211578251825591602001919060010190620001f4565b5b50905062000221919062000225565b5090565b6200024a91905b80821115620002465760008160009055506001016200022c565b5090565b90565b6118f8806200025d6000396000f3fe608060405260043610610149576000357c0100000000000000000000000000000000000000000000000000000000900463ffffffff168063020c6fed1461014e57806303652dea14610179578063124b65b4146101b657806317d7de7c146101e157806317e190fa1461020c578063281d62c414610249578063676e2680146102605780636f9fb98a1461029d578063715018a6146102c857806381dda9fa146102df578063871933e2146102f65780638950ce0b146103335780638da5cb5b1461035c5780638e7ea5b2146103875780638f10fd45146103b25780638f32d59b146103dd57806391b7f5ed146104085780639348cef71461043157806398d5fdca1461045a5780639f8743f714610485578063b2185bb1146104b0578063b93f9b0a146104c7578063d6febde814610504578063ed150e7814610520578063f2fde38b1461053c575b600080fd5b34801561015a57600080fd5b50610163610565565b6040516101709190611763565b60405180910390f35b34801561018557600080fd5b506101a0600480360361019b91908101906113ad565b610582565b6040516101ad9190611763565b60405180910390f35b3480156101c257600080fd5b506101cb6105cb565b6040516101d891906116e6565b60405180910390f35b3480156101ed57600080fd5b506101f66105e2565b6040516102039190611701565b60405180910390f35b34801561021857600080fd5b50610233600480360361022e91908101906113ad565b610684565b604051610240919061168e565b60405180910390f35b34801561025557600080fd5b5061025e61072e565b005b34801561026c57600080fd5b50610287600480360361028291908101906113d6565b610799565b60405161029491906116cb565b60405180910390f35b3480156102a957600080fd5b506102b2610816565b6040516102bf9190611763565b60405180910390f35b3480156102d457600080fd5b506102dd610835565b005b3480156102eb57600080fd5b506102f461093d565b005b34801561030257600080fd5b5061031d6004803603610318919081019061144e565b610a53565b60405161032a919061168e565b60405180910390f35b34801561033f57600080fd5b5061035a60048036036103559190810190611425565b610b99565b005b34801561036857600080fd5b50610371610ba3565b60405161037e9190611658565b60405180910390f35b34801561039357600080fd5b5061039c610bcc565b6040516103a99190611658565b60405180910390f35b3480156103be57600080fd5b506103c7610c09565b6040516103d49190611763565b60405180910390f35b3480156103e957600080fd5b506103f2610c26565b6040516103ff91906116b0565b60405180910390f35b34801561041457600080fd5b5061042f600480360361042a9190810190611425565b610c7d565b005b34801561043d57600080fd5b506104586004803603610453919081019061144e565b610c87565b005b34801561046657600080fd5b5061046f610e8e565b60405161047c9190611763565b60405180910390f35b34801561049157600080fd5b5061049a610e98565b6040516104a79190611763565b60405180910390f35b3480156104bc57600080fd5b506104c5610ea2565b005b3480156104d357600080fd5b506104ee60048036036104e99190810190611425565b610f9d565b6040516104fb9190611658565b60405180910390f35b61051e6004803603610519919081019061144e565b610fed565b005b61053a6004803603610535919081019061148a565b611167565b005b34801561054857600080fd5b50610563600480360361055e91908101906113ad565b611200565b005b600060096000600854815260200190815260200160002054905090565b6000600660008373ffffffffffffffffffffffffffffffffffffffff1673ffffffffffffffffffffffffffffffffffffffff168152602001908152602001600020549050919050565b6000600760009054906101000a900460ff16905090565b606060018054600181600116156101000203166002900480601f01602080910402602001604051908101604052809291908181526020018280546001816001161561010002031660029004801561067a5780601f1061064f5761010080835404028352916020019161067a565b820191906000526020600020905b81548152906001019060200180831161065d57829003601f168201915b5050505050905090565b6060600b6000600854815260200190815260200160002060008373ffffffffffffffffffffffffffffffffffffffff1673ffffffffffffffffffffffffffffffffffffffff16815260200190815260200160002080548060200260200160405190810160405280929190818152602001828054801561072257602002820191906000526020600020905b81548152602001906001019080831161070e575b50505050509050919050565b60028081111561073a57fe5b600760009054906101000a900460ff16600281111561075557fe5b14151561076157600080fd5b6008600081548092919060010191905055506000600760006101000a81548160ff0219169083600281111561079257fe5b0217905550565b6000838383604051602001808473ffffffffffffffffffffffffffffffffffffffff1673ffffffffffffffffffffffffffffffffffffffff166c0100000000000000000000000002815260140183815260200182815260200193505050506040516020818303038152906040528051906020012090509392505050565b60003073ffffffffffffffffffffffffffffffffffffffff1631905090565b61083d610c26565b151561087e576040517f08c379a000000000000000000000000000000000000000000000000000000000815260040161087590611743565b60405180910390fd5b600073ffffffffffffffffffffffffffffffffffffffff166000809054906101000a900473ffffffffffffffffffffffffffffffffffffffff1673ffffffffffffffffffffffffffffffffffffffff167f8be0079c531659141344cd1fd0a4f28419497f9722a3daafe3b4186f6b6457e060405160405180910390a360008060006101000a81548173ffffffffffffffffffffffffffffffffffffffff021916908373ffffffffffffffffffffffffffffffffffffffff160217905550565b6000600281111561094a57fe5b600760009054906101000a900460ff16600281111561096557fe5b148061099657506001600281111561097957fe5b600760009054906101000a900460ff16600281111561099457fe5b145b15156109a157600080fd5b600060028111156109ae57fe5b600760009054906101000a900460ff1660028111156109c957fe5b14156109f8576001600760006101000a81548160ff021916908360028111156109ee57fe5b0217905550610a51565b60016002811115610a0557fe5b600760009054906101000a900460ff166002811115610a2057fe5b1415610a4f576002600760006101000a81548160ff02191690836002811115610a4557fe5b0217905550610a50565b5b5b565b60608183101515610a6357600080fd5b60006001848403019050606081604051908082528060200260200182016040528015610a9e5781602001602082028038833980820191505090505b509050600080905060008690505b8581111515610b8c5760007f0100000000000000000000000000000000000000000000000000000000000000026005600060085481526020019081526020016000206000838152602001908152602001600020546000602081101515610b0e57fe5b1a7f0100000000000000000000000000000000000000000000000000000000000000027effffffffffffffffffffffffffffffffffffffffffffffffffffffffffffff19161415610b7f57808383815181101515610b6857fe5b906020019060200201818152505081806001019250505b8080600101915050610aac565b5081935050505092915050565b8060038190555050565b60008060009054906101000a900473ffffffffffffffffffffffffffffffffffffffff16905090565b6000600d6000600854815260200190815260200160002060009054906101000a900473ffffffffffffffffffffffffffffffffffffffff16905090565b600060046000600854815260200190815260200160002054905090565b60008060009054906101000a900473ffffffffffffffffffffffffffffffffffffffff1673ffffffffffffffffffffffffffffffffffffffff163373ffffffffffffffffffffffffffffffffffffffff1614905090565b8060028190555050565b60016002811115610c9457fe5b600760009054906101000a900460ff166002811115610caf57fe5b141515610cbb57600080fd5b6000610cc8338484610799565b905080600560006008548152602001908152602001600020600085815260200190815260200160002054141515610cfe57600080fd5b600c600060085481526020019081526020016000205481604051602001808381526020018281526020019250505060405160208183030381529060405280519060200120600c60006008548152602001908152602001600020819055506009600060085481526020019081526020016000206000815480929190600101919050555033600a60006008548152602001908152602001600020600085815260200190815260200160002060006101000a81548173ffffffffffffffffffffffffffffffffffffffff021916908373ffffffffffffffffffffffffffffffffffffffff160217905550600b6000600854815260200190815260200160002060003373ffffffffffffffffffffffffffffffffffffffff1673ffffffffffffffffffffffffffffffffffffffff168152602001908152602001600020839080600181540180825580915050906001820390600052602060002001600090919290919091505550600354600960006008548152602001908152602001600020541415610e8957610e8861093d565b5b505050565b6000600254905090565b6000600854905090565b600280811115610eae57fe5b600760009054906101000a900460ff166002811115610ec957fe5b141515610ed557600080fd5b6000600354600c600060085481526020019081526020016000205460019004811515610efd57fe5b069050600a60006008548152602001908152602001600020600082815260200190815260200160002060009054906101000a900473ffffffffffffffffffffffffffffffffffffffff16600d6000600854815260200190815260200160002060006101000a81548173ffffffffffffffffffffffffffffffffffffffff021916908373ffffffffffffffffffffffffffffffffffffffff16021790555050565b6000600a60006008548152602001908152602001600020600083815260200190815260200160002060009054906101000a900473ffffffffffffffffffffffffffffffffffffffff169050919050565b60025434141515610ffd57600080fd5b6000821015801561100f575060035482105b151561101a57600080fd5b6000600281111561102757fe5b600760009054906101000a900460ff16600281111561104257fe5b14151561104e57600080fd5b600060010260056000600854815260200190815260200160002060008481526020019081526020016000205414151561108657600080fd5b6103e88110158015611099575061271081105b15156110a457600080fd5b6004600060085481526020019081526020016000206000815480929190600101919050555060006110d6338484610799565b9050806005600060085481526020019081526020016000206000858152602001908152602001600020819055507f5c6c890314aa0d49059c35b35ff86ffb43efe8f543dc3691558f39dfa4a82011336040516111329190611673565b60405180910390a16003546004600060085481526020019081526020016000205414156111625761116161093d565b5b505050565b6111718383610fed565b8073ffffffffffffffffffffffffffffffffffffffff163373ffffffffffffffffffffffffffffffffffffffff16141515156111ac57600080fd5b600660008273ffffffffffffffffffffffffffffffffffffffff1673ffffffffffffffffffffffffffffffffffffffff16815260200190815260200160002060008154809291906001019190505550505050565b611208610c26565b1515611249576040517f08c379a000000000000000000000000000000000000000000000000000000000815260040161124090611743565b60405180910390fd5b61125281611255565b50565b600073ffffffffffffffffffffffffffffffffffffffff168173ffffffffffffffffffffffffffffffffffffffff16141515156112c7576040517f08c379a00000000000000000000000000000000000000000000000000000000081526004016112be90611723565b60405180910390fd5b8073ffffffffffffffffffffffffffffffffffffffff166000809054906101000a900473ffffffffffffffffffffffffffffffffffffffff1673ffffffffffffffffffffffffffffffffffffffff167f8be0079c531659141344cd1fd0a4f28419497f9722a3daafe3b4186f6b6457e060405160405180910390a3806000806101000a81548173ffffffffffffffffffffffffffffffffffffffff021916908373ffffffffffffffffffffffffffffffffffffffff16021790555050565b60006113918235611816565b905092915050565b60006113a58235611828565b905092915050565b6000602082840312156113bf57600080fd5b60006113cd84828501611385565b91505092915050565b6000806000606084860312156113eb57600080fd5b60006113f986828701611385565b935050602061140a86828701611399565b925050604061141b86828701611399565b9150509250925092565b60006020828403121561143757600080fd5b600061144584828501611399565b91505092915050565b6000806040838503121561146157600080fd5b600061146f85828601611399565b925050602061148085828601611399565b9150509250929050565b60008060006060848603121561149f57600080fd5b60006114ad86828701611399565b93505060206114be86828701611399565b92505060406114cf86828701611385565b9150509250925092565b6114e281611832565b82525050565b6114f1816117ae565b82525050565b60006115028261178b565b8084526020840193506115148361177e565b60005b828110156115465761152a868351611649565b611533826117a1565b9150602086019550600181019050611517565b50849250505092915050565b61155b816117c0565b82525050565b61156a816117cc565b82525050565b61157981611844565b82525050565b600061158a82611796565b80845261159e81602086016020860161187a565b6115a7816118ad565b602085010191505092915050565b6000602682527f4f776e61626c653a206e6577206f776e657220697320746865207a65726f206160208301527f64647265737300000000000000000000000000000000000000000000000000006040830152606082019050919050565b6000602082527f4f776e61626c653a2063616c6c6572206973206e6f7420746865206f776e65726020830152604082019050919050565b6116528161180c565b82525050565b600060208201905061166d60008301846114e8565b92915050565b600060208201905061168860008301846114d9565b92915050565b600060208201905081810360008301526116a881846114f7565b905092915050565b60006020820190506116c56000830184611552565b92915050565b60006020820190506116e06000830184611561565b92915050565b60006020820190506116fb6000830184611570565b92915050565b6000602082019050818103600083015261171b818461157f565b905092915050565b6000602082019050818103600083015261173c816115b5565b9050919050565b6000602082019050818103600083015261175c81611612565b9050919050565b60006020820190506117786000830184611649565b92915050565b6000602082019050919050565b600081519050919050565b600081519050919050565b6000602082019050919050565b60006117b9826117ec565b9050919050565b60008115159050919050565b6000819050919050565b60006003821015156117e457fe5b819050919050565b600073ffffffffffffffffffffffffffffffffffffffff82169050919050565b6000819050919050565b6000611821826117ec565b9050919050565b6000819050919050565b600061183d82611856565b9050919050565b600061184f826117d6565b9050919050565b600061186182611868565b9050919050565b6000611873826117ec565b9050919050565b60005b8381101561189857808201518184015260208101905061187d565b838111156118a7576000848401525b50505050565b6000601f19601f830116905091905056fea265627a7a72305820a1c55789470a522a60a0970528ef3e31048cf54e727e0dbb38c6f6bb7373c5c46c6578706572696d656e74616cf50037",
  "source": "pragma solidity >=0.4.21 <0.6.0;\npragma experimental ABIEncoderV2;\n\nimport \"./Ownable.sol\";\n\ncontract DreamTicket is Ownable {\n\n  event Buy(\n    address buyer\n  );\n\n  enum SoldoutStatus {\n    NOT_SELLING,\n    BUY,\n    REVEALED\n  }\n\n  enum Term {\n    BUY,\n    REVEAL,\n    RESULT\n  }\n\n  ////////////////////////////////////////\n  // Always public\n  ////////////////////////////////////////\n\n  string private NAME = \"DreamTicket\";\n  function getName() public view returns (string memory) {\n    return NAME;\n  }\n  \n  // A ticket price per a ticket\n  uint private TICKET_PRICE = 1e15;\n\n  // The total number of ticket which is sold in a term\n  uint private TICKET_TOTAL = 5000;\n\n  // Buy player's number\n  mapping(uint => uint) private buyCount;\n\n  // num => CommitmentHash(BuyerAddress * num * passcode)\n  mapping(uint => mapping(uint => bytes32)) private commitments;\n\n  // If you enter the introducer, it is incremented\n  mapping(address => uint) private introducers;\n\n  Term private term;\n\n  uint private round;\n\n\n  ////////////////////////////////////////\n  // Public after reveal\n  ////////////////////////////////////////\n\n  // Reveal player's number\n  mapping(uint => uint) private revealCount;\n\n  // TicketNumber => BuyerAddress\n  mapping(uint => mapping(uint => address)) private numToAddr;\n\n  // BuyerAddress => TicketNumbers\n  mapping(uint => mapping(address => uint[])) private addrToNums;\n\n  // The current seed which determine the number of winner\n  mapping(uint => bytes32) private seed;\n\n  // The winner of a current game\n  mapping(uint => address) private winner;\n\n\n  constructor () public {\n    round = 0;\n    initEntries();\n  }\n\n  /// @notice The game will be reset\n  function initEntries() private {\n    round++;\n    buyCount[round] = 0;\n    revealCount[round] = 0;\n  }\n\n  /// @notice A player can buy a ticket but the process still not be end\n  /// @param _num The ticket number (0-4999)\n  /// @param _passcode This is necessary to create random (1000-9999)\n  function buy (uint _num, uint _passcode) public payable {\n    require(msg.value == TICKET_PRICE);\n    require(_num >= 0 && _num < TICKET_TOTAL);\n    require(term == Term.BUY);\n    require(commitments[round][_num] == 0);\n    require(_passcode >= 1000 && _passcode < 10000);\n\n    buyCount[round]++;\n\n    bytes32 commitment = createCommitment(msg.sender, _num, _passcode);\n    commitments[round][_num] = commitment;\n\n    emit Buy(msg.sender);\n\n    if (buyCount[round] == TICKET_TOTAL) {\n      nextTerm();\n      // TODO: count down in a week\n    }\n  }\n\n  /// @notice A player can buy a ticket with introducer address\n  /// @param _num The ticket number (0-4999)\n  /// @param _passcode This is necessary to create random (1000-9999)\n  function buyWithIntroducer(uint _num, uint _passcode, address _introducer) public payable {\n    buy(_num, _passcode);\n    require(msg.sender != _introducer);\n    introducers[_introducer]++;\n    // TODO: Introduce Event\n  }\n  \n\n  function createCommitment(address _user, uint _num, uint _passcode) public pure returns (bytes32) {\n    return keccak256(abi.encodePacked(_user, _num, _passcode));\n  }\n\n\n  function reveal (uint _num, uint _passcode) public {\n    require(term == Term.REVEAL);\n    \n    bytes32 commitment = createCommitment(msg.sender, _num, _passcode);\n    require(commitments[round][_num] == commitment);\n\n    seed[round] = keccak256(abi.encodePacked(seed[round], commitment));\n    revealCount[round]++;\n    numToAddr[round][_num] = msg.sender;\n    addrToNums[round][msg.sender].push(_num);\n\n    if (revealCount[round] == TICKET_TOTAL) {\n      nextTerm();\n    }\n  }\n\n  function drawWinner () public /*onlyOwner*/ {\n    require(term == Term.RESULT);\n    uint seedIndex = uint(seed[round]) % TICKET_TOTAL;\n    winner[round] = numToAddr[round][seedIndex];\n  }\n\n  function getIntroducedCount(address _user) public view returns (uint) {\n    return introducers[_user];\n  }\n\n  function getRound() public view returns (uint) {\n    return round;\n  }\n\n  function getBuyCount() public view returns (uint) {\n    return buyCount[round];\n  }\n\n  function getRevealCount() public view returns (uint) {\n    return revealCount[round];\n  }\n\n  function getAddress(uint _num) public view returns (address) {\n    return numToAddr[round][_num];\n  }\n\n  function getNumbers(address _address) public view returns (uint[] memory) {\n    return addrToNums[round][_address];\n  }\n\n  function nextTerm() public /* onlyOwner */ {\n    require(term == Term.BUY || term == Term.REVEAL);\n    if (term == Term.BUY) {\n      term = Term.REVEAL;\n    } else if (term == Term.REVEAL) {\n      term = Term.RESULT;\n    } else {\n      // nothing\n    }\n  }\n\n  function getTerm() public view returns (Term) {\n    return term;\n  }\n\n  function getWinner() public view returns (address) {\n    return winner[round];\n  }\n\n  /// @param _from more than equals\n  /// @param _to less than equals\n  function getSelectableNumbers(uint _from, uint _to) public view returns (uint[] memory) {\n    require(_from < _to);\n    uint diff = _to - _from + 1;\n    uint[] memory numbers = new uint[](diff);\n    uint i = 0;\n    for (uint target = _from; target <= _to; target++) {\n      if (commitments[round][target][0] == 0) {\n        numbers[i] = target;\n        i++;\n      }\n    }\n    return numbers;\n  }\n\n\n\n\n  function nextGame () public /* onlyOwner */ {\n    require(term == Term.RESULT);\n    round++;\n    term = Term.BUY;\n  }\n\n  function setPrice (uint price) public {\n    TICKET_PRICE = price;\n  }\n\n  function getPrice () public view returns (uint) {\n    return TICKET_PRICE;\n  }\n\n  function setTicketTotal (uint num) public /* onlyOwner */ {\n    // For Only Test\n    TICKET_TOTAL = num;\n  }\n\n  function getContractBalance() public view returns (uint) {\n    return address(this).balance;\n  }\n}",
  "sourcePath": "/Users/koikeshunpei/Dev/04_lottery/dapp/contracts/DreamTicket.sol",
  "compiler": {
    "name": "solc",
    "version": "0.5.0+commit.1d4f565a.Emscripten.clang"
  },
  "schemaVersion": "3.0.9",
  "updatedAt": "2019-06-21T15:26:38.983Z",
  "devdoc": {
    "methods": {
      "buy(uint256,uint256)": {
        "params": {
          "_num": "The ticket number (0-4999)",
          "_passcode": "This is necessary to create random (1000-9999)"
        }
      },
      "buyWithIntroducer(uint256,uint256,address)": {
        "params": {
          "_num": "The ticket number (0-4999)",
          "_passcode": "This is necessary to create random (1000-9999)"
        }
      },
      "getSelectableNumbers(uint256,uint256)": {
        "params": {
          "_from": "more than equals",
          "_to": "less than equals"
        }
      },
      "isOwner()": {
        "details": "Returns true if the caller is the current owner."
      },
      "owner()": {
        "details": "Returns the address of the current owner."
      },
      "renounceOwnership()": {
        "details": "Leaves the contract without owner. It will not be possible to call `onlyOwner` functions anymore. Can only be called by the current owner.     * > Note: Renouncing ownership will leave the contract without an owner, thereby removing any functionality that is only available to the owner."
      },
      "transferOwnership(address)": {
        "details": "Transfers ownership of the contract to a new account (`newOwner`). Can only be called by the current owner."
      }
    }
  },
  "userdoc": {
    "methods": {
      "buy(uint256,uint256)": {
        "notice": "A player can buy a ticket but the process still not be end"
      },
      "buyWithIntroducer(uint256,uint256,address)": {
        "notice": "A player can buy a ticket with introducer address"
      }
    }
  }
}