{
  "contractName": "LuckeyLottery",
  "abi": [
    {
      "constant": false,
      "inputs": [
        {
          "name": "price",
          "type": "uint256"
        }
      ],
      "name": "setPrice",
      "outputs": [],
      "payable": false,
      "stateMutability": "nonpayable",
      "type": "function"
    },
    {
      "constant": true,
      "inputs": [],
      "name": "getPrice",
      "outputs": [
        {
          "name": "",
          "type": "uint256"
        }
      ],
      "payable": false,
      "stateMutability": "view",
      "type": "function"
    },
    {
      "constant": false,
      "inputs": [],
      "name": "buy",
      "outputs": [],
      "payable": true,
      "stateMutability": "payable",
      "type": "function"
    },
    {
      "constant": true,
      "inputs": [],
      "name": "getTotalQuantity",
      "outputs": [
        {
          "name": "",
          "type": "uint256"
        }
      ],
      "payable": false,
      "stateMutability": "view",
      "type": "function"
    },
    {
      "constant": true,
      "inputs": [],
      "name": "getEntries",
      "outputs": [
        {
          "components": [
            {
              "name": "buyer",
              "type": "address"
            },
            {
              "name": "quantity",
              "type": "uint256"
            }
          ],
          "name": "",
          "type": "tuple[]"
        }
      ],
      "payable": false,
      "stateMutability": "view",
      "type": "function"
    }
  ],
  "bytecode": "0x608060405266038d7ea4c6800060005534801561001b57600080fd5b506104f08061002b6000396000f3fe60806040526004361061006d576000357c0100000000000000000000000000000000000000000000000000000000900463ffffffff16806317be85c3146100725780637474e3311461009d57806391b7f5ed146100c857806398d5fdca146100f1578063a6f2ae3a1461011c575b600080fd5b34801561007e57600080fd5b50610087610126565b604051610094919061040e565b60405180910390f35b3480156100a957600080fd5b506100b26101e5565b6040516100bf9190610430565b60405180910390f35b3480156100d457600080fd5b506100ef60048036036100ea919081019061033d565b6101ef565b005b3480156100fd57600080fd5b506101066101f9565b6040516101139190610430565b60405180910390f35b610124610202565b005b60606002805480602002602001604051908101604052809291908181526020016000905b828210156101dc57838290600052602060002090600202016040805190810160405290816000820160009054906101000a900473ffffffffffffffffffffffffffffffffffffffff1673ffffffffffffffffffffffffffffffffffffffff1673ffffffffffffffffffffffffffffffffffffffff1681526020016001820154815250508152602001906001019061014a565b50505050905090565b6000600154905090565b8060008190555050565b60008054905090565b600080543481151561021057fe5b0614151561021d57600080fd5b600080543481151561022b57fe5b049050806001600082825401925050819055506102466102f9565b60408051908101604052803373ffffffffffffffffffffffffffffffffffffffff1681526020018381525090506002819080600181540180825580915050906001820390600052602060002090600202016000909192909190915060008201518160000160006101000a81548173ffffffffffffffffffffffffffffffffffffffff021916908373ffffffffffffffffffffffffffffffffffffffff160217905550602082015181600101555050505050565b6040805190810160405280600073ffffffffffffffffffffffffffffffffffffffff168152602001600081525090565b600061033582356104ac565b905092915050565b60006020828403121561034f57600080fd5b600061035d84828501610329565b91505092915050565b61036f81610470565b82525050565b600061038082610458565b8084526020840193506103928361044b565b60005b828110156103c4576103a88683516103d0565b6103b182610463565b9150604086019550600181019050610395565b50849250505092915050565b6040820160008201516103e66000850182610366565b5060208201516103f960208501826103ff565b50505050565b610408816104a2565b82525050565b600060208201905081810360008301526104288184610375565b905092915050565b600060208201905061044560008301846103ff565b92915050565b6000602082019050919050565b600081519050919050565b6000602082019050919050565b600061047b82610482565b9050919050565b600073ffffffffffffffffffffffffffffffffffffffff82169050919050565b6000819050919050565b600081905091905056fea265627a7a72305820805058eb9f65796a092afd7b9df8f2ff2d1308d05131c39c5cb51cc173e605396c6578706572696d656e74616cf50037",
  "source": "pragma solidity >=0.4.21 <0.6.0;\npragma experimental ABIEncoderV2;\n\ncontract LuckeyLottery {\n\n  struct Entry {\n    address buyer;\n    uint quantity;\n  }\n\n  uint private lotteryPrice = 1e15;\n  uint private totalQuantity;\n  Entry[] private entries;\n\n  function setPrice (uint price) public {\n    lotteryPrice = price;\n  }\n\n  function getPrice () public view returns (uint) {\n    return lotteryPrice;\n  }\n\n  function buy () public payable {\n    require(msg.value % lotteryPrice == 0);\n\n    uint quantity = msg.value / lotteryPrice;\n    totalQuantity += quantity;\n\n    Entry memory entry = Entry(msg.sender, quantity);\n    entries.push(entry);\n  }\n\n  function getTotalQuantity () public view returns (uint) {\n    return totalQuantity;\n  }\n\n  function getEntries () public view returns (Entry[] memory) {\n    return entries;\n  }\n}",
  "sourcePath": "/Users/koikeshunpei/Dev/04_lottery/dapp/contracts/LockeyLottery.sol",
  "compiler": {
    "name": "solc",
    "version": "0.5.0+commit.1d4f565a.Emscripten.clang"
  },
  "schemaVersion": "3.0.9",
  "updatedAt": "2019-06-01T11:08:09.036Z",
  "devdoc": {
    "methods": {}
  },
  "userdoc": {
    "methods": {}
  }
}