{
  "contractName": "LuckeyLottery",
  "abi": [
    {
      "inputs": [
        {
          "name": "rand",
          "type": "uint256"
        }
      ],
      "payable": false,
      "stateMutability": "nonpayable",
      "type": "constructor"
    },
    {
      "anonymous": false,
      "inputs": [
        {
          "indexed": false,
          "name": "player",
          "type": "address"
        },
        {
          "indexed": false,
          "name": "value",
          "type": "uint256"
        },
        {
          "indexed": false,
          "name": "win",
          "type": "bool"
        },
        {
          "indexed": false,
          "name": "yourNumber",
          "type": "uint256"
        }
      ],
      "name": "Buy",
      "type": "event"
    },
    {
      "constant": false,
      "inputs": [
        {
          "name": "price",
          "type": "uint256"
        }
      ],
      "name": "setPrice",
      "outputs": [],
      "payable": false,
      "stateMutability": "nonpayable",
      "type": "function"
    },
    {
      "constant": true,
      "inputs": [],
      "name": "getPrice",
      "outputs": [
        {
          "name": "",
          "type": "uint256"
        }
      ],
      "payable": false,
      "stateMutability": "view",
      "type": "function"
    },
    {
      "constant": false,
      "inputs": [
        {
          "name": "introducer",
          "type": "address"
        }
      ],
      "name": "buy",
      "outputs": [],
      "payable": true,
      "stateMutability": "payable",
      "type": "function"
    },
    {
      "constant": true,
      "inputs": [],
      "name": "getTotalQuantity",
      "outputs": [
        {
          "name": "",
          "type": "uint256"
        }
      ],
      "payable": false,
      "stateMutability": "view",
      "type": "function"
    },
    {
      "constant": true,
      "inputs": [],
      "name": "getEntries",
      "outputs": [
        {
          "components": [
            {
              "name": "buyer",
              "type": "address"
            },
            {
              "name": "quantity",
              "type": "uint256"
            }
          ],
          "name": "",
          "type": "tuple[]"
        }
      ],
      "payable": false,
      "stateMutability": "view",
      "type": "function"
    },
    {
      "constant": true,
      "inputs": [],
      "name": "getDepositedAmount",
      "outputs": [
        {
          "name": "",
          "type": "uint256"
        }
      ],
      "payable": false,
      "stateMutability": "view",
      "type": "function"
    },
    {
      "constant": true,
      "inputs": [
        {
          "name": "num",
          "type": "uint256"
        }
      ],
      "name": "getNunber",
      "outputs": [
        {
          "name": "",
          "type": "bool"
        }
      ],
      "payable": false,
      "stateMutability": "view",
      "type": "function"
    },
    {
      "constant": true,
      "inputs": [
        {
          "name": "num",
          "type": "uint256"
        }
      ],
      "name": "getIntroducer",
      "outputs": [
        {
          "name": "",
          "type": "address"
        }
      ],
      "payable": false,
      "stateMutability": "view",
      "type": "function"
    }
  ],
  "bytecode": "0x608060405266038d7ea4c68000600055600060025534801561002057600080fd5b506040516020806109a8833981018060405261003f91908101906100df565b600061138890505b6113888110156100c4578181141561008a5760016004600083815260200190815260200160002060006101000a81548160ff0219169083151502179055506100b7565b60006004600083815260200190815260200160002060006101000a81548160ff0219169083151502179055505b8080600101915050610047565b5050610112565b60006100d78251610108565b905092915050565b6000602082840312156100f157600080fd5b60006100ff848285016100cb565b91505092915050565b6000819050919050565b610887806101216000396000f3fe60806040526004361061008e576000357c0100000000000000000000000000000000000000000000000000000000900463ffffffff16806317be85c314610093578063322ba9f3146100be5780635a8df222146100e957806373fe9fc1146101265780637474e3311461016357806391b7f5ed1461018e57806398d5fdca146101b7578063f088d547146101e2575b600080fd5b34801561009f57600080fd5b506100a86101fe565b6040516100b59190610724565b60405180910390f35b3480156100ca57600080fd5b506100d36102bd565b6040516100e09190610761565b60405180910390f35b3480156100f557600080fd5b50610110600480360361010b91908101906105c6565b6102c7565b60405161011d91906106c4565b60405180910390f35b34801561013257600080fd5b5061014d600480360361014891908101906105c6565b61030a565b60405161015a9190610746565b60405180910390f35b34801561016f57600080fd5b50610178610334565b6040516101859190610761565b60405180910390f35b34801561019a57600080fd5b506101b560048036036101b091908101906105c6565b61033e565b005b3480156101c357600080fd5b506101cc610348565b6040516101d99190610761565b60405180910390f35b6101fc60048036036101f7919081019061059d565b610351565b005b60606003805480602002602001604051908101604052809291908181526020016000905b828210156102b457838290600052602060002090600202016040805190810160405290816000820160009054906101000a900473ffffffffffffffffffffffffffffffffffffffff1673ffffffffffffffffffffffffffffffffffffffff1673ffffffffffffffffffffffffffffffffffffffff16815260200160018201548152505081526020019060010190610222565b50505050905090565b6000600254905090565b60006005828154811015156102d857fe5b9060005260206000200160009054906101000a900473ffffffffffffffffffffffffffffffffffffffff169050919050565b60006004600083815260200190815260200160002060009054906101000a900460ff169050919050565b6000600154905090565b8060008190555050565b60008054905090565b600080543481151561035f57fe5b0614151561036c57600080fd5b600080543481151561037a57fe5b04905080600160008282540192505081905550346002600082825401925050819055506103a5610545565b60408051908101604052803373ffffffffffffffffffffffffffffffffffffffff1681526020018381525090506003819080600181540180825580915050906001820390600052602060002090600202016000909192909190915060008201518160000160006101000a81548173ffffffffffffffffffffffffffffffffffffffff021916908373ffffffffffffffffffffffffffffffffffffffff160217905550602082015181600101555050503073ffffffffffffffffffffffffffffffffffffffff166108fc349081150290604051600060405180830381858888f1935050505015801561049a573d6000803e3d6000fd5b5060058390806001815401808255809150509060018203906000526020600020016000909192909190916101000a81548173ffffffffffffffffffffffffffffffffffffffff021916908373ffffffffffffffffffffffffffffffffffffffff160217905550507f0261151a7784321c0b49e79b25a33288d9ddeb79bde1de0842c27553200bff5c33346000600460405161053894939291906106df565b60405180910390a1505050565b6040805190810160405280600073ffffffffffffffffffffffffffffffffffffffff168152602001600081525090565b600061058182356107e9565b905092915050565b600061059582356107fb565b905092915050565b6000602082840312156105af57600080fd5b60006105bd84828501610575565b91505092915050565b6000602082840312156105d857600080fd5b60006105e684828501610589565b91505092915050565b6105f881610805565b82525050565b610607816107a1565b82525050565b600061061882610789565b80845260208401935061062a8361077c565b60005b8281101561065c57610640868351610686565b61064982610794565b915060408601955060018101905061062d565b50849250505092915050565b610671816107b3565b82525050565b61068081610817565b82525050565b60408201600082015161069c60008501826105fe565b5060208201516106af60208501826106b5565b50505050565b6106be816107df565b82525050565b60006020820190506106d960008301846105fe565b92915050565b60006080820190506106f460008301876105ef565b61070160208301866106b5565b61070e6040830185610668565b61071b6060830184610677565b95945050505050565b6000602082019050818103600083015261073e818461060d565b905092915050565b600060208201905061075b6000830184610668565b92915050565b600060208201905061077660008301846106b5565b92915050565b6000602082019050919050565b600081519050919050565b6000602082019050919050565b60006107ac826107bf565b9050919050565b60008115159050919050565b600073ffffffffffffffffffffffffffffffffffffffff82169050919050565b6000819050919050565b60006107f4826107bf565b9050919050565b6000819050919050565b600061081082610829565b9050919050565b6000610822826107df565b9050919050565b60006108348261083b565b9050919050565b6000610846826107bf565b905091905056fea265627a7a72305820184b86b5672ecbc3b3518b8351f7a0b680fd2b3d96fbb06adbfabface8bedd096c6578706572696d656e74616cf50037",
  "source": "pragma solidity >=0.4.21 <0.6.0;\npragma experimental ABIEncoderV2;\n\ncontract LuckeyLottery {\n\n  event Buy(\n    address player,\n    uint value,\n    bool win,\n    uint yourNumber\n  );\n\n  struct Entry {\n    address buyer;\n    uint quantity;\n  }\n\n  uint private lotteryPrice = 1e15;\n  uint private totalQuantity;\n  uint private depositedAmount = 0;\n  Entry[] private entries;\n\n  // This is the card of the winner;\n  mapping(uint => bool) numbers;\n\n  // If you enter the introducer, it is stocked.\n  address[] private introducers;\n\n  constructor (uint rand) public {\n    for (uint i = 5000; i < 5000; i++) {\n      if (i == rand) {\n        numbers[i] = true;\n      } else {\n        numbers[i] = false;\n      }\n    }\n  }\n\n  function setPrice (uint price) public {\n    lotteryPrice = price;\n  }\n\n  function getPrice () public view returns (uint) {\n    return lotteryPrice;\n  }\n\n  function buy (address introducer) public payable {\n    // add input due to create random number\n    // https://blockchain.gunosy.io/entry/prngs-in-smartcontract \n    require(msg.value % lotteryPrice == 0);\n\n    // TODO: should we choose the number of ticket?\n    uint quantity = msg.value / lotteryPrice;\n    totalQuantity += quantity;\n    depositedAmount += msg.value;\n\n    Entry memory entry = Entry(msg.sender, quantity);\n    entries.push(entry);\n\n    // TODO: roulet loginc\n\n    // Send ETH to contract address\n    address(uint160(address(this))).transfer(msg.value);\n\n    // Register introducer\n    introducers.push(introducer);\n\n    emit Buy(msg.sender, msg.value, false, 4);\n  }\n \n  function getTotalQuantity () public view returns (uint) {\n    return totalQuantity;\n  }\n\n  function getEntries () public view returns (Entry[] memory) {\n    return entries;\n  }\n\n  function getDepositedAmount () public view returns (uint) {\n    return depositedAmount;\n  }\n\n  function getNunber(uint num) public view returns (bool) {\n    return numbers[num];\n  }\n\n  function getIntroducer(uint num) public view returns (address) {\n    return introducers[num];\n  }\n}",
  "sourcePath": "/Users/koikeshunpei/Dev/04_lottery/dapp/contracts/LockeyLottery.sol",
  "compiler": {
    "name": "solc",
    "version": "0.5.0+commit.1d4f565a.Emscripten.clang"
  },
  "schemaVersion": "3.0.9",
  "updatedAt": "2019-06-07T15:32:52.052Z",
  "devdoc": {
    "methods": {}
  },
  "userdoc": {
    "methods": {}
  }
}