{
  "contractName": "LuckeyLottery",
  "abi": [
    {
      "constant": false,
      "inputs": [
        {
          "name": "player",
          "type": "address",
          "indexed": false
        },
        {
          "indexed": false,
          "name": "value",
          "type": "uint256"
        },
        {
          "indexed": false,
          "name": "random",
          "type": "bytes32"
        },
        {
          "indexed": false,
          "name": "randomInt",
          "type": "uint256"
        },
        {
          "indexed": false,
          "name": "judge",
          "type": "string"
        },
        {
          "indexed": false,
          "name": "win",
          "type": "bool"
        }
      ],
      "name": "Buy",
      "outputs": [],
      "payable": false,
      "stateMutability": "nonpayable",
      "type": "event",
      "anonymous": false
    },
    {
      "constant": false,
      "inputs": [
        {
          "name": "price",
          "type": "uint256"
        }
      ],
      "name": "setPrice",
      "outputs": [
        {
          "name": "",
          "type": "uint256"
        }
      ],
      "payable": false,
      "stateMutability": "nonpayable",
      "type": "function"
    },
    {
      "constant": true,
      "inputs": [],
      "name": "getPrice",
      "outputs": [
        {
          "name": "",
          "type": "uint256"
        }
      ],
      "payable": false,
      "stateMutability": "view",
      "type": "function"
    },
    {
      "constant": false,
      "inputs": [],
      "name": "buy",
      "outputs": [
        {
          "name": "",
          "type": "uint256"
        }
      ],
      "payable": true,
      "stateMutability": "payable",
      "type": "function"
    },
    {
      "constant": true,
      "inputs": [],
      "name": "getTotalQuantity",
      "outputs": [
        {
          "components": [
            {
              "name": "buyer",
              "type": "address"
            },
            {
              "name": "quantity",
              "type": "uint256"
            }
          ],
          "name": "",
          "type": "uint256"
        }
      ],
      "payable": false,
      "stateMutability": "view",
      "type": "function"
    },
    {
      "constant": true,
      "inputs": [],
      "name": "getEntries",
      "outputs": [
        {
          "name": "",
          "type": "tuple[]",
          "components": [
            {
              "name": "buyer",
              "type": "address"
            },
            {
              "name": "quantity",
              "type": "uint256"
            }
          ]
        }
      ],
      "payable": false,
      "stateMutability": "view",
      "type": "function"
    },
    {
      "constant": true,
      "inputs": [
        {
          "name": "_data",
          "type": "bytes32"
        }
      ],
      "name": "getDepositedAmount",
      "outputs": [
        {
          "components": [
            {
              "name": "buyer",
              "type": "address"
            },
            {
              "name": "quantity",
              "type": "uint256"
            }
          ],
          "name": "",
          "type": "uint256"
        }
      ],
      "payable": false,
      "stateMutability": "view",
      "type": "function"
    },
    {
      "constant": true,
      "inputs": [
        {
          "name": "_data",
          "type": "bytes32"
        }
      ],
      "name": "toBytes",
      "outputs": [
        {
          "name": "",
          "type": "bytes"
        }
      ],
      "payable": false,
      "stateMutability": "pure",
      "type": "function"
    }
  ],
  "bytecode": "0x608060405266038d7ea4c68000600055600060025534801561002057600080fd5b50610a23806100306000396000f3fe608060405260043610610083576000357c0100000000000000000000000000000000000000000000000000000000900463ffffffff16806317be85c314610088578063322ba9f3146100b3578063326cf61c146100de5780637474e3311461011b57806391b7f5ed1461014657806398d5fdca1461016f578063a6f2ae3a1461019a575b600080fd5b34801561009457600080fd5b5061009d6101a4565b6040516100aa919061086f565b60405180910390f35b3480156100bf57600080fd5b506100c8610263565b6040516100d591906108b3565b60405180910390f35b3480156100ea57600080fd5b5061010560048036036101009190810190610674565b61026d565b6040516101129190610891565b60405180910390f35b34801561012757600080fd5b50610130610296565b60405161013d91906108b3565b60405180910390f35b34801561015257600080fd5b5061016d6004803603610168919081019061069d565b6102a0565b005b34801561017b57600080fd5b506101846102aa565b60405161019191906108b3565b60405180910390f35b6101a26102b3565b005b60606003805480602002602001604051908101604052809291908181526020016000905b8282101561025a57838290600052602060002090600202016040805190810160405290816000820160009054906101000a900473ffffffffffffffffffffffffffffffffffffffff1673ffffffffffffffffffffffffffffffffffffffff1673ffffffffffffffffffffffffffffffffffffffff168152602001600182015481525050815260200190600101906101c8565b50505050905090565b6000600254905090565b606081604051602001808281526020019150506040516020818303038152906040529050919050565b6000600154905090565b8060008190555050565b60008054905090565b60008054348115156102c157fe5b061415156102ce57600080fd5b60008054348115156102dc57fe5b04905080600160008282540192505081905550346002600082825401925050819055506103076105d1565b60408051908101604052803373ffffffffffffffffffffffffffffffffffffffff1681526020018381525090506003819080600181540180825580915050906001820390600052602060002090600202016000909192909190915060008201518160000160006101000a81548173ffffffffffffffffffffffffffffffffffffffff021916908373ffffffffffffffffffffffffffffffffffffffff1602179055506020820151816001015550505060006103c0610421565b905060008160019004905060606103d68361044d565b90507f21eba0eb590a1eb95773d5aa25b9223881e390cc66064f8f9a0e2479bd900c953334858585600060405161041296959493929190610807565b60405180910390a15050505050565b6000806001430340905060606104368261026d565b905060008180519060200120905080935050505090565b606060006064836001900481151561046157fe5b06905061046c610601565b606060405190810160405280603c60ff168152602001601e60ff168152602001600a60ff16815250905061049e610624565b6060604051908101604052806040805190810160405280600181526020017f410000000000000000000000000000000000000000000000000000000000000081525081526020016040805190810160405280600181526020017f420000000000000000000000000000000000000000000000000000000000000081525081526020016040805190810160405280600181526020017f43000000000000000000000000000000000000000000000000000000000000008152508152509050600080905060008090505b60038160ff1610156105c657838160ff1660038110151561058357fe5b602002015160ff1682019150818510156105b957828160ff166003811015156105a857fe5b6020020151955050505050506105cc565b8080600101915050610566565b50505050505b919050565b6040805190810160405280600073ffffffffffffffffffffffffffffffffffffffff168152602001600081525090565b606060405190810160405280600390602082028038833980820191505090505090565b6060604051908101604052806003905b60608152602001906001900390816106345790505090565b6000610658823561095b565b905092915050565b600061066c8235610965565b905092915050565b60006020828403121561068657600080fd5b60006106948482850161064c565b91505092915050565b6000602082840312156106af57600080fd5b60006106bd84828501610660565b91505092915050565b6106cf8161096f565b82525050565b6106de81610909565b82525050565b60006106ef826108db565b808452602084019350610701836108ce565b60005b82811015610733576107178683516107c9565b610720826108fc565b9150604086019550600181019050610704565b50849250505092915050565b6107488161091b565b82525050565b61075781610927565b82525050565b6000610768826108e6565b80845261077c8160208601602086016109a5565b610785816109d8565b602085010191505092915050565b600061079e826108f1565b8084526107b28160208601602086016109a5565b6107bb816109d8565b602085010191505092915050565b6040820160008201516107df60008501826106d5565b5060208201516107f260208501826107f8565b50505050565b61080181610951565b82525050565b600060c08201905061081c60008301896106c6565b61082960208301886107f8565b610836604083018761074e565b61084360608301866107f8565b81810360808301526108558185610793565b905061086460a083018461073f565b979650505050505050565b6000602082019050818103600083015261088981846106e4565b905092915050565b600060208201905081810360008301526108ab818461075d565b905092915050565b60006020820190506108c860008301846107f8565b92915050565b6000602082019050919050565b600081519050919050565b600081519050919050565b600081519050919050565b6000602082019050919050565b600061091482610931565b9050919050565b60008115159050919050565b6000819050919050565b600073ffffffffffffffffffffffffffffffffffffffff82169050919050565b6000819050919050565b6000819050919050565b6000819050919050565b600061097a82610981565b9050919050565b600061098c82610993565b9050919050565b600061099e82610931565b9050919050565b60005b838110156109c35780820151818401526020810190506109a8565b838111156109d2576000848401525b50505050565b6000601f19601f830116905091905056fea265627a7a723058202bae2e951a73f9fb6ef8ead82359178d3a066973a22451a7009b5c26838cffa06c6578706572696d656e74616cf50037",
  "source": "pragma solidity >=0.4.21 <0.6.0;\npragma experimental ABIEncoderV2;\n\ncontract LuckeyLottery {\n\n  event Buy (\n    address player,\n    uint value,\n    bytes32 random,\n    uint randomInt,\n    string judge,\n    bool win\n  );\n\n  struct Entry {\n    address buyer;\n    uint quantity;\n  }\n\n  uint private lotteryPrice = 1e15;\n  uint private totalQuantity;\n  uint private depositedAmount = 0;\n  Entry[] private entries;\n\n  function setPrice (uint price) public {\n    lotteryPrice = price;\n  }\n\n  function getPrice () public view returns (uint) {\n    return lotteryPrice;\n  }\n\n  function buy () public payable {\n    // add input due to create random number\n    // https://blockchain.gunosy.io/entry/prngs-in-smartcontract \n    require(msg.value % lotteryPrice == 0);\n\n    uint quantity = msg.value / lotteryPrice;\n    totalQuantity += quantity;\n    depositedAmount += msg.value;\n\n    Entry memory entry = Entry(msg.sender, quantity);\n    entries.push(entry);\n\n    bytes32 rand = getRand();\n    uint randInt = uint(rand);\n    string memory judge = judge(rand);\n    emit Buy(msg.sender, msg.value, rand, randInt, judge, false);\n  }\n\n  function getRand () private view returns (bytes32) {\n    bytes32 blockhash32 = blockhash(block.number - 1);\n    bytes memory blockhashbyte = toBytes(blockhash32);\n    bytes32 rand = keccak256(blockhashbyte);\n    return rand;\n  }\n\n  function judge (bytes32 rand) private pure returns (string memory) {\n    uint randInt = uint(rand) % 100;\n    uint8[3] memory probabilities = [60, 30, 10];\n    string[3] memory rewards = [\"A\", \"B\", \"C\"];\n\n    uint tempSum = 0;\n    for (uint8 i = 0; i < probabilities.length; i++) {\n      tempSum += probabilities[i];\n      if (randInt < tempSum) {\n        return rewards[i];\n      }\n    }\n  }\n\n  function getTotalQuantity () public view returns (uint) {\n    return totalQuantity;\n  }\n\n  function getEntries () public view returns (Entry[] memory) {\n    return entries;\n  }\n\n  function getDepositedAmount () public view returns (uint) {\n    return depositedAmount;\n  }\n\n  function toBytes(bytes32 _data) public pure returns (bytes memory) {\n    return abi.encodePacked(_data);\n  }\n}",
  "sourcePath": "/Users/koikeshunpei/Dev/04_lottery/dapp/contracts/LockeyLottery.sol",
  "compiler": {
    "name": "solc",
    "version": "0.5.0+commit.1d4f565a.Emscripten.clang"
  },
  "schemaVersion": "3.0.9",
  "updatedAt": "2019-06-02T12:30:26.237Z",
  "devdoc": {
    "methods": {}
  },
  "userdoc": {
    "methods": {}
  }
}