{
  "contractName": "LuckeyLottery",
  "abi": [
    {
      "constant": false,
      "inputs": [
        {
          "name": "player",
          "type": "address",
          "indexed": false
        },
        {
          "indexed": false,
          "name": "value",
          "type": "uint256"
        },
        {
          "indexed": false,
          "name": "random",
          "type": "bytes32"
        },
        {
          "indexed": false,
          "name": "randomInt",
          "type": "uint256"
        },
        {
          "indexed": false,
          "name": "win",
          "type": "bool"
        }
      ],
      "name": "Buy",
      "outputs": [],
      "payable": false,
      "stateMutability": "nonpayable",
      "type": "event",
      "anonymous": false
    },
    {
      "constant": false,
      "inputs": [
        {
          "name": "price",
          "type": "uint256"
        }
      ],
      "name": "setPrice",
      "outputs": [
        {
          "name": "",
          "type": "uint256"
        }
      ],
      "payable": false,
      "stateMutability": "nonpayable",
      "type": "function"
    },
    {
      "constant": true,
      "inputs": [],
      "name": "getPrice",
      "outputs": [
        {
          "name": "",
          "type": "uint256"
        }
      ],
      "payable": false,
      "stateMutability": "view",
      "type": "function"
    },
    {
      "constant": false,
      "inputs": [],
      "name": "buy",
      "outputs": [
        {
          "name": "",
          "type": "uint256"
        }
      ],
      "payable": true,
      "stateMutability": "payable",
      "type": "function"
    },
    {
      "constant": true,
      "inputs": [],
      "name": "getRand",
      "outputs": [
        {
          "components": [
            {
              "name": "buyer",
              "type": "address"
            },
            {
              "name": "quantity",
              "type": "uint256"
            }
          ],
          "name": "",
          "type": "bytes32"
        }
      ],
      "payable": false,
      "stateMutability": "view",
      "type": "function"
    },
    {
      "constant": true,
      "inputs": [],
      "name": "getTotalQuantity",
      "outputs": [
        {
          "name": "",
          "type": "uint256"
        }
      ],
      "payable": false,
      "stateMutability": "view",
      "type": "function"
    },
    {
      "constant": true,
      "inputs": [],
      "name": "getEntries",
      "outputs": [
        {
          "components": [
            {
              "name": "buyer",
              "type": "address"
            },
            {
              "name": "quantity",
              "type": "uint256"
            }
          ],
          "name": "",
          "type": "tuple[]"
        }
      ],
      "payable": false,
      "stateMutability": "view",
      "type": "function"
    },
    {
      "constant": true,
      "inputs": [
        {
          "name": "_data",
          "type": "bytes32"
        }
      ],
      "name": "toBytes",
      "outputs": [
        {
          "name": "",
          "type": "bytes"
        }
      ],
      "payable": false,
      "stateMutability": "pure",
      "type": "function"
    }
  ],
  "bytecode": "0x608060405266038d7ea4c6800060005534801561001b57600080fd5b506107ef8061002b6000396000f3fe608060405260043610610083576000357c0100000000000000000000000000000000000000000000000000000000900463ffffffff16806317be85c314610088578063326cf61c146100b3578063600bc4ea146100f05780637474e3311461011b57806391b7f5ed1461014657806398d5fdca1461016f578063a6f2ae3a1461019a575b600080fd5b34801561009457600080fd5b5061009d6101a4565b6040516100aa919061062b565b60405180910390f35b3480156100bf57600080fd5b506100da60048036036100d5919081019061047b565b610263565b6040516100e79190610668565b60405180910390f35b3480156100fc57600080fd5b5061010561028c565b604051610112919061064d565b60405180910390f35b34801561012757600080fd5b506101306102b8565b60405161013d919061068a565b60405180910390f35b34801561015257600080fd5b5061016d600480360361016891908101906104a4565b6102c2565b005b34801561017b57600080fd5b506101846102cc565b604051610191919061068a565b60405180910390f35b6101a26102d5565b005b60606002805480602002602001604051908101604052809291908181526020016000905b8282101561025a57838290600052602060002090600202016040805190810160405290816000820160009054906101000a900473ffffffffffffffffffffffffffffffffffffffff1673ffffffffffffffffffffffffffffffffffffffff1673ffffffffffffffffffffffffffffffffffffffff168152602001600182015481525050815260200190600101906101c8565b50505050905090565b606081604051602001808281526020019150506040516020818303038152906040529050919050565b6000806001430340905060606102a182610263565b905060008180519060200120905080935050505090565b6000600154905090565b8060008190555050565b60008054905090565b60008054348115156102e357fe5b061415156102f057600080fd5b60008054348115156102fe57fe5b04905080600160008282540192505081905550610319610423565b60408051908101604052803373ffffffffffffffffffffffffffffffffffffffff1681526020018381525090506002819080600181540180825580915050906001820390600052602060002090600202016000909192909190915060008201518160000160006101000a81548173ffffffffffffffffffffffffffffffffffffffff021916908373ffffffffffffffffffffffffffffffffffffffff1602179055506020820151816001015550505060006103d261028c565b90506000816001900490507f08ce6ff99618f7daf4586c223420c2b952ae2ec8db88501fd9a0f91153f75ba43334848460006040516104159594939291906105d8565b60405180910390a150505050565b6040805190810160405280600073ffffffffffffffffffffffffffffffffffffffff168152602001600081525090565b600061045f8235610727565b905092915050565b60006104738235610731565b905092915050565b60006020828403121561048d57600080fd5b600061049b84828501610453565b91505092915050565b6000602082840312156104b657600080fd5b60006104c484828501610467565b91505092915050565b6104d68161073b565b82525050565b6104e5816106d5565b82525050565b60006104f6826106b2565b808452602084019350610508836106a5565b60005b8281101561053a5761051e86835161059a565b610527826106c8565b915060408601955060018101905061050b565b50849250505092915050565b61054f816106e7565b82525050565b61055e816106f3565b82525050565b600061056f826106bd565b808452610583816020860160208601610771565b61058c816107a4565b602085010191505092915050565b6040820160008201516105b060008501826104dc565b5060208201516105c360208501826105c9565b50505050565b6105d28161071d565b82525050565b600060a0820190506105ed60008301886104cd565b6105fa60208301876105c9565b6106076040830186610555565b61061460608301856105c9565b6106216080830184610546565b9695505050505050565b6000602082019050818103600083015261064581846104eb565b905092915050565b60006020820190506106626000830184610555565b92915050565b600060208201905081810360008301526106828184610564565b905092915050565b600060208201905061069f60008301846105c9565b92915050565b6000602082019050919050565b600081519050919050565b600081519050919050565b6000602082019050919050565b60006106e0826106fd565b9050919050565b60008115159050919050565b6000819050919050565b600073ffffffffffffffffffffffffffffffffffffffff82169050919050565b6000819050919050565b6000819050919050565b6000819050919050565b60006107468261074d565b9050919050565b60006107588261075f565b9050919050565b600061076a826106fd565b9050919050565b60005b8381101561078f578082015181840152602081019050610774565b8381111561079e576000848401525b50505050565b6000601f19601f830116905091905056fea265627a7a723058202f9fe6fd7d48cc2f7b671762fb6134fd1f20ef133b92fd6820125e4e71756b586c6578706572696d656e74616cf50037",
  "source": "pragma solidity >=0.4.21 <0.6.0;\npragma experimental ABIEncoderV2;\n\ncontract LuckeyLottery {\n\n  event Buy (\n    address player,\n    uint value,\n    bytes32 random,\n    uint randomInt,\n    bool win\n  );\n\n  struct Entry {\n    address buyer;\n    uint quantity;\n  }\n\n  uint private lotteryPrice = 1e15;\n  uint private totalQuantity;\n  Entry[] private entries;\n\n  function setPrice (uint price) public {\n    lotteryPrice = price;\n  }\n\n  function getPrice () public view returns (uint) {\n    return lotteryPrice;\n  }\n\n  function buy () public payable {\n    // add input due to create random number\n    // https://blockchain.gunosy.io/entry/prngs-in-smartcontract \n    require(msg.value % lotteryPrice == 0);\n\n    uint quantity = msg.value / lotteryPrice;\n    totalQuantity += quantity;\n\n    Entry memory entry = Entry(msg.sender, quantity);\n    entries.push(entry);\n\n    bytes32 rand = getRand();\n    uint randInt = uint(rand);\n    emit Buy(msg.sender, msg.value, rand, randInt, false);\n  }\n\n  function getRand () public view returns (bytes32) {\n    bytes32 blockhash32 = blockhash(block.number - 1);\n    bytes memory blockhashbyte = toBytes(blockhash32);\n    bytes32 rand = keccak256(blockhashbyte);\n    return rand;\n  }\n\n  function getTotalQuantity () public view returns (uint) {\n    return totalQuantity;\n  }\n\n  function getEntries () public view returns (Entry[] memory) {\n    return entries;\n  }\n\n  function toBytes(bytes32 _data) public pure returns (bytes memory) {\n    return abi.encodePacked(_data);\n  }\n}",
  "sourcePath": "/Users/koikeshunpei/Dev/04_lottery/dapp/contracts/LockeyLottery.sol",
  "compiler": {
    "name": "solc",
    "version": "0.5.0+commit.1d4f565a.Emscripten.clang"
  },
  "schemaVersion": "3.0.9",
  "updatedAt": "2019-06-02T09:56:05.819Z",
  "devdoc": {
    "methods": {}
  },
  "userdoc": {
    "methods": {}
  }
}