{
  "contractName": "ContinuousLottery",
  "abi": [
    {
      "constant": true,
      "inputs": [],
      "name": "duration",
      "outputs": [
        {
          "name": "",
          "type": "uint256"
        }
      ],
      "payable": false,
      "stateMutability": "view",
      "type": "function"
    },
    {
      "constant": true,
      "inputs": [],
      "name": "round",
      "outputs": [
        {
          "name": "",
          "type": "uint256"
        }
      ],
      "payable": false,
      "stateMutability": "view",
      "type": "function"
    },
    {
      "constant": true,
      "inputs": [],
      "name": "TICKET_PRICE",
      "outputs": [
        {
          "name": "",
          "type": "uint256"
        }
      ],
      "payable": false,
      "stateMutability": "view",
      "type": "function"
    },
    {
      "constant": true,
      "inputs": [
        {
          "name": "",
          "type": "address"
        }
      ],
      "name": "balances",
      "outputs": [
        {
          "name": "",
          "type": "uint256"
        }
      ],
      "payable": false,
      "stateMutability": "view",
      "type": "function"
    },
    {
      "constant": true,
      "inputs": [
        {
          "name": "",
          "type": "uint256"
        }
      ],
      "name": "rounds",
      "outputs": [
        {
          "name": "endBlock",
          "type": "uint256"
        },
        {
          "name": "drawBlock",
          "type": "uint256"
        },
        {
          "name": "totalQuantity",
          "type": "uint256"
        },
        {
          "name": "winner",
          "type": "address"
        }
      ],
      "payable": false,
      "stateMutability": "view",
      "type": "function"
    },
    {
      "inputs": [
        {
          "name": "_duration",
          "type": "uint256"
        }
      ],
      "payable": false,
      "stateMutability": "nonpayable",
      "type": "constructor"
    },
    {
      "payable": true,
      "stateMutability": "payable",
      "type": "fallback"
    },
    {
      "constant": false,
      "inputs": [],
      "name": "buy",
      "outputs": [],
      "payable": true,
      "stateMutability": "payable",
      "type": "function"
    },
    {
      "constant": false,
      "inputs": [
        {
          "name": "roundNumber",
          "type": "uint256"
        }
      ],
      "name": "drawWinner",
      "outputs": [],
      "payable": false,
      "stateMutability": "nonpayable",
      "type": "function"
    },
    {
      "constant": false,
      "inputs": [],
      "name": "withdraw",
      "outputs": [],
      "payable": false,
      "stateMutability": "nonpayable",
      "type": "function"
    },
    {
      "constant": false,
      "inputs": [
        {
          "name": "_round",
          "type": "uint256"
        }
      ],
      "name": "deleteRound",
      "outputs": [],
      "payable": false,
      "stateMutability": "nonpayable",
      "type": "function"
    },
    {
      "constant": true,
      "inputs": [
        {
          "name": "_data",
          "type": "bytes32"
        }
      ],
      "name": "toBytes",
      "outputs": [
        {
          "name": "",
          "type": "bytes"
        }
      ],
      "payable": false,
      "stateMutability": "pure",
      "type": "function"
    }
  ],
  "bytecode": "0x608060405234801561001057600080fd5b50604051602080610b388339810180604052602081101561003057600080fd5b810190808051906020019092919050505080600281905550600180819055506002544301600080600154815260200190815260200160002060000181905550600560025443010160008060015481526020019081526020016000206001018190555050610a96806100a26000396000f3fe6080604052600436106100a4576000357c0100000000000000000000000000000000000000000000000000000000900463ffffffff1680630fb5a6b4146100ae578063146ca531146100d95780631a95f15f1461010457806327e235e31461012f578063326cf61c146101945780633b9c0fdc146102485780633ccfd60b1461028357806360b2a56a1461029a5780638c65c81f146102d5578063a6f2ae3a14610365575b6100ac61036f565b005b3480156100ba57600080fd5b506100c361050f565b6040518082815260200191505060405180910390f35b3480156100e557600080fd5b506100ee610515565b6040518082815260200191505060405180910390f35b34801561011057600080fd5b5061011961051b565b6040518082815260200191505060405180910390f35b34801561013b57600080fd5b5061017e6004803603602081101561015257600080fd5b81019080803573ffffffffffffffffffffffffffffffffffffffff169060200190929190505050610526565b6040518082815260200191505060405180910390f35b3480156101a057600080fd5b506101cd600480360360208110156101b757600080fd5b810190808035906020019092919050505061053e565b6040518080602001828103825283818151815260200191508051906020019080838360005b8381101561020d5780820151818401526020810190506101f2565b50505050905090810190601f16801561023a5780820380516001836020036101000a031916815260200191505b509250505060405180910390f35b34801561025457600080fd5b506102816004803603602081101561026b57600080fd5b8101908080359060200190929190505050610567565b005b34801561028f57600080fd5b50610298610665565b005b3480156102a657600080fd5b506102d3600480360360208110156102bd57600080fd5b8101908080359060200190929190505050610738565b005b3480156102e157600080fd5b5061030e600480360360208110156102f857600080fd5b8101908080359060200190929190505050610978565b604051808581526020018481526020018381526020018273ffffffffffffffffffffffffffffffffffffffff1673ffffffffffffffffffffffffffffffffffffffff16815260200194505050505060405180910390f35b61036d61036f565b005b600066038d7ea4c680003481151561038357fe5b0614151561039057600080fd5b6000806001548152602001908152602001600020600001544311156104035760018060008282540192505081905550600254430160008060015481526020019081526020016000206000018190555060056002544301016000806001548152602001908152602001600020600101819055505b600066038d7ea4c680003481151561041757fe5b0490506104226109c8565b60408051908101604052803373ffffffffffffffffffffffffffffffffffffffff1681526020018381525090506000806001548152602001908152602001600020600201819080600181540180825580915050906001820390600052602060002090600202016000909192909190915060008201518160000160006101000a81548173ffffffffffffffffffffffffffffffffffffffff021916908373ffffffffffffffffffffffffffffffffffffffff16021790555060208201518160010155505050816000806001548152602001908152602001600020600301600082825401925050819055505050565b60025481565b60015481565b66038d7ea4c6800081565b60036020528060005260406000206000915090505481565b606081604051602001808281526020019150506040516020818303038152906040529050919050565b606460008083815260200190815260200160002060010154014311151561058d57600080fd5b600073ffffffffffffffffffffffffffffffffffffffff1660008083815260200190815260200160002060040160009054906101000a900473ffffffffffffffffffffffffffffffffffffffff1673ffffffffffffffffffffffffffffffffffffffff16141515156105fe57600080fd5b600080828152602001908152602001600020600080820160009055600182016000905560028201600061063191906109f8565b60038201600090556004820160006101000a81549073ffffffffffffffffffffffffffffffffffffffff0219169055505050565b6000600360003373ffffffffffffffffffffffffffffffffffffffff1673ffffffffffffffffffffffffffffffffffffffff1681526020019081526020016000205490506000600360003373ffffffffffffffffffffffffffffffffffffffff1673ffffffffffffffffffffffffffffffffffffffff168152602001908152602001600020819055503373ffffffffffffffffffffffffffffffffffffffff166108fc829081150290604051600060405180830381858888f19350505050158015610734573d6000803e3d6000fd5b5050565b60008060008381526020019081526020016000209050600073ffffffffffffffffffffffffffffffffffffffff168160040160009054906101000a900473ffffffffffffffffffffffffffffffffffffffff1673ffffffffffffffffffffffffffffffffffffffff161415156107ad57600080fd5b8060010154431115156107bf57600080fd5b600081600201805490501115156107d557600080fd5b60006001430340905060606107e98261053e565b905060008180519060200120905060008460030154826001900481151561080c57fe5b06905060008090505b85600201805490508110156108f1576000866002018281548110151561083757fe5b9060005260206000209060020201600101549050828111156108de57866002018281548110151561086457fe5b906000526020600020906002020160000160009054906101000a900473ffffffffffffffffffffffffffffffffffffffff168760040160006101000a81548173ffffffffffffffffffffffffffffffffffffffff021916908373ffffffffffffffffffffffffffffffffffffffff160217905550506108f1565b8083039250508080600101915050610815565b50846003015466038d7ea4c6800002600360008760040160009054906101000a900473ffffffffffffffffffffffffffffffffffffffff1673ffffffffffffffffffffffffffffffffffffffff1673ffffffffffffffffffffffffffffffffffffffff16815260200190815260200160002060008282540192505081905550505050505050565b60006020528060005260406000206000915090508060000154908060010154908060030154908060040160009054906101000a900473ffffffffffffffffffffffffffffffffffffffff16905084565b6040805190810160405280600073ffffffffffffffffffffffffffffffffffffffff168152602001600081525090565b5080546000825560020290600052602060002090810190610a199190610a1c565b50565b610a6791905b80821115610a6357600080820160006101000a81549073ffffffffffffffffffffffffffffffffffffffff0219169055600182016000905550600201610a22565b5090565b9056fea165627a7a72305820bed5e84369eb2a14a798fe63e3ee37f115542eb19f6aa56e49be6fcf3beaf1f30029",
  "source": "pragma solidity >=0.4.21 <0.6.0;\n\ncontract ContinuousLottery {\n  struct Round {\n    uint endBlock;\n    uint drawBlock;\n    Entry[] entries;\n    uint totalQuantity;\n    address winner;\n  }\n  struct Entry {\n    address buyer;\n    uint quantity;\n  }\n  uint constant public TICKET_PRICE = 1e15;\n\n  mapping(uint => Round) public rounds;\n  uint public round;\n  uint public duration;\n  mapping (address => uint) public balances;\n\n  constructor (uint _duration) public {\n    duration = _duration;\n    round = 1;\n    rounds[round].endBlock = block.number + duration;\n    rounds[round].drawBlock = block.number + duration + 5;\n  }\n\n  function buy () payable public {\n    require(msg.value % TICKET_PRICE == 0);\n\n    if (block.number > rounds[round].endBlock) {\n      round += 1;\n      rounds[round].endBlock = block.number + duration;\n      rounds[round].drawBlock = block.number + duration + 5;\n    }\n\n    uint quantity = msg.value / TICKET_PRICE;\n    Entry memory entry = Entry(msg.sender, quantity);\n    rounds[round].entries.push(entry);\n    rounds[round].totalQuantity += quantity;\n  }\n\n  function drawWinner (uint roundNumber) public {\n    Round storage drawing = rounds[roundNumber];\n    require(drawing.winner == address(0));\n    require(block.number > drawing.drawBlock);\n    require(drawing.entries.length > 0);\n\n    bytes32 blockhash32 = blockhash(block.number -1);\n    bytes memory blockhash = toBytes(blockhash32);\n    bytes32 rand = keccak256(blockhash);\n    uint counter = uint(rand) % drawing.totalQuantity;\n    for (uint i=0; i < drawing.entries.length; i++) {\n      uint quantity = drawing.entries[i].quantity;\n      if (quantity > counter) {\n        drawing.winner = drawing.entries[i].buyer;\n        break;\n      }\n      else {\n        counter -= quantity;\n      }\n    }\n    balances[drawing.winner] += TICKET_PRICE * drawing.totalQuantity;\n  }\n\n  function withdraw () public {\n    uint amount = balances[msg.sender];\n    balances[msg.sender] = 0;\n    msg.sender.transfer(amount);\n  }\n\n  function deleteRound (uint _round) public {\n    require(block.number > rounds[_round].drawBlock + 100);\n    require(rounds[_round].winner != address(0));\n    delete rounds[_round];\n  }\n\n  function () payable external {\n    buy();\n  }\n\n  function toBytes(bytes32 _data) public pure returns (bytes memory) {\n    return abi.encodePacked(_data);\n  }\n}",
  "sourcePath": "/Users/koikeshunpei/Dev/04_lottery/dapp/contracts/ContinuousLottery.sol",
  "compiler": {
    "name": "solc",
    "version": "0.5.0+commit.1d4f565a.Emscripten.clang"
  },
  "schemaVersion": "3.0.9",
  "updatedAt": "2019-06-09T15:25:58.744Z",
  "devdoc": {
    "methods": {}
  },
  "userdoc": {
    "methods": {}
  }
}