{
  "contractName": "DreamTicket",
  "abi": [
    {
      "constant": false,
      "inputs": [],
      "name": "renounceOwnership",
      "outputs": [],
      "payable": false,
      "stateMutability": "nonpayable",
      "type": "function"
    },
    {
      "constant": true,
      "inputs": [],
      "name": "owner",
      "outputs": [
        {
          "name": "",
          "type": "address"
        }
      ],
      "payable": false,
      "stateMutability": "view",
      "type": "function"
    },
    {
      "constant": true,
      "inputs": [],
      "name": "isOwner",
      "outputs": [
        {
          "name": "",
          "type": "bool"
        }
      ],
      "payable": false,
      "stateMutability": "view",
      "type": "function"
    },
    {
      "constant": false,
      "inputs": [
        {
          "name": "newOwner",
          "type": "address"
        }
      ],
      "name": "transferOwnership",
      "outputs": [],
      "payable": false,
      "stateMutability": "nonpayable",
      "type": "function"
    },
    {
      "inputs": [],
      "payable": false,
      "stateMutability": "nonpayable",
      "type": "constructor"
    },
    {
      "anonymous": false,
      "inputs": [
        {
          "indexed": false,
          "name": "buyer",
          "type": "address"
        }
      ],
      "name": "Buy",
      "type": "event"
    },
    {
      "anonymous": false,
      "inputs": [
        {
          "indexed": true,
          "name": "previousOwner",
          "type": "address"
        },
        {
          "indexed": true,
          "name": "newOwner",
          "type": "address"
        }
      ],
      "name": "OwnershipTransferred",
      "type": "event"
    },
    {
      "constant": false,
      "inputs": [
        {
          "name": "_num",
          "type": "uint256"
        },
        {
          "name": "_passcode",
          "type": "uint256"
        }
      ],
      "name": "buy",
      "outputs": [],
      "payable": true,
      "stateMutability": "payable",
      "type": "function"
    },
    {
      "constant": false,
      "inputs": [
        {
          "name": "_num",
          "type": "uint256"
        },
        {
          "name": "_passcode",
          "type": "uint256"
        },
        {
          "name": "_introducer",
          "type": "address"
        }
      ],
      "name": "buyWithIntroducer",
      "outputs": [],
      "payable": true,
      "stateMutability": "payable",
      "type": "function"
    },
    {
      "constant": true,
      "inputs": [
        {
          "name": "_user",
          "type": "address"
        },
        {
          "name": "_num",
          "type": "uint256"
        },
        {
          "name": "_passcode",
          "type": "uint256"
        }
      ],
      "name": "createCommitment",
      "outputs": [
        {
          "name": "",
          "type": "bytes32"
        }
      ],
      "payable": false,
      "stateMutability": "pure",
      "type": "function"
    },
    {
      "constant": false,
      "inputs": [
        {
          "name": "_num",
          "type": "uint256"
        },
        {
          "name": "_passcode",
          "type": "uint256"
        }
      ],
      "name": "reveal",
      "outputs": [],
      "payable": false,
      "stateMutability": "nonpayable",
      "type": "function"
    },
    {
      "constant": false,
      "inputs": [],
      "name": "drawWinner",
      "outputs": [],
      "payable": false,
      "stateMutability": "nonpayable",
      "type": "function"
    },
    {
      "constant": true,
      "inputs": [
        {
          "name": "_user",
          "type": "address"
        }
      ],
      "name": "getIntroducedCount",
      "outputs": [
        {
          "name": "",
          "type": "uint256"
        }
      ],
      "payable": false,
      "stateMutability": "view",
      "type": "function"
    },
    {
      "constant": true,
      "inputs": [],
      "name": "getRound",
      "outputs": [
        {
          "name": "",
          "type": "uint256"
        }
      ],
      "payable": false,
      "stateMutability": "view",
      "type": "function"
    },
    {
      "constant": true,
      "inputs": [],
      "name": "getBuyCount",
      "outputs": [
        {
          "name": "",
          "type": "uint256"
        }
      ],
      "payable": false,
      "stateMutability": "view",
      "type": "function"
    },
    {
      "constant": true,
      "inputs": [],
      "name": "getRevealCount",
      "outputs": [
        {
          "name": "",
          "type": "uint256"
        }
      ],
      "payable": false,
      "stateMutability": "view",
      "type": "function"
    },
    {
      "constant": true,
      "inputs": [
        {
          "name": "_num",
          "type": "uint256"
        }
      ],
      "name": "getAddress",
      "outputs": [
        {
          "name": "",
          "type": "address"
        }
      ],
      "payable": false,
      "stateMutability": "view",
      "type": "function"
    },
    {
      "constant": true,
      "inputs": [
        {
          "name": "_address",
          "type": "address"
        }
      ],
      "name": "getNumbers",
      "outputs": [
        {
          "name": "",
          "type": "uint256[]"
        }
      ],
      "payable": false,
      "stateMutability": "view",
      "type": "function"
    },
    {
      "constant": false,
      "inputs": [],
      "name": "nextTerm",
      "outputs": [],
      "payable": false,
      "stateMutability": "nonpayable",
      "type": "function"
    },
    {
      "constant": true,
      "inputs": [],
      "name": "getTerm",
      "outputs": [
        {
          "name": "",
          "type": "uint8"
        }
      ],
      "payable": false,
      "stateMutability": "view",
      "type": "function"
    },
    {
      "constant": true,
      "inputs": [],
      "name": "getWinner",
      "outputs": [
        {
          "name": "",
          "type": "address"
        }
      ],
      "payable": false,
      "stateMutability": "view",
      "type": "function"
    },
    {
      "constant": true,
      "inputs": [
        {
          "name": "_from",
          "type": "uint256"
        },
        {
          "name": "_to",
          "type": "uint256"
        }
      ],
      "name": "getSelectableNumbers",
      "outputs": [
        {
          "name": "",
          "type": "uint256[]"
        }
      ],
      "payable": false,
      "stateMutability": "view",
      "type": "function"
    },
    {
      "constant": false,
      "inputs": [],
      "name": "nextGame",
      "outputs": [],
      "payable": false,
      "stateMutability": "nonpayable",
      "type": "function"
    },
    {
      "constant": false,
      "inputs": [
        {
          "name": "price",
          "type": "uint256"
        }
      ],
      "name": "setPrice",
      "outputs": [],
      "payable": false,
      "stateMutability": "nonpayable",
      "type": "function"
    },
    {
      "constant": true,
      "inputs": [],
      "name": "getPrice",
      "outputs": [
        {
          "name": "",
          "type": "uint256"
        }
      ],
      "payable": false,
      "stateMutability": "view",
      "type": "function"
    },
    {
      "constant": false,
      "inputs": [
        {
          "name": "num",
          "type": "uint256"
        }
      ],
      "name": "setTicketTotal",
      "outputs": [],
      "payable": false,
      "stateMutability": "nonpayable",
      "type": "function"
    },
    {
      "constant": true,
      "inputs": [],
      "name": "getContractBalance",
      "outputs": [
        {
          "name": "",
          "type": "uint256"
        }
      ],
      "payable": false,
      "stateMutability": "view",
      "type": "function"
    }
  ],
  "bytecode": "0x608060405266038d7ea4c6800060015561138860025534801561002157600080fd5b50336000806101000a81548173ffffffffffffffffffffffffffffffffffffffff021916908373ffffffffffffffffffffffffffffffffffffffff1602179055506000809054906101000a900473ffffffffffffffffffffffffffffffffffffffff1673ffffffffffffffffffffffffffffffffffffffff16600073ffffffffffffffffffffffffffffffffffffffff167f8be0079c531659141344cd1fd0a4f28419497f9722a3daafe3b4186f6b6457e060405160405180910390a360006007819055506100fd610102640100000000026401000000009004565b61014c565b600760008154809291906001019190505550600060036000600754815260200190815260200160002081905550600060086000600754815260200190815260200160002081905550565b6117798061015b6000396000f3fe60806040526004361061013e576000357c0100000000000000000000000000000000000000000000000000000000900463ffffffff168063020c6fed1461014357806303652dea1461016e578063124b65b4146101ab57806317e190fa146101d6578063281d62c414610213578063676e26801461022a5780636f9fb98a14610267578063715018a61461029257806381dda9fa146102a9578063871933e2146102c05780638950ce0b146102fd5780638da5cb5b146103265780638e7ea5b2146103515780638f10fd451461037c5780638f32d59b146103a757806391b7f5ed146103d25780639348cef7146103fb57806398d5fdca146104245780639f8743f71461044f578063b2185bb11461047a578063b93f9b0a14610491578063d6febde8146104ce578063ed150e78146104ea578063f2fde38b14610506575b600080fd5b34801561014f57600080fd5b5061015861052f565b6040516101659190611633565b60405180910390f35b34801561017a57600080fd5b50610195600480360361019091908101906112d5565b61054c565b6040516101a29190611633565b60405180910390f35b3480156101b757600080fd5b506101c0610595565b6040516101cd91906115d8565b60405180910390f35b3480156101e257600080fd5b506101fd60048036036101f891908101906112d5565b6105ac565b60405161020a9190611580565b60405180910390f35b34801561021f57600080fd5b50610228610656565b005b34801561023657600080fd5b50610251600480360361024c91908101906112fe565b6106c1565b60405161025e91906115bd565b60405180910390f35b34801561027357600080fd5b5061027c61073e565b6040516102899190611633565b60405180910390f35b34801561029e57600080fd5b506102a761075d565b005b3480156102b557600080fd5b506102be610865565b005b3480156102cc57600080fd5b506102e760048036036102e29190810190611376565b61097b565b6040516102f49190611580565b60405180910390f35b34801561030957600080fd5b50610324600480360361031f919081019061134d565b610ac1565b005b34801561033257600080fd5b5061033b610acb565b604051610348919061154a565b60405180910390f35b34801561035d57600080fd5b50610366610af4565b604051610373919061154a565b60405180910390f35b34801561038857600080fd5b50610391610b31565b60405161039e9190611633565b60405180910390f35b3480156103b357600080fd5b506103bc610b4e565b6040516103c991906115a2565b60405180910390f35b3480156103de57600080fd5b506103f960048036036103f4919081019061134d565b610ba5565b005b34801561040757600080fd5b50610422600480360361041d9190810190611376565b610baf565b005b34801561043057600080fd5b50610439610db6565b6040516104469190611633565b60405180910390f35b34801561045b57600080fd5b50610464610dc0565b6040516104719190611633565b60405180910390f35b34801561048657600080fd5b5061048f610dca565b005b34801561049d57600080fd5b506104b860048036036104b3919081019061134d565b610ec5565b6040516104c5919061154a565b60405180910390f35b6104e860048036036104e39190810190611376565b610f15565b005b61050460048036036104ff91908101906113b2565b61108f565b005b34801561051257600080fd5b5061052d600480360361052891908101906112d5565b611128565b005b600060086000600754815260200190815260200160002054905090565b6000600560008373ffffffffffffffffffffffffffffffffffffffff1673ffffffffffffffffffffffffffffffffffffffff168152602001908152602001600020549050919050565b6000600660009054906101000a900460ff16905090565b6060600a6000600754815260200190815260200160002060008373ffffffffffffffffffffffffffffffffffffffff1673ffffffffffffffffffffffffffffffffffffffff16815260200190815260200160002080548060200260200160405190810160405280929190818152602001828054801561064a57602002820191906000526020600020905b815481526020019060010190808311610636575b50505050509050919050565b60028081111561066257fe5b600660009054906101000a900460ff16600281111561067d57fe5b14151561068957600080fd5b6007600081548092919060010191905055506000600660006101000a81548160ff021916908360028111156106ba57fe5b0217905550565b6000838383604051602001808473ffffffffffffffffffffffffffffffffffffffff1673ffffffffffffffffffffffffffffffffffffffff166c0100000000000000000000000002815260140183815260200182815260200193505050506040516020818303038152906040528051906020012090509392505050565b60003073ffffffffffffffffffffffffffffffffffffffff1631905090565b610765610b4e565b15156107a6576040517f08c379a000000000000000000000000000000000000000000000000000000000815260040161079d90611613565b60405180910390fd5b600073ffffffffffffffffffffffffffffffffffffffff166000809054906101000a900473ffffffffffffffffffffffffffffffffffffffff1673ffffffffffffffffffffffffffffffffffffffff167f8be0079c531659141344cd1fd0a4f28419497f9722a3daafe3b4186f6b6457e060405160405180910390a360008060006101000a81548173ffffffffffffffffffffffffffffffffffffffff021916908373ffffffffffffffffffffffffffffffffffffffff160217905550565b6000600281111561087257fe5b600660009054906101000a900460ff16600281111561088d57fe5b14806108be5750600160028111156108a157fe5b600660009054906101000a900460ff1660028111156108bc57fe5b145b15156108c957600080fd5b600060028111156108d657fe5b600660009054906101000a900460ff1660028111156108f157fe5b1415610920576001600660006101000a81548160ff0219169083600281111561091657fe5b0217905550610979565b6001600281111561092d57fe5b600660009054906101000a900460ff16600281111561094857fe5b1415610977576002600660006101000a81548160ff0219169083600281111561096d57fe5b0217905550610978565b5b5b565b6060818310151561098b57600080fd5b600060018484030190506060816040519080825280602002602001820160405280156109c65781602001602082028038833980820191505090505b509050600080905060008690505b8581111515610ab45760007f0100000000000000000000000000000000000000000000000000000000000000026004600060075481526020019081526020016000206000838152602001908152602001600020546000602081101515610a3657fe5b1a7f0100000000000000000000000000000000000000000000000000000000000000027effffffffffffffffffffffffffffffffffffffffffffffffffffffffffffff19161415610aa757808383815181101515610a9057fe5b906020019060200201818152505081806001019250505b80806001019150506109d4565b5081935050505092915050565b8060028190555050565b60008060009054906101000a900473ffffffffffffffffffffffffffffffffffffffff16905090565b6000600c6000600754815260200190815260200160002060009054906101000a900473ffffffffffffffffffffffffffffffffffffffff16905090565b600060036000600754815260200190815260200160002054905090565b60008060009054906101000a900473ffffffffffffffffffffffffffffffffffffffff1673ffffffffffffffffffffffffffffffffffffffff163373ffffffffffffffffffffffffffffffffffffffff1614905090565b8060018190555050565b60016002811115610bbc57fe5b600660009054906101000a900460ff166002811115610bd757fe5b141515610be357600080fd5b6000610bf03384846106c1565b905080600460006007548152602001908152602001600020600085815260200190815260200160002054141515610c2657600080fd5b600b600060075481526020019081526020016000205481604051602001808381526020018281526020019250505060405160208183030381529060405280519060200120600b60006007548152602001908152602001600020819055506008600060075481526020019081526020016000206000815480929190600101919050555033600960006007548152602001908152602001600020600085815260200190815260200160002060006101000a81548173ffffffffffffffffffffffffffffffffffffffff021916908373ffffffffffffffffffffffffffffffffffffffff160217905550600a6000600754815260200190815260200160002060003373ffffffffffffffffffffffffffffffffffffffff1673ffffffffffffffffffffffffffffffffffffffff168152602001908152602001600020839080600181540180825580915050906001820390600052602060002001600090919290919091505550600254600860006007548152602001908152602001600020541415610db157610db0610865565b5b505050565b6000600154905090565b6000600754905090565b600280811115610dd657fe5b600660009054906101000a900460ff166002811115610df157fe5b141515610dfd57600080fd5b6000600254600b600060075481526020019081526020016000205460019004811515610e2557fe5b069050600960006007548152602001908152602001600020600082815260200190815260200160002060009054906101000a900473ffffffffffffffffffffffffffffffffffffffff16600c6000600754815260200190815260200160002060006101000a81548173ffffffffffffffffffffffffffffffffffffffff021916908373ffffffffffffffffffffffffffffffffffffffff16021790555050565b6000600960006007548152602001908152602001600020600083815260200190815260200160002060009054906101000a900473ffffffffffffffffffffffffffffffffffffffff169050919050565b60015434141515610f2557600080fd5b60008210158015610f37575060025482105b1515610f4257600080fd5b60006002811115610f4f57fe5b600660009054906101000a900460ff166002811115610f6a57fe5b141515610f7657600080fd5b6000600102600460006007548152602001908152602001600020600084815260200190815260200160002054141515610fae57600080fd5b6103e88110158015610fc1575061271081105b1515610fcc57600080fd5b600360006007548152602001908152602001600020600081548092919060010191905055506000610ffe3384846106c1565b9050806004600060075481526020019081526020016000206000858152602001908152602001600020819055507f5c6c890314aa0d49059c35b35ff86ffb43efe8f543dc3691558f39dfa4a820113360405161105a9190611565565b60405180910390a160025460036000600754815260200190815260200160002054141561108a57611089610865565b5b505050565b6110998383610f15565b8073ffffffffffffffffffffffffffffffffffffffff163373ffffffffffffffffffffffffffffffffffffffff16141515156110d457600080fd5b600560008273ffffffffffffffffffffffffffffffffffffffff1673ffffffffffffffffffffffffffffffffffffffff16815260200190815260200160002060008154809291906001019190505550505050565b611130610b4e565b1515611171576040517f08c379a000000000000000000000000000000000000000000000000000000000815260040161116890611613565b60405180910390fd5b61117a8161117d565b50565b600073ffffffffffffffffffffffffffffffffffffffff168173ffffffffffffffffffffffffffffffffffffffff16141515156111ef576040517f08c379a00000000000000000000000000000000000000000000000000000000081526004016111e6906115f3565b60405180910390fd5b8073ffffffffffffffffffffffffffffffffffffffff166000809054906101000a900473ffffffffffffffffffffffffffffffffffffffff1673ffffffffffffffffffffffffffffffffffffffff167f8be0079c531659141344cd1fd0a4f28419497f9722a3daafe3b4186f6b6457e060405160405180910390a3806000806101000a81548173ffffffffffffffffffffffffffffffffffffffff021916908373ffffffffffffffffffffffffffffffffffffffff16021790555050565b60006112b982356116db565b905092915050565b60006112cd82356116ed565b905092915050565b6000602082840312156112e757600080fd5b60006112f5848285016112ad565b91505092915050565b60008060006060848603121561131357600080fd5b6000611321868287016112ad565b9350506020611332868287016112c1565b9250506040611343868287016112c1565b9150509250925092565b60006020828403121561135f57600080fd5b600061136d848285016112c1565b91505092915050565b6000806040838503121561138957600080fd5b6000611397858286016112c1565b92505060206113a8858286016112c1565b9150509250929050565b6000806000606084860312156113c757600080fd5b60006113d5868287016112c1565b93505060206113e6868287016112c1565b92505060406113f7868287016112ad565b9150509250925092565b61140a816116f7565b82525050565b61141981611673565b82525050565b600061142a8261165b565b80845260208401935061143c8361164e565b60005b8281101561146e5761145286835161153b565b61145b82611666565b915060208601955060018101905061143f565b50849250505092915050565b61148381611685565b82525050565b61149281611691565b82525050565b6114a181611709565b82525050565b6000602682527f4f776e61626c653a206e6577206f776e657220697320746865207a65726f206160208301527f64647265737300000000000000000000000000000000000000000000000000006040830152606082019050919050565b6000602082527f4f776e61626c653a2063616c6c6572206973206e6f7420746865206f776e65726020830152604082019050919050565b611544816116d1565b82525050565b600060208201905061155f6000830184611410565b92915050565b600060208201905061157a6000830184611401565b92915050565b6000602082019050818103600083015261159a818461141f565b905092915050565b60006020820190506115b7600083018461147a565b92915050565b60006020820190506115d26000830184611489565b92915050565b60006020820190506115ed6000830184611498565b92915050565b6000602082019050818103600083015261160c816114a7565b9050919050565b6000602082019050818103600083015261162c81611504565b9050919050565b6000602082019050611648600083018461153b565b92915050565b6000602082019050919050565b600081519050919050565b6000602082019050919050565b600061167e826116b1565b9050919050565b60008115159050919050565b6000819050919050565b60006003821015156116a957fe5b819050919050565b600073ffffffffffffffffffffffffffffffffffffffff82169050919050565b6000819050919050565b60006116e6826116b1565b9050919050565b6000819050919050565b60006117028261171b565b9050919050565b60006117148261169b565b9050919050565b60006117268261172d565b9050919050565b6000611738826116b1565b905091905056fea265627a7a72305820e07536873cd5ba808a54fbdc8394e94dff5bf63c5116d03d1b7a4868c524065f6c6578706572696d656e74616cf50037",
  "source": "pragma solidity >=0.4.21 <0.6.0;\npragma experimental ABIEncoderV2;\n\nimport \"./Ownable.sol\";\n\ncontract DreamTicket is Ownable {\n\n  event Buy(\n    address buyer\n  );\n\n  enum SoldoutStatus {\n    NOT_SELLING,\n    BUY,\n    REVEALED\n  }\n\n  enum Term {\n    BUY,\n    REVEAL,\n    RESULT\n  }\n\n  ////////////////////////////////////////\n  // Always public\n  ////////////////////////////////////////\n  \n  // A ticket price per a ticket\n  uint private TICKET_PRICE = 1e15;\n\n  // The total number of ticket which is sold in a term\n  uint private TICKET_TOTAL = 5000;\n\n  // Buy player's number\n  mapping(uint => uint) private buyCount;\n\n  // num => CommitmentHash(BuyerAddress * num * passcode)\n  mapping(uint => mapping(uint => bytes32)) private commitments;\n\n  // If you enter the introducer, it is incremented\n  mapping(address => uint) private introducers;\n\n  Term private term;\n\n  uint private round;\n\n\n  ////////////////////////////////////////\n  // Public after reveal\n  ////////////////////////////////////////\n\n  // Reveal player's number\n  mapping(uint => uint) private revealCount;\n\n  // TicketNumber => BuyerAddress\n  mapping(uint => mapping(uint => address)) private numToAddr;\n\n  // BuyerAddress => TicketNumbers\n  mapping(uint => mapping(address => uint[])) private addrToNums;\n\n  // The current seed which determine the number of winner\n  mapping(uint => bytes32) private seed;\n\n  // The winner of a current game\n  mapping(uint => address) private winner;\n\n\n  constructor () public {\n    round = 0;\n    initEntries();\n  }\n\n  /// @notice The game will be reset\n  function initEntries() private {\n    round++;\n    buyCount[round] = 0;\n    revealCount[round] = 0;\n  }\n\n  /// @notice A player can buy a ticket but the process still not be end\n  /// @param _num The ticket number (0-4999)\n  /// @param _passcode This is necessary to create random (1000-9999)\n  function buy (uint _num, uint _passcode) public payable {\n    require(msg.value == TICKET_PRICE);\n    require(_num >= 0 && _num < TICKET_TOTAL);\n    require(term == Term.BUY);\n    require(commitments[round][_num] == 0);\n    require(_passcode >= 1000 && _passcode < 10000);\n\n    buyCount[round]++;\n\n    bytes32 commitment = createCommitment(msg.sender, _num, _passcode);\n    commitments[round][_num] = commitment;\n\n    emit Buy(msg.sender);\n\n    if (buyCount[round] == TICKET_TOTAL) {\n      nextTerm();\n      // TODO: count down in a week\n    }\n  }\n\n  /// @notice A player can buy a ticket with introducer address\n  /// @param _num The ticket number (0-4999)\n  /// @param _passcode This is necessary to create random (1000-9999)\n  function buyWithIntroducer(uint _num, uint _passcode, address _introducer) public payable {\n    buy(_num, _passcode);\n    require(msg.sender != _introducer);\n    introducers[_introducer]++;\n    // TODO: Introduce Event\n  }\n  \n\n  function createCommitment(address _user, uint _num, uint _passcode) public pure returns (bytes32) {\n    return keccak256(abi.encodePacked(_user, _num, _passcode));\n  }\n\n\n  function reveal (uint _num, uint _passcode) public {\n    require(term == Term.REVEAL);\n    \n    bytes32 commitment = createCommitment(msg.sender, _num, _passcode);\n    require(commitments[round][_num] == commitment);\n\n    seed[round] = keccak256(abi.encodePacked(seed[round], commitment));\n    revealCount[round]++;\n    numToAddr[round][_num] = msg.sender;\n    addrToNums[round][msg.sender].push(_num);\n\n    if (revealCount[round] == TICKET_TOTAL) {\n      nextTerm();\n    }\n  }\n\n  function drawWinner () public /*onlyOwner*/ {\n    require(term == Term.RESULT);\n    uint seedIndex = uint(seed[round]) % TICKET_TOTAL;\n    winner[round] = numToAddr[round][seedIndex];\n  }\n\n  function getIntroducedCount(address _user) public view returns (uint) {\n    return introducers[_user];\n  }\n\n  function getRound() public view returns (uint) {\n    return round;\n  }\n\n  function getBuyCount() public view returns (uint) {\n    return buyCount[round];\n  }\n\n  function getRevealCount() public view returns (uint) {\n    return revealCount[round];\n  }\n\n  function getAddress(uint _num) public view returns (address) {\n    return numToAddr[round][_num];\n  }\n\n  function getNumbers(address _address) public view returns (uint[] memory) {\n    return addrToNums[round][_address];\n  }\n\n  function nextTerm() public /* onlyOwner */ {\n    require(term == Term.BUY || term == Term.REVEAL);\n    if (term == Term.BUY) {\n      term = Term.REVEAL;\n    } else if (term == Term.REVEAL) {\n      term = Term.RESULT;\n    } else {\n      // nothing\n    }\n  }\n\n  function getTerm() public view returns (Term) {\n    return term;\n  }\n\n  function getWinner() public view returns (address) {\n    return winner[round];\n  }\n\n  /// @param _from more than equals\n  /// @param _to less than equals\n  function getSelectableNumbers(uint _from, uint _to) public view returns (uint[] memory) {\n    require(_from < _to);\n    uint diff = _to - _from + 1;\n    uint[] memory numbers = new uint[](diff);\n    uint i = 0;\n    for (uint target = _from; target <= _to; target++) {\n      if (commitments[round][target][0] == 0) {\n        numbers[i] = target;\n        i++;\n      }\n    }\n    return numbers;\n  }\n\n\n\n\n  function nextGame () public /* onlyOwner */ {\n    require(term == Term.RESULT);\n    round++;\n    term = Term.BUY;\n  }\n\n  function setPrice (uint price) public {\n    TICKET_PRICE = price;\n  }\n\n  function getPrice () public view returns (uint) {\n    return TICKET_PRICE;\n  }\n\n  function setTicketTotal (uint num) public /* onlyOwner */ {\n    // For Only Test\n    TICKET_TOTAL = num;\n  }\n\n  function getContractBalance() public view returns (uint) {\n    return address(this).balance;\n  }\n}",
  "sourcePath": "/Users/koikeshunpei/Dev/04_lottery/dapp/contracts/DreamTicket.sol",
  "compiler": {
    "name": "solc",
    "version": "0.5.0+commit.1d4f565a.Emscripten.clang"
  },
  "schemaVersion": "3.0.9",
  "updatedAt": "2019-06-15T14:21:16.998Z",
  "devdoc": {
    "methods": {
      "buy(uint256,uint256)": {
        "params": {
          "_num": "The ticket number (0-4999)",
          "_passcode": "This is necessary to create random (1000-9999)"
        }
      },
      "buyWithIntroducer(uint256,uint256,address)": {
        "params": {
          "_num": "The ticket number (0-4999)",
          "_passcode": "This is necessary to create random (1000-9999)"
        }
      },
      "getSelectableNumbers(uint256,uint256)": {
        "params": {
          "_from": "more than equals",
          "_to": "less than equals"
        }
      },
      "isOwner()": {
        "details": "Returns true if the caller is the current owner."
      },
      "owner()": {
        "details": "Returns the address of the current owner."
      },
      "renounceOwnership()": {
        "details": "Leaves the contract without owner. It will not be possible to call `onlyOwner` functions anymore. Can only be called by the current owner.     * > Note: Renouncing ownership will leave the contract without an owner, thereby removing any functionality that is only available to the owner."
      },
      "transferOwnership(address)": {
        "details": "Transfers ownership of the contract to a new account (`newOwner`). Can only be called by the current owner."
      }
    }
  },
  "userdoc": {
    "methods": {
      "buy(uint256,uint256)": {
        "notice": "A player can buy a ticket but the process still not be end"
      },
      "buyWithIntroducer(uint256,uint256,address)": {
        "notice": "A player can buy a ticket with introducer address"
      }
    }
  }
}