{
  "contractName": "DreamTicket",
  "abi": [
    {
      "constant": false,
      "inputs": [],
      "name": "renounceOwnership",
      "outputs": [],
      "payable": false,
      "stateMutability": "nonpayable",
      "type": "function"
    },
    {
      "constant": true,
      "inputs": [],
      "name": "owner",
      "outputs": [
        {
          "name": "",
          "type": "address"
        }
      ],
      "payable": false,
      "stateMutability": "view",
      "type": "function"
    },
    {
      "constant": true,
      "inputs": [],
      "name": "isOwner",
      "outputs": [
        {
          "name": "",
          "type": "bool"
        }
      ],
      "payable": false,
      "stateMutability": "view",
      "type": "function"
    },
    {
      "constant": false,
      "inputs": [
        {
          "name": "newOwner",
          "type": "address"
        }
      ],
      "name": "transferOwnership",
      "outputs": [],
      "payable": false,
      "stateMutability": "nonpayable",
      "type": "function"
    },
    {
      "inputs": [
        {
          "name": "ticketTotal",
          "type": "uint256"
        }
      ],
      "payable": false,
      "stateMutability": "nonpayable",
      "type": "constructor"
    },
    {
      "anonymous": false,
      "inputs": [
        {
          "indexed": false,
          "name": "buyer",
          "type": "address"
        }
      ],
      "name": "Buy",
      "type": "event"
    },
    {
      "anonymous": false,
      "inputs": [
        {
          "indexed": true,
          "name": "previousOwner",
          "type": "address"
        },
        {
          "indexed": true,
          "name": "newOwner",
          "type": "address"
        }
      ],
      "name": "OwnershipTransferred",
      "type": "event"
    },
    {
      "constant": false,
      "inputs": [
        {
          "name": "_num",
          "type": "uint256"
        },
        {
          "name": "_passcode",
          "type": "uint256"
        }
      ],
      "name": "buy",
      "outputs": [],
      "payable": true,
      "stateMutability": "payable",
      "type": "function"
    },
    {
      "constant": false,
      "inputs": [
        {
          "name": "_num",
          "type": "uint256"
        },
        {
          "name": "_passcode",
          "type": "uint256"
        },
        {
          "name": "_introducer",
          "type": "address"
        }
      ],
      "name": "buyWithIntroducer",
      "outputs": [],
      "payable": true,
      "stateMutability": "payable",
      "type": "function"
    },
    {
      "constant": true,
      "inputs": [
        {
          "name": "_user",
          "type": "address"
        },
        {
          "name": "_num",
          "type": "uint256"
        },
        {
          "name": "_passcode",
          "type": "uint256"
        }
      ],
      "name": "createCommitment",
      "outputs": [
        {
          "name": "",
          "type": "bytes32"
        }
      ],
      "payable": false,
      "stateMutability": "pure",
      "type": "function"
    },
    {
      "constant": false,
      "inputs": [
        {
          "name": "_num",
          "type": "uint256"
        },
        {
          "name": "_passcode",
          "type": "uint256"
        }
      ],
      "name": "reveal",
      "outputs": [],
      "payable": false,
      "stateMutability": "nonpayable",
      "type": "function"
    },
    {
      "constant": false,
      "inputs": [],
      "name": "drawWinner",
      "outputs": [],
      "payable": true,
      "stateMutability": "payable",
      "type": "function"
    },
    {
      "constant": false,
      "inputs": [],
      "name": "getSeedIndex",
      "outputs": [],
      "payable": false,
      "stateMutability": "nonpayable",
      "type": "function"
    },
    {
      "constant": true,
      "inputs": [
        {
          "name": "_user",
          "type": "address"
        }
      ],
      "name": "getIntroducedCount",
      "outputs": [
        {
          "name": "",
          "type": "uint256"
        }
      ],
      "payable": false,
      "stateMutability": "view",
      "type": "function"
    },
    {
      "constant": true,
      "inputs": [],
      "name": "getRound",
      "outputs": [
        {
          "name": "",
          "type": "uint256"
        }
      ],
      "payable": false,
      "stateMutability": "view",
      "type": "function"
    },
    {
      "constant": true,
      "inputs": [],
      "name": "getBuyCount",
      "outputs": [
        {
          "name": "",
          "type": "uint256"
        }
      ],
      "payable": false,
      "stateMutability": "view",
      "type": "function"
    },
    {
      "constant": true,
      "inputs": [],
      "name": "getRevealCount",
      "outputs": [
        {
          "name": "",
          "type": "uint256"
        }
      ],
      "payable": false,
      "stateMutability": "view",
      "type": "function"
    },
    {
      "constant": true,
      "inputs": [
        {
          "name": "_num",
          "type": "uint256"
        }
      ],
      "name": "getAddress",
      "outputs": [
        {
          "name": "",
          "type": "address"
        }
      ],
      "payable": false,
      "stateMutability": "view",
      "type": "function"
    },
    {
      "constant": true,
      "inputs": [
        {
          "name": "_address",
          "type": "address"
        }
      ],
      "name": "getNumbersOnBuyTerm",
      "outputs": [
        {
          "name": "",
          "type": "uint256[]"
        }
      ],
      "payable": false,
      "stateMutability": "view",
      "type": "function"
    },
    {
      "constant": true,
      "inputs": [
        {
          "name": "_address",
          "type": "address"
        }
      ],
      "name": "getNumbersOnRevealTerm",
      "outputs": [
        {
          "name": "",
          "type": "uint256[]"
        }
      ],
      "payable": false,
      "stateMutability": "view",
      "type": "function"
    },
    {
      "constant": false,
      "inputs": [],
      "name": "nextTerm",
      "outputs": [],
      "payable": false,
      "stateMutability": "nonpayable",
      "type": "function"
    },
    {
      "constant": true,
      "inputs": [],
      "name": "getTerm",
      "outputs": [
        {
          "name": "",
          "type": "uint8"
        }
      ],
      "payable": false,
      "stateMutability": "view",
      "type": "function"
    },
    {
      "constant": true,
      "inputs": [],
      "name": "getWinner",
      "outputs": [
        {
          "name": "",
          "type": "address"
        }
      ],
      "payable": false,
      "stateMutability": "view",
      "type": "function"
    },
    {
      "constant": true,
      "inputs": [
        {
          "name": "_from",
          "type": "uint256"
        },
        {
          "name": "_to",
          "type": "uint256"
        }
      ],
      "name": "getSelectableNumbers",
      "outputs": [
        {
          "name": "",
          "type": "uint256[]"
        }
      ],
      "payable": false,
      "stateMutability": "view",
      "type": "function"
    },
    {
      "constant": true,
      "inputs": [
        {
          "name": "_from",
          "type": "uint256"
        },
        {
          "name": "_to",
          "type": "uint256"
        }
      ],
      "name": "getNonSelectableNumbers",
      "outputs": [
        {
          "name": "",
          "type": "uint256[]"
        }
      ],
      "payable": false,
      "stateMutability": "view",
      "type": "function"
    },
    {
      "constant": false,
      "inputs": [],
      "name": "nextGame",
      "outputs": [],
      "payable": false,
      "stateMutability": "nonpayable",
      "type": "function"
    },
    {
      "constant": false,
      "inputs": [
        {
          "name": "price",
          "type": "uint256"
        }
      ],
      "name": "setPrice",
      "outputs": [],
      "payable": false,
      "stateMutability": "nonpayable",
      "type": "function"
    },
    {
      "constant": true,
      "inputs": [],
      "name": "getPrice",
      "outputs": [
        {
          "name": "",
          "type": "uint256"
        }
      ],
      "payable": false,
      "stateMutability": "view",
      "type": "function"
    },
    {
      "constant": false,
      "inputs": [
        {
          "name": "num",
          "type": "uint256"
        }
      ],
      "name": "setTicketTotal",
      "outputs": [],
      "payable": false,
      "stateMutability": "nonpayable",
      "type": "function"
    },
    {
      "constant": true,
      "inputs": [],
      "name": "getContractBalance",
      "outputs": [
        {
          "name": "",
          "type": "uint256"
        }
      ],
      "payable": false,
      "stateMutability": "view",
      "type": "function"
    },
    {
      "constant": true,
      "inputs": [],
      "name": "getBlocktime",
      "outputs": [
        {
          "name": "",
          "type": "uint256"
        }
      ],
      "payable": false,
      "stateMutability": "view",
      "type": "function"
    },
    {
      "constant": false,
      "inputs": [],
      "name": "timepolling",
      "outputs": [],
      "payable": false,
      "stateMutability": "nonpayable",
      "type": "function"
    }
  ],
  "bytecode": "0x608060405266038d7ea4c6800060015562127500600355620d2f006004553480156200002a57600080fd5b50604051602080620022a883398101806040526200004c9190810190620001d9565b336000806101000a81548173ffffffffffffffffffffffffffffffffffffffff021916908373ffffffffffffffffffffffffffffffffffffffff1602179055506000809054906101000a900473ffffffffffffffffffffffffffffffffffffffff1673ffffffffffffffffffffffffffffffffffffffff16600073ffffffffffffffffffffffffffffffffffffffff167f8be0079c531659141344cd1fd0a4f28419497f9722a3daafe3b4186f6b6457e060405160405180910390a3806002819055506000600b819055506200013062000137640100000000026401000000009004565b506200020f565b600b600081548092919060010191905055506000429050600060056000600b54815260200190815260200160002081905550600354810160066000600b548152602001908152602001600020819055506004548101600d6000600b548152602001908152602001600020819055506000600c6000600b5481526020019081526020016000208190555050565b6000620001d1825162000205565b905092915050565b600060208284031215620001ec57600080fd5b6000620001fc84828501620001c3565b91505092915050565b6000819050919050565b612089806200021f6000396000f3fe608060405260043610610175576000357c0100000000000000000000000000000000000000000000000000000000900463ffffffff168063020c6fed1461017a57806303652dea146101a55780630501b79f146101e257806305eaf6d51461020d578063124b65b4146102245780631ab043521461024f578063281d62c41461028c578063676e2680146102a35780636f9fb98a146102e0578063715018a61461030b57806376179ae41461032257806381dda9fa14610339578063871933e2146103505780638950ce0b1461038d5780638da5cb5b146103b65780638e7ea5b2146103e15780638f10fd451461040c5780638f32d59b1461043757806391b7f5ed146104625780639348cef71461048b57806398d5fdca146104b45780639f8743f7146104df578063b2185bb11461050a578063b93f9b0a14610514578063cd91b03014610551578063d6febde81461058e578063ed150e78146105aa578063f2fde38b146105c6578063f4ff6671146105ef575b600080fd5b34801561018657600080fd5b5061018f61062c565b60405161019c9190611f1f565b60405180910390f35b3480156101b157600080fd5b506101cc60048036036101c79190810190611b6e565b610649565b6040516101d99190611f1f565b60405180910390f35b3480156101ee57600080fd5b506101f7610692565b6040516102049190611f1f565b60405180910390f35b34801561021957600080fd5b5061022261069a565b005b34801561023057600080fd5b5061023961075b565b6040516102469190611ec4565b60405180910390f35b34801561025b57600080fd5b5061027660048036036102719190810190611c38565b610772565b6040516102839190611e6c565b60405180910390f35b34801561029857600080fd5b506102a16108c4565b005b3480156102af57600080fd5b506102ca60048036036102c59190810190611bc0565b61092f565b6040516102d79190611ea9565b60405180910390f35b3480156102ec57600080fd5b506102f56109ac565b6040516103029190611f1f565b60405180910390f35b34801561031757600080fd5b506103206109cb565b005b34801561032e57600080fd5b50610337610ad3565b005b34801561034557600080fd5b5061034e610c3e565b005b34801561035c57600080fd5b5061037760048036036103729190810190611c38565b610d5c565b6040516103849190611e6c565b60405180910390f35b34801561039957600080fd5b506103b460048036036103af9190810190611c0f565b610ea6565b005b3480156103c257600080fd5b506103cb610eb0565b6040516103d89190611e51565b60405180910390f35b3480156103ed57600080fd5b506103f6610ed9565b6040516104039190611e1b565b60405180910390f35b34801561041857600080fd5b50610421610f16565b60405161042e9190611f1f565b60405180910390f35b34801561044357600080fd5b5061044c610f33565b6040516104599190611e8e565b60405180910390f35b34801561046e57600080fd5b5061048960048036036104849190810190611c0f565b610f8a565b005b34801561049757600080fd5b506104b260048036036104ad9190810190611c38565b610f94565b005b3480156104c057600080fd5b506104c96111f4565b6040516104d69190611f1f565b60405180910390f35b3480156104eb57600080fd5b506104f46111fe565b6040516105019190611f1f565b60405180910390f35b610512611208565b005b34801561052057600080fd5b5061053b60048036036105369190810190611c0f565b61149f565b6040516105489190611e1b565b60405180910390f35b34801561055d57600080fd5b5061057860048036036105739190810190611b6e565b6114ef565b6040516105859190611e6c565b60405180910390f35b6105a860048036036105a39190810190611c38565b611599565b005b6105c460048036036105bf9190810190611c74565b61178f565b005b3480156105d257600080fd5b506105ed60048036036105e89190810190611b97565b611828565b005b3480156105fb57600080fd5b5061061660048036036106119190810190611b6e565b61187d565b6040516106239190611e6c565b60405180910390f35b6000600c6000600b54815260200190815260200160002054905090565b6000600960008373ffffffffffffffffffffffffffffffffffffffff1673ffffffffffffffffffffffffffffffffffffffff168152602001908152602001600020549050919050565b600042905090565b600060025460106000600b54815260200190815260200160002054600190048115156106c257fe5b069050600073ffffffffffffffffffffffffffffffffffffffff16600e6000600b548152602001908152602001600020600083815260200190815260200160002060009054906101000a900473ffffffffffffffffffffffffffffffffffffffff1673ffffffffffffffffffffffffffffffffffffffff16141561075857808060010191505060025481111561075757600090505b5b50565b6000600a60009054906101000a900460ff16905090565b6060818310151561078257600080fd5b600060016107908585611927565b8585030301905060008090506060826040519080825280602002602001820160405280156107cd5781602001602082028038833980820191505090505b50905060008690505b85811115156108b75760007f01000000000000000000000000000000000000000000000000000000000000000260076000600b548152602001908152602001600020600083815260200190815260200160002054600060208110151561083857fe5b1a7f0100000000000000000000000000000000000000000000000000000000000000027effffffffffffffffffffffffffffffffffffffffffffffffffffffffffffff19161415156108aa5780828481518110151561089357fe5b906020019060200201818152505082806001019350505b80806001019150506107d6565b5080935050505092915050565b6002808111156108d057fe5b600a60009054906101000a900460ff1660028111156108eb57fe5b1415156108f757600080fd5b600b600081548092919060010191905055506000600a60006101000a81548160ff0219169083600281111561092857fe5b0217905550565b6000838383604051602001808473ffffffffffffffffffffffffffffffffffffffff1673ffffffffffffffffffffffffffffffffffffffff166c0100000000000000000000000002815260140183815260200182815260200193505050506040516020818303038152906040528051906020012090509392505050565b60003073ffffffffffffffffffffffffffffffffffffffff1631905090565b6109d3610f33565b1515610a14576040517f08c379a0000000000000000000000000000000000000000000000000000000008152600401610a0b90611eff565b60405180910390fd5b600073ffffffffffffffffffffffffffffffffffffffff166000809054906101000a900473ffffffffffffffffffffffffffffffffffffffff1673ffffffffffffffffffffffffffffffffffffffff167f8be0079c531659141344cd1fd0a4f28419497f9722a3daafe3b4186f6b6457e060405160405180910390a360008060006101000a81548173ffffffffffffffffffffffffffffffffffffffff021916908373ffffffffffffffffffffffffffffffffffffffff160217905550565b600042905060006002811115610ae557fe5b600a60009054906101000a900460ff166002811115610b0057fe5b1415610bc35760066000600b54815260200190815260200160002054811115610bbe5760056000600b548152602001908152602001600020546002541415610b6b576001600a60006101000a81548160ff02191690836002811115610b6157fe5b0217905550610bb8565b6202a30060066000600b548152602001908152602001600020600082825401925050819055506202a300600d6000600b548152602001908152602001600020600082825401925050819055505b50610c3c565b610c3a565b60016002811115610bd057fe5b600a60009054906101000a900460ff166002811115610beb57fe5b1415610c3957600d6000600b54815260200190815260200160002054811115610c38576002600a60006101000a81548160ff02191690836002811115610c2d57fe5b021790555050610c3c565b5b5b505b565b60006002811115610c4b57fe5b600a60009054906101000a900460ff166002811115610c6657fe5b1480610c97575060016002811115610c7a57fe5b600a60009054906101000a900460ff166002811115610c9557fe5b145b1515610ca257600080fd5b60006002811115610caf57fe5b600a60009054906101000a900460ff166002811115610cca57fe5b1415610cf9576001600a60006101000a81548160ff02191690836002811115610cef57fe5b0217905550610d5a565b60016002811115610d0657fe5b600a60009054906101000a900460ff166002811115610d2157fe5b1415610d58576002600a60006101000a81548160ff02191690836002811115610d4657fe5b0217905550610d53611208565b610d59565b5b5b565b60608183101515610d6c57600080fd5b6000610d788484611927565b90506000809050606082604051908082528060200260200182016040528015610db05781602001602082028038833980820191505090505b50905060008690505b8581111515610e995760007f01000000000000000000000000000000000000000000000000000000000000000260076000600b5481526020019081526020016000206000838152602001908152602001600020546000602081101515610e1b57fe5b1a7f0100000000000000000000000000000000000000000000000000000000000000027effffffffffffffffffffffffffffffffffffffffffffffffffffffffffffff19161415610e8c57808284815181101515610e7557fe5b906020019060200201818152505082806001019350505b8080600101915050610db9565b5080935050505092915050565b8060028190555050565b60008060009054906101000a900473ffffffffffffffffffffffffffffffffffffffff16905090565b600060116000600b54815260200190815260200160002060009054906101000a900473ffffffffffffffffffffffffffffffffffffffff16905090565b600060056000600b54815260200190815260200160002054905090565b60008060009054906101000a900473ffffffffffffffffffffffffffffffffffffffff1673ffffffffffffffffffffffffffffffffffffffff163373ffffffffffffffffffffffffffffffffffffffff1614905090565b8060018190555050565b60016002811115610fa157fe5b600a60009054906101000a900460ff166002811115610fbc57fe5b141515610fc857600080fd5b6000610fd533848461092f565b90508060076000600b54815260200190815260200160002060008581526020019081526020016000205414151561100b57600080fd5b3373ffffffffffffffffffffffffffffffffffffffff16600e6000600b548152602001908152602001600020600085815260200190815260200160002060009054906101000a900473ffffffffffffffffffffffffffffffffffffffff1673ffffffffffffffffffffffffffffffffffffffff161415151561108c57600080fd5b60106000600b548152602001908152602001600020548160405160200180838152602001828152602001925050506040516020818303038152906040528051906020012060106000600b54815260200190815260200160002081905550600c6000600b5481526020019081526020016000206000815480929190600101919050555033600e6000600b548152602001908152602001600020600085815260200190815260200160002060006101000a81548173ffffffffffffffffffffffffffffffffffffffff021916908373ffffffffffffffffffffffffffffffffffffffff160217905550600f6000600b54815260200190815260200160002060003373ffffffffffffffffffffffffffffffffffffffff1673ffffffffffffffffffffffffffffffffffffffff168152602001908152602001600020839080600181540180825580915050906001820390600052602060002001600090919290919091505550505050565b6000600154905090565b6000600b54905090565b60028081111561121457fe5b600a60009054906101000a900460ff16600281111561122f57fe5b14151561123b57600080fd5b600060025460106000600b548152602001908152602001600020546001900481151561126357fe5b0690505b600073ffffffffffffffffffffffffffffffffffffffff16600e6000600b548152602001908152602001600020600083815260200190815260200160002060009054906101000a900473ffffffffffffffffffffffffffffffffffffffff1673ffffffffffffffffffffffffffffffffffffffff1614156112fe5780806001019150506002548111156112f957600090505b611267565b600e6000600b548152602001908152602001600020600082815260200190815260200160002060009054906101000a900473ffffffffffffffffffffffffffffffffffffffff1660116000600b54815260200190815260200160002060006101000a81548173ffffffffffffffffffffffffffffffffffffffff021916908373ffffffffffffffffffffffffffffffffffffffff1602179055506113a0610eb0565b73ffffffffffffffffffffffffffffffffffffffff166108fc60033073ffffffffffffffffffffffffffffffffffffffff16318115156113dc57fe5b049081150290604051600060405180830381858888f19350505050158015611408573d6000803e3d6000fd5b5060116000600b54815260200190815260200160002060009054906101000a900473ffffffffffffffffffffffffffffffffffffffff1673ffffffffffffffffffffffffffffffffffffffff166108fc3073ffffffffffffffffffffffffffffffffffffffff16319081150290604051600060405180830381858888f1935050505015801561149b573d6000803e3d6000fd5b5050565b6000600e6000600b548152602001908152602001600020600083815260200190815260200160002060009054906101000a900473ffffffffffffffffffffffffffffffffffffffff169050919050565b6060600f6000600b54815260200190815260200160002060008373ffffffffffffffffffffffffffffffffffffffff1673ffffffffffffffffffffffffffffffffffffffff16815260200190815260200160002080548060200260200160405190810160405280929190818152602001828054801561158d57602002820191906000526020600020905b815481526020019060010190808311611579575b50505050509050919050565b600154341415156115a957600080fd5b600082101580156115bb575060025482105b15156115c657600080fd5b600060028111156115d357fe5b600a60009054906101000a900460ff1660028111156115ee57fe5b1415156115fa57600080fd5b600060010260076000600b54815260200190815260200160002060008481526020019081526020016000205414151561163257600080fd5b6103e88110158015611645575061271081105b151561165057600080fd5b60056000600b54815260200190815260200160002060008154809291906001019190505550600061168233848461092f565b90508060076000600b54815260200190815260200160002060008581526020019081526020016000208190555060086000600b54815260200190815260200160002060003373ffffffffffffffffffffffffffffffffffffffff1673ffffffffffffffffffffffffffffffffffffffff1681526020019081526020016000208390806001815401808255809150509060018203906000526020600020016000909192909190915055507f5c6c890314aa0d49059c35b35ff86ffb43efe8f543dc3691558f39dfa4a820113360405161175a9190611e36565b60405180910390a160025460056000600b54815260200190815260200160002054141561178a57611789610c3e565b5b505050565b6117998383611599565b8073ffffffffffffffffffffffffffffffffffffffff163373ffffffffffffffffffffffffffffffffffffffff16141515156117d457600080fd5b600960008273ffffffffffffffffffffffffffffffffffffffff1673ffffffffffffffffffffffffffffffffffffffff16815260200190815260200160002060008154809291906001019190505550505050565b611830610f33565b1515611871576040517f08c379a000000000000000000000000000000000000000000000000000000000815260040161186890611eff565b60405180910390fd5b61187a81611a02565b50565b606060086000600b54815260200190815260200160002060008373ffffffffffffffffffffffffffffffffffffffff1673ffffffffffffffffffffffffffffffffffffffff16815260200190815260200160002080548060200260200160405190810160405280929190818152602001828054801561191b57602002820191906000526020600020905b815481526020019060010190808311611907575b50505050509050919050565b6000806000905060008490505b83811115156119f75760007f01000000000000000000000000000000000000000000000000000000000000000260076000600b548152602001908152602001600020600083815260200190815260200160002054600060208110151561199657fe5b1a7f0100000000000000000000000000000000000000000000000000000000000000027effffffffffffffffffffffffffffffffffffffffffffffffffffffffffffff191614156119ea5781806001019250505b8080600101915050611934565b508091505092915050565b600073ffffffffffffffffffffffffffffffffffffffff168173ffffffffffffffffffffffffffffffffffffffff1614151515611a74576040517f08c379a0000000000000000000000000000000000000000000000000000000008152600401611a6b90611edf565b60405180910390fd5b8073ffffffffffffffffffffffffffffffffffffffff166000809054906101000a900473ffffffffffffffffffffffffffffffffffffffff1673ffffffffffffffffffffffffffffffffffffffff167f8be0079c531659141344cd1fd0a4f28419497f9722a3daafe3b4186f6b6457e060405160405180910390a3806000806101000a81548173ffffffffffffffffffffffffffffffffffffffff021916908373ffffffffffffffffffffffffffffffffffffffff16021790555050565b6000611b3e8235611fd9565b905092915050565b6000611b528235611feb565b905092915050565b6000611b668235611ffd565b905092915050565b600060208284031215611b8057600080fd5b6000611b8e84828501611b32565b91505092915050565b600060208284031215611ba957600080fd5b6000611bb784828501611b46565b91505092915050565b600080600060608486031215611bd557600080fd5b6000611be386828701611b32565b9350506020611bf486828701611b5a565b9250506040611c0586828701611b5a565b9150509250925092565b600060208284031215611c2157600080fd5b6000611c2f84828501611b5a565b91505092915050565b60008060408385031215611c4b57600080fd5b6000611c5985828601611b5a565b9250506020611c6a85828601611b5a565b9150509250929050565b600080600060608486031215611c8957600080fd5b6000611c9786828701611b5a565b9350506020611ca886828701611b5a565b9250506040611cb986828701611b32565b9150509250925092565b611ccc81612007565b82525050565b611cdb81611f71565b82525050565b611cea81611f5f565b82525050565b6000611cfb82611f47565b808452602084019350611d0d83611f3a565b60005b82811015611d3f57611d23868351611e0c565b611d2c82611f52565b9150602086019550600181019050611d10565b50849250505092915050565b611d5481611f83565b82525050565b611d6381611f8f565b82525050565b611d7281612019565b82525050565b6000602682527f4f776e61626c653a206e6577206f776e657220697320746865207a65726f206160208301527f64647265737300000000000000000000000000000000000000000000000000006040830152606082019050919050565b6000602082527f4f776e61626c653a2063616c6c6572206973206e6f7420746865206f776e65726020830152604082019050919050565b611e1581611fcf565b82525050565b6000602082019050611e306000830184611ce1565b92915050565b6000602082019050611e4b6000830184611cc3565b92915050565b6000602082019050611e666000830184611cd2565b92915050565b60006020820190508181036000830152611e868184611cf0565b905092915050565b6000602082019050611ea36000830184611d4b565b92915050565b6000602082019050611ebe6000830184611d5a565b92915050565b6000602082019050611ed96000830184611d69565b92915050565b60006020820190508181036000830152611ef881611d78565b9050919050565b60006020820190508181036000830152611f1881611dd5565b9050919050565b6000602082019050611f346000830184611e0c565b92915050565b6000602082019050919050565b600081519050919050565b6000602082019050919050565b6000611f6a82611faf565b9050919050565b6000611f7c82611faf565b9050919050565b60008115159050919050565b6000819050919050565b6000600382101515611fa757fe5b819050919050565b600073ffffffffffffffffffffffffffffffffffffffff82169050919050565b6000819050919050565b6000611fe482611faf565b9050919050565b6000611ff682611faf565b9050919050565b6000819050919050565b60006120128261202b565b9050919050565b600061202482611f99565b9050919050565b60006120368261203d565b9050919050565b600061204882611faf565b905091905056fea265627a7a72305820c67895bd2263008d5e385cc2598262221ac96fb4f6b37515f1efaf77c9b653e66c6578706572696d656e74616cf50037",
  "source": "pragma solidity >=0.4.21 <0.6.0;\npragma experimental ABIEncoderV2;\n\nimport './Ownable.sol';\n\ncontract DreamTicket is Ownable {\n\n  event Buy(\n    address buyer\n  );\n\n  enum SoldoutStatus {\n    NOT_SELLING,\n    BUY,\n    REVEALED\n  }\n\n  enum Term {\n    BUY,\n    REVEAL,\n    RESULT\n  }\n\n  ////////////////////////////////////////\n  // Always public\n  ////////////////////////////////////////\n  \n  // A ticket price per a ticket\n  uint private TICKET_PRICE = 1e15;\n\n  // The total number of ticket which is sold in a term\n  uint private TICKET_TOTAL;\n  // uint private TICKET_TOTAL = 10; // DEV\n\n  // 14 days to change to the reveal term\n  uint private BUY_TERM = 14 * 24 * 60 * 60;\n\n  // 10 days to change to the winning term\n  uint private REVEAL_TERM = 10 * 24 * 60 * 60;\n  \n  // Buy player's number\n  mapping(uint => uint) private buyCount;\n\n  mapping(uint => uint256) internal buyEndTime;\n\n  // num => CommitmentHash(BuyerAddress * num * passcode)\n  mapping(uint => mapping(uint => bytes32)) private commitments;\n\n  // BuyerAddress => TicketNumbers\n  mapping(uint => mapping(address => uint[])) private addrToNumsOnBuyTerm;\n\n  // If you enter the introducer, it is incremented\n  mapping(address => uint) internal introducers;\n\n  Term internal term;\n\n  uint internal round;\n\n\n  ////////////////////////////////////////\n  // Public after reveal\n  ////////////////////////////////////////\n\n  // Reveal player's number\n  mapping(uint => uint) private revealCount;\n\n  mapping(uint => uint256) internal revealEndTime;\n\n  // TicketNumber => BuyerAddress\n  mapping(uint => mapping(uint => address payable)) private numToAddr;\n\n  // BuyerAddress => TicketNumbers\n  mapping(uint => mapping(address => uint[])) private addrToNumsOnRevealTerm;\n\n  // The current seed which determine the number of winner\n  mapping(uint => bytes32) private seed;\n\n  // The winner of a current game\n  mapping(uint => address payable) private winner;\n\n\n  constructor (uint ticketTotal) public {\n    TICKET_TOTAL = ticketTotal;\n    round = 0;\n    initEntries();\n  }\n\n  /// @notice The game will be reset\n  function initEntries() private {\n    round++;\n    uint256 _now = block.timestamp;\n    buyCount[round] = 0;\n    buyEndTime[round] = _now + BUY_TERM;\n    revealEndTime[round] = _now + REVEAL_TERM;\n    revealCount[round] = 0;\n  }\n\n  /// @notice A player can buy a ticket but the process still not be end\n  /// @param _num The ticket number (0-4999)\n  /// @param _passcode This is necessary to create random (1000-9999)\n  function buy (uint _num, uint _passcode) public payable {\n    require(msg.value == TICKET_PRICE);\n    require(_num >= 0 && _num < TICKET_TOTAL);\n    require(term == Term.BUY);\n    require(commitments[round][_num] == 0);\n    require(_passcode >= 1000 && _passcode < 10000);\n\n    buyCount[round]++;\n\n    bytes32 commitment = createCommitment(msg.sender, _num, _passcode);\n    commitments[round][_num] = commitment;\n    addrToNumsOnBuyTerm[round][msg.sender].push(_num);\n\n    emit Buy(msg.sender);\n\n    if (buyCount[round] == TICKET_TOTAL) {\n      nextTerm();\n      // TODO: count down in a week\n    }\n  }\n\n  /// @notice A player can buy a ticket with introducer address\n  /// @param _num The ticket number (0-4999)\n  /// @param _passcode This is necessary to create random (1000-9999)\n  function buyWithIntroducer(uint _num, uint _passcode, address _introducer) public payable {\n    buy(_num, _passcode);\n    require(msg.sender != _introducer);\n    introducers[_introducer]++;\n    // TODO: Introduce Event\n  }\n  \n\n  function createCommitment(address _user, uint _num, uint _passcode) public pure returns (bytes32) {\n    return keccak256(abi.encodePacked(_user, _num, _passcode));\n  }\n\n\n  function reveal (uint _num, uint _passcode) public {\n    require(term == Term.REVEAL);\n    \n    bytes32 commitment = createCommitment(msg.sender, _num, _passcode);\n    require(commitments[round][_num] == commitment);\n\n    // double reveal\n    require(numToAddr[round][_num] != msg.sender);\n\n    seed[round] = keccak256(abi.encodePacked(seed[round], commitment));\n    revealCount[round]++;\n    numToAddr[round][_num] = msg.sender;\n    addrToNumsOnRevealTerm[round][msg.sender].push(_num);\n\n    // if (revealCount[round] == TICKET_TOTAL) {\n    //   nextTerm();\n    //   drawWinner();\n    // }\n  }\n\n  function drawWinner () public payable/*onlyOwner*/ {\n    require(term == Term.RESULT);\n    uint seedIndex = uint(seed[round]) % TICKET_TOTAL;\n    while (numToAddr[round][seedIndex] == address(0)) {\n      seedIndex++;\n      if (seedIndex > TICKET_TOTAL) {\n        seedIndex = 0;\n      }\n    }\n    winner[round] = numToAddr[round][seedIndex];\n    owner().transfer(address(this).balance / 3);\n    winner[round].transfer(address(this).balance);\n  }\n\n  function getSeedIndex () public {\n    uint seedIndex = uint(seed[round]) % TICKET_TOTAL;\n    if (numToAddr[round][seedIndex] == address(0)) {\n      seedIndex++;\n      if (seedIndex > TICKET_TOTAL) {\n        seedIndex = 0;\n      }\n    }\n  }\n\n  function getIntroducedCount(address _user) public view returns (uint) {\n    return introducers[_user];\n  }\n\n  function getRound() public view returns (uint) {\n    return round;\n  }\n\n  function getBuyCount() public view returns (uint) {\n    return buyCount[round];\n  }\n\n  function getRevealCount() public view returns (uint) {\n    return revealCount[round];\n  }\n\n  function getAddress(uint _num) public view returns (address) {\n    return numToAddr[round][_num];\n  }\n\n  function getNumbersOnBuyTerm(address _address) public view returns (uint[] memory) {\n    return addrToNumsOnBuyTerm[round][_address];\n  }\n\n  function getNumbersOnRevealTerm(address _address) public view returns (uint[] memory) {\n    return addrToNumsOnRevealTerm[round][_address];\n  }\n\n  function nextTerm() public /* onlyOwner */ {\n    require(term == Term.BUY || term == Term.REVEAL);\n    if (term == Term.BUY) {\n      term = Term.REVEAL;\n    } else if (term == Term.REVEAL) {\n      term = Term.RESULT;\n      drawWinner();\n    } else {\n      // nothing\n    }\n  }\n\n  function getTerm() public view returns (Term) {\n    return term;\n  }\n\n  function getWinner() public view returns (address) {\n    return winner[round];\n  }\n\n  /// @param _from more than equals\n  /// @param _to less than equals\n  function getSelectableNumbers(uint _from, uint _to) public view returns (uint[] memory) {\n    require(_from < _to);\n    uint diff = getEmptyNumber(_from, _to);\n    uint i = 0;\n    uint[] memory numbers = new uint[](diff);\n    for (uint target = _from; target <= _to; target++) {\n      if (commitments[round][target][0] == 0) {\n        numbers[i] = target;\n        i++;\n      }\n    }\n    return numbers;\n  }\n\n  /// @param _from more than equals\n  /// @param _to less than equals\n  function getNonSelectableNumbers(uint _from, uint _to) public view returns (uint[] memory) {\n    require(_from < _to);\n    uint diff = _to - _from - getEmptyNumber(_from, _to) + 1;\n    uint i = 0;\n    uint[] memory numbers = new uint[](diff);\n    for (uint target = _from; target <= _to; target++) {\n      if (commitments[round][target][0] != 0) {\n        numbers[i] = target;\n        i++;\n      }\n    }\n    return numbers;\n  }\n\n  function getEmptyNumber(uint _from, uint _to) private view returns (uint) {\n    uint diff = 0;\n    for (uint target = _from; target <= _to; target++) {\n      if (commitments[round][target][0] == 0) {\n        diff++;\n      }\n    }\n    return diff;\n  }\n\n  function nextGame () public /* onlyOwner */ {\n    require(term == Term.RESULT);\n    round++;\n    term = Term.BUY;\n  }\n\n  function setPrice (uint price) public {\n    TICKET_PRICE = price;\n  }\n\n  function getPrice () public view returns (uint) {\n    return TICKET_PRICE;\n  }\n\n  function setTicketTotal (uint num) public /* onlyOwner */ {\n    // For Only Test\n    TICKET_TOTAL = num;\n  }\n\n  function getContractBalance() public view returns (uint) {\n    return address(this).balance;\n  }\n\n  function getBlocktime() public view returns (uint256) {\n    return block.timestamp;\n  }\n\n  function timepolling() public {\n    uint256 _now = block.timestamp;\n    if (term == Term.BUY) {\n      if (_now > buyEndTime[round]) {\n        if (TICKET_TOTAL == buyCount[round]) {\n          term = Term.REVEAL;\n        } else {\n          buyEndTime[round] += 2 * 24 * 60 * 60;\n          revealEndTime[round] += 2 * 24 * 60 * 60;\n        }\n      return;\n      }\n      // else:Nothing\n    } else if (term == Term.REVEAL) {\n      if (_now > revealEndTime[round]) {\n        term = Term.RESULT;\n        return;\n      }\n      // else:Nothing\n    }\n  }\n}",
  "sourcePath": "/Users/koikeshunpei/Dev/04_lottery/dapp/contracts/DreamTicket.sol",
  "compiler": {
    "name": "solc",
    "version": "0.5.0+commit.1d4f565a.Emscripten.clang"
  },
  "schemaVersion": "3.0.9",
  "updatedAt": "2019-07-27T13:21:16.782Z",
  "devdoc": {
    "methods": {
      "buy(uint256,uint256)": {
        "params": {
          "_num": "The ticket number (0-4999)",
          "_passcode": "This is necessary to create random (1000-9999)"
        }
      },
      "buyWithIntroducer(uint256,uint256,address)": {
        "params": {
          "_num": "The ticket number (0-4999)",
          "_passcode": "This is necessary to create random (1000-9999)"
        }
      },
      "getNonSelectableNumbers(uint256,uint256)": {
        "params": {
          "_from": "more than equals",
          "_to": "less than equals"
        }
      },
      "getSelectableNumbers(uint256,uint256)": {
        "params": {
          "_from": "more than equals",
          "_to": "less than equals"
        }
      },
      "isOwner()": {
        "details": "Returns true if the caller is the current owner."
      },
      "owner()": {
        "details": "Returns the address of the current owner."
      },
      "renounceOwnership()": {
        "details": "Leaves the contract without owner. It will not be possible to call `onlyOwner` functions anymore. Can only be called by the current owner.     * > Note: Renouncing ownership will leave the contract without an owner, thereby removing any functionality that is only available to the owner."
      },
      "transferOwnership(address)": {
        "details": "Transfers ownership of the contract to a new account (`newOwner`). Can only be called by the current owner."
      }
    }
  },
  "userdoc": {
    "methods": {
      "buy(uint256,uint256)": {
        "notice": "A player can buy a ticket but the process still not be end"
      },
      "buyWithIntroducer(uint256,uint256,address)": {
        "notice": "A player can buy a ticket with introducer address"
      }
    }
  }
}