{
  "contractName": "DreamTickets",
  "abi": [
    {
      "constant": false,
      "inputs": [],
      "name": "renounceOwnership",
      "outputs": [],
      "payable": false,
      "stateMutability": "nonpayable",
      "type": "function"
    },
    {
      "constant": true,
      "inputs": [],
      "name": "owner",
      "outputs": [
        {
          "name": "",
          "type": "address"
        }
      ],
      "payable": false,
      "stateMutability": "view",
      "type": "function"
    },
    {
      "constant": true,
      "inputs": [],
      "name": "isOwner",
      "outputs": [
        {
          "name": "",
          "type": "bool"
        }
      ],
      "payable": false,
      "stateMutability": "view",
      "type": "function"
    },
    {
      "constant": false,
      "inputs": [
        {
          "name": "newOwner",
          "type": "address"
        }
      ],
      "name": "transferOwnership",
      "outputs": [],
      "payable": false,
      "stateMutability": "nonpayable",
      "type": "function"
    },
    {
      "inputs": [],
      "payable": false,
      "stateMutability": "nonpayable",
      "type": "constructor"
    },
    {
      "anonymous": false,
      "inputs": [
        {
          "indexed": false,
          "name": "buyer",
          "type": "address"
        }
      ],
      "name": "Buy",
      "type": "event"
    },
    {
      "anonymous": false,
      "inputs": [
        {
          "indexed": true,
          "name": "previousOwner",
          "type": "address"
        },
        {
          "indexed": true,
          "name": "newOwner",
          "type": "address"
        }
      ],
      "name": "OwnershipTransferred",
      "type": "event"
    },
    {
      "constant": false,
      "inputs": [
        {
          "name": "_num",
          "type": "uint256"
        },
        {
          "name": "_passcode",
          "type": "uint256"
        }
      ],
      "name": "buy",
      "outputs": [],
      "payable": true,
      "stateMutability": "payable",
      "type": "function"
    },
    {
      "constant": false,
      "inputs": [
        {
          "name": "_num",
          "type": "uint256"
        },
        {
          "name": "_passcode",
          "type": "uint256"
        },
        {
          "name": "_introducer",
          "type": "address"
        }
      ],
      "name": "buyWithIntroducer",
      "outputs": [],
      "payable": true,
      "stateMutability": "payable",
      "type": "function"
    },
    {
      "constant": true,
      "inputs": [
        {
          "name": "_user",
          "type": "address"
        },
        {
          "name": "_num",
          "type": "uint256"
        },
        {
          "name": "_passcode",
          "type": "uint256"
        }
      ],
      "name": "createCommitment",
      "outputs": [
        {
          "name": "",
          "type": "bytes32"
        }
      ],
      "payable": false,
      "stateMutability": "pure",
      "type": "function"
    },
    {
      "constant": false,
      "inputs": [
        {
          "name": "_num",
          "type": "uint256"
        },
        {
          "name": "_passcode",
          "type": "uint256"
        }
      ],
      "name": "reveal",
      "outputs": [],
      "payable": false,
      "stateMutability": "nonpayable",
      "type": "function"
    },
    {
      "constant": false,
      "inputs": [],
      "name": "drawWinner",
      "outputs": [],
      "payable": false,
      "stateMutability": "nonpayable",
      "type": "function"
    },
    {
      "constant": false,
      "inputs": [
        {
          "name": "price",
          "type": "uint256"
        }
      ],
      "name": "nextGame",
      "outputs": [],
      "payable": false,
      "stateMutability": "nonpayable",
      "type": "function"
    },
    {
      "constant": false,
      "inputs": [
        {
          "name": "price",
          "type": "uint256"
        }
      ],
      "name": "setPrice",
      "outputs": [
        {
          "name": "",
          "type": "uint256"
        }
      ],
      "payable": false,
      "stateMutability": "nonpayable",
      "type": "function"
    },
    {
      "constant": true,
      "inputs": [],
      "name": "getPrice",
      "outputs": [
        {
          "name": "",
          "type": "uint256"
        }
      ],
      "payable": false,
      "stateMutability": "view",
      "type": "function"
    },
    {
      "constant": true,
      "inputs": [
        {
          "name": "num",
          "type": "uint256"
        }
      ],
      "name": "getEntryCount",
      "outputs": [
        {
          "name": "",
          "type": "uint256"
        }
      ],
      "payable": false,
      "stateMutability": "view",
      "type": "function"
    },
    {
      "constant": true,
      "inputs": [
        {
          "name": "num",
          "type": "uint256"
        }
      ],
      "name": "getNumber",
      "outputs": [
        {
          "name": "",
          "type": "bytes32"
        }
      ],
      "payable": false,
      "stateMutability": "view",
      "type": "function"
    },
    {
      "constant": true,
      "inputs": [],
      "name": "getIntroducedCount",
      "outputs": [
        {
          "name": "",
          "type": "uint256"
        }
      ],
      "payable": false,
      "stateMutability": "view",
      "type": "function"
    },
    {
      "constant": true,
      "inputs": [],
      "name": "getBalance",
      "outputs": [
        {
          "name": "",
          "type": "uint256"
        }
      ],
      "payable": false,
      "stateMutability": "view",
      "type": "function"
    },
    {
      "constant": true,
      "inputs": [],
      "name": "getRound",
      "outputs": [
        {
          "name": "",
          "type": "uint256"
        }
      ],
      "payable": false,
      "stateMutability": "view",
      "type": "function"
    }
  ],
  "bytecode": "0x608060405266038d7ea4c6800060015561138860025534801561002157600080fd5b50336000806101000a81548173ffffffffffffffffffffffffffffffffffffffff021916908373ffffffffffffffffffffffffffffffffffffffff1602179055506000809054906101000a900473ffffffffffffffffffffffffffffffffffffffff1673ffffffffffffffffffffffffffffffffffffffff16600073ffffffffffffffffffffffffffffffffffffffff167f8be0079c531659141344cd1fd0a4f28419497f9722a3daafe3b4186f6b6457e060405160405180910390a360006007819055506110e2806100f56000396000f3fe6080604052600436106100f1576000357c0100000000000000000000000000000000000000000000000000000000900463ffffffff16806312065fe0146100f6578063281d62c414610121578063676e268014610138578063715018a6146101755780637a360e651461018c5780638ca7cad8146101b75780638da5cb5b146101e25780638f32d59b1461020d57806391b7f5ed146102385780639348cef71461026157806398d5fdca1461028a5780639f8743f7146102b5578063b2185bb1146102e0578063d6febde8146102f7578063ed150e7814610313578063f2fde38b1461032f578063fc56365814610358575b600080fd5b34801561010257600080fd5b5061010b610395565b6040516101189190610fe9565b60405180910390f35b34801561012d57600080fd5b506101366103b4565b005b34801561014457600080fd5b5061015f600480360361015a9190810190610d5b565b6103c8565b60405161016c9190610f8e565b60405180910390f35b34801561018157600080fd5b5061018a610445565b005b34801561019857600080fd5b506101a161054d565b6040516101ae9190610fe9565b60405180910390f35b3480156101c357600080fd5b506101cc61056a565b6040516101d99190610fe9565b60405180910390f35b3480156101ee57600080fd5b506101f76105b1565b6040516102049190610f3d565b60405180910390f35b34801561021957600080fd5b506102226105da565b60405161022f9190610f73565b60405180910390f35b34801561024457600080fd5b5061025f600480360361025a9190810190610daa565b610631565b005b34801561026d57600080fd5b5061028860048036036102839190810190610dd3565b61063b565b005b34801561029657600080fd5b5061029f61086b565b6040516102ac9190610fe9565b60405180910390f35b3480156102c157600080fd5b506102ca610875565b6040516102d79190610fe9565b60405180910390f35b3480156102ec57600080fd5b506102f561087f565b005b610311600480360361030c9190810190610dd3565b61097d565b005b61032d60048036036103289190810190610e0f565b610abc565b005b34801561033b57600080fd5b5061035660048036036103519190810190610d32565b610b1a565b005b34801561036457600080fd5b5061037f600480360361037a9190810190610daa565b610b6f565b60405161038c9190610f8e565b60405180910390f35b60003073ffffffffffffffffffffffffffffffffffffffff1631905090565b600760008154809291906001019190505550565b6000838383604051602001808473ffffffffffffffffffffffffffffffffffffffff1673ffffffffffffffffffffffffffffffffffffffff166c0100000000000000000000000002815260140183815260200182815260200193505050506040516020818303038152906040528051906020012090509392505050565b61044d6105da565b151561048e576040517f08c379a000000000000000000000000000000000000000000000000000000000815260040161048590610fc9565b60405180910390fd5b600073ffffffffffffffffffffffffffffffffffffffff166000809054906101000a900473ffffffffffffffffffffffffffffffffffffffff1673ffffffffffffffffffffffffffffffffffffffff167f8be0079c531659141344cd1fd0a4f28419497f9722a3daafe3b4186f6b6457e060405160405180910390a360008060006101000a81548173ffffffffffffffffffffffffffffffffffffffff021916908373ffffffffffffffffffffffffffffffffffffffff160217905550565b600060036000600754815260200190815260200160002054905090565b6000600560003373ffffffffffffffffffffffffffffffffffffffff1673ffffffffffffffffffffffffffffffffffffffff16815260200190815260200160002054905090565b60008060009054906101000a900473ffffffffffffffffffffffffffffffffffffffff16905090565b60008060009054906101000a900473ffffffffffffffffffffffffffffffffffffffff1673ffffffffffffffffffffffffffffffffffffffff163373ffffffffffffffffffffffffffffffffffffffff1614905090565b8060018190555050565b6001600281111561064857fe5b600660009054906101000a900460ff16600281111561066357fe5b14151561066f57600080fd5b600061067c3384846103c8565b9050806004600060075481526020019081526020016000206000858152602001908152602001600020541415156106b257600080fd5b600a600060075481526020019081526020016000205481604051602001808381526020018281526020019250505060405160208183030381529060405280519060200120600a6000600754815260200190815260200160002081905550610717610ccf565b60408051908101604052803373ffffffffffffffffffffffffffffffffffffffff16815260200160028081111561074a57fe5b815250905080600860006007548152602001908152602001600020600086815260200190815260200160002060008201518160000160006101000a81548173ffffffffffffffffffffffffffffffffffffffff021916908373ffffffffffffffffffffffffffffffffffffffff16021790555060208201518160000160146101000a81548160ff021916908360028111156107e157fe5b021790555090505060096000600754815260200190815260200160002060003373ffffffffffffffffffffffffffffffffffffffff1673ffffffffffffffffffffffffffffffffffffffff16815260200190815260200160002084908060018154018082558091505090600182039060005260206000200160009091929091909150555050505050565b6000600154905090565b6000600754905090565b60028081111561088b57fe5b600660009054906101000a900460ff1660028111156108a657fe5b1415156108b257600080fd5b6000600254600a6000600754815260200190815260200160002054600190048115156108da57fe5b069050600860006007548152602001908152602001600020600082815260200190815260200160002060000160009054906101000a900473ffffffffffffffffffffffffffffffffffffffff16600b6000600754815260200190815260200160002060006101000a81548173ffffffffffffffffffffffffffffffffffffffff021916908373ffffffffffffffffffffffffffffffffffffffff16021790555050565b6001543414151561098d57600080fd5b60008210158061099e575060025482105b15156109a957600080fd5b600060028111156109b657fe5b600660009054906101000a900460ff1660028111156109d157fe5b1415156109dd57600080fd5b600360006007548152602001908152602001600020600081548092919060010191905055506000610a0f3384846103c8565b9050806004600060075481526020019081526020016000206000858152602001908152602001600020819055507f5c6c890314aa0d49059c35b35ff86ffb43efe8f543dc3691558f39dfa4a8201133604051610a6b9190610f58565b60405180910390a1600254600360006007548152602001908152602001600020541415610ab7576001600660006101000a81548160ff02191690836002811115610ab157fe5b02179055505b505050565b610ac6838361097d565b600560008273ffffffffffffffffffffffffffffffffffffffff1673ffffffffffffffffffffffffffffffffffffffff16815260200190815260200160002060008154809291906001019190505550505050565b610b226105da565b1515610b63576040517f08c379a0000000000000000000000000000000000000000000000000000000008152600401610b5a90610fc9565b60405180910390fd5b610b6c81610b9f565b50565b60006004600060075481526020019081526020016000206000838152602001908152602001600020549050919050565b600073ffffffffffffffffffffffffffffffffffffffff168173ffffffffffffffffffffffffffffffffffffffff1614151515610c11576040517f08c379a0000000000000000000000000000000000000000000000000000000008152600401610c0890610fa9565b60405180910390fd5b8073ffffffffffffffffffffffffffffffffffffffff166000809054906101000a900473ffffffffffffffffffffffffffffffffffffffff1673ffffffffffffffffffffffffffffffffffffffff167f8be0079c531659141344cd1fd0a4f28419497f9722a3daafe3b4186f6b6457e060405160405180910390a3806000806101000a81548173ffffffffffffffffffffffffffffffffffffffff021916908373ffffffffffffffffffffffffffffffffffffffff16021790555050565b6040805190810160405280600073ffffffffffffffffffffffffffffffffffffffff16815260200160006002811115610d0457fe5b81525090565b6000610d168235611056565b905092915050565b6000610d2a8235611068565b905092915050565b600060208284031215610d4457600080fd5b6000610d5284828501610d0a565b91505092915050565b600080600060608486031215610d7057600080fd5b6000610d7e86828701610d0a565b9350506020610d8f86828701610d1e565b9250506040610da086828701610d1e565b9150509250925092565b600060208284031215610dbc57600080fd5b6000610dca84828501610d1e565b91505092915050565b60008060408385031215610de657600080fd5b6000610df485828601610d1e565b9250506020610e0585828601610d1e565b9150509250929050565b600080600060608486031215610e2457600080fd5b6000610e3286828701610d1e565b9350506020610e4386828701610d1e565b9250506040610e5486828701610d0a565b9150509250925092565b610e6781611072565b82525050565b610e7681611004565b82525050565b610e8581611016565b82525050565b610e9481611022565b82525050565b6000602682527f4f776e61626c653a206e6577206f776e657220697320746865207a65726f206160208301527f64647265737300000000000000000000000000000000000000000000000000006040830152606082019050919050565b6000602082527f4f776e61626c653a2063616c6c6572206973206e6f7420746865206f776e65726020830152604082019050919050565b610f378161104c565b82525050565b6000602082019050610f526000830184610e6d565b92915050565b6000602082019050610f6d6000830184610e5e565b92915050565b6000602082019050610f886000830184610e7c565b92915050565b6000602082019050610fa36000830184610e8b565b92915050565b60006020820190508181036000830152610fc281610e9a565b9050919050565b60006020820190508181036000830152610fe281610ef7565b9050919050565b6000602082019050610ffe6000830184610f2e565b92915050565b600061100f8261102c565b9050919050565b60008115159050919050565b6000819050919050565b600073ffffffffffffffffffffffffffffffffffffffff82169050919050565b6000819050919050565b60006110618261102c565b9050919050565b6000819050919050565b600061107d82611084565b9050919050565b600061108f82611096565b9050919050565b60006110a18261102c565b905091905056fea265627a7a723058208f35f5c713749ac6e120ddbe59638fb8a801be6281788de363a9811fa01767136c6578706572696d656e74616cf50037",
  "source": "pragma solidity >=0.4.21 <0.6.0;\npragma experimental ABIEncoderV2;\n\nimport \"./Ownable.sol\";\n\ncontract DreamTickets is Ownable {\n\n  event Buy(\n    address buyer\n  );\n\n  struct Entry {\n    address buyer;\n    SoldoutStatus status;\n  }\n\n  enum SoldoutStatus {\n    NOT_SELLING,\n    BUY,\n    REVEALED\n  }\n\n  enum Term {\n    BUY,\n    REVEAL,\n    RESULT\n  }\n\n  ////////////////////////////////////////\n  // Always public\n  ////////////////////////////////////////\n  \n  // A ticket price per a ticket\n  uint private TICKET_PRICE = 1e15;\n\n  // The total number of ticket which is sold in a term\n  uint private TICKET_TOTAL = 5000;\n\n  // Entry player's number\n  mapping(uint => uint) private entryCount;\n\n  // num => CommitmentHash(BuyerAddress * num * passcode)\n  mapping(uint => mapping(uint => bytes32)) private commitments;\n\n  // If you enter the introducer, it is incremented\n  mapping(address => uint) private introducers;\n\n  Term private term;\n\n  uint private round;\n\n\n  ////////////////////////////////////////\n  // Public after reveal\n  ////////////////////////////////////////\n\n  // TicketNumber => BuyerAddress\n  mapping(uint => mapping(uint => Entry)) private entries;\n\n  // BuyerAddress => TicketNumbers\n  mapping(uint => mapping(address => uint[])) private tickets;\n\n\n  // The current seed which determine the number of winner\n  mapping(uint => bytes32) private seed;\n\n  // The winner of a current game\n  mapping(uint => address) private winner;\n\n\n  constructor () public {\n    round = 0;\n  }\n\n  // initNumbers is initialize arrays of numbers\n  // The game will be reset\n  function initEntries() private {\n    round++;\n  }\n\n  // buy is used when you pay ETH and apply a lottery\n  // A player bought a ticket but still not end of process\n  function buy (uint _num, uint _passcode) public payable {\n    require(msg.value == TICKET_PRICE);\n    require(_num >= 0 || _num < TICKET_TOTAL);\n    require(term == Term.BUY);\n\n    entryCount[round]++;\n\n    bytes32 commitment = createCommitment(msg.sender, _num, _passcode);\n    commitments[round][_num] = commitment;\n\n    emit Buy(msg.sender);\n\n    if (entryCount[round] == TICKET_TOTAL) {\n      term = Term.REVEAL;\n      // TODO: count down in a week\n    }\n  }\n\n  function buyWithIntroducer(uint _num, uint _passcode, address _introducer) public payable {\n    buy(_num, _passcode);\n    // register introducer\n    introducers[_introducer]++;\n    // TODO: Introduce Event\n  }\n  \n\n  function createCommitment(address _user, uint _num, uint _passcode) public pure returns (bytes32) {\n    return keccak256(abi.encodePacked(_user, _num, _passcode));\n  }\n\n\n  function reveal (uint _num, uint _passcode) public {\n    require(term == Term.REVEAL);\n    \n    bytes32 commitment = createCommitment(msg.sender, _num, _passcode);\n    require(commitments[round][_num] == commitment);\n\n    seed[round] = keccak256(abi.encodePacked(seed[round], commitment));\n\n    Entry memory entry = Entry(msg.sender, SoldoutStatus.REVEALED);\n    entries[round][_num] = entry;\n    tickets[round][msg.sender].push(_num);\n  }\n\n  function drawWinner () public /*onlyOwner*/ {\n    require(term == Term.RESULT);\n    uint seedIndex = uint(seed[round]) % TICKET_TOTAL;\n    winner[round] = entries[round][seedIndex].buyer;\n  }\n\n  function nextGame () public /* onlyOwner */ {\n    round++;\n  }\n\n  function setPrice (uint price) public {\n    TICKET_PRICE = price;\n  }\n\n  function getPrice () public view returns (uint) {\n    return TICKET_PRICE;\n  }\n\n  function getEntryCount () public view returns (uint) {\n    return entryCount[round];\n  }\n\n\n\n  function getNumber(uint num) public view returns (bytes32) {\n    return commitments[round][num];\n  }\n\n  function getIntroducedCount() public view returns (uint) {\n    return introducers[msg.sender];\n  }\n\n  function getBalance() public view returns (uint) {\n    return address(this).balance;\n  }\n\n  function getRound() public view returns (uint) {\n    return round;\n  }\n}",
  "sourcePath": "/Users/koikeshunpei/Dev/04_lottery/dapp/contracts/DreamTickets.sol",
  "compiler": {
    "name": "solc",
    "version": "0.5.0+commit.1d4f565a.Emscripten.clang"
  },
  "schemaVersion": "3.0.9",
  "updatedAt": "2019-06-14T14:37:44.953Z",
  "devdoc": {
    "methods": {
      "isOwner()": {
        "details": "Returns true if the caller is the current owner."
      },
      "owner()": {
        "details": "Returns the address of the current owner."
      },
      "renounceOwnership()": {
        "details": "Leaves the contract without owner. It will not be possible to call `onlyOwner` functions anymore. Can only be called by the current owner.     * > Note: Renouncing ownership will leave the contract without an owner, thereby removing any functionality that is only available to the owner."
      },
      "transferOwnership(address)": {
        "details": "Transfers ownership of the contract to a new account (`newOwner`). Can only be called by the current owner."
      }
    }
  },
  "userdoc": {
    "methods": {}
  }
}