{
  "contractName": "DreamTicket",
  "abi": [
    {
      "constant": false,
      "inputs": [],
      "name": "renounceOwnership",
      "outputs": [],
      "payable": false,
      "stateMutability": "nonpayable",
      "type": "function"
    },
    {
      "constant": true,
      "inputs": [],
      "name": "owner",
      "outputs": [
        {
          "name": "",
          "type": "address"
        }
      ],
      "payable": false,
      "stateMutability": "view",
      "type": "function"
    },
    {
      "constant": true,
      "inputs": [],
      "name": "isOwner",
      "outputs": [
        {
          "name": "",
          "type": "bool"
        }
      ],
      "payable": false,
      "stateMutability": "view",
      "type": "function"
    },
    {
      "constant": false,
      "inputs": [
        {
          "name": "newOwner",
          "type": "address"
        }
      ],
      "name": "transferOwnership",
      "outputs": [],
      "payable": false,
      "stateMutability": "nonpayable",
      "type": "function"
    },
    {
      "inputs": [],
      "payable": false,
      "stateMutability": "nonpayable",
      "type": "constructor"
    },
    {
      "anonymous": false,
      "inputs": [
        {
          "indexed": false,
          "name": "buyer",
          "type": "address"
        }
      ],
      "name": "Buy",
      "type": "event"
    },
    {
      "anonymous": false,
      "inputs": [
        {
          "indexed": true,
          "name": "previousOwner",
          "type": "address"
        },
        {
          "indexed": true,
          "name": "newOwner",
          "type": "address"
        }
      ],
      "name": "OwnershipTransferred",
      "type": "event"
    },
    {
      "constant": false,
      "inputs": [
        {
          "name": "_num",
          "type": "uint256"
        },
        {
          "name": "_passcode",
          "type": "uint256"
        }
      ],
      "name": "buy",
      "outputs": [],
      "payable": true,
      "stateMutability": "payable",
      "type": "function"
    },
    {
      "constant": false,
      "inputs": [
        {
          "name": "_num",
          "type": "uint256"
        },
        {
          "name": "_passcode",
          "type": "uint256"
        },
        {
          "name": "_introducer",
          "type": "address"
        }
      ],
      "name": "buyWithIntroducer",
      "outputs": [],
      "payable": true,
      "stateMutability": "payable",
      "type": "function"
    },
    {
      "constant": true,
      "inputs": [
        {
          "name": "_user",
          "type": "address"
        },
        {
          "name": "_num",
          "type": "uint256"
        },
        {
          "name": "_passcode",
          "type": "uint256"
        }
      ],
      "name": "createCommitment",
      "outputs": [
        {
          "name": "",
          "type": "bytes32"
        }
      ],
      "payable": false,
      "stateMutability": "pure",
      "type": "function"
    },
    {
      "constant": false,
      "inputs": [
        {
          "name": "_num",
          "type": "uint256"
        },
        {
          "name": "_passcode",
          "type": "uint256"
        }
      ],
      "name": "reveal",
      "outputs": [],
      "payable": false,
      "stateMutability": "nonpayable",
      "type": "function"
    },
    {
      "constant": false,
      "inputs": [],
      "name": "drawWinner",
      "outputs": [],
      "payable": true,
      "stateMutability": "payable",
      "type": "function"
    },
    {
      "constant": false,
      "inputs": [],
      "name": "getSeedIndex",
      "outputs": [],
      "payable": false,
      "stateMutability": "nonpayable",
      "type": "function"
    },
    {
      "constant": true,
      "inputs": [
        {
          "name": "_user",
          "type": "address"
        }
      ],
      "name": "getIntroducedCount",
      "outputs": [
        {
          "name": "",
          "type": "uint256"
        }
      ],
      "payable": false,
      "stateMutability": "view",
      "type": "function"
    },
    {
      "constant": true,
      "inputs": [],
      "name": "getRound",
      "outputs": [
        {
          "name": "",
          "type": "uint256"
        }
      ],
      "payable": false,
      "stateMutability": "view",
      "type": "function"
    },
    {
      "constant": true,
      "inputs": [],
      "name": "getBuyCount",
      "outputs": [
        {
          "name": "",
          "type": "uint256"
        }
      ],
      "payable": false,
      "stateMutability": "view",
      "type": "function"
    },
    {
      "constant": true,
      "inputs": [],
      "name": "getRevealCount",
      "outputs": [
        {
          "name": "",
          "type": "uint256"
        }
      ],
      "payable": false,
      "stateMutability": "view",
      "type": "function"
    },
    {
      "constant": true,
      "inputs": [
        {
          "name": "_num",
          "type": "uint256"
        }
      ],
      "name": "getAddress",
      "outputs": [
        {
          "name": "",
          "type": "address"
        }
      ],
      "payable": false,
      "stateMutability": "view",
      "type": "function"
    },
    {
      "constant": true,
      "inputs": [
        {
          "name": "_address",
          "type": "address"
        }
      ],
      "name": "getNumbers",
      "outputs": [
        {
          "name": "",
          "type": "uint256[]"
        }
      ],
      "payable": false,
      "stateMutability": "view",
      "type": "function"
    },
    {
      "constant": false,
      "inputs": [],
      "name": "nextTerm",
      "outputs": [],
      "payable": false,
      "stateMutability": "nonpayable",
      "type": "function"
    },
    {
      "constant": true,
      "inputs": [],
      "name": "getTerm",
      "outputs": [
        {
          "name": "",
          "type": "uint8"
        }
      ],
      "payable": false,
      "stateMutability": "view",
      "type": "function"
    },
    {
      "constant": true,
      "inputs": [],
      "name": "getWinner",
      "outputs": [
        {
          "name": "",
          "type": "address"
        }
      ],
      "payable": false,
      "stateMutability": "view",
      "type": "function"
    },
    {
      "constant": true,
      "inputs": [
        {
          "name": "_from",
          "type": "uint256"
        },
        {
          "name": "_to",
          "type": "uint256"
        }
      ],
      "name": "getSelectableNumbers",
      "outputs": [
        {
          "name": "",
          "type": "uint256[]"
        }
      ],
      "payable": false,
      "stateMutability": "view",
      "type": "function"
    },
    {
      "constant": true,
      "inputs": [
        {
          "name": "_from",
          "type": "uint256"
        },
        {
          "name": "_to",
          "type": "uint256"
        }
      ],
      "name": "getNonSelectableNumbers",
      "outputs": [
        {
          "name": "",
          "type": "uint256[]"
        }
      ],
      "payable": false,
      "stateMutability": "view",
      "type": "function"
    },
    {
      "constant": false,
      "inputs": [],
      "name": "nextGame",
      "outputs": [],
      "payable": false,
      "stateMutability": "nonpayable",
      "type": "function"
    },
    {
      "constant": false,
      "inputs": [
        {
          "name": "price",
          "type": "uint256"
        }
      ],
      "name": "setPrice",
      "outputs": [],
      "payable": false,
      "stateMutability": "nonpayable",
      "type": "function"
    },
    {
      "constant": true,
      "inputs": [],
      "name": "getPrice",
      "outputs": [
        {
          "name": "",
          "type": "uint256"
        }
      ],
      "payable": false,
      "stateMutability": "view",
      "type": "function"
    },
    {
      "constant": false,
      "inputs": [
        {
          "name": "num",
          "type": "uint256"
        }
      ],
      "name": "setTicketTotal",
      "outputs": [],
      "payable": false,
      "stateMutability": "nonpayable",
      "type": "function"
    },
    {
      "constant": true,
      "inputs": [],
      "name": "getContractBalance",
      "outputs": [
        {
          "name": "",
          "type": "uint256"
        }
      ],
      "payable": false,
      "stateMutability": "view",
      "type": "function"
    }
  ],
  "bytecode": "0x608060405266038d7ea4c68000600155600a60025534801561002057600080fd5b50336000806101000a81548173ffffffffffffffffffffffffffffffffffffffff021916908373ffffffffffffffffffffffffffffffffffffffff1602179055506000809054906101000a900473ffffffffffffffffffffffffffffffffffffffff1673ffffffffffffffffffffffffffffffffffffffff16600073ffffffffffffffffffffffffffffffffffffffff167f8be0079c531659141344cd1fd0a4f28419497f9722a3daafe3b4186f6b6457e060405160405180910390a360006007819055506100fc610101640100000000026401000000009004565b61014b565b600760008154809291906001019190505550600060036000600754815260200190815260200160002081905550600060086000600754815260200190815260200160002081905550565b611d808061015a6000396000f3fe608060405260043610610154576000357c0100000000000000000000000000000000000000000000000000000000900463ffffffff168063020c6fed1461015957806303652dea1461018457806305eaf6d5146101c1578063124b65b4146101d857806317e190fa146102035780631ab0435214610240578063281d62c41461027d578063676e2680146102945780636f9fb98a146102d1578063715018a6146102fc57806381dda9fa14610313578063871933e21461032a5780638950ce0b146103675780638da5cb5b146103905780638e7ea5b2146103bb5780638f10fd45146103e65780638f32d59b1461041157806391b7f5ed1461043c5780639348cef71461046557806398d5fdca1461048e5780639f8743f7146104b9578063b2185bb1146104e4578063b93f9b0a146104ee578063d6febde81461052b578063ed150e7814610547578063f2fde38b14610563575b600080fd5b34801561016557600080fd5b5061016e61058c565b60405161017b9190611c16565b60405180910390f35b34801561019057600080fd5b506101ab60048036036101a69190810190611865565b6105a9565b6040516101b89190611c16565b60405180910390f35b3480156101cd57600080fd5b506101d66105f2565b005b3480156101e457600080fd5b506101ed6106b3565b6040516101fa9190611bbb565b60405180910390f35b34801561020f57600080fd5b5061022a60048036036102259190810190611865565b6106ca565b6040516102379190611b63565b60405180910390f35b34801561024c57600080fd5b506102676004803603610262919081019061192f565b610774565b6040516102749190611b63565b60405180910390f35b34801561028957600080fd5b506102926108c6565b005b3480156102a057600080fd5b506102bb60048036036102b691908101906118b7565b610931565b6040516102c89190611ba0565b60405180910390f35b3480156102dd57600080fd5b506102e66109ae565b6040516102f39190611c16565b60405180910390f35b34801561030857600080fd5b506103116109cd565b005b34801561031f57600080fd5b50610328610ad5565b005b34801561033657600080fd5b50610351600480360361034c919081019061192f565b610bf3565b60405161035e9190611b63565b60405180910390f35b34801561037357600080fd5b5061038e60048036036103899190810190611906565b610d3d565b005b34801561039c57600080fd5b506103a5610d47565b6040516103b29190611b48565b60405180910390f35b3480156103c757600080fd5b506103d0610d70565b6040516103dd9190611b12565b60405180910390f35b3480156103f257600080fd5b506103fb610dad565b6040516104089190611c16565b60405180910390f35b34801561041d57600080fd5b50610426610dca565b6040516104339190611b85565b60405180910390f35b34801561044857600080fd5b50610463600480360361045e9190810190611906565b610e21565b005b34801561047157600080fd5b5061048c6004803603610487919081019061192f565b610e2b565b005b34801561049a57600080fd5b506104a36110bb565b6040516104b09190611c16565b60405180910390f35b3480156104c557600080fd5b506104ce6110c5565b6040516104db9190611c16565b60405180910390f35b6104ec6110cf565b005b3480156104fa57600080fd5b5061051560048036036105109190810190611906565b611366565b6040516105229190611b12565b60405180910390f35b6105456004803603610540919081019061192f565b6113b6565b005b610561600480360361055c919081019061196b565b611530565b005b34801561056f57600080fd5b5061058a6004803603610585919081019061188e565b6115c9565b005b600060086000600754815260200190815260200160002054905090565b6000600560008373ffffffffffffffffffffffffffffffffffffffff1673ffffffffffffffffffffffffffffffffffffffff168152602001908152602001600020549050919050565b6000600254600b60006007548152602001908152602001600020546001900481151561061a57fe5b069050600073ffffffffffffffffffffffffffffffffffffffff16600960006007548152602001908152602001600020600083815260200190815260200160002060009054906101000a900473ffffffffffffffffffffffffffffffffffffffff1673ffffffffffffffffffffffffffffffffffffffff1614156106b05780806001019150506002548111156106af57600090505b5b50565b6000600660009054906101000a900460ff16905090565b6060600a6000600754815260200190815260200160002060008373ffffffffffffffffffffffffffffffffffffffff1673ffffffffffffffffffffffffffffffffffffffff16815260200190815260200160002080548060200260200160405190810160405280929190818152602001828054801561076857602002820191906000526020600020905b815481526020019060010190808311610754575b50505050509050919050565b6060818310151561078457600080fd5b60006001610792858561161e565b8585030301905060008090506060826040519080825280602002602001820160405280156107cf5781602001602082028038833980820191505090505b50905060008690505b85811115156108b95760007f010000000000000000000000000000000000000000000000000000000000000002600460006007548152602001908152602001600020600083815260200190815260200160002054600060208110151561083a57fe5b1a7f0100000000000000000000000000000000000000000000000000000000000000027effffffffffffffffffffffffffffffffffffffffffffffffffffffffffffff19161415156108ac5780828481518110151561089557fe5b906020019060200201818152505082806001019350505b80806001019150506107d8565b5080935050505092915050565b6002808111156108d257fe5b600660009054906101000a900460ff1660028111156108ed57fe5b1415156108f957600080fd5b6007600081548092919060010191905055506000600660006101000a81548160ff0219169083600281111561092a57fe5b0217905550565b6000838383604051602001808473ffffffffffffffffffffffffffffffffffffffff1673ffffffffffffffffffffffffffffffffffffffff166c0100000000000000000000000002815260140183815260200182815260200193505050506040516020818303038152906040528051906020012090509392505050565b60003073ffffffffffffffffffffffffffffffffffffffff1631905090565b6109d5610dca565b1515610a16576040517f08c379a0000000000000000000000000000000000000000000000000000000008152600401610a0d90611bf6565b60405180910390fd5b600073ffffffffffffffffffffffffffffffffffffffff166000809054906101000a900473ffffffffffffffffffffffffffffffffffffffff1673ffffffffffffffffffffffffffffffffffffffff167f8be0079c531659141344cd1fd0a4f28419497f9722a3daafe3b4186f6b6457e060405160405180910390a360008060006101000a81548173ffffffffffffffffffffffffffffffffffffffff021916908373ffffffffffffffffffffffffffffffffffffffff160217905550565b60006002811115610ae257fe5b600660009054906101000a900460ff166002811115610afd57fe5b1480610b2e575060016002811115610b1157fe5b600660009054906101000a900460ff166002811115610b2c57fe5b145b1515610b3957600080fd5b60006002811115610b4657fe5b600660009054906101000a900460ff166002811115610b6157fe5b1415610b90576001600660006101000a81548160ff02191690836002811115610b8657fe5b0217905550610bf1565b60016002811115610b9d57fe5b600660009054906101000a900460ff166002811115610bb857fe5b1415610bef576002600660006101000a81548160ff02191690836002811115610bdd57fe5b0217905550610bea6110cf565b610bf0565b5b5b565b60608183101515610c0357600080fd5b6000610c0f848461161e565b90506000809050606082604051908082528060200260200182016040528015610c475781602001602082028038833980820191505090505b50905060008690505b8581111515610d305760007f0100000000000000000000000000000000000000000000000000000000000000026004600060075481526020019081526020016000206000838152602001908152602001600020546000602081101515610cb257fe5b1a7f0100000000000000000000000000000000000000000000000000000000000000027effffffffffffffffffffffffffffffffffffffffffffffffffffffffffffff19161415610d2357808284815181101515610d0c57fe5b906020019060200201818152505082806001019350505b8080600101915050610c50565b5080935050505092915050565b8060028190555050565b60008060009054906101000a900473ffffffffffffffffffffffffffffffffffffffff16905090565b6000600c6000600754815260200190815260200160002060009054906101000a900473ffffffffffffffffffffffffffffffffffffffff16905090565b600060036000600754815260200190815260200160002054905090565b60008060009054906101000a900473ffffffffffffffffffffffffffffffffffffffff1673ffffffffffffffffffffffffffffffffffffffff163373ffffffffffffffffffffffffffffffffffffffff1614905090565b8060018190555050565b60016002811115610e3857fe5b600660009054906101000a900460ff166002811115610e5357fe5b141515610e5f57600080fd5b6000610e6c338484610931565b905080600460006007548152602001908152602001600020600085815260200190815260200160002054141515610ea257600080fd5b3373ffffffffffffffffffffffffffffffffffffffff16600960006007548152602001908152602001600020600085815260200190815260200160002060009054906101000a900473ffffffffffffffffffffffffffffffffffffffff1673ffffffffffffffffffffffffffffffffffffffff1614151515610f2357600080fd5b600b600060075481526020019081526020016000205481604051602001808381526020018281526020019250505060405160208183030381529060405280519060200120600b60006007548152602001908152602001600020819055506008600060075481526020019081526020016000206000815480929190600101919050555033600960006007548152602001908152602001600020600085815260200190815260200160002060006101000a81548173ffffffffffffffffffffffffffffffffffffffff021916908373ffffffffffffffffffffffffffffffffffffffff160217905550600a6000600754815260200190815260200160002060003373ffffffffffffffffffffffffffffffffffffffff1673ffffffffffffffffffffffffffffffffffffffff1681526020019081526020016000208390806001815401808255809150509060018203906000526020600020016000909192909190915055506002546008600060075481526020019081526020016000205414156110b6576110ad610ad5565b6110b56110cf565b5b505050565b6000600154905090565b6000600754905090565b6002808111156110db57fe5b600660009054906101000a900460ff1660028111156110f657fe5b14151561110257600080fd5b6000600254600b60006007548152602001908152602001600020546001900481151561112a57fe5b0690505b600073ffffffffffffffffffffffffffffffffffffffff16600960006007548152602001908152602001600020600083815260200190815260200160002060009054906101000a900473ffffffffffffffffffffffffffffffffffffffff1673ffffffffffffffffffffffffffffffffffffffff1614156111c55780806001019150506002548111156111c057600090505b61112e565b600960006007548152602001908152602001600020600082815260200190815260200160002060009054906101000a900473ffffffffffffffffffffffffffffffffffffffff16600c6000600754815260200190815260200160002060006101000a81548173ffffffffffffffffffffffffffffffffffffffff021916908373ffffffffffffffffffffffffffffffffffffffff160217905550611267610d47565b73ffffffffffffffffffffffffffffffffffffffff166108fc60033073ffffffffffffffffffffffffffffffffffffffff16318115156112a357fe5b049081150290604051600060405180830381858888f193505050501580156112cf573d6000803e3d6000fd5b50600c6000600754815260200190815260200160002060009054906101000a900473ffffffffffffffffffffffffffffffffffffffff1673ffffffffffffffffffffffffffffffffffffffff166108fc3073ffffffffffffffffffffffffffffffffffffffff16319081150290604051600060405180830381858888f19350505050158015611362573d6000803e3d6000fd5b5050565b6000600960006007548152602001908152602001600020600083815260200190815260200160002060009054906101000a900473ffffffffffffffffffffffffffffffffffffffff169050919050565b600154341415156113c657600080fd5b600082101580156113d8575060025482105b15156113e357600080fd5b600060028111156113f057fe5b600660009054906101000a900460ff16600281111561140b57fe5b14151561141757600080fd5b600060010260046000600754815260200190815260200160002060008481526020019081526020016000205414151561144f57600080fd5b6103e88110158015611462575061271081105b151561146d57600080fd5b60036000600754815260200190815260200160002060008154809291906001019190505550600061149f338484610931565b9050806004600060075481526020019081526020016000206000858152602001908152602001600020819055507f5c6c890314aa0d49059c35b35ff86ffb43efe8f543dc3691558f39dfa4a82011336040516114fb9190611b2d565b60405180910390a160025460036000600754815260200190815260200160002054141561152b5761152a610ad5565b5b505050565b61153a83836113b6565b8073ffffffffffffffffffffffffffffffffffffffff163373ffffffffffffffffffffffffffffffffffffffff161415151561157557600080fd5b600560008273ffffffffffffffffffffffffffffffffffffffff1673ffffffffffffffffffffffffffffffffffffffff16815260200190815260200160002060008154809291906001019190505550505050565b6115d1610dca565b1515611612576040517f08c379a000000000000000000000000000000000000000000000000000000000815260040161160990611bf6565b60405180910390fd5b61161b816116f9565b50565b6000806000905060008490505b83811115156116ee5760007f010000000000000000000000000000000000000000000000000000000000000002600460006007548152602001908152602001600020600083815260200190815260200160002054600060208110151561168d57fe5b1a7f0100000000000000000000000000000000000000000000000000000000000000027effffffffffffffffffffffffffffffffffffffffffffffffffffffffffffff191614156116e15781806001019250505b808060010191505061162b565b508091505092915050565b600073ffffffffffffffffffffffffffffffffffffffff168173ffffffffffffffffffffffffffffffffffffffff161415151561176b576040517f08c379a000000000000000000000000000000000000000000000000000000000815260040161176290611bd6565b60405180910390fd5b8073ffffffffffffffffffffffffffffffffffffffff166000809054906101000a900473ffffffffffffffffffffffffffffffffffffffff1673ffffffffffffffffffffffffffffffffffffffff167f8be0079c531659141344cd1fd0a4f28419497f9722a3daafe3b4186f6b6457e060405160405180910390a3806000806101000a81548173ffffffffffffffffffffffffffffffffffffffff021916908373ffffffffffffffffffffffffffffffffffffffff16021790555050565b60006118358235611cd0565b905092915050565b60006118498235611ce2565b905092915050565b600061185d8235611cf4565b905092915050565b60006020828403121561187757600080fd5b600061188584828501611829565b91505092915050565b6000602082840312156118a057600080fd5b60006118ae8482850161183d565b91505092915050565b6000806000606084860312156118cc57600080fd5b60006118da86828701611829565b93505060206118eb86828701611851565b92505060406118fc86828701611851565b9150509250925092565b60006020828403121561191857600080fd5b600061192684828501611851565b91505092915050565b6000806040838503121561194257600080fd5b600061195085828601611851565b925050602061196185828601611851565b9150509250929050565b60008060006060848603121561198057600080fd5b600061198e86828701611851565b935050602061199f86828701611851565b92505060406119b086828701611829565b9150509250925092565b6119c381611cfe565b82525050565b6119d281611c68565b82525050565b6119e181611c56565b82525050565b60006119f282611c3e565b808452602084019350611a0483611c31565b60005b82811015611a3657611a1a868351611b03565b611a2382611c49565b9150602086019550600181019050611a07565b50849250505092915050565b611a4b81611c7a565b82525050565b611a5a81611c86565b82525050565b611a6981611d10565b82525050565b6000602682527f4f776e61626c653a206e6577206f776e657220697320746865207a65726f206160208301527f64647265737300000000000000000000000000000000000000000000000000006040830152606082019050919050565b6000602082527f4f776e61626c653a2063616c6c6572206973206e6f7420746865206f776e65726020830152604082019050919050565b611b0c81611cc6565b82525050565b6000602082019050611b2760008301846119d8565b92915050565b6000602082019050611b4260008301846119ba565b92915050565b6000602082019050611b5d60008301846119c9565b92915050565b60006020820190508181036000830152611b7d81846119e7565b905092915050565b6000602082019050611b9a6000830184611a42565b92915050565b6000602082019050611bb56000830184611a51565b92915050565b6000602082019050611bd06000830184611a60565b92915050565b60006020820190508181036000830152611bef81611a6f565b9050919050565b60006020820190508181036000830152611c0f81611acc565b9050919050565b6000602082019050611c2b6000830184611b03565b92915050565b6000602082019050919050565b600081519050919050565b6000602082019050919050565b6000611c6182611ca6565b9050919050565b6000611c7382611ca6565b9050919050565b60008115159050919050565b6000819050919050565b6000600382101515611c9e57fe5b819050919050565b600073ffffffffffffffffffffffffffffffffffffffff82169050919050565b6000819050919050565b6000611cdb82611ca6565b9050919050565b6000611ced82611ca6565b9050919050565b6000819050919050565b6000611d0982611d22565b9050919050565b6000611d1b82611c90565b9050919050565b6000611d2d82611d34565b9050919050565b6000611d3f82611ca6565b905091905056fea265627a7a723058206e21312784e29a65da06326913823f0833280e0b6b9d391ff17ff55069759fc66c6578706572696d656e74616cf50037",
  "source": "pragma solidity >=0.4.21 <0.6.0;\npragma experimental ABIEncoderV2;\n\nimport \"./Ownable.sol\";\n\ncontract DreamTicket is Ownable {\n\n  event Buy(\n    address buyer\n  );\n\n  enum SoldoutStatus {\n    NOT_SELLING,\n    BUY,\n    REVEALED\n  }\n\n  enum Term {\n    BUY,\n    REVEAL,\n    RESULT\n  }\n\n  ////////////////////////////////////////\n  // Always public\n  ////////////////////////////////////////\n  \n  // A ticket price per a ticket\n  uint private TICKET_PRICE = 1e15;\n\n  // The total number of ticket which is sold in a term\n  // uint private TICKET_TOTAL = 5000;\n  uint private TICKET_TOTAL = 10; // DEV\n\n  // Buy player's number\n  mapping(uint => uint) private buyCount;\n\n  // num => CommitmentHash(BuyerAddress * num * passcode)\n  mapping(uint => mapping(uint => bytes32)) private commitments;\n\n  // If you enter the introducer, it is incremented\n  mapping(address => uint) private introducers;\n\n  Term private term;\n\n  uint private round;\n\n\n  ////////////////////////////////////////\n  // Public after reveal\n  ////////////////////////////////////////\n\n  // Reveal player's number\n  mapping(uint => uint) private revealCount;\n\n  // TicketNumber => BuyerAddress\n  mapping(uint => mapping(uint => address payable)) private numToAddr;\n\n  // BuyerAddress => TicketNumbers\n  mapping(uint => mapping(address => uint[])) private addrToNums;\n\n  // The current seed which determine the number of winner\n  mapping(uint => bytes32) private seed;\n\n  // The winner of a current game\n  mapping(uint => address payable) private winner;\n\n\n  constructor () public {\n    round = 0;\n    initEntries();\n  }\n\n  /// @notice The game will be reset\n  function initEntries() private {\n    round++;\n    buyCount[round] = 0;\n    revealCount[round] = 0;\n  }\n\n  /// @notice A player can buy a ticket but the process still not be end\n  /// @param _num The ticket number (0-4999)\n  /// @param _passcode This is necessary to create random (1000-9999)\n  function buy (uint _num, uint _passcode) public payable {\n    require(msg.value == TICKET_PRICE);\n    require(_num >= 0 && _num < TICKET_TOTAL);\n    require(term == Term.BUY);\n    require(commitments[round][_num] == 0);\n    require(_passcode >= 1000 && _passcode < 10000);\n\n    buyCount[round]++;\n\n    bytes32 commitment = createCommitment(msg.sender, _num, _passcode);\n    commitments[round][_num] = commitment;\n\n    emit Buy(msg.sender);\n\n    if (buyCount[round] == TICKET_TOTAL) {\n      nextTerm();\n      // TODO: count down in a week\n    }\n  }\n\n  /// @notice A player can buy a ticket with introducer address\n  /// @param _num The ticket number (0-4999)\n  /// @param _passcode This is necessary to create random (1000-9999)\n  function buyWithIntroducer(uint _num, uint _passcode, address _introducer) public payable {\n    buy(_num, _passcode);\n    require(msg.sender != _introducer);\n    introducers[_introducer]++;\n    // TODO: Introduce Event\n  }\n  \n\n  function createCommitment(address _user, uint _num, uint _passcode) public pure returns (bytes32) {\n    return keccak256(abi.encodePacked(_user, _num, _passcode));\n  }\n\n\n  function reveal (uint _num, uint _passcode) public {\n    require(term == Term.REVEAL);\n    \n    bytes32 commitment = createCommitment(msg.sender, _num, _passcode);\n    require(commitments[round][_num] == commitment);\n\n    // double reveal\n    require(numToAddr[round][_num] != msg.sender);\n\n    seed[round] = keccak256(abi.encodePacked(seed[round], commitment));\n    revealCount[round]++;\n    numToAddr[round][_num] = msg.sender;\n    addrToNums[round][msg.sender].push(_num);\n\n    if (revealCount[round] == TICKET_TOTAL) {\n      nextTerm();\n      drawWinner();\n    }\n  }\n\n  function drawWinner () public payable/*onlyOwner*/ {\n    require(term == Term.RESULT);\n    uint seedIndex = uint(seed[round]) % TICKET_TOTAL;\n    while (numToAddr[round][seedIndex] == address(0)) {\n      seedIndex++;\n      if (seedIndex > TICKET_TOTAL) {\n        seedIndex = 0;\n      }\n    }\n    winner[round] = numToAddr[round][seedIndex];\n    owner().transfer(address(this).balance / 3);\n    winner[round].transfer(address(this).balance);\n  }\n\n  function getSeedIndex () public {\n    uint seedIndex = uint(seed[round]) % TICKET_TOTAL;\n    if (numToAddr[round][seedIndex] == address(0)) {\n      seedIndex++;\n      if (seedIndex > TICKET_TOTAL) {\n        seedIndex = 0;\n      }\n    }\n  }\n\n  function getIntroducedCount(address _user) public view returns (uint) {\n    return introducers[_user];\n  }\n\n  function getRound() public view returns (uint) {\n    return round;\n  }\n\n  function getBuyCount() public view returns (uint) {\n    return buyCount[round];\n  }\n\n  function getRevealCount() public view returns (uint) {\n    return revealCount[round];\n  }\n\n  function getAddress(uint _num) public view returns (address) {\n    return numToAddr[round][_num];\n  }\n\n  function getNumbers(address _address) public view returns (uint[] memory) {\n    return addrToNums[round][_address];\n  }\n\n  function nextTerm() public /* onlyOwner */ {\n    require(term == Term.BUY || term == Term.REVEAL);\n    if (term == Term.BUY) {\n      term = Term.REVEAL;\n    } else if (term == Term.REVEAL) {\n      term = Term.RESULT;\n      drawWinner();\n    } else {\n      // nothing\n    }\n  }\n\n  function getTerm() public view returns (Term) {\n    return term;\n  }\n\n  function getWinner() public view returns (address) {\n    return winner[round];\n  }\n\n  /// @param _from more than equals\n  /// @param _to less than equals\n  function getSelectableNumbers(uint _from, uint _to) public view returns (uint[] memory) {\n    require(_from < _to);\n    uint diff = getEmptyNumber(_from, _to);\n    uint i = 0;\n    uint[] memory numbers = new uint[](diff);\n    for (uint target = _from; target <= _to; target++) {\n      if (commitments[round][target][0] == 0) {\n        numbers[i] = target;\n        i++;\n      }\n    }\n    return numbers;\n  }\n\n  /// @param _from more than equals\n  /// @param _to less than equals\n  function getNonSelectableNumbers(uint _from, uint _to) public view returns (uint[] memory) {\n    require(_from < _to);\n    uint diff = _to - _from - getEmptyNumber(_from, _to) + 1;\n    uint i = 0;\n    uint[] memory numbers = new uint[](diff);\n    for (uint target = _from; target <= _to; target++) {\n      if (commitments[round][target][0] != 0) {\n        numbers[i] = target;\n        i++;\n      }\n    }\n    return numbers;\n  }\n\n  function getEmptyNumber(uint _from, uint _to) private view returns (uint) {\n    uint diff = 0;\n    for (uint target = _from; target <= _to; target++) {\n      if (commitments[round][target][0] == 0) {\n        diff++;\n      }\n    }\n    return diff;\n  }\n\n  function nextGame () public /* onlyOwner */ {\n    require(term == Term.RESULT);\n    round++;\n    term = Term.BUY;\n  }\n\n  function setPrice (uint price) public {\n    TICKET_PRICE = price;\n  }\n\n  function getPrice () public view returns (uint) {\n    return TICKET_PRICE;\n  }\n\n  function setTicketTotal (uint num) public /* onlyOwner */ {\n    // For Only Test\n    TICKET_TOTAL = num;\n  }\n\n  function getContractBalance() public view returns (uint) {\n    return address(this).balance;\n  }\n}",
  "sourcePath": "/Users/koikeshunpei/Dev/04_lottery/dapp/contracts/DreamTicket.sol",
  "compiler": {
    "name": "solc",
    "version": "0.5.0+commit.1d4f565a.Emscripten.clang"
  },
  "schemaVersion": "3.0.9",
  "updatedAt": "2019-07-13T09:44:20.825Z",
  "devdoc": {
    "methods": {
      "buy(uint256,uint256)": {
        "params": {
          "_num": "The ticket number (0-4999)",
          "_passcode": "This is necessary to create random (1000-9999)"
        }
      },
      "buyWithIntroducer(uint256,uint256,address)": {
        "params": {
          "_num": "The ticket number (0-4999)",
          "_passcode": "This is necessary to create random (1000-9999)"
        }
      },
      "getNonSelectableNumbers(uint256,uint256)": {
        "params": {
          "_from": "more than equals",
          "_to": "less than equals"
        }
      },
      "getSelectableNumbers(uint256,uint256)": {
        "params": {
          "_from": "more than equals",
          "_to": "less than equals"
        }
      },
      "isOwner()": {
        "details": "Returns true if the caller is the current owner."
      },
      "owner()": {
        "details": "Returns the address of the current owner."
      },
      "renounceOwnership()": {
        "details": "Leaves the contract without owner. It will not be possible to call `onlyOwner` functions anymore. Can only be called by the current owner.     * > Note: Renouncing ownership will leave the contract without an owner, thereby removing any functionality that is only available to the owner."
      },
      "transferOwnership(address)": {
        "details": "Transfers ownership of the contract to a new account (`newOwner`). Can only be called by the current owner."
      }
    }
  },
  "userdoc": {
    "methods": {
      "buy(uint256,uint256)": {
        "notice": "A player can buy a ticket but the process still not be end"
      },
      "buyWithIntroducer(uint256,uint256,address)": {
        "notice": "A player can buy a ticket with introducer address"
      }
    }
  }
}