{
  "contractName": "DreamTickets",
  "abi": [
    {
      "constant": false,
      "inputs": [],
      "name": "renounceOwnership",
      "outputs": [],
      "payable": false,
      "stateMutability": "nonpayable",
      "type": "function"
    },
    {
      "constant": true,
      "inputs": [],
      "name": "owner",
      "outputs": [
        {
          "name": "",
          "type": "address"
        }
      ],
      "payable": false,
      "stateMutability": "view",
      "type": "function"
    },
    {
      "constant": true,
      "inputs": [],
      "name": "isOwner",
      "outputs": [
        {
          "name": "",
          "type": "bool"
        }
      ],
      "payable": false,
      "stateMutability": "view",
      "type": "function"
    },
    {
      "constant": false,
      "inputs": [
        {
          "name": "newOwner",
          "type": "address"
        }
      ],
      "name": "transferOwnership",
      "outputs": [],
      "payable": false,
      "stateMutability": "nonpayable",
      "type": "function"
    },
    {
      "inputs": [],
      "payable": false,
      "stateMutability": "nonpayable",
      "type": "constructor"
    },
    {
      "anonymous": false,
      "inputs": [
        {
          "indexed": false,
          "name": "buyer",
          "type": "address"
        }
      ],
      "name": "Buy",
      "type": "event"
    },
    {
      "anonymous": false,
      "inputs": [
        {
          "indexed": true,
          "name": "previousOwner",
          "type": "address"
        },
        {
          "indexed": true,
          "name": "newOwner",
          "type": "address"
        }
      ],
      "name": "OwnershipTransferred",
      "type": "event"
    },
    {
      "constant": false,
      "inputs": [
        {
          "name": "_num",
          "type": "uint256"
        },
        {
          "name": "_passcode",
          "type": "uint256"
        }
      ],
      "name": "buy",
      "outputs": [],
      "payable": true,
      "stateMutability": "payable",
      "type": "function"
    },
    {
      "constant": false,
      "inputs": [
        {
          "name": "_num",
          "type": "uint256"
        },
        {
          "name": "_passcode",
          "type": "uint256"
        },
        {
          "name": "_introducer",
          "type": "address"
        }
      ],
      "name": "buyWithIntroducer",
      "outputs": [],
      "payable": true,
      "stateMutability": "payable",
      "type": "function"
    },
    {
      "constant": true,
      "inputs": [
        {
          "name": "_user",
          "type": "address"
        },
        {
          "name": "_num",
          "type": "uint256"
        },
        {
          "name": "_passcode",
          "type": "uint256"
        }
      ],
      "name": "createCommitment",
      "outputs": [
        {
          "name": "",
          "type": "bytes32"
        }
      ],
      "payable": false,
      "stateMutability": "pure",
      "type": "function"
    },
    {
      "constant": false,
      "inputs": [
        {
          "name": "_num",
          "type": "uint256"
        },
        {
          "name": "_passcode",
          "type": "uint256"
        }
      ],
      "name": "reveal",
      "outputs": [],
      "payable": false,
      "stateMutability": "nonpayable",
      "type": "function"
    },
    {
      "constant": false,
      "inputs": [],
      "name": "drawWinner",
      "outputs": [],
      "payable": false,
      "stateMutability": "nonpayable",
      "type": "function"
    },
    {
      "constant": true,
      "inputs": [
        {
          "name": "_user",
          "type": "address"
        }
      ],
      "name": "getIntroducedCount",
      "outputs": [
        {
          "name": "",
          "type": "uint256"
        }
      ],
      "payable": false,
      "stateMutability": "view",
      "type": "function"
    },
    {
      "constant": true,
      "inputs": [],
      "name": "getRound",
      "outputs": [
        {
          "name": "",
          "type": "uint256"
        }
      ],
      "payable": false,
      "stateMutability": "view",
      "type": "function"
    },
    {
      "constant": true,
      "inputs": [],
      "name": "getBuyCount",
      "outputs": [
        {
          "name": "",
          "type": "uint256"
        }
      ],
      "payable": false,
      "stateMutability": "view",
      "type": "function"
    },
    {
      "constant": true,
      "inputs": [],
      "name": "getRevealCount",
      "outputs": [
        {
          "name": "",
          "type": "uint256"
        }
      ],
      "payable": false,
      "stateMutability": "view",
      "type": "function"
    },
    {
      "constant": false,
      "inputs": [],
      "name": "nextGame",
      "outputs": [],
      "payable": false,
      "stateMutability": "nonpayable",
      "type": "function"
    },
    {
      "constant": false,
      "inputs": [
        {
          "name": "price",
          "type": "uint256"
        }
      ],
      "name": "setPrice",
      "outputs": [],
      "payable": false,
      "stateMutability": "nonpayable",
      "type": "function"
    },
    {
      "constant": true,
      "inputs": [],
      "name": "getPrice",
      "outputs": [
        {
          "name": "",
          "type": "uint256"
        }
      ],
      "payable": false,
      "stateMutability": "view",
      "type": "function"
    },
    {
      "constant": true,
      "inputs": [
        {
          "name": "num",
          "type": "uint256"
        }
      ],
      "name": "getNumber",
      "outputs": [
        {
          "name": "",
          "type": "bytes32"
        }
      ],
      "payable": false,
      "stateMutability": "view",
      "type": "function"
    },
    {
      "constant": true,
      "inputs": [],
      "name": "getBalance",
      "outputs": [
        {
          "name": "",
          "type": "uint256"
        }
      ],
      "payable": false,
      "stateMutability": "view",
      "type": "function"
    }
  ],
  "bytecode": "0x608060405266038d7ea4c6800060015561138860025534801561002157600080fd5b50336000806101000a81548173ffffffffffffffffffffffffffffffffffffffff021916908373ffffffffffffffffffffffffffffffffffffffff1602179055506000809054906101000a900473ffffffffffffffffffffffffffffffffffffffff1673ffffffffffffffffffffffffffffffffffffffff16600073ffffffffffffffffffffffffffffffffffffffff167f8be0079c531659141344cd1fd0a4f28419497f9722a3daafe3b4186f6b6457e060405160405180910390a360006008819055506100fd610102640100000000026401000000009004565b61014c565b600860008154809291906001019190505550600060036000600854815260200190815260200160002081905550600060046000600854815260200190815260200160002081905550565b6111188061015b6000396000f3fe6080604052600436106100fc576000357c0100000000000000000000000000000000000000000000000000000000900463ffffffff168063020c6fed1461010157806303652dea1461012c57806312065fe014610169578063281d62c414610194578063676e2680146101ab578063715018a6146101e85780638da5cb5b146101ff5780638f10fd451461022a5780638f32d59b1461025557806391b7f5ed146102805780639348cef7146102a957806398d5fdca146102d25780639f8743f7146102fd578063b2185bb114610328578063d6febde81461033f578063ed150e781461035b578063f2fde38b14610377578063fc563658146103a0575b600080fd5b34801561010d57600080fd5b506101166103dd565b604051610123919061101f565b60405180910390f35b34801561013857600080fd5b50610153600480360361014e9190810190610d68565b6103fa565b604051610160919061101f565b60405180910390f35b34801561017557600080fd5b5061017e610443565b60405161018b919061101f565b60405180910390f35b3480156101a057600080fd5b506101a9610462565b005b3480156101b757600080fd5b506101d260048036036101cd9190810190610d91565b610476565b6040516101df9190610fc4565b60405180910390f35b3480156101f457600080fd5b506101fd6104f3565b005b34801561020b57600080fd5b506102146105fb565b6040516102219190610f73565b60405180910390f35b34801561023657600080fd5b5061023f610624565b60405161024c919061101f565b60405180910390f35b34801561026157600080fd5b5061026a610641565b6040516102779190610fa9565b60405180910390f35b34801561028c57600080fd5b506102a760048036036102a29190810190610de0565b610698565b005b3480156102b557600080fd5b506102d060048036036102cb9190810190610e09565b6106a2565b005b3480156102de57600080fd5b506102e761084d565b6040516102f4919061101f565b60405180910390f35b34801561030957600080fd5b50610312610857565b60405161031f919061101f565b60405180910390f35b34801561033457600080fd5b5061033d610861565b005b61035960048036036103549190810190610e09565b61095c565b005b61037560048036036103709190810190610e45565b610af2565b005b34801561038357600080fd5b5061039e60048036036103999190810190610d68565b610b8b565b005b3480156103ac57600080fd5b506103c760048036036103c29190810190610de0565b610be0565b6040516103d49190610fc4565b60405180910390f35b600060046000600854815260200190815260200160002054905090565b6000600660008373ffffffffffffffffffffffffffffffffffffffff1673ffffffffffffffffffffffffffffffffffffffff168152602001908152602001600020549050919050565b60003073ffffffffffffffffffffffffffffffffffffffff1631905090565b600860008154809291906001019190505550565b6000838383604051602001808473ffffffffffffffffffffffffffffffffffffffff1673ffffffffffffffffffffffffffffffffffffffff166c0100000000000000000000000002815260140183815260200182815260200193505050506040516020818303038152906040528051906020012090509392505050565b6104fb610641565b151561053c576040517f08c379a000000000000000000000000000000000000000000000000000000000815260040161053390610fff565b60405180910390fd5b600073ffffffffffffffffffffffffffffffffffffffff166000809054906101000a900473ffffffffffffffffffffffffffffffffffffffff1673ffffffffffffffffffffffffffffffffffffffff167f8be0079c531659141344cd1fd0a4f28419497f9722a3daafe3b4186f6b6457e060405160405180910390a360008060006101000a81548173ffffffffffffffffffffffffffffffffffffffff021916908373ffffffffffffffffffffffffffffffffffffffff160217905550565b60008060009054906101000a900473ffffffffffffffffffffffffffffffffffffffff16905090565b600060036000600854815260200190815260200160002054905090565b60008060009054906101000a900473ffffffffffffffffffffffffffffffffffffffff1673ffffffffffffffffffffffffffffffffffffffff163373ffffffffffffffffffffffffffffffffffffffff1614905090565b8060018190555050565b60006106af338484610476565b9050806005600060085481526020019081526020016000206000858152602001908152602001600020541415156106e557600080fd5b600b600060085481526020019081526020016000205481604051602001808381526020018281526020019250505060405160208183030381529060405280519060200120600b60006008548152602001908152602001600020819055506004600060085481526020019081526020016000206000815480929190600101919050555033600960006008548152602001908152602001600020600085815260200190815260200160002060006101000a81548173ffffffffffffffffffffffffffffffffffffffff021916908373ffffffffffffffffffffffffffffffffffffffff160217905550600a6000600854815260200190815260200160002060003373ffffffffffffffffffffffffffffffffffffffff1673ffffffffffffffffffffffffffffffffffffffff168152602001908152602001600020839080600181540180825580915050906001820390600052602060002001600090919290919091505550505050565b6000600154905090565b6000600854905090565b60028081111561086d57fe5b600760009054906101000a900460ff16600281111561088857fe5b14151561089457600080fd5b6000600254600b6000600854815260200190815260200160002054600190048115156108bc57fe5b069050600960006008548152602001908152602001600020600082815260200190815260200160002060009054906101000a900473ffffffffffffffffffffffffffffffffffffffff16600c6000600854815260200190815260200160002060006101000a81548173ffffffffffffffffffffffffffffffffffffffff021916908373ffffffffffffffffffffffffffffffffffffffff16021790555050565b6001543414151561096c57600080fd5b6000821015801561097e575060025482105b151561098957600080fd5b6000600281111561099657fe5b600760009054906101000a900460ff1660028111156109b157fe5b1415156109bd57600080fd5b60006001026005600060085481526020019081526020016000206000848152602001908152602001600020541415156109f557600080fd5b6103e88110158015610a08575061271081105b1515610a1357600080fd5b600360006008548152602001908152602001600020600081548092919060010191905055506000610a45338484610476565b9050806005600060085481526020019081526020016000206000858152602001908152602001600020819055507f5c6c890314aa0d49059c35b35ff86ffb43efe8f543dc3691558f39dfa4a8201133604051610aa19190610f8e565b60405180910390a1600254600360006008548152602001908152602001600020541415610aed576001600760006101000a81548160ff02191690836002811115610ae757fe5b02179055505b505050565b610afc838361095c565b8073ffffffffffffffffffffffffffffffffffffffff163373ffffffffffffffffffffffffffffffffffffffff1614151515610b3757600080fd5b600660008273ffffffffffffffffffffffffffffffffffffffff1673ffffffffffffffffffffffffffffffffffffffff16815260200190815260200160002060008154809291906001019190505550505050565b610b93610641565b1515610bd4576040517f08c379a0000000000000000000000000000000000000000000000000000000008152600401610bcb90610fff565b60405180910390fd5b610bdd81610c10565b50565b60006005600060085481526020019081526020016000206000838152602001908152602001600020549050919050565b600073ffffffffffffffffffffffffffffffffffffffff168173ffffffffffffffffffffffffffffffffffffffff1614151515610c82576040517f08c379a0000000000000000000000000000000000000000000000000000000008152600401610c7990610fdf565b60405180910390fd5b8073ffffffffffffffffffffffffffffffffffffffff166000809054906101000a900473ffffffffffffffffffffffffffffffffffffffff1673ffffffffffffffffffffffffffffffffffffffff167f8be0079c531659141344cd1fd0a4f28419497f9722a3daafe3b4186f6b6457e060405160405180910390a3806000806101000a81548173ffffffffffffffffffffffffffffffffffffffff021916908373ffffffffffffffffffffffffffffffffffffffff16021790555050565b6000610d4c823561108c565b905092915050565b6000610d60823561109e565b905092915050565b600060208284031215610d7a57600080fd5b6000610d8884828501610d40565b91505092915050565b600080600060608486031215610da657600080fd5b6000610db486828701610d40565b9350506020610dc586828701610d54565b9250506040610dd686828701610d54565b9150509250925092565b600060208284031215610df257600080fd5b6000610e0084828501610d54565b91505092915050565b60008060408385031215610e1c57600080fd5b6000610e2a85828601610d54565b9250506020610e3b85828601610d54565b9150509250929050565b600080600060608486031215610e5a57600080fd5b6000610e6886828701610d54565b9350506020610e7986828701610d54565b9250506040610e8a86828701610d40565b9150509250925092565b610e9d816110a8565b82525050565b610eac8161103a565b82525050565b610ebb8161104c565b82525050565b610eca81611058565b82525050565b6000602682527f4f776e61626c653a206e6577206f776e657220697320746865207a65726f206160208301527f64647265737300000000000000000000000000000000000000000000000000006040830152606082019050919050565b6000602082527f4f776e61626c653a2063616c6c6572206973206e6f7420746865206f776e65726020830152604082019050919050565b610f6d81611082565b82525050565b6000602082019050610f886000830184610ea3565b92915050565b6000602082019050610fa36000830184610e94565b92915050565b6000602082019050610fbe6000830184610eb2565b92915050565b6000602082019050610fd96000830184610ec1565b92915050565b60006020820190508181036000830152610ff881610ed0565b9050919050565b6000602082019050818103600083015261101881610f2d565b9050919050565b60006020820190506110346000830184610f64565b92915050565b600061104582611062565b9050919050565b60008115159050919050565b6000819050919050565b600073ffffffffffffffffffffffffffffffffffffffff82169050919050565b6000819050919050565b600061109782611062565b9050919050565b6000819050919050565b60006110b3826110ba565b9050919050565b60006110c5826110cc565b9050919050565b60006110d782611062565b905091905056fea265627a7a7230582072d95c91b9772e9ce14dabcff1a77e6f0c03e1493c1b37d7065ab69c6382695e6c6578706572696d656e74616cf50037",
  "source": "pragma solidity >=0.4.21 <0.6.0;\npragma experimental ABIEncoderV2;\n\nimport \"./Ownable.sol\";\n\ncontract DreamTickets is Ownable {\n\n  event Buy(\n    address buyer\n  );\n\n  enum SoldoutStatus {\n    NOT_SELLING,\n    BUY,\n    REVEALED\n  }\n\n  enum Term {\n    BUY,\n    REVEAL,\n    RESULT\n  }\n\n  ////////////////////////////////////////\n  // Always public\n  ////////////////////////////////////////\n  \n  // A ticket price per a ticket\n  uint private TICKET_PRICE = 1e15;\n\n  // The total number of ticket which is sold in a term\n  uint private TICKET_TOTAL = 5000;\n\n  // Buy player's number\n  mapping(uint => uint) private buyCount;\n\n  // Reveal player's number\n  mapping(uint => uint) private revealCount;\n\n  // num => CommitmentHash(BuyerAddress * num * passcode)\n  mapping(uint => mapping(uint => bytes32)) private commitments;\n\n  // If you enter the introducer, it is incremented\n  mapping(address => uint) private introducers;\n\n  Term private term;\n\n  uint private round;\n\n\n  ////////////////////////////////////////\n  // Public after reveal\n  ////////////////////////////////////////\n\n  // TicketNumber => BuyerAddress\n  mapping(uint => mapping(uint => address)) private entries;\n\n  // BuyerAddress => TicketNumbers\n  mapping(uint => mapping(address => uint[])) private tickets;\n\n\n  // The current seed which determine the number of winner\n  mapping(uint => bytes32) private seed;\n\n  // The winner of a current game\n  mapping(uint => address) private winner;\n\n\n  constructor () public {\n    round = 0;\n    initEntries();\n  }\n\n  /// @notice The game will be reset\n  function initEntries() private {\n    round++;\n    buyCount[round] = 0;\n    revealCount[round] = 0;\n  }\n\n  /// @notice A player bought a ticket but still not end of process\n  /// @param _num The ticket number (0-4999)\n  /// @param _passcode This is necessary to create random (1000-9999)\n  function buy (uint _num, uint _passcode) public payable {\n    require(msg.value == TICKET_PRICE);\n    require(_num >= 0 && _num < TICKET_TOTAL);\n    require(term == Term.BUY);\n    require(commitments[round][_num] == 0);\n    require(_passcode >= 1000 && _passcode < 10000);\n\n    buyCount[round]++;\n\n    bytes32 commitment = createCommitment(msg.sender, _num, _passcode);\n    commitments[round][_num] = commitment;\n\n    emit Buy(msg.sender);\n\n    if (buyCount[round] == TICKET_TOTAL) {\n      term = Term.REVEAL;\n      // TODO: count down in a week\n    }\n  }\n\n  function buyWithIntroducer(uint _num, uint _passcode, address _introducer) public payable {\n    buy(_num, _passcode);\n    require(msg.sender != _introducer);\n    introducers[_introducer]++;\n    // TODO: Introduce Event\n  }\n  \n\n  function createCommitment(address _user, uint _num, uint _passcode) public pure returns (bytes32) {\n    return keccak256(abi.encodePacked(_user, _num, _passcode));\n  }\n\n\n  function reveal (uint _num, uint _passcode) public {\n    // require(term == Term.REVEAL);\n    \n    bytes32 commitment = createCommitment(msg.sender, _num, _passcode);\n    require(commitments[round][_num] == commitment);\n\n    seed[round] = keccak256(abi.encodePacked(seed[round], commitment));\n    revealCount[round]++;\n    entries[round][_num] = msg.sender;\n    tickets[round][msg.sender].push(_num);\n  }\n\n  function drawWinner () public /*onlyOwner*/ {\n    require(term == Term.RESULT);\n    uint seedIndex = uint(seed[round]) % TICKET_TOTAL;\n    winner[round] = entries[round][seedIndex];\n  }\n\n  function getIntroducedCount(address _user) public view returns (uint) {\n    return introducers[_user];\n  }\n\n  function getRound() public view returns (uint) {\n    return round;\n  }\n\n  function getBuyCount() public view returns (uint) {\n    return buyCount[round];\n  }\n\n  function getRevealCount() public view returns (uint) {\n    return revealCount[round];\n  }\n\n\n\n\n  function nextGame () public /* onlyOwner */ {\n    round++;\n  }\n\n  function setPrice (uint price) public {\n    TICKET_PRICE = price;\n  }\n\n  function getPrice () public view returns (uint) {\n    return TICKET_PRICE;\n  }\n\n  // function getEntryAddress (uint _num) public view returns (address) {\n  //   return entryCount[round][_num];\n  // }\n\n\n\n  function getNumber(uint num) public view returns (bytes32) {\n    return commitments[round][num];\n  }\n\n\n\n  function getBalance() public view returns (uint) {\n    return address(this).balance;\n  }\n\n\n}",
  "sourcePath": "/Users/koikeshunpei/Dev/04_lottery/dapp/contracts/DreamTickets.sol",
  "compiler": {
    "name": "solc",
    "version": "0.5.0+commit.1d4f565a.Emscripten.clang"
  },
  "schemaVersion": "3.0.9",
  "updatedAt": "2019-06-14T16:45:39.384Z",
  "devdoc": {
    "methods": {
      "buy(uint256,uint256)": {
        "params": {
          "_num": "The ticket number (0-4999)",
          "_passcode": "This is necessary to create random (1000-9999)"
        }
      },
      "isOwner()": {
        "details": "Returns true if the caller is the current owner."
      },
      "owner()": {
        "details": "Returns the address of the current owner."
      },
      "renounceOwnership()": {
        "details": "Leaves the contract without owner. It will not be possible to call `onlyOwner` functions anymore. Can only be called by the current owner.     * > Note: Renouncing ownership will leave the contract without an owner, thereby removing any functionality that is only available to the owner."
      },
      "transferOwnership(address)": {
        "details": "Transfers ownership of the contract to a new account (`newOwner`). Can only be called by the current owner."
      }
    }
  },
  "userdoc": {
    "methods": {
      "buy(uint256,uint256)": {
        "notice": "A player bought a ticket but still not end of process"
      }
    }
  }
}