{
  "contractName": "DreamTicket",
  "abi": [
    {
      "constant": false,
      "inputs": [],
      "name": "renounceOwnership",
      "outputs": [],
      "payable": false,
      "stateMutability": "nonpayable",
      "type": "function"
    },
    {
      "constant": true,
      "inputs": [],
      "name": "owner",
      "outputs": [
        {
          "name": "",
          "type": "address"
        }
      ],
      "payable": false,
      "stateMutability": "view",
      "type": "function"
    },
    {
      "constant": true,
      "inputs": [],
      "name": "isOwner",
      "outputs": [
        {
          "name": "",
          "type": "bool"
        }
      ],
      "payable": false,
      "stateMutability": "view",
      "type": "function"
    },
    {
      "constant": false,
      "inputs": [
        {
          "name": "newOwner",
          "type": "address"
        }
      ],
      "name": "transferOwnership",
      "outputs": [],
      "payable": false,
      "stateMutability": "nonpayable",
      "type": "function"
    },
    {
      "inputs": [],
      "payable": false,
      "stateMutability": "nonpayable",
      "type": "constructor"
    },
    {
      "anonymous": false,
      "inputs": [
        {
          "indexed": false,
          "name": "buyer",
          "type": "address"
        }
      ],
      "name": "Buy",
      "type": "event"
    },
    {
      "anonymous": false,
      "inputs": [
        {
          "indexed": true,
          "name": "previousOwner",
          "type": "address"
        },
        {
          "indexed": true,
          "name": "newOwner",
          "type": "address"
        }
      ],
      "name": "OwnershipTransferred",
      "type": "event"
    },
    {
      "constant": false,
      "inputs": [
        {
          "name": "_num",
          "type": "uint256"
        },
        {
          "name": "_passcode",
          "type": "uint256"
        }
      ],
      "name": "buy",
      "outputs": [],
      "payable": true,
      "stateMutability": "payable",
      "type": "function"
    },
    {
      "constant": false,
      "inputs": [
        {
          "name": "_num",
          "type": "uint256"
        },
        {
          "name": "_passcode",
          "type": "uint256"
        },
        {
          "name": "_introducer",
          "type": "address"
        }
      ],
      "name": "buyWithIntroducer",
      "outputs": [],
      "payable": true,
      "stateMutability": "payable",
      "type": "function"
    },
    {
      "constant": true,
      "inputs": [
        {
          "name": "_user",
          "type": "address"
        },
        {
          "name": "_num",
          "type": "uint256"
        },
        {
          "name": "_passcode",
          "type": "uint256"
        }
      ],
      "name": "createCommitment",
      "outputs": [
        {
          "name": "",
          "type": "bytes32"
        }
      ],
      "payable": false,
      "stateMutability": "pure",
      "type": "function"
    },
    {
      "constant": false,
      "inputs": [
        {
          "name": "_num",
          "type": "uint256"
        },
        {
          "name": "_passcode",
          "type": "uint256"
        }
      ],
      "name": "reveal",
      "outputs": [],
      "payable": false,
      "stateMutability": "nonpayable",
      "type": "function"
    },
    {
      "constant": false,
      "inputs": [],
      "name": "drawWinner",
      "outputs": [],
      "payable": false,
      "stateMutability": "nonpayable",
      "type": "function"
    },
    {
      "constant": true,
      "inputs": [
        {
          "name": "_user",
          "type": "address"
        }
      ],
      "name": "getIntroducedCount",
      "outputs": [
        {
          "name": "",
          "type": "uint256"
        }
      ],
      "payable": false,
      "stateMutability": "view",
      "type": "function"
    },
    {
      "constant": true,
      "inputs": [],
      "name": "getRound",
      "outputs": [
        {
          "name": "",
          "type": "uint256"
        }
      ],
      "payable": false,
      "stateMutability": "view",
      "type": "function"
    },
    {
      "constant": true,
      "inputs": [],
      "name": "getBuyCount",
      "outputs": [
        {
          "name": "",
          "type": "uint256"
        }
      ],
      "payable": false,
      "stateMutability": "view",
      "type": "function"
    },
    {
      "constant": true,
      "inputs": [],
      "name": "getRevealCount",
      "outputs": [
        {
          "name": "",
          "type": "uint256"
        }
      ],
      "payable": false,
      "stateMutability": "view",
      "type": "function"
    },
    {
      "constant": true,
      "inputs": [
        {
          "name": "_num",
          "type": "uint256"
        }
      ],
      "name": "getAddress",
      "outputs": [
        {
          "name": "",
          "type": "address"
        }
      ],
      "payable": false,
      "stateMutability": "view",
      "type": "function"
    },
    {
      "constant": true,
      "inputs": [
        {
          "name": "_address",
          "type": "address"
        }
      ],
      "name": "getNumbers",
      "outputs": [
        {
          "name": "",
          "type": "uint256[]"
        }
      ],
      "payable": false,
      "stateMutability": "view",
      "type": "function"
    },
    {
      "constant": false,
      "inputs": [],
      "name": "nextTerm",
      "outputs": [],
      "payable": false,
      "stateMutability": "nonpayable",
      "type": "function"
    },
    {
      "constant": true,
      "inputs": [],
      "name": "getTerm",
      "outputs": [
        {
          "name": "",
          "type": "uint8"
        }
      ],
      "payable": false,
      "stateMutability": "view",
      "type": "function"
    },
    {
      "constant": true,
      "inputs": [],
      "name": "getWinner",
      "outputs": [
        {
          "name": "",
          "type": "address"
        }
      ],
      "payable": false,
      "stateMutability": "view",
      "type": "function"
    },
    {
      "constant": true,
      "inputs": [
        {
          "name": "_from",
          "type": "uint256"
        },
        {
          "name": "_to",
          "type": "uint256"
        }
      ],
      "name": "getSelectableNumbers",
      "outputs": [
        {
          "name": "",
          "type": "uint256[]"
        }
      ],
      "payable": false,
      "stateMutability": "view",
      "type": "function"
    },
    {
      "constant": true,
      "inputs": [
        {
          "name": "_from",
          "type": "uint256"
        },
        {
          "name": "_to",
          "type": "uint256"
        }
      ],
      "name": "getNonSelectableNumbers",
      "outputs": [
        {
          "name": "",
          "type": "uint256[]"
        }
      ],
      "payable": false,
      "stateMutability": "view",
      "type": "function"
    },
    {
      "constant": false,
      "inputs": [],
      "name": "nextGame",
      "outputs": [],
      "payable": false,
      "stateMutability": "nonpayable",
      "type": "function"
    },
    {
      "constant": false,
      "inputs": [
        {
          "name": "price",
          "type": "uint256"
        }
      ],
      "name": "setPrice",
      "outputs": [],
      "payable": false,
      "stateMutability": "nonpayable",
      "type": "function"
    },
    {
      "constant": true,
      "inputs": [],
      "name": "getPrice",
      "outputs": [
        {
          "name": "",
          "type": "uint256"
        }
      ],
      "payable": false,
      "stateMutability": "view",
      "type": "function"
    },
    {
      "constant": false,
      "inputs": [
        {
          "name": "num",
          "type": "uint256"
        }
      ],
      "name": "setTicketTotal",
      "outputs": [],
      "payable": false,
      "stateMutability": "nonpayable",
      "type": "function"
    },
    {
      "constant": true,
      "inputs": [],
      "name": "getContractBalance",
      "outputs": [
        {
          "name": "",
          "type": "uint256"
        }
      ],
      "payable": false,
      "stateMutability": "view",
      "type": "function"
    }
  ],
  "bytecode": "0x608060405266038d7ea4c6800060015561138860025534801561002157600080fd5b50336000806101000a81548173ffffffffffffffffffffffffffffffffffffffff021916908373ffffffffffffffffffffffffffffffffffffffff1602179055506000809054906101000a900473ffffffffffffffffffffffffffffffffffffffff1673ffffffffffffffffffffffffffffffffffffffff16600073ffffffffffffffffffffffffffffffffffffffff167f8be0079c531659141344cd1fd0a4f28419497f9722a3daafe3b4186f6b6457e060405160405180910390a360006007819055506100fd610102640100000000026401000000009004565b61014c565b600760008154809291906001019190505550600060036000600754815260200190815260200160002081905550600060086000600754815260200190815260200160002081905550565b6119f28061015b6000396000f3fe608060405260043610610149576000357c0100000000000000000000000000000000000000000000000000000000900463ffffffff168063020c6fed1461014e57806303652dea14610179578063124b65b4146101b657806317e190fa146101e15780631ab043521461021e578063281d62c41461025b578063676e2680146102725780636f9fb98a146102af578063715018a6146102da57806381dda9fa146102f1578063871933e2146103085780638950ce0b146103455780638da5cb5b1461036e5780638e7ea5b2146103995780638f10fd45146103c45780638f32d59b146103ef57806391b7f5ed1461041a5780639348cef71461044357806398d5fdca1461046c5780639f8743f714610497578063b2185bb1146104c2578063b93f9b0a146104d9578063d6febde814610516578063ed150e7814610532578063f2fde38b1461054e575b600080fd5b34801561015a57600080fd5b50610163610577565b60405161017091906118ac565b60405180910390f35b34801561018557600080fd5b506101a0600480360361019b919081019061154e565b610594565b6040516101ad91906118ac565b60405180910390f35b3480156101c257600080fd5b506101cb6105dd565b6040516101d89190611851565b60405180910390f35b3480156101ed57600080fd5b506102086004803603610203919081019061154e565b6105f4565b60405161021591906117f9565b60405180910390f35b34801561022a57600080fd5b50610245600480360361024091908101906115ef565b61069e565b60405161025291906117f9565b60405180910390f35b34801561026757600080fd5b506102706107f0565b005b34801561027e57600080fd5b5061029960048036036102949190810190611577565b61085b565b6040516102a69190611836565b60405180910390f35b3480156102bb57600080fd5b506102c46108d8565b6040516102d191906118ac565b60405180910390f35b3480156102e657600080fd5b506102ef6108f7565b005b3480156102fd57600080fd5b506103066109ff565b005b34801561031457600080fd5b5061032f600480360361032a91908101906115ef565b610b15565b60405161033c91906117f9565b60405180910390f35b34801561035157600080fd5b5061036c600480360361036791908101906115c6565b610c5f565b005b34801561037a57600080fd5b50610383610c69565b60405161039091906117c3565b60405180910390f35b3480156103a557600080fd5b506103ae610c92565b6040516103bb91906117c3565b60405180910390f35b3480156103d057600080fd5b506103d9610ccf565b6040516103e691906118ac565b60405180910390f35b3480156103fb57600080fd5b50610404610cec565b604051610411919061181b565b60405180910390f35b34801561042657600080fd5b50610441600480360361043c91908101906115c6565b610d43565b005b34801561044f57600080fd5b5061046a600480360361046591908101906115ef565b610d4d565b005b34801561047857600080fd5b50610481610f54565b60405161048e91906118ac565b60405180910390f35b3480156104a357600080fd5b506104ac610f5e565b6040516104b991906118ac565b60405180910390f35b3480156104ce57600080fd5b506104d7610f68565b005b3480156104e557600080fd5b5061050060048036036104fb91908101906115c6565b611063565b60405161050d91906117c3565b60405180910390f35b610530600480360361052b91908101906115ef565b6110b3565b005b61054c6004803603610547919081019061162b565b61122d565b005b34801561055a57600080fd5b506105756004803603610570919081019061154e565b6112c6565b005b600060086000600754815260200190815260200160002054905090565b6000600560008373ffffffffffffffffffffffffffffffffffffffff1673ffffffffffffffffffffffffffffffffffffffff168152602001908152602001600020549050919050565b6000600660009054906101000a900460ff16905090565b6060600a6000600754815260200190815260200160002060008373ffffffffffffffffffffffffffffffffffffffff1673ffffffffffffffffffffffffffffffffffffffff16815260200190815260200160002080548060200260200160405190810160405280929190818152602001828054801561069257602002820191906000526020600020905b81548152602001906001019080831161067e575b50505050509050919050565b606081831015156106ae57600080fd5b600060016106bc858561131b565b8585030301905060008090506060826040519080825280602002602001820160405280156106f95781602001602082028038833980820191505090505b50905060008690505b85811115156107e35760007f010000000000000000000000000000000000000000000000000000000000000002600460006007548152602001908152602001600020600083815260200190815260200160002054600060208110151561076457fe5b1a7f0100000000000000000000000000000000000000000000000000000000000000027effffffffffffffffffffffffffffffffffffffffffffffffffffffffffffff19161415156107d6578082848151811015156107bf57fe5b906020019060200201818152505082806001019350505b8080600101915050610702565b5080935050505092915050565b6002808111156107fc57fe5b600660009054906101000a900460ff16600281111561081757fe5b14151561082357600080fd5b6007600081548092919060010191905055506000600660006101000a81548160ff0219169083600281111561085457fe5b0217905550565b6000838383604051602001808473ffffffffffffffffffffffffffffffffffffffff1673ffffffffffffffffffffffffffffffffffffffff166c0100000000000000000000000002815260140183815260200182815260200193505050506040516020818303038152906040528051906020012090509392505050565b60003073ffffffffffffffffffffffffffffffffffffffff1631905090565b6108ff610cec565b1515610940576040517f08c379a00000000000000000000000000000000000000000000000000000000081526004016109379061188c565b60405180910390fd5b600073ffffffffffffffffffffffffffffffffffffffff166000809054906101000a900473ffffffffffffffffffffffffffffffffffffffff1673ffffffffffffffffffffffffffffffffffffffff167f8be0079c531659141344cd1fd0a4f28419497f9722a3daafe3b4186f6b6457e060405160405180910390a360008060006101000a81548173ffffffffffffffffffffffffffffffffffffffff021916908373ffffffffffffffffffffffffffffffffffffffff160217905550565b60006002811115610a0c57fe5b600660009054906101000a900460ff166002811115610a2757fe5b1480610a58575060016002811115610a3b57fe5b600660009054906101000a900460ff166002811115610a5657fe5b145b1515610a6357600080fd5b60006002811115610a7057fe5b600660009054906101000a900460ff166002811115610a8b57fe5b1415610aba576001600660006101000a81548160ff02191690836002811115610ab057fe5b0217905550610b13565b60016002811115610ac757fe5b600660009054906101000a900460ff166002811115610ae257fe5b1415610b11576002600660006101000a81548160ff02191690836002811115610b0757fe5b0217905550610b12565b5b5b565b60608183101515610b2557600080fd5b6000610b31848461131b565b90506000809050606082604051908082528060200260200182016040528015610b695781602001602082028038833980820191505090505b50905060008690505b8581111515610c525760007f0100000000000000000000000000000000000000000000000000000000000000026004600060075481526020019081526020016000206000838152602001908152602001600020546000602081101515610bd457fe5b1a7f0100000000000000000000000000000000000000000000000000000000000000027effffffffffffffffffffffffffffffffffffffffffffffffffffffffffffff19161415610c4557808284815181101515610c2e57fe5b906020019060200201818152505082806001019350505b8080600101915050610b72565b5080935050505092915050565b8060028190555050565b60008060009054906101000a900473ffffffffffffffffffffffffffffffffffffffff16905090565b6000600c6000600754815260200190815260200160002060009054906101000a900473ffffffffffffffffffffffffffffffffffffffff16905090565b600060036000600754815260200190815260200160002054905090565b60008060009054906101000a900473ffffffffffffffffffffffffffffffffffffffff1673ffffffffffffffffffffffffffffffffffffffff163373ffffffffffffffffffffffffffffffffffffffff1614905090565b8060018190555050565b60016002811115610d5a57fe5b600660009054906101000a900460ff166002811115610d7557fe5b141515610d8157600080fd5b6000610d8e33848461085b565b905080600460006007548152602001908152602001600020600085815260200190815260200160002054141515610dc457600080fd5b600b600060075481526020019081526020016000205481604051602001808381526020018281526020019250505060405160208183030381529060405280519060200120600b60006007548152602001908152602001600020819055506008600060075481526020019081526020016000206000815480929190600101919050555033600960006007548152602001908152602001600020600085815260200190815260200160002060006101000a81548173ffffffffffffffffffffffffffffffffffffffff021916908373ffffffffffffffffffffffffffffffffffffffff160217905550600a6000600754815260200190815260200160002060003373ffffffffffffffffffffffffffffffffffffffff1673ffffffffffffffffffffffffffffffffffffffff168152602001908152602001600020839080600181540180825580915050906001820390600052602060002001600090919290919091505550600254600860006007548152602001908152602001600020541415610f4f57610f4e6109ff565b5b505050565b6000600154905090565b6000600754905090565b600280811115610f7457fe5b600660009054906101000a900460ff166002811115610f8f57fe5b141515610f9b57600080fd5b6000600254600b600060075481526020019081526020016000205460019004811515610fc357fe5b069050600960006007548152602001908152602001600020600082815260200190815260200160002060009054906101000a900473ffffffffffffffffffffffffffffffffffffffff16600c6000600754815260200190815260200160002060006101000a81548173ffffffffffffffffffffffffffffffffffffffff021916908373ffffffffffffffffffffffffffffffffffffffff16021790555050565b6000600960006007548152602001908152602001600020600083815260200190815260200160002060009054906101000a900473ffffffffffffffffffffffffffffffffffffffff169050919050565b600154341415156110c357600080fd5b600082101580156110d5575060025482105b15156110e057600080fd5b600060028111156110ed57fe5b600660009054906101000a900460ff16600281111561110857fe5b14151561111457600080fd5b600060010260046000600754815260200190815260200160002060008481526020019081526020016000205414151561114c57600080fd5b6103e8811015801561115f575061271081105b151561116a57600080fd5b60036000600754815260200190815260200160002060008154809291906001019190505550600061119c33848461085b565b9050806004600060075481526020019081526020016000206000858152602001908152602001600020819055507f5c6c890314aa0d49059c35b35ff86ffb43efe8f543dc3691558f39dfa4a82011336040516111f891906117de565b60405180910390a1600254600360006007548152602001908152602001600020541415611228576112276109ff565b5b505050565b61123783836110b3565b8073ffffffffffffffffffffffffffffffffffffffff163373ffffffffffffffffffffffffffffffffffffffff161415151561127257600080fd5b600560008273ffffffffffffffffffffffffffffffffffffffff1673ffffffffffffffffffffffffffffffffffffffff16815260200190815260200160002060008154809291906001019190505550505050565b6112ce610cec565b151561130f576040517f08c379a00000000000000000000000000000000000000000000000000000000081526004016113069061188c565b60405180910390fd5b611318816113f6565b50565b6000806000905060008490505b83811115156113eb5760007f010000000000000000000000000000000000000000000000000000000000000002600460006007548152602001908152602001600020600083815260200190815260200160002054600060208110151561138a57fe5b1a7f0100000000000000000000000000000000000000000000000000000000000000027effffffffffffffffffffffffffffffffffffffffffffffffffffffffffffff191614156113de5781806001019250505b8080600101915050611328565b508091505092915050565b600073ffffffffffffffffffffffffffffffffffffffff168173ffffffffffffffffffffffffffffffffffffffff1614151515611468576040517f08c379a000000000000000000000000000000000000000000000000000000000815260040161145f9061186c565b60405180910390fd5b8073ffffffffffffffffffffffffffffffffffffffff166000809054906101000a900473ffffffffffffffffffffffffffffffffffffffff1673ffffffffffffffffffffffffffffffffffffffff167f8be0079c531659141344cd1fd0a4f28419497f9722a3daafe3b4186f6b6457e060405160405180910390a3806000806101000a81548173ffffffffffffffffffffffffffffffffffffffff021916908373ffffffffffffffffffffffffffffffffffffffff16021790555050565b60006115328235611954565b905092915050565b60006115468235611966565b905092915050565b60006020828403121561156057600080fd5b600061156e84828501611526565b91505092915050565b60008060006060848603121561158c57600080fd5b600061159a86828701611526565b93505060206115ab8682870161153a565b92505060406115bc8682870161153a565b9150509250925092565b6000602082840312156115d857600080fd5b60006115e68482850161153a565b91505092915050565b6000806040838503121561160257600080fd5b60006116108582860161153a565b92505060206116218582860161153a565b9150509250929050565b60008060006060848603121561164057600080fd5b600061164e8682870161153a565b935050602061165f8682870161153a565b925050604061167086828701611526565b9150509250925092565b61168381611970565b82525050565b611692816118ec565b82525050565b60006116a3826118d4565b8084526020840193506116b5836118c7565b60005b828110156116e7576116cb8683516117b4565b6116d4826118df565b91506020860195506001810190506116b8565b50849250505092915050565b6116fc816118fe565b82525050565b61170b8161190a565b82525050565b61171a81611982565b82525050565b6000602682527f4f776e61626c653a206e6577206f776e657220697320746865207a65726f206160208301527f64647265737300000000000000000000000000000000000000000000000000006040830152606082019050919050565b6000602082527f4f776e61626c653a2063616c6c6572206973206e6f7420746865206f776e65726020830152604082019050919050565b6117bd8161194a565b82525050565b60006020820190506117d86000830184611689565b92915050565b60006020820190506117f3600083018461167a565b92915050565b600060208201905081810360008301526118138184611698565b905092915050565b600060208201905061183060008301846116f3565b92915050565b600060208201905061184b6000830184611702565b92915050565b60006020820190506118666000830184611711565b92915050565b6000602082019050818103600083015261188581611720565b9050919050565b600060208201905081810360008301526118a58161177d565b9050919050565b60006020820190506118c160008301846117b4565b92915050565b6000602082019050919050565b600081519050919050565b6000602082019050919050565b60006118f78261192a565b9050919050565b60008115159050919050565b6000819050919050565b600060038210151561192257fe5b819050919050565b600073ffffffffffffffffffffffffffffffffffffffff82169050919050565b6000819050919050565b600061195f8261192a565b9050919050565b6000819050919050565b600061197b82611994565b9050919050565b600061198d82611914565b9050919050565b600061199f826119a6565b9050919050565b60006119b18261192a565b905091905056fea265627a7a72305820a0436a5b87c977a1bfb56962dfe9b8ac532558c30eb9bca3daff682b7778aa136c6578706572696d656e74616cf50037",
  "source": "pragma solidity >=0.4.21 <0.6.0;\npragma experimental ABIEncoderV2;\n\nimport \"./Ownable.sol\";\n\ncontract DreamTicket is Ownable {\n\n  event Buy(\n    address buyer\n  );\n\n  enum SoldoutStatus {\n    NOT_SELLING,\n    BUY,\n    REVEALED\n  }\n\n  enum Term {\n    BUY,\n    REVEAL,\n    RESULT\n  }\n\n  ////////////////////////////////////////\n  // Always public\n  ////////////////////////////////////////\n  \n  // A ticket price per a ticket\n  uint private TICKET_PRICE = 1e15;\n\n  // The total number of ticket which is sold in a term\n  uint private TICKET_TOTAL = 5000;\n\n  // Buy player's number\n  mapping(uint => uint) private buyCount;\n\n  // num => CommitmentHash(BuyerAddress * num * passcode)\n  mapping(uint => mapping(uint => bytes32)) private commitments;\n\n  // If you enter the introducer, it is incremented\n  mapping(address => uint) private introducers;\n\n  Term private term;\n\n  uint private round;\n\n\n  ////////////////////////////////////////\n  // Public after reveal\n  ////////////////////////////////////////\n\n  // Reveal player's number\n  mapping(uint => uint) private revealCount;\n\n  // TicketNumber => BuyerAddress\n  mapping(uint => mapping(uint => address)) private numToAddr;\n\n  // BuyerAddress => TicketNumbers\n  mapping(uint => mapping(address => uint[])) private addrToNums;\n\n  // The current seed which determine the number of winner\n  mapping(uint => bytes32) private seed;\n\n  // The winner of a current game\n  mapping(uint => address) private winner;\n\n\n  constructor () public {\n    round = 0;\n    initEntries();\n  }\n\n  /// @notice The game will be reset\n  function initEntries() private {\n    round++;\n    buyCount[round] = 0;\n    revealCount[round] = 0;\n  }\n\n  /// @notice A player can buy a ticket but the process still not be end\n  /// @param _num The ticket number (0-4999)\n  /// @param _passcode This is necessary to create random (1000-9999)\n  function buy (uint _num, uint _passcode) public payable {\n    require(msg.value == TICKET_PRICE);\n    require(_num >= 0 && _num < TICKET_TOTAL);\n    require(term == Term.BUY);\n    require(commitments[round][_num] == 0);\n    require(_passcode >= 1000 && _passcode < 10000);\n\n    buyCount[round]++;\n\n    bytes32 commitment = createCommitment(msg.sender, _num, _passcode);\n    commitments[round][_num] = commitment;\n\n    emit Buy(msg.sender);\n\n    if (buyCount[round] == TICKET_TOTAL) {\n      nextTerm();\n      // TODO: count down in a week\n    }\n  }\n\n  /// @notice A player can buy a ticket with introducer address\n  /// @param _num The ticket number (0-4999)\n  /// @param _passcode This is necessary to create random (1000-9999)\n  function buyWithIntroducer(uint _num, uint _passcode, address _introducer) public payable {\n    buy(_num, _passcode);\n    require(msg.sender != _introducer);\n    introducers[_introducer]++;\n    // TODO: Introduce Event\n  }\n  \n\n  function createCommitment(address _user, uint _num, uint _passcode) public pure returns (bytes32) {\n    return keccak256(abi.encodePacked(_user, _num, _passcode));\n  }\n\n\n  function reveal (uint _num, uint _passcode) public {\n    require(term == Term.REVEAL);\n    \n    bytes32 commitment = createCommitment(msg.sender, _num, _passcode);\n    require(commitments[round][_num] == commitment);\n\n    seed[round] = keccak256(abi.encodePacked(seed[round], commitment));\n    revealCount[round]++;\n    numToAddr[round][_num] = msg.sender;\n    addrToNums[round][msg.sender].push(_num);\n\n    if (revealCount[round] == TICKET_TOTAL) {\n      nextTerm();\n    }\n  }\n\n  function drawWinner () public /*onlyOwner*/ {\n    require(term == Term.RESULT);\n    uint seedIndex = uint(seed[round]) % TICKET_TOTAL;\n    winner[round] = numToAddr[round][seedIndex];\n  }\n\n  function getIntroducedCount(address _user) public view returns (uint) {\n    return introducers[_user];\n  }\n\n  function getRound() public view returns (uint) {\n    return round;\n  }\n\n  function getBuyCount() public view returns (uint) {\n    return buyCount[round];\n  }\n\n  function getRevealCount() public view returns (uint) {\n    return revealCount[round];\n  }\n\n  function getAddress(uint _num) public view returns (address) {\n    return numToAddr[round][_num];\n  }\n\n  function getNumbers(address _address) public view returns (uint[] memory) {\n    return addrToNums[round][_address];\n  }\n\n  function nextTerm() public /* onlyOwner */ {\n    require(term == Term.BUY || term == Term.REVEAL);\n    if (term == Term.BUY) {\n      term = Term.REVEAL;\n    } else if (term == Term.REVEAL) {\n      term = Term.RESULT;\n    } else {\n      // nothing\n    }\n  }\n\n  function getTerm() public view returns (Term) {\n    return term;\n  }\n\n  function getWinner() public view returns (address) {\n    return winner[round];\n  }\n\n  // /// @param _from more than equals\n  // /// @param _to less than equals\n  // function getSelectableNumbers(uint _from, uint _to) public view returns (uint[] memory) {\n  //   require(_from < _to);\n  //   uint diff = _to - _from + 1;\n  //   uint[] memory numbers = new uint[](diff);\n  //   uint i = 0;\n  //   for (uint target = _from; target <= _to; target++) {\n  //     if (commitments[round][target][0] == 0) {\n  //       numbers[i] = target;\n  //       i++;\n  //     }\n  //   }\n  //   return numbers;\n  // }\n\n  /// @param _from more than equals\n  /// @param _to less than equals\n  function getSelectableNumbers(uint _from, uint _to) public view returns (uint[] memory) {\n    require(_from < _to);\n    uint diff = getEmptyNumber(_from, _to);\n    uint i = 0;\n    uint[] memory numbers = new uint[](diff);\n    for (uint target = _from; target <= _to; target++) {\n      if (commitments[round][target][0] == 0) {\n        numbers[i] = target;\n        i++;\n      }\n    }\n    return numbers;\n  }\n\n  function getNonSelectableNumbers(uint _from, uint _to) public view returns (uint[] memory) {\n    require(_from < _to);\n    uint diff = _to - _from - getEmptyNumber(_from, _to) + 1;\n    uint i = 0;\n    uint[] memory numbers = new uint[](diff);\n    for (uint target = _from; target <= _to; target++) {\n      if (commitments[round][target][0] != 0) {\n        numbers[i] = target;\n        i++;\n      }\n    }\n    return numbers;\n  }\n\n  function getEmptyNumber(uint _from, uint _to) private view returns (uint) {\n    uint diff = 0;\n    for (uint target = _from; target <= _to; target++) {\n      if (commitments[round][target][0] == 0) {\n        diff++;\n      }\n    }\n    return diff;\n  }\n\n  function nextGame () public /* onlyOwner */ {\n    require(term == Term.RESULT);\n    round++;\n    term = Term.BUY;\n  }\n\n  function setPrice (uint price) public {\n    TICKET_PRICE = price;\n  }\n\n  function getPrice () public view returns (uint) {\n    return TICKET_PRICE;\n  }\n\n  function setTicketTotal (uint num) public /* onlyOwner */ {\n    // For Only Test\n    TICKET_TOTAL = num;\n  }\n\n  function getContractBalance() public view returns (uint) {\n    return address(this).balance;\n  }\n}",
  "sourcePath": "/Users/koikeshunpei/Dev/04_lottery/dapp/contracts/DreamTicket.sol",
  "compiler": {
    "name": "solc",
    "version": "0.5.0+commit.1d4f565a.Emscripten.clang"
  },
  "schemaVersion": "3.0.9",
  "updatedAt": "2019-06-22T10:39:03.204Z",
  "devdoc": {
    "methods": {
      "buy(uint256,uint256)": {
        "params": {
          "_num": "The ticket number (0-4999)",
          "_passcode": "This is necessary to create random (1000-9999)"
        }
      },
      "buyWithIntroducer(uint256,uint256,address)": {
        "params": {
          "_num": "The ticket number (0-4999)",
          "_passcode": "This is necessary to create random (1000-9999)"
        }
      },
      "getSelectableNumbers(uint256,uint256)": {
        "params": {
          "_from": "more than equals",
          "_to": "less than equals"
        }
      },
      "isOwner()": {
        "details": "Returns true if the caller is the current owner."
      },
      "owner()": {
        "details": "Returns the address of the current owner."
      },
      "renounceOwnership()": {
        "details": "Leaves the contract without owner. It will not be possible to call `onlyOwner` functions anymore. Can only be called by the current owner.     * > Note: Renouncing ownership will leave the contract without an owner, thereby removing any functionality that is only available to the owner."
      },
      "transferOwnership(address)": {
        "details": "Transfers ownership of the contract to a new account (`newOwner`). Can only be called by the current owner."
      }
    }
  },
  "userdoc": {
    "methods": {
      "buy(uint256,uint256)": {
        "notice": "A player can buy a ticket but the process still not be end"
      },
      "buyWithIntroducer(uint256,uint256,address)": {
        "notice": "A player can buy a ticket with introducer address"
      }
    }
  }
}