{
  "contractName": "DreamTicket",
  "abi": [
    {
      "constant": false,
      "inputs": [],
      "name": "renounceOwnership",
      "outputs": [],
      "payable": false,
      "stateMutability": "nonpayable",
      "type": "function"
    },
    {
      "constant": true,
      "inputs": [],
      "name": "owner",
      "outputs": [
        {
          "name": "",
          "type": "address"
        }
      ],
      "payable": false,
      "stateMutability": "view",
      "type": "function"
    },
    {
      "constant": true,
      "inputs": [],
      "name": "isOwner",
      "outputs": [
        {
          "name": "",
          "type": "bool"
        }
      ],
      "payable": false,
      "stateMutability": "view",
      "type": "function"
    },
    {
      "constant": false,
      "inputs": [
        {
          "name": "newOwner",
          "type": "address"
        }
      ],
      "name": "transferOwnership",
      "outputs": [],
      "payable": false,
      "stateMutability": "nonpayable",
      "type": "function"
    },
    {
      "inputs": [],
      "payable": false,
      "stateMutability": "nonpayable",
      "type": "constructor"
    },
    {
      "anonymous": false,
      "inputs": [
        {
          "indexed": false,
          "name": "buyer",
          "type": "address"
        }
      ],
      "name": "Buy",
      "type": "event"
    },
    {
      "anonymous": false,
      "inputs": [
        {
          "indexed": true,
          "name": "previousOwner",
          "type": "address"
        },
        {
          "indexed": true,
          "name": "newOwner",
          "type": "address"
        }
      ],
      "name": "OwnershipTransferred",
      "type": "event"
    },
    {
      "constant": false,
      "inputs": [
        {
          "name": "_num",
          "type": "uint256"
        },
        {
          "name": "_passcode",
          "type": "uint256"
        }
      ],
      "name": "buy",
      "outputs": [],
      "payable": true,
      "stateMutability": "payable",
      "type": "function"
    },
    {
      "constant": false,
      "inputs": [
        {
          "name": "_num",
          "type": "uint256"
        },
        {
          "name": "_passcode",
          "type": "uint256"
        },
        {
          "name": "_introducer",
          "type": "address"
        }
      ],
      "name": "buyWithIntroducer",
      "outputs": [],
      "payable": true,
      "stateMutability": "payable",
      "type": "function"
    },
    {
      "constant": true,
      "inputs": [
        {
          "name": "_user",
          "type": "address"
        },
        {
          "name": "_num",
          "type": "uint256"
        },
        {
          "name": "_passcode",
          "type": "uint256"
        }
      ],
      "name": "createCommitment",
      "outputs": [
        {
          "name": "",
          "type": "bytes32"
        }
      ],
      "payable": false,
      "stateMutability": "pure",
      "type": "function"
    },
    {
      "constant": false,
      "inputs": [
        {
          "name": "_num",
          "type": "uint256"
        },
        {
          "name": "_passcode",
          "type": "uint256"
        }
      ],
      "name": "reveal",
      "outputs": [],
      "payable": false,
      "stateMutability": "nonpayable",
      "type": "function"
    },
    {
      "constant": false,
      "inputs": [],
      "name": "drawWinner",
      "outputs": [],
      "payable": false,
      "stateMutability": "nonpayable",
      "type": "function"
    },
    {
      "constant": false,
      "inputs": [],
      "name": "getSeedIndex",
      "outputs": [],
      "payable": false,
      "stateMutability": "nonpayable",
      "type": "function"
    },
    {
      "constant": true,
      "inputs": [
        {
          "name": "_user",
          "type": "address"
        }
      ],
      "name": "getIntroducedCount",
      "outputs": [
        {
          "name": "",
          "type": "uint256"
        }
      ],
      "payable": false,
      "stateMutability": "view",
      "type": "function"
    },
    {
      "constant": true,
      "inputs": [],
      "name": "getRound",
      "outputs": [
        {
          "name": "",
          "type": "uint256"
        }
      ],
      "payable": false,
      "stateMutability": "view",
      "type": "function"
    },
    {
      "constant": true,
      "inputs": [],
      "name": "getBuyCount",
      "outputs": [
        {
          "name": "",
          "type": "uint256"
        }
      ],
      "payable": false,
      "stateMutability": "view",
      "type": "function"
    },
    {
      "constant": true,
      "inputs": [],
      "name": "getRevealCount",
      "outputs": [
        {
          "name": "",
          "type": "uint256"
        }
      ],
      "payable": false,
      "stateMutability": "view",
      "type": "function"
    },
    {
      "constant": true,
      "inputs": [
        {
          "name": "_num",
          "type": "uint256"
        }
      ],
      "name": "getAddress",
      "outputs": [
        {
          "name": "",
          "type": "address"
        }
      ],
      "payable": false,
      "stateMutability": "view",
      "type": "function"
    },
    {
      "constant": true,
      "inputs": [
        {
          "name": "_address",
          "type": "address"
        }
      ],
      "name": "getNumbers",
      "outputs": [
        {
          "name": "",
          "type": "uint256[]"
        }
      ],
      "payable": false,
      "stateMutability": "view",
      "type": "function"
    },
    {
      "constant": false,
      "inputs": [],
      "name": "nextTerm",
      "outputs": [],
      "payable": false,
      "stateMutability": "nonpayable",
      "type": "function"
    },
    {
      "constant": true,
      "inputs": [],
      "name": "getTerm",
      "outputs": [
        {
          "name": "",
          "type": "uint8"
        }
      ],
      "payable": false,
      "stateMutability": "view",
      "type": "function"
    },
    {
      "constant": true,
      "inputs": [],
      "name": "getWinner",
      "outputs": [
        {
          "name": "",
          "type": "address"
        }
      ],
      "payable": false,
      "stateMutability": "view",
      "type": "function"
    },
    {
      "constant": true,
      "inputs": [
        {
          "name": "_from",
          "type": "uint256"
        },
        {
          "name": "_to",
          "type": "uint256"
        }
      ],
      "name": "getSelectableNumbers",
      "outputs": [
        {
          "name": "",
          "type": "uint256[]"
        }
      ],
      "payable": false,
      "stateMutability": "view",
      "type": "function"
    },
    {
      "constant": true,
      "inputs": [
        {
          "name": "_from",
          "type": "uint256"
        },
        {
          "name": "_to",
          "type": "uint256"
        }
      ],
      "name": "getNonSelectableNumbers",
      "outputs": [
        {
          "name": "",
          "type": "uint256[]"
        }
      ],
      "payable": false,
      "stateMutability": "view",
      "type": "function"
    },
    {
      "constant": false,
      "inputs": [],
      "name": "nextGame",
      "outputs": [],
      "payable": false,
      "stateMutability": "nonpayable",
      "type": "function"
    },
    {
      "constant": false,
      "inputs": [
        {
          "name": "price",
          "type": "uint256"
        }
      ],
      "name": "setPrice",
      "outputs": [],
      "payable": false,
      "stateMutability": "nonpayable",
      "type": "function"
    },
    {
      "constant": true,
      "inputs": [],
      "name": "getPrice",
      "outputs": [
        {
          "name": "",
          "type": "uint256"
        }
      ],
      "payable": false,
      "stateMutability": "view",
      "type": "function"
    },
    {
      "constant": false,
      "inputs": [
        {
          "name": "num",
          "type": "uint256"
        }
      ],
      "name": "setTicketTotal",
      "outputs": [],
      "payable": false,
      "stateMutability": "nonpayable",
      "type": "function"
    },
    {
      "constant": true,
      "inputs": [],
      "name": "getContractBalance",
      "outputs": [
        {
          "name": "",
          "type": "uint256"
        }
      ],
      "payable": false,
      "stateMutability": "view",
      "type": "function"
    }
  ],
  "bytecode": "0x608060405266038d7ea4c68000600155600560025534801561002057600080fd5b50336000806101000a81548173ffffffffffffffffffffffffffffffffffffffff021916908373ffffffffffffffffffffffffffffffffffffffff1602179055506000809054906101000a900473ffffffffffffffffffffffffffffffffffffffff1673ffffffffffffffffffffffffffffffffffffffff16600073ffffffffffffffffffffffffffffffffffffffff167f8be0079c531659141344cd1fd0a4f28419497f9722a3daafe3b4186f6b6457e060405160405180910390a360006007819055506100fc610101640100000000026401000000009004565b61014b565b600760008154809291906001019190505550600060036000600754815260200190815260200160002081905550600060086000600754815260200190815260200160002081905550565b611bf68061015a6000396000f3fe608060405260043610610154576000357c0100000000000000000000000000000000000000000000000000000000900463ffffffff168063020c6fed1461015957806303652dea1461018457806305eaf6d5146101c1578063124b65b4146101d857806317e190fa146102035780631ab0435214610240578063281d62c41461027d578063676e2680146102945780636f9fb98a146102d1578063715018a6146102fc57806381dda9fa14610313578063871933e21461032a5780638950ce0b146103675780638da5cb5b146103905780638e7ea5b2146103bb5780638f10fd45146103e65780638f32d59b1461041157806391b7f5ed1461043c5780639348cef71461046557806398d5fdca1461048e5780639f8743f7146104b9578063b2185bb1146104e4578063b93f9b0a146104fb578063d6febde814610538578063ed150e7814610554578063f2fde38b14610570575b600080fd5b34801561016557600080fd5b5061016e610599565b60405161017b9190611ab0565b60405180910390f35b34801561019057600080fd5b506101ab60048036036101a69190810190611752565b6105b6565b6040516101b89190611ab0565b60405180910390f35b3480156101cd57600080fd5b506101d66105ff565b005b3480156101e457600080fd5b506101ed6106c0565b6040516101fa9190611a55565b60405180910390f35b34801561020f57600080fd5b5061022a60048036036102259190810190611752565b6106d7565b60405161023791906119fd565b60405180910390f35b34801561024c57600080fd5b50610267600480360361026291908101906117f3565b610781565b60405161027491906119fd565b60405180910390f35b34801561028957600080fd5b506102926108d3565b005b3480156102a057600080fd5b506102bb60048036036102b6919081019061177b565b61093e565b6040516102c89190611a3a565b60405180910390f35b3480156102dd57600080fd5b506102e66109bb565b6040516102f39190611ab0565b60405180910390f35b34801561030857600080fd5b506103116109da565b005b34801561031f57600080fd5b50610328610ae2565b005b34801561033657600080fd5b50610351600480360361034c91908101906117f3565b610c00565b60405161035e91906119fd565b60405180910390f35b34801561037357600080fd5b5061038e600480360361038991908101906117ca565b610d4a565b005b34801561039c57600080fd5b506103a5610d54565b6040516103b291906119c7565b60405180910390f35b3480156103c757600080fd5b506103d0610d7d565b6040516103dd91906119c7565b60405180910390f35b3480156103f257600080fd5b506103fb610dba565b6040516104089190611ab0565b60405180910390f35b34801561041d57600080fd5b50610426610dd7565b6040516104339190611a1f565b60405180910390f35b34801561044857600080fd5b50610463600480360361045e91908101906117ca565b610e2e565b005b34801561047157600080fd5b5061048c600480360361048791908101906117f3565b610e38565b005b34801561049a57600080fd5b506104a36110c0565b6040516104b09190611ab0565b60405180910390f35b3480156104c557600080fd5b506104ce6110ca565b6040516104db9190611ab0565b60405180910390f35b3480156104f057600080fd5b506104f96110d4565b005b34801561050757600080fd5b50610522600480360361051d91908101906117ca565b611267565b60405161052f91906119c7565b60405180910390f35b610552600480360361054d91908101906117f3565b6112b7565b005b61056e6004803603610569919081019061182f565b611431565b005b34801561057c57600080fd5b5061059760048036036105929190810190611752565b6114ca565b005b600060086000600754815260200190815260200160002054905090565b6000600560008373ffffffffffffffffffffffffffffffffffffffff1673ffffffffffffffffffffffffffffffffffffffff168152602001908152602001600020549050919050565b6000600254600b60006007548152602001908152602001600020546001900481151561062757fe5b069050600073ffffffffffffffffffffffffffffffffffffffff16600960006007548152602001908152602001600020600083815260200190815260200160002060009054906101000a900473ffffffffffffffffffffffffffffffffffffffff1673ffffffffffffffffffffffffffffffffffffffff1614156106bd5780806001019150506002548111156106bc57600090505b5b50565b6000600660009054906101000a900460ff16905090565b6060600a6000600754815260200190815260200160002060008373ffffffffffffffffffffffffffffffffffffffff1673ffffffffffffffffffffffffffffffffffffffff16815260200190815260200160002080548060200260200160405190810160405280929190818152602001828054801561077557602002820191906000526020600020905b815481526020019060010190808311610761575b50505050509050919050565b6060818310151561079157600080fd5b6000600161079f858561151f565b8585030301905060008090506060826040519080825280602002602001820160405280156107dc5781602001602082028038833980820191505090505b50905060008690505b85811115156108c65760007f010000000000000000000000000000000000000000000000000000000000000002600460006007548152602001908152602001600020600083815260200190815260200160002054600060208110151561084757fe5b1a7f0100000000000000000000000000000000000000000000000000000000000000027effffffffffffffffffffffffffffffffffffffffffffffffffffffffffffff19161415156108b9578082848151811015156108a257fe5b906020019060200201818152505082806001019350505b80806001019150506107e5565b5080935050505092915050565b6002808111156108df57fe5b600660009054906101000a900460ff1660028111156108fa57fe5b14151561090657600080fd5b6007600081548092919060010191905055506000600660006101000a81548160ff0219169083600281111561093757fe5b0217905550565b6000838383604051602001808473ffffffffffffffffffffffffffffffffffffffff1673ffffffffffffffffffffffffffffffffffffffff166c0100000000000000000000000002815260140183815260200182815260200193505050506040516020818303038152906040528051906020012090509392505050565b60003073ffffffffffffffffffffffffffffffffffffffff1631905090565b6109e2610dd7565b1515610a23576040517f08c379a0000000000000000000000000000000000000000000000000000000008152600401610a1a90611a90565b60405180910390fd5b600073ffffffffffffffffffffffffffffffffffffffff166000809054906101000a900473ffffffffffffffffffffffffffffffffffffffff1673ffffffffffffffffffffffffffffffffffffffff167f8be0079c531659141344cd1fd0a4f28419497f9722a3daafe3b4186f6b6457e060405160405180910390a360008060006101000a81548173ffffffffffffffffffffffffffffffffffffffff021916908373ffffffffffffffffffffffffffffffffffffffff160217905550565b60006002811115610aef57fe5b600660009054906101000a900460ff166002811115610b0a57fe5b1480610b3b575060016002811115610b1e57fe5b600660009054906101000a900460ff166002811115610b3957fe5b145b1515610b4657600080fd5b60006002811115610b5357fe5b600660009054906101000a900460ff166002811115610b6e57fe5b1415610b9d576001600660006101000a81548160ff02191690836002811115610b9357fe5b0217905550610bfe565b60016002811115610baa57fe5b600660009054906101000a900460ff166002811115610bc557fe5b1415610bfc576002600660006101000a81548160ff02191690836002811115610bea57fe5b0217905550610bf76110d4565b610bfd565b5b5b565b60608183101515610c1057600080fd5b6000610c1c848461151f565b90506000809050606082604051908082528060200260200182016040528015610c545781602001602082028038833980820191505090505b50905060008690505b8581111515610d3d5760007f0100000000000000000000000000000000000000000000000000000000000000026004600060075481526020019081526020016000206000838152602001908152602001600020546000602081101515610cbf57fe5b1a7f0100000000000000000000000000000000000000000000000000000000000000027effffffffffffffffffffffffffffffffffffffffffffffffffffffffffffff19161415610d3057808284815181101515610d1957fe5b906020019060200201818152505082806001019350505b8080600101915050610c5d565b5080935050505092915050565b8060028190555050565b60008060009054906101000a900473ffffffffffffffffffffffffffffffffffffffff16905090565b6000600c6000600754815260200190815260200160002060009054906101000a900473ffffffffffffffffffffffffffffffffffffffff16905090565b600060036000600754815260200190815260200160002054905090565b60008060009054906101000a900473ffffffffffffffffffffffffffffffffffffffff1673ffffffffffffffffffffffffffffffffffffffff163373ffffffffffffffffffffffffffffffffffffffff1614905090565b8060018190555050565b60016002811115610e4557fe5b600660009054906101000a900460ff166002811115610e6057fe5b141515610e6c57600080fd5b6000610e7933848461093e565b905080600460006007548152602001908152602001600020600085815260200190815260200160002054141515610eaf57600080fd5b3373ffffffffffffffffffffffffffffffffffffffff16600960006007548152602001908152602001600020600085815260200190815260200160002060009054906101000a900473ffffffffffffffffffffffffffffffffffffffff1673ffffffffffffffffffffffffffffffffffffffff1614151515610f3057600080fd5b600b600060075481526020019081526020016000205481604051602001808381526020018281526020019250505060405160208183030381529060405280519060200120600b60006007548152602001908152602001600020819055506008600060075481526020019081526020016000206000815480929190600101919050555033600960006007548152602001908152602001600020600085815260200190815260200160002060006101000a81548173ffffffffffffffffffffffffffffffffffffffff021916908373ffffffffffffffffffffffffffffffffffffffff160217905550600a6000600754815260200190815260200160002060003373ffffffffffffffffffffffffffffffffffffffff1673ffffffffffffffffffffffffffffffffffffffff1681526020019081526020016000208390806001815401808255809150509060018203906000526020600020016000909192909190915055506002546008600060075481526020019081526020016000205414156110bb576110ba610ae2565b5b505050565b6000600154905090565b6000600754905090565b6002808111156110e057fe5b600660009054906101000a900460ff1660028111156110fb57fe5b14151561110757600080fd5b6000600254600b60006007548152602001908152602001600020546001900481151561112f57fe5b0690505b600073ffffffffffffffffffffffffffffffffffffffff16600960006007548152602001908152602001600020600083815260200190815260200160002060009054906101000a900473ffffffffffffffffffffffffffffffffffffffff1673ffffffffffffffffffffffffffffffffffffffff1614156111ca5780806001019150506002548111156111c557600090505b611133565b600960006007548152602001908152602001600020600082815260200190815260200160002060009054906101000a900473ffffffffffffffffffffffffffffffffffffffff16600c6000600754815260200190815260200160002060006101000a81548173ffffffffffffffffffffffffffffffffffffffff021916908373ffffffffffffffffffffffffffffffffffffffff16021790555050565b6000600960006007548152602001908152602001600020600083815260200190815260200160002060009054906101000a900473ffffffffffffffffffffffffffffffffffffffff169050919050565b600154341415156112c757600080fd5b600082101580156112d9575060025482105b15156112e457600080fd5b600060028111156112f157fe5b600660009054906101000a900460ff16600281111561130c57fe5b14151561131857600080fd5b600060010260046000600754815260200190815260200160002060008481526020019081526020016000205414151561135057600080fd5b6103e88110158015611363575061271081105b151561136e57600080fd5b6003600060075481526020019081526020016000206000815480929190600101919050555060006113a033848461093e565b9050806004600060075481526020019081526020016000206000858152602001908152602001600020819055507f5c6c890314aa0d49059c35b35ff86ffb43efe8f543dc3691558f39dfa4a82011336040516113fc91906119e2565b60405180910390a160025460036000600754815260200190815260200160002054141561142c5761142b610ae2565b5b505050565b61143b83836112b7565b8073ffffffffffffffffffffffffffffffffffffffff163373ffffffffffffffffffffffffffffffffffffffff161415151561147657600080fd5b600560008273ffffffffffffffffffffffffffffffffffffffff1673ffffffffffffffffffffffffffffffffffffffff16815260200190815260200160002060008154809291906001019190505550505050565b6114d2610dd7565b1515611513576040517f08c379a000000000000000000000000000000000000000000000000000000000815260040161150a90611a90565b60405180910390fd5b61151c816115fa565b50565b6000806000905060008490505b83811115156115ef5760007f010000000000000000000000000000000000000000000000000000000000000002600460006007548152602001908152602001600020600083815260200190815260200160002054600060208110151561158e57fe5b1a7f0100000000000000000000000000000000000000000000000000000000000000027effffffffffffffffffffffffffffffffffffffffffffffffffffffffffffff191614156115e25781806001019250505b808060010191505061152c565b508091505092915050565b600073ffffffffffffffffffffffffffffffffffffffff168173ffffffffffffffffffffffffffffffffffffffff161415151561166c576040517f08c379a000000000000000000000000000000000000000000000000000000000815260040161166390611a70565b60405180910390fd5b8073ffffffffffffffffffffffffffffffffffffffff166000809054906101000a900473ffffffffffffffffffffffffffffffffffffffff1673ffffffffffffffffffffffffffffffffffffffff167f8be0079c531659141344cd1fd0a4f28419497f9722a3daafe3b4186f6b6457e060405160405180910390a3806000806101000a81548173ffffffffffffffffffffffffffffffffffffffff021916908373ffffffffffffffffffffffffffffffffffffffff16021790555050565b60006117368235611b58565b905092915050565b600061174a8235611b6a565b905092915050565b60006020828403121561176457600080fd5b60006117728482850161172a565b91505092915050565b60008060006060848603121561179057600080fd5b600061179e8682870161172a565b93505060206117af8682870161173e565b92505060406117c08682870161173e565b9150509250925092565b6000602082840312156117dc57600080fd5b60006117ea8482850161173e565b91505092915050565b6000806040838503121561180657600080fd5b60006118148582860161173e565b92505060206118258582860161173e565b9150509250929050565b60008060006060848603121561184457600080fd5b60006118528682870161173e565b93505060206118638682870161173e565b92505060406118748682870161172a565b9150509250925092565b61188781611b74565b82525050565b61189681611af0565b82525050565b60006118a782611ad8565b8084526020840193506118b983611acb565b60005b828110156118eb576118cf8683516119b8565b6118d882611ae3565b91506020860195506001810190506118bc565b50849250505092915050565b61190081611b02565b82525050565b61190f81611b0e565b82525050565b61191e81611b86565b82525050565b6000602682527f4f776e61626c653a206e6577206f776e657220697320746865207a65726f206160208301527f64647265737300000000000000000000000000000000000000000000000000006040830152606082019050919050565b6000602082527f4f776e61626c653a2063616c6c6572206973206e6f7420746865206f776e65726020830152604082019050919050565b6119c181611b4e565b82525050565b60006020820190506119dc600083018461188d565b92915050565b60006020820190506119f7600083018461187e565b92915050565b60006020820190508181036000830152611a17818461189c565b905092915050565b6000602082019050611a3460008301846118f7565b92915050565b6000602082019050611a4f6000830184611906565b92915050565b6000602082019050611a6a6000830184611915565b92915050565b60006020820190508181036000830152611a8981611924565b9050919050565b60006020820190508181036000830152611aa981611981565b9050919050565b6000602082019050611ac560008301846119b8565b92915050565b6000602082019050919050565b600081519050919050565b6000602082019050919050565b6000611afb82611b2e565b9050919050565b60008115159050919050565b6000819050919050565b6000600382101515611b2657fe5b819050919050565b600073ffffffffffffffffffffffffffffffffffffffff82169050919050565b6000819050919050565b6000611b6382611b2e565b9050919050565b6000819050919050565b6000611b7f82611b98565b9050919050565b6000611b9182611b18565b9050919050565b6000611ba382611baa565b9050919050565b6000611bb582611b2e565b905091905056fea265627a7a723058204d9140a06cf8f9cd48f10195b30ea71aa24d4b4d82e4ff1758dbfbdf31919dc66c6578706572696d656e74616cf50037",
  "source": "pragma solidity >=0.4.21 <0.6.0;\npragma experimental ABIEncoderV2;\n\nimport \"./Ownable.sol\";\n\ncontract DreamTicket is Ownable {\n\n  event Buy(\n    address buyer\n  );\n\n  enum SoldoutStatus {\n    NOT_SELLING,\n    BUY,\n    REVEALED\n  }\n\n  enum Term {\n    BUY,\n    REVEAL,\n    RESULT\n  }\n\n  ////////////////////////////////////////\n  // Always public\n  ////////////////////////////////////////\n  \n  // A ticket price per a ticket\n  uint private TICKET_PRICE = 1e15;\n\n  // The total number of ticket which is sold in a term\n  // uint private TICKET_TOTAL = 5000;\n  uint private TICKET_TOTAL = 5; // DEV\n\n  // Buy player's number\n  mapping(uint => uint) private buyCount;\n\n  // num => CommitmentHash(BuyerAddress * num * passcode)\n  mapping(uint => mapping(uint => bytes32)) private commitments;\n\n  // If you enter the introducer, it is incremented\n  mapping(address => uint) private introducers;\n\n  Term private term;\n\n  uint private round;\n\n\n  ////////////////////////////////////////\n  // Public after reveal\n  ////////////////////////////////////////\n\n  // Reveal player's number\n  mapping(uint => uint) private revealCount;\n\n  // TicketNumber => BuyerAddress\n  mapping(uint => mapping(uint => address)) private numToAddr;\n\n  // BuyerAddress => TicketNumbers\n  mapping(uint => mapping(address => uint[])) private addrToNums;\n\n  // The current seed which determine the number of winner\n  mapping(uint => bytes32) private seed;\n\n  // The winner of a current game\n  mapping(uint => address) private winner;\n\n\n  constructor () public {\n    round = 0;\n    initEntries();\n  }\n\n  /// @notice The game will be reset\n  function initEntries() private {\n    round++;\n    buyCount[round] = 0;\n    revealCount[round] = 0;\n  }\n\n  /// @notice A player can buy a ticket but the process still not be end\n  /// @param _num The ticket number (0-4999)\n  /// @param _passcode This is necessary to create random (1000-9999)\n  function buy (uint _num, uint _passcode) public payable {\n    require(msg.value == TICKET_PRICE);\n    require(_num >= 0 && _num < TICKET_TOTAL);\n    require(term == Term.BUY);\n    require(commitments[round][_num] == 0);\n    require(_passcode >= 1000 && _passcode < 10000);\n\n    buyCount[round]++;\n\n    bytes32 commitment = createCommitment(msg.sender, _num, _passcode);\n    commitments[round][_num] = commitment;\n\n    emit Buy(msg.sender);\n\n    if (buyCount[round] == TICKET_TOTAL) {\n      nextTerm();\n      // TODO: count down in a week\n    }\n  }\n\n  /// @notice A player can buy a ticket with introducer address\n  /// @param _num The ticket number (0-4999)\n  /// @param _passcode This is necessary to create random (1000-9999)\n  function buyWithIntroducer(uint _num, uint _passcode, address _introducer) public payable {\n    buy(_num, _passcode);\n    require(msg.sender != _introducer);\n    introducers[_introducer]++;\n    // TODO: Introduce Event\n  }\n  \n\n  function createCommitment(address _user, uint _num, uint _passcode) public pure returns (bytes32) {\n    return keccak256(abi.encodePacked(_user, _num, _passcode));\n  }\n\n\n  function reveal (uint _num, uint _passcode) public {\n    require(term == Term.REVEAL);\n    \n    bytes32 commitment = createCommitment(msg.sender, _num, _passcode);\n    require(commitments[round][_num] == commitment);\n\n    // double reveal\n    require(numToAddr[round][_num] != msg.sender);\n\n    seed[round] = keccak256(abi.encodePacked(seed[round], commitment));\n    revealCount[round]++;\n    numToAddr[round][_num] = msg.sender;\n    addrToNums[round][msg.sender].push(_num);\n\n    if (revealCount[round] == TICKET_TOTAL) {\n      nextTerm();\n    }\n  }\n\n  function drawWinner () public /*onlyOwner*/ {\n    require(term == Term.RESULT);\n    uint seedIndex = uint(seed[round]) % TICKET_TOTAL;\n    while (numToAddr[round][seedIndex] == address(0)) {\n      seedIndex++;\n      if (seedIndex > TICKET_TOTAL) {\n        seedIndex = 0;\n      }\n    }\n    winner[round] = numToAddr[round][seedIndex];\n  }\n\n  function getSeedIndex () public {\n    uint seedIndex = uint(seed[round]) % TICKET_TOTAL;\n    if (numToAddr[round][seedIndex] == address(0)) {\n      seedIndex++;\n      if (seedIndex > TICKET_TOTAL) {\n        seedIndex = 0;\n      }\n    }\n  }\n\n  function getIntroducedCount(address _user) public view returns (uint) {\n    return introducers[_user];\n  }\n\n  function getRound() public view returns (uint) {\n    return round;\n  }\n\n  function getBuyCount() public view returns (uint) {\n    return buyCount[round];\n  }\n\n  function getRevealCount() public view returns (uint) {\n    return revealCount[round];\n  }\n\n  function getAddress(uint _num) public view returns (address) {\n    return numToAddr[round][_num];\n  }\n\n  function getNumbers(address _address) public view returns (uint[] memory) {\n    return addrToNums[round][_address];\n  }\n\n  function nextTerm() public /* onlyOwner */ {\n    require(term == Term.BUY || term == Term.REVEAL);\n    if (term == Term.BUY) {\n      term = Term.REVEAL;\n    } else if (term == Term.REVEAL) {\n      term = Term.RESULT;\n      drawWinner();\n    } else {\n      // nothing\n    }\n  }\n\n  function getTerm() public view returns (Term) {\n    return term;\n  }\n\n  function getWinner() public view returns (address) {\n    return winner[round];\n  }\n\n  /// @param _from more than equals\n  /// @param _to less than equals\n  function getSelectableNumbers(uint _from, uint _to) public view returns (uint[] memory) {\n    require(_from < _to);\n    uint diff = getEmptyNumber(_from, _to);\n    uint i = 0;\n    uint[] memory numbers = new uint[](diff);\n    for (uint target = _from; target <= _to; target++) {\n      if (commitments[round][target][0] == 0) {\n        numbers[i] = target;\n        i++;\n      }\n    }\n    return numbers;\n  }\n\n  /// @param _from more than equals\n  /// @param _to less than equals\n  function getNonSelectableNumbers(uint _from, uint _to) public view returns (uint[] memory) {\n    require(_from < _to);\n    uint diff = _to - _from - getEmptyNumber(_from, _to) + 1;\n    uint i = 0;\n    uint[] memory numbers = new uint[](diff);\n    for (uint target = _from; target <= _to; target++) {\n      if (commitments[round][target][0] != 0) {\n        numbers[i] = target;\n        i++;\n      }\n    }\n    return numbers;\n  }\n\n  function getEmptyNumber(uint _from, uint _to) private view returns (uint) {\n    uint diff = 0;\n    for (uint target = _from; target <= _to; target++) {\n      if (commitments[round][target][0] == 0) {\n        diff++;\n      }\n    }\n    return diff;\n  }\n\n  function nextGame () public /* onlyOwner */ {\n    require(term == Term.RESULT);\n    round++;\n    term = Term.BUY;\n  }\n\n  function setPrice (uint price) public {\n    TICKET_PRICE = price;\n  }\n\n  function getPrice () public view returns (uint) {\n    return TICKET_PRICE;\n  }\n\n  function setTicketTotal (uint num) public /* onlyOwner */ {\n    // For Only Test\n    TICKET_TOTAL = num;\n  }\n\n  function getContractBalance() public view returns (uint) {\n    return address(this).balance;\n  }\n}",
  "sourcePath": "/Users/koikeshunpei/Dev/04_lottery/dapp/contracts/DreamTicket.sol",
  "compiler": {
    "name": "solc",
    "version": "0.5.0+commit.1d4f565a.Emscripten.clang"
  },
  "schemaVersion": "3.0.9",
  "updatedAt": "2019-06-22T13:01:45.845Z",
  "devdoc": {
    "methods": {
      "buy(uint256,uint256)": {
        "params": {
          "_num": "The ticket number (0-4999)",
          "_passcode": "This is necessary to create random (1000-9999)"
        }
      },
      "buyWithIntroducer(uint256,uint256,address)": {
        "params": {
          "_num": "The ticket number (0-4999)",
          "_passcode": "This is necessary to create random (1000-9999)"
        }
      },
      "getNonSelectableNumbers(uint256,uint256)": {
        "params": {
          "_from": "more than equals",
          "_to": "less than equals"
        }
      },
      "getSelectableNumbers(uint256,uint256)": {
        "params": {
          "_from": "more than equals",
          "_to": "less than equals"
        }
      },
      "isOwner()": {
        "details": "Returns true if the caller is the current owner."
      },
      "owner()": {
        "details": "Returns the address of the current owner."
      },
      "renounceOwnership()": {
        "details": "Leaves the contract without owner. It will not be possible to call `onlyOwner` functions anymore. Can only be called by the current owner.     * > Note: Renouncing ownership will leave the contract without an owner, thereby removing any functionality that is only available to the owner."
      },
      "transferOwnership(address)": {
        "details": "Transfers ownership of the contract to a new account (`newOwner`). Can only be called by the current owner."
      }
    }
  },
  "userdoc": {
    "methods": {
      "buy(uint256,uint256)": {
        "notice": "A player can buy a ticket but the process still not be end"
      },
      "buyWithIntroducer(uint256,uint256,address)": {
        "notice": "A player can buy a ticket with introducer address"
      }
    }
  }
}