{
  "contractName": "DreamTickets",
  "abi": [
    {
      "constant": false,
      "inputs": [],
      "name": "renounceOwnership",
      "outputs": [],
      "payable": false,
      "stateMutability": "nonpayable",
      "type": "function"
    },
    {
      "constant": true,
      "inputs": [],
      "name": "owner",
      "outputs": [
        {
          "name": "",
          "type": "address"
        }
      ],
      "payable": false,
      "stateMutability": "view",
      "type": "function"
    },
    {
      "constant": true,
      "inputs": [],
      "name": "isOwner",
      "outputs": [
        {
          "name": "",
          "type": "bool"
        }
      ],
      "payable": false,
      "stateMutability": "view",
      "type": "function"
    },
    {
      "constant": false,
      "inputs": [
        {
          "name": "newOwner",
          "type": "address"
        }
      ],
      "name": "transferOwnership",
      "outputs": [],
      "payable": false,
      "stateMutability": "nonpayable",
      "type": "function"
    },
    {
      "inputs": [],
      "payable": false,
      "stateMutability": "nonpayable",
      "type": "constructor"
    },
    {
      "anonymous": false,
      "inputs": [
        {
          "indexed": false,
          "name": "buyer",
          "type": "address"
        }
      ],
      "name": "Buy",
      "type": "event"
    },
    {
      "anonymous": false,
      "inputs": [
        {
          "indexed": true,
          "name": "previousOwner",
          "type": "address"
        },
        {
          "indexed": true,
          "name": "newOwner",
          "type": "address"
        }
      ],
      "name": "OwnershipTransferred",
      "type": "event"
    },
    {
      "constant": false,
      "inputs": [
        {
          "name": "_num",
          "type": "uint256"
        },
        {
          "name": "_passcode",
          "type": "uint256"
        }
      ],
      "name": "buy",
      "outputs": [],
      "payable": true,
      "stateMutability": "payable",
      "type": "function"
    },
    {
      "constant": false,
      "inputs": [
        {
          "name": "_num",
          "type": "uint256"
        },
        {
          "name": "_passcode",
          "type": "uint256"
        },
        {
          "name": "_introducer",
          "type": "address"
        }
      ],
      "name": "buyWithIntroducer",
      "outputs": [],
      "payable": true,
      "stateMutability": "payable",
      "type": "function"
    },
    {
      "constant": true,
      "inputs": [
        {
          "name": "_user",
          "type": "address"
        },
        {
          "name": "_num",
          "type": "uint256"
        },
        {
          "name": "_passcode",
          "type": "uint256"
        }
      ],
      "name": "createCommitment",
      "outputs": [
        {
          "name": "",
          "type": "bytes32"
        }
      ],
      "payable": false,
      "stateMutability": "pure",
      "type": "function"
    },
    {
      "constant": false,
      "inputs": [
        {
          "name": "_num",
          "type": "uint256"
        },
        {
          "name": "_passcode",
          "type": "uint256"
        }
      ],
      "name": "reveal",
      "outputs": [],
      "payable": false,
      "stateMutability": "nonpayable",
      "type": "function"
    },
    {
      "constant": false,
      "inputs": [],
      "name": "drawWinner",
      "outputs": [],
      "payable": false,
      "stateMutability": "nonpayable",
      "type": "function"
    },
    {
      "constant": false,
      "inputs": [
        {
          "name": "price",
          "type": "uint256"
        }
      ],
      "name": "setPrice",
      "outputs": [],
      "payable": false,
      "stateMutability": "nonpayable",
      "type": "function"
    },
    {
      "constant": true,
      "inputs": [],
      "name": "getPrice",
      "outputs": [
        {
          "name": "",
          "type": "uint256"
        }
      ],
      "payable": false,
      "stateMutability": "view",
      "type": "function"
    },
    {
      "constant": true,
      "inputs": [],
      "name": "getEntryCount",
      "outputs": [
        {
          "name": "",
          "type": "uint256"
        }
      ],
      "payable": false,
      "stateMutability": "view",
      "type": "function"
    },
    {
      "constant": true,
      "inputs": [
        {
          "name": "num",
          "type": "uint256"
        }
      ],
      "name": "getNumber",
      "outputs": [
        {
          "name": "",
          "type": "bytes32"
        }
      ],
      "payable": false,
      "stateMutability": "view",
      "type": "function"
    },
    {
      "constant": true,
      "inputs": [],
      "name": "getIntroducedCount",
      "outputs": [
        {
          "name": "",
          "type": "uint256"
        }
      ],
      "payable": false,
      "stateMutability": "view",
      "type": "function"
    },
    {
      "constant": true,
      "inputs": [],
      "name": "getBalance",
      "outputs": [
        {
          "name": "",
          "type": "uint256"
        }
      ],
      "payable": false,
      "stateMutability": "view",
      "type": "function"
    }
  ],
  "bytecode": "0x608060405266038d7ea4c6800060015561138860025534801561002157600080fd5b50336000806101000a81548173ffffffffffffffffffffffffffffffffffffffff021916908373ffffffffffffffffffffffffffffffffffffffff1602179055506000809054906101000a900473ffffffffffffffffffffffffffffffffffffffff1673ffffffffffffffffffffffffffffffffffffffff16600073ffffffffffffffffffffffffffffffffffffffff167f8be0079c531659141344cd1fd0a4f28419497f9722a3daafe3b4186f6b6457e060405160405180910390a3600060078190555061106c806100f56000396000f3fe6080604052600436106100db576000357c0100000000000000000000000000000000000000000000000000000000900463ffffffff16806312065fe0146100e0578063676e26801461010b578063715018a6146101485780637a360e651461015f5780638ca7cad81461018a5780638da5cb5b146101b55780638f32d59b146101e057806391b7f5ed1461020b5780639348cef71461023457806398d5fdca1461025d578063b2185bb114610288578063d6febde81461029f578063ed150e78146102bb578063f2fde38b146102d7578063fc56365814610300575b600080fd5b3480156100ec57600080fd5b506100f561033d565b6040516101029190610f73565b60405180910390f35b34801561011757600080fd5b50610132600480360361012d9190810190610ce5565b61035c565b60405161013f9190610f18565b60405180910390f35b34801561015457600080fd5b5061015d6103d9565b005b34801561016b57600080fd5b506101746104e1565b6040516101819190610f73565b60405180910390f35b34801561019657600080fd5b5061019f6104fe565b6040516101ac9190610f73565b60405180910390f35b3480156101c157600080fd5b506101ca610545565b6040516101d79190610ec7565b60405180910390f35b3480156101ec57600080fd5b506101f561056e565b6040516102029190610efd565b60405180910390f35b34801561021757600080fd5b50610232600480360361022d9190810190610d34565b6105c5565b005b34801561024057600080fd5b5061025b60048036036102569190810190610d5d565b6105cf565b005b34801561026957600080fd5b506102726107ff565b60405161027f9190610f73565b60405180910390f35b34801561029457600080fd5b5061029d610809565b005b6102b960048036036102b49190810190610d5d565b610907565b005b6102d560048036036102d09190810190610d99565b610a46565b005b3480156102e357600080fd5b506102fe60048036036102f99190810190610cbc565b610aa4565b005b34801561030c57600080fd5b5061032760048036036103229190810190610d34565b610af9565b6040516103349190610f18565b60405180910390f35b60003073ffffffffffffffffffffffffffffffffffffffff1631905090565b6000838383604051602001808473ffffffffffffffffffffffffffffffffffffffff1673ffffffffffffffffffffffffffffffffffffffff166c0100000000000000000000000002815260140183815260200182815260200193505050506040516020818303038152906040528051906020012090509392505050565b6103e161056e565b1515610422576040517f08c379a000000000000000000000000000000000000000000000000000000000815260040161041990610f53565b60405180910390fd5b600073ffffffffffffffffffffffffffffffffffffffff166000809054906101000a900473ffffffffffffffffffffffffffffffffffffffff1673ffffffffffffffffffffffffffffffffffffffff167f8be0079c531659141344cd1fd0a4f28419497f9722a3daafe3b4186f6b6457e060405160405180910390a360008060006101000a81548173ffffffffffffffffffffffffffffffffffffffff021916908373ffffffffffffffffffffffffffffffffffffffff160217905550565b600060036000600754815260200190815260200160002054905090565b6000600560003373ffffffffffffffffffffffffffffffffffffffff1673ffffffffffffffffffffffffffffffffffffffff16815260200190815260200160002054905090565b60008060009054906101000a900473ffffffffffffffffffffffffffffffffffffffff16905090565b60008060009054906101000a900473ffffffffffffffffffffffffffffffffffffffff1673ffffffffffffffffffffffffffffffffffffffff163373ffffffffffffffffffffffffffffffffffffffff1614905090565b8060018190555050565b600160028111156105dc57fe5b600660009054906101000a900460ff1660028111156105f757fe5b14151561060357600080fd5b600061061033848461035c565b90508060046000600754815260200190815260200160002060008581526020019081526020016000205414151561064657600080fd5b600a600060075481526020019081526020016000205481604051602001808381526020018281526020019250505060405160208183030381529060405280519060200120600a60006007548152602001908152602001600020819055506106ab610c59565b60408051908101604052803373ffffffffffffffffffffffffffffffffffffffff1681526020016002808111156106de57fe5b815250905080600860006007548152602001908152602001600020600086815260200190815260200160002060008201518160000160006101000a81548173ffffffffffffffffffffffffffffffffffffffff021916908373ffffffffffffffffffffffffffffffffffffffff16021790555060208201518160000160146101000a81548160ff0219169083600281111561077557fe5b021790555090505060096000600754815260200190815260200160002060003373ffffffffffffffffffffffffffffffffffffffff1673ffffffffffffffffffffffffffffffffffffffff16815260200190815260200160002084908060018154018082558091505090600182039060005260206000200160009091929091909150555050505050565b6000600154905090565b60028081111561081557fe5b600660009054906101000a900460ff16600281111561083057fe5b14151561083c57600080fd5b6000600254600a60006007548152602001908152602001600020546001900481151561086457fe5b069050600860006007548152602001908152602001600020600082815260200190815260200160002060000160009054906101000a900473ffffffffffffffffffffffffffffffffffffffff16600b6000600754815260200190815260200160002060006101000a81548173ffffffffffffffffffffffffffffffffffffffff021916908373ffffffffffffffffffffffffffffffffffffffff16021790555050565b6001543414151561091757600080fd5b600082101580610928575060025482105b151561093357600080fd5b6000600281111561094057fe5b600660009054906101000a900460ff16600281111561095b57fe5b14151561096757600080fd5b60036000600754815260200190815260200160002060008154809291906001019190505550600061099933848461035c565b9050806004600060075481526020019081526020016000206000858152602001908152602001600020819055507f5c6c890314aa0d49059c35b35ff86ffb43efe8f543dc3691558f39dfa4a82011336040516109f59190610ee2565b60405180910390a1600254600360006007548152602001908152602001600020541415610a41576001600660006101000a81548160ff02191690836002811115610a3b57fe5b02179055505b505050565b610a508383610907565b600560008273ffffffffffffffffffffffffffffffffffffffff1673ffffffffffffffffffffffffffffffffffffffff16815260200190815260200160002060008154809291906001019190505550505050565b610aac61056e565b1515610aed576040517f08c379a0000000000000000000000000000000000000000000000000000000008152600401610ae490610f53565b60405180910390fd5b610af681610b29565b50565b60006004600060075481526020019081526020016000206000838152602001908152602001600020549050919050565b600073ffffffffffffffffffffffffffffffffffffffff168173ffffffffffffffffffffffffffffffffffffffff1614151515610b9b576040517f08c379a0000000000000000000000000000000000000000000000000000000008152600401610b9290610f33565b60405180910390fd5b8073ffffffffffffffffffffffffffffffffffffffff166000809054906101000a900473ffffffffffffffffffffffffffffffffffffffff1673ffffffffffffffffffffffffffffffffffffffff167f8be0079c531659141344cd1fd0a4f28419497f9722a3daafe3b4186f6b6457e060405160405180910390a3806000806101000a81548173ffffffffffffffffffffffffffffffffffffffff021916908373ffffffffffffffffffffffffffffffffffffffff16021790555050565b6040805190810160405280600073ffffffffffffffffffffffffffffffffffffffff16815260200160006002811115610c8e57fe5b81525090565b6000610ca08235610fe0565b905092915050565b6000610cb48235610ff2565b905092915050565b600060208284031215610cce57600080fd5b6000610cdc84828501610c94565b91505092915050565b600080600060608486031215610cfa57600080fd5b6000610d0886828701610c94565b9350506020610d1986828701610ca8565b9250506040610d2a86828701610ca8565b9150509250925092565b600060208284031215610d4657600080fd5b6000610d5484828501610ca8565b91505092915050565b60008060408385031215610d7057600080fd5b6000610d7e85828601610ca8565b9250506020610d8f85828601610ca8565b9150509250929050565b600080600060608486031215610dae57600080fd5b6000610dbc86828701610ca8565b9350506020610dcd86828701610ca8565b9250506040610dde86828701610c94565b9150509250925092565b610df181610ffc565b82525050565b610e0081610f8e565b82525050565b610e0f81610fa0565b82525050565b610e1e81610fac565b82525050565b6000602682527f4f776e61626c653a206e6577206f776e657220697320746865207a65726f206160208301527f64647265737300000000000000000000000000000000000000000000000000006040830152606082019050919050565b6000602082527f4f776e61626c653a2063616c6c6572206973206e6f7420746865206f776e65726020830152604082019050919050565b610ec181610fd6565b82525050565b6000602082019050610edc6000830184610df7565b92915050565b6000602082019050610ef76000830184610de8565b92915050565b6000602082019050610f126000830184610e06565b92915050565b6000602082019050610f2d6000830184610e15565b92915050565b60006020820190508181036000830152610f4c81610e24565b9050919050565b60006020820190508181036000830152610f6c81610e81565b9050919050565b6000602082019050610f886000830184610eb8565b92915050565b6000610f9982610fb6565b9050919050565b60008115159050919050565b6000819050919050565b600073ffffffffffffffffffffffffffffffffffffffff82169050919050565b6000819050919050565b6000610feb82610fb6565b9050919050565b6000819050919050565b60006110078261100e565b9050919050565b600061101982611020565b9050919050565b600061102b82610fb6565b905091905056fea265627a7a723058201d60d8321262c9b5819306a40ff37a93cae512621b6f447f098359a6a61ab7e96c6578706572696d656e74616cf50037",
  "source": "pragma solidity >=0.4.21 <0.6.0;\npragma experimental ABIEncoderV2;\n\nimport \"./Ownable.sol\";\n\ncontract DreamTickets is Ownable {\n\n  event Buy(\n    address buyer\n  );\n\n  struct Entry {\n    address buyer;\n    SoldoutStatus status;\n  }\n\n  enum SoldoutStatus {\n    NOT_SELLING,\n    BUY,\n    REVEALED\n  }\n\n  enum Term {\n    BUY,\n    REVEAL,\n    RESULT\n  }\n\n  ////////////////////////////////////////\n  // Always public\n  ////////////////////////////////////////\n  \n  // A ticket price per a ticket\n  uint private TICKET_PRICE = 1e15;\n\n  // The total number of ticket which is sold in a term\n  uint private TICKET_TOTAL = 5000;\n\n  // Entry player's number\n  mapping(uint => uint) private entryCount;\n\n  // num => CommitmentHash(BuyerAddress * num * passcode)\n  mapping(uint => mapping(uint => bytes32)) private commitments;\n\n  // If you enter the introducer, it is incremented\n  mapping(address => uint) private introducers;\n\n  Term private term;\n\n  uint private round;\n\n\n  ////////////////////////////////////////\n  // Public after reveal\n  ////////////////////////////////////////\n\n  // TicketNumber => BuyerAddress\n  mapping(uint => mapping(uint => Entry)) private entries;\n\n  // BuyerAddress => TicketNumbers\n  mapping(uint => mapping(address => uint[])) private tickets;\n\n\n  // The current seed which determine the number of winner\n  mapping(uint => bytes32) private seed;\n\n  // The winner of a current game\n  mapping(uint => address) private winner;\n\n\n  constructor () public {\n    round = 0;\n  }\n\n  // initNumbers is initialize arrays of numbers\n  // The game will be reset\n  function initEntries() private {\n    round++;\n  }\n\n  // buy is used when you pay ETH and apply a lottery\n  // A player bought a ticket but still not end of process\n  function buy (uint _num, uint _passcode) public payable {\n    require(msg.value == TICKET_PRICE);\n    require(_num >= 0 || _num < TICKET_TOTAL);\n    require(term == Term.BUY);\n\n    entryCount[round]++;\n\n    bytes32 commitment = createCommitment(msg.sender, _num, _passcode);\n    commitments[round][_num] = commitment;\n\n    emit Buy(msg.sender);\n\n    if (entryCount[round] == TICKET_TOTAL) {\n      term = Term.REVEAL;\n      // TODO: count down in a week\n    }\n  }\n\n  function buyWithIntroducer(uint _num, uint _passcode, address _introducer) public payable {\n    buy(_num, _passcode);\n    // register introducer\n    introducers[_introducer]++;\n    // TODO: Introduce Event\n  }\n  \n\n  function createCommitment(address _user, uint _num, uint _passcode) public pure returns (bytes32) {\n    return keccak256(abi.encodePacked(_user, _num, _passcode));\n  }\n\n\n  function reveal (uint _num, uint _passcode) public {\n    require(term == Term.REVEAL);\n    \n    bytes32 commitment = createCommitment(msg.sender, _num, _passcode);\n    require(commitments[round][_num] == commitment);\n\n    seed[round] = keccak256(abi.encodePacked(seed[round], commitment));\n\n    Entry memory entry = Entry(msg.sender, SoldoutStatus.REVEALED);\n    entries[round][_num] = entry;\n    tickets[round][msg.sender].push(_num);\n  }\n\n  function drawWinner () public /*onlyOwner*/ {\n    require(term == Term.RESULT);\n    uint seedIndex = uint(seed[round]) % TICKET_TOTAL;\n    winner[round] = entries[round][seedIndex].buyer;\n  }\n\n  function setPrice (uint price) public {\n    TICKET_PRICE = price;\n  }\n\n  function getPrice () public view returns (uint) {\n    return TICKET_PRICE;\n  }\n\n  function getEntryCount () public view returns (uint) {\n    return entryCount[round];\n  }\n\n\n\n  function getNumber(uint num) public view returns (bytes32) {\n    return commitments[round][num];\n  }\n\n  function getIntroducedCount() public view returns (uint) {\n    return introducers[msg.sender];\n  }\n\n  function getBalance() public view returns (uint) {\n    return address(this).balance;\n  }\n}",
  "sourcePath": "/Users/koikeshunpei/Dev/04_lottery/dapp/contracts/DreamTickets.sol",
  "compiler": {
    "name": "solc",
    "version": "0.5.0+commit.1d4f565a.Emscripten.clang"
  },
  "schemaVersion": "3.0.9",
  "updatedAt": "2019-06-09T15:35:35.885Z",
  "devdoc": {
    "methods": {
      "isOwner()": {
        "details": "Returns true if the caller is the current owner."
      },
      "owner()": {
        "details": "Returns the address of the current owner."
      },
      "renounceOwnership()": {
        "details": "Leaves the contract without owner. It will not be possible to call `onlyOwner` functions anymore. Can only be called by the current owner.     * > Note: Renouncing ownership will leave the contract without an owner, thereby removing any functionality that is only available to the owner."
      },
      "transferOwnership(address)": {
        "details": "Transfers ownership of the contract to a new account (`newOwner`). Can only be called by the current owner."
      }
    }
  },
  "userdoc": {
    "methods": {}
  }
}