{
  "contractName": "DreamTicket",
  "abi": [
    {
      "constant": false,
      "inputs": [],
      "name": "renounceOwnership",
      "outputs": [],
      "payable": false,
      "stateMutability": "nonpayable",
      "type": "function"
    },
    {
      "constant": true,
      "inputs": [],
      "name": "owner",
      "outputs": [
        {
          "name": "",
          "type": "address"
        }
      ],
      "payable": false,
      "stateMutability": "view",
      "type": "function"
    },
    {
      "constant": true,
      "inputs": [],
      "name": "isOwner",
      "outputs": [
        {
          "name": "",
          "type": "bool"
        }
      ],
      "payable": false,
      "stateMutability": "view",
      "type": "function"
    },
    {
      "constant": false,
      "inputs": [
        {
          "name": "newOwner",
          "type": "address"
        }
      ],
      "name": "transferOwnership",
      "outputs": [],
      "payable": false,
      "stateMutability": "nonpayable",
      "type": "function"
    },
    {
      "inputs": [],
      "payable": false,
      "stateMutability": "nonpayable",
      "type": "constructor"
    },
    {
      "anonymous": false,
      "inputs": [
        {
          "indexed": false,
          "name": "buyer",
          "type": "address"
        }
      ],
      "name": "Buy",
      "type": "event"
    },
    {
      "anonymous": false,
      "inputs": [
        {
          "indexed": true,
          "name": "previousOwner",
          "type": "address"
        },
        {
          "indexed": true,
          "name": "newOwner",
          "type": "address"
        }
      ],
      "name": "OwnershipTransferred",
      "type": "event"
    },
    {
      "constant": false,
      "inputs": [
        {
          "name": "_num",
          "type": "uint256"
        },
        {
          "name": "_passcode",
          "type": "uint256"
        }
      ],
      "name": "buy",
      "outputs": [],
      "payable": true,
      "stateMutability": "payable",
      "type": "function"
    },
    {
      "constant": false,
      "inputs": [
        {
          "name": "_num",
          "type": "uint256"
        },
        {
          "name": "_passcode",
          "type": "uint256"
        },
        {
          "name": "_introducer",
          "type": "address"
        }
      ],
      "name": "buyWithIntroducer",
      "outputs": [],
      "payable": true,
      "stateMutability": "payable",
      "type": "function"
    },
    {
      "constant": true,
      "inputs": [
        {
          "name": "_user",
          "type": "address"
        },
        {
          "name": "_num",
          "type": "uint256"
        },
        {
          "name": "_passcode",
          "type": "uint256"
        }
      ],
      "name": "createCommitment",
      "outputs": [
        {
          "name": "",
          "type": "bytes32"
        }
      ],
      "payable": false,
      "stateMutability": "pure",
      "type": "function"
    },
    {
      "constant": false,
      "inputs": [
        {
          "name": "_num",
          "type": "uint256"
        },
        {
          "name": "_passcode",
          "type": "uint256"
        }
      ],
      "name": "reveal",
      "outputs": [],
      "payable": false,
      "stateMutability": "nonpayable",
      "type": "function"
    },
    {
      "constant": false,
      "inputs": [],
      "name": "drawWinner",
      "outputs": [],
      "payable": true,
      "stateMutability": "payable",
      "type": "function"
    },
    {
      "constant": false,
      "inputs": [],
      "name": "getSeedIndex",
      "outputs": [],
      "payable": false,
      "stateMutability": "nonpayable",
      "type": "function"
    },
    {
      "constant": true,
      "inputs": [
        {
          "name": "_user",
          "type": "address"
        }
      ],
      "name": "getIntroducedCount",
      "outputs": [
        {
          "name": "",
          "type": "uint256"
        }
      ],
      "payable": false,
      "stateMutability": "view",
      "type": "function"
    },
    {
      "constant": true,
      "inputs": [],
      "name": "getRound",
      "outputs": [
        {
          "name": "",
          "type": "uint256"
        }
      ],
      "payable": false,
      "stateMutability": "view",
      "type": "function"
    },
    {
      "constant": true,
      "inputs": [],
      "name": "getBuyCount",
      "outputs": [
        {
          "name": "",
          "type": "uint256"
        }
      ],
      "payable": false,
      "stateMutability": "view",
      "type": "function"
    },
    {
      "constant": true,
      "inputs": [],
      "name": "getRevealCount",
      "outputs": [
        {
          "name": "",
          "type": "uint256"
        }
      ],
      "payable": false,
      "stateMutability": "view",
      "type": "function"
    },
    {
      "constant": true,
      "inputs": [
        {
          "name": "_num",
          "type": "uint256"
        }
      ],
      "name": "getAddress",
      "outputs": [
        {
          "name": "",
          "type": "address"
        }
      ],
      "payable": false,
      "stateMutability": "view",
      "type": "function"
    },
    {
      "constant": true,
      "inputs": [
        {
          "name": "_address",
          "type": "address"
        }
      ],
      "name": "getNumbersOnBuyTerm",
      "outputs": [
        {
          "name": "",
          "type": "uint256[]"
        }
      ],
      "payable": false,
      "stateMutability": "view",
      "type": "function"
    },
    {
      "constant": true,
      "inputs": [
        {
          "name": "_address",
          "type": "address"
        }
      ],
      "name": "getNumbersOnRevealTerm",
      "outputs": [
        {
          "name": "",
          "type": "uint256[]"
        }
      ],
      "payable": false,
      "stateMutability": "view",
      "type": "function"
    },
    {
      "constant": false,
      "inputs": [],
      "name": "nextTerm",
      "outputs": [],
      "payable": false,
      "stateMutability": "nonpayable",
      "type": "function"
    },
    {
      "constant": true,
      "inputs": [],
      "name": "getTerm",
      "outputs": [
        {
          "name": "",
          "type": "uint8"
        }
      ],
      "payable": false,
      "stateMutability": "view",
      "type": "function"
    },
    {
      "constant": true,
      "inputs": [],
      "name": "getWinner",
      "outputs": [
        {
          "name": "",
          "type": "address"
        }
      ],
      "payable": false,
      "stateMutability": "view",
      "type": "function"
    },
    {
      "constant": true,
      "inputs": [
        {
          "name": "_from",
          "type": "uint256"
        },
        {
          "name": "_to",
          "type": "uint256"
        }
      ],
      "name": "getSelectableNumbers",
      "outputs": [
        {
          "name": "",
          "type": "uint256[]"
        }
      ],
      "payable": false,
      "stateMutability": "view",
      "type": "function"
    },
    {
      "constant": true,
      "inputs": [
        {
          "name": "_from",
          "type": "uint256"
        },
        {
          "name": "_to",
          "type": "uint256"
        }
      ],
      "name": "getNonSelectableNumbers",
      "outputs": [
        {
          "name": "",
          "type": "uint256[]"
        }
      ],
      "payable": false,
      "stateMutability": "view",
      "type": "function"
    },
    {
      "constant": false,
      "inputs": [],
      "name": "nextGame",
      "outputs": [],
      "payable": false,
      "stateMutability": "nonpayable",
      "type": "function"
    },
    {
      "constant": false,
      "inputs": [
        {
          "name": "price",
          "type": "uint256"
        }
      ],
      "name": "setPrice",
      "outputs": [],
      "payable": false,
      "stateMutability": "nonpayable",
      "type": "function"
    },
    {
      "constant": true,
      "inputs": [],
      "name": "getPrice",
      "outputs": [
        {
          "name": "",
          "type": "uint256"
        }
      ],
      "payable": false,
      "stateMutability": "view",
      "type": "function"
    },
    {
      "constant": false,
      "inputs": [
        {
          "name": "num",
          "type": "uint256"
        }
      ],
      "name": "setTicketTotal",
      "outputs": [],
      "payable": false,
      "stateMutability": "nonpayable",
      "type": "function"
    },
    {
      "constant": true,
      "inputs": [],
      "name": "getContractBalance",
      "outputs": [
        {
          "name": "",
          "type": "uint256"
        }
      ],
      "payable": false,
      "stateMutability": "view",
      "type": "function"
    }
  ],
  "bytecode": "0x608060405266038d7ea4c6800060015561138860025534801561002157600080fd5b50336000806101000a81548173ffffffffffffffffffffffffffffffffffffffff021916908373ffffffffffffffffffffffffffffffffffffffff1602179055506000809054906101000a900473ffffffffffffffffffffffffffffffffffffffff1673ffffffffffffffffffffffffffffffffffffffff16600073ffffffffffffffffffffffffffffffffffffffff167f8be0079c531659141344cd1fd0a4f28419497f9722a3daafe3b4186f6b6457e060405160405180910390a360006008819055506100fd610102640100000000026401000000009004565b61014c565b600860008154809291906001019190505550600060036000600854815260200190815260200160002081905550600060096000600854815260200190815260200160002081905550565b611eee8061015b6000396000f3fe60806040526004361061015f576000357c0100000000000000000000000000000000000000000000000000000000900463ffffffff168063020c6fed1461016457806303652dea1461018f57806305eaf6d5146101cc578063124b65b4146101e35780631ab043521461020e578063281d62c41461024b578063676e2680146102625780636f9fb98a1461029f578063715018a6146102ca57806381dda9fa146102e1578063871933e2146102f85780638950ce0b146103355780638da5cb5b1461035e5780638e7ea5b2146103895780638f10fd45146103b45780638f32d59b146103df57806391b7f5ed1461040a5780639348cef71461043357806398d5fdca1461045c5780639f8743f714610487578063b2185bb1146104b2578063b93f9b0a146104bc578063cd91b030146104f9578063d6febde814610536578063ed150e7814610552578063f2fde38b1461056e578063f4ff667114610597575b600080fd5b34801561017057600080fd5b506101796105d4565b6040516101869190611d84565b60405180910390f35b34801561019b57600080fd5b506101b660048036036101b191908101906119d3565b6105f1565b6040516101c39190611d84565b60405180910390f35b3480156101d857600080fd5b506101e161063a565b005b3480156101ef57600080fd5b506101f86106fb565b6040516102059190611d29565b60405180910390f35b34801561021a57600080fd5b5061023560048036036102309190810190611a9d565b610712565b6040516102429190611cd1565b60405180910390f35b34801561025757600080fd5b50610260610864565b005b34801561026e57600080fd5b5061028960048036036102849190810190611a25565b6108cf565b6040516102969190611d0e565b60405180910390f35b3480156102ab57600080fd5b506102b461094c565b6040516102c19190611d84565b60405180910390f35b3480156102d657600080fd5b506102df61096b565b005b3480156102ed57600080fd5b506102f6610a73565b005b34801561030457600080fd5b5061031f600480360361031a9190810190611a9d565b610b91565b60405161032c9190611cd1565b60405180910390f35b34801561034157600080fd5b5061035c60048036036103579190810190611a74565b610cdb565b005b34801561036a57600080fd5b50610373610ce5565b6040516103809190611cb6565b60405180910390f35b34801561039557600080fd5b5061039e610d0e565b6040516103ab9190611c80565b60405180910390f35b3480156103c057600080fd5b506103c9610d4b565b6040516103d69190611d84565b60405180910390f35b3480156103eb57600080fd5b506103f4610d68565b6040516104019190611cf3565b60405180910390f35b34801561041657600080fd5b50610431600480360361042c9190810190611a74565b610dbf565b005b34801561043f57600080fd5b5061045a60048036036104559190810190611a9d565b610dc9565b005b34801561046857600080fd5b50610471611059565b60405161047e9190611d84565b60405180910390f35b34801561049357600080fd5b5061049c611063565b6040516104a99190611d84565b60405180910390f35b6104ba61106d565b005b3480156104c857600080fd5b506104e360048036036104de9190810190611a74565b611304565b6040516104f09190611c80565b60405180910390f35b34801561050557600080fd5b50610520600480360361051b91908101906119d3565b611354565b60405161052d9190611cd1565b60405180910390f35b610550600480360361054b9190810190611a9d565b6113fe565b005b61056c60048036036105679190810190611ad9565b6115f4565b005b34801561057a57600080fd5b50610595600480360361059091908101906119fc565b61168d565b005b3480156105a357600080fd5b506105be60048036036105b991908101906119d3565b6116e2565b6040516105cb9190611cd1565b60405180910390f35b600060096000600854815260200190815260200160002054905090565b6000600660008373ffffffffffffffffffffffffffffffffffffffff1673ffffffffffffffffffffffffffffffffffffffff168152602001908152602001600020549050919050565b6000600254600c60006008548152602001908152602001600020546001900481151561066257fe5b069050600073ffffffffffffffffffffffffffffffffffffffff16600a60006008548152602001908152602001600020600083815260200190815260200160002060009054906101000a900473ffffffffffffffffffffffffffffffffffffffff1673ffffffffffffffffffffffffffffffffffffffff1614156106f85780806001019150506002548111156106f757600090505b5b50565b6000600760009054906101000a900460ff16905090565b6060818310151561072257600080fd5b60006001610730858561178c565b85850303019050600080905060608260405190808252806020026020018201604052801561076d5781602001602082028038833980820191505090505b50905060008690505b85811115156108575760007f01000000000000000000000000000000000000000000000000000000000000000260046000600854815260200190815260200160002060008381526020019081526020016000205460006020811015156107d857fe5b1a7f0100000000000000000000000000000000000000000000000000000000000000027effffffffffffffffffffffffffffffffffffffffffffffffffffffffffffff191614151561084a5780828481518110151561083357fe5b906020019060200201818152505082806001019350505b8080600101915050610776565b5080935050505092915050565b60028081111561087057fe5b600760009054906101000a900460ff16600281111561088b57fe5b14151561089757600080fd5b6008600081548092919060010191905055506000600760006101000a81548160ff021916908360028111156108c857fe5b0217905550565b6000838383604051602001808473ffffffffffffffffffffffffffffffffffffffff1673ffffffffffffffffffffffffffffffffffffffff166c0100000000000000000000000002815260140183815260200182815260200193505050506040516020818303038152906040528051906020012090509392505050565b60003073ffffffffffffffffffffffffffffffffffffffff1631905090565b610973610d68565b15156109b4576040517f08c379a00000000000000000000000000000000000000000000000000000000081526004016109ab90611d64565b60405180910390fd5b600073ffffffffffffffffffffffffffffffffffffffff166000809054906101000a900473ffffffffffffffffffffffffffffffffffffffff1673ffffffffffffffffffffffffffffffffffffffff167f8be0079c531659141344cd1fd0a4f28419497f9722a3daafe3b4186f6b6457e060405160405180910390a360008060006101000a81548173ffffffffffffffffffffffffffffffffffffffff021916908373ffffffffffffffffffffffffffffffffffffffff160217905550565b60006002811115610a8057fe5b600760009054906101000a900460ff166002811115610a9b57fe5b1480610acc575060016002811115610aaf57fe5b600760009054906101000a900460ff166002811115610aca57fe5b145b1515610ad757600080fd5b60006002811115610ae457fe5b600760009054906101000a900460ff166002811115610aff57fe5b1415610b2e576001600760006101000a81548160ff02191690836002811115610b2457fe5b0217905550610b8f565b60016002811115610b3b57fe5b600760009054906101000a900460ff166002811115610b5657fe5b1415610b8d576002600760006101000a81548160ff02191690836002811115610b7b57fe5b0217905550610b8861106d565b610b8e565b5b5b565b60608183101515610ba157600080fd5b6000610bad848461178c565b90506000809050606082604051908082528060200260200182016040528015610be55781602001602082028038833980820191505090505b50905060008690505b8581111515610cce5760007f0100000000000000000000000000000000000000000000000000000000000000026004600060085481526020019081526020016000206000838152602001908152602001600020546000602081101515610c5057fe5b1a7f0100000000000000000000000000000000000000000000000000000000000000027effffffffffffffffffffffffffffffffffffffffffffffffffffffffffffff19161415610cc157808284815181101515610caa57fe5b906020019060200201818152505082806001019350505b8080600101915050610bee565b5080935050505092915050565b8060028190555050565b60008060009054906101000a900473ffffffffffffffffffffffffffffffffffffffff16905090565b6000600d6000600854815260200190815260200160002060009054906101000a900473ffffffffffffffffffffffffffffffffffffffff16905090565b600060036000600854815260200190815260200160002054905090565b60008060009054906101000a900473ffffffffffffffffffffffffffffffffffffffff1673ffffffffffffffffffffffffffffffffffffffff163373ffffffffffffffffffffffffffffffffffffffff1614905090565b8060018190555050565b60016002811115610dd657fe5b600760009054906101000a900460ff166002811115610df157fe5b141515610dfd57600080fd5b6000610e0a3384846108cf565b905080600460006008548152602001908152602001600020600085815260200190815260200160002054141515610e4057600080fd5b3373ffffffffffffffffffffffffffffffffffffffff16600a60006008548152602001908152602001600020600085815260200190815260200160002060009054906101000a900473ffffffffffffffffffffffffffffffffffffffff1673ffffffffffffffffffffffffffffffffffffffff1614151515610ec157600080fd5b600c600060085481526020019081526020016000205481604051602001808381526020018281526020019250505060405160208183030381529060405280519060200120600c60006008548152602001908152602001600020819055506009600060085481526020019081526020016000206000815480929190600101919050555033600a60006008548152602001908152602001600020600085815260200190815260200160002060006101000a81548173ffffffffffffffffffffffffffffffffffffffff021916908373ffffffffffffffffffffffffffffffffffffffff160217905550600b6000600854815260200190815260200160002060003373ffffffffffffffffffffffffffffffffffffffff1673ffffffffffffffffffffffffffffffffffffffff1681526020019081526020016000208390806001815401808255809150509060018203906000526020600020016000909192909190915055506002546009600060085481526020019081526020016000205414156110545761104b610a73565b61105361106d565b5b505050565b6000600154905090565b6000600854905090565b60028081111561107957fe5b600760009054906101000a900460ff16600281111561109457fe5b1415156110a057600080fd5b6000600254600c6000600854815260200190815260200160002054600190048115156110c857fe5b0690505b600073ffffffffffffffffffffffffffffffffffffffff16600a60006008548152602001908152602001600020600083815260200190815260200160002060009054906101000a900473ffffffffffffffffffffffffffffffffffffffff1673ffffffffffffffffffffffffffffffffffffffff16141561116357808060010191505060025481111561115e57600090505b6110cc565b600a60006008548152602001908152602001600020600082815260200190815260200160002060009054906101000a900473ffffffffffffffffffffffffffffffffffffffff16600d6000600854815260200190815260200160002060006101000a81548173ffffffffffffffffffffffffffffffffffffffff021916908373ffffffffffffffffffffffffffffffffffffffff160217905550611205610ce5565b73ffffffffffffffffffffffffffffffffffffffff166108fc60033073ffffffffffffffffffffffffffffffffffffffff163181151561124157fe5b049081150290604051600060405180830381858888f1935050505015801561126d573d6000803e3d6000fd5b50600d6000600854815260200190815260200160002060009054906101000a900473ffffffffffffffffffffffffffffffffffffffff1673ffffffffffffffffffffffffffffffffffffffff166108fc3073ffffffffffffffffffffffffffffffffffffffff16319081150290604051600060405180830381858888f19350505050158015611300573d6000803e3d6000fd5b5050565b6000600a60006008548152602001908152602001600020600083815260200190815260200160002060009054906101000a900473ffffffffffffffffffffffffffffffffffffffff169050919050565b6060600b6000600854815260200190815260200160002060008373ffffffffffffffffffffffffffffffffffffffff1673ffffffffffffffffffffffffffffffffffffffff1681526020019081526020016000208054806020026020016040519081016040528092919081815260200182805480156113f257602002820191906000526020600020905b8154815260200190600101908083116113de575b50505050509050919050565b6001543414151561140e57600080fd5b60008210158015611420575060025482105b151561142b57600080fd5b6000600281111561143857fe5b600760009054906101000a900460ff16600281111561145357fe5b14151561145f57600080fd5b600060010260046000600854815260200190815260200160002060008481526020019081526020016000205414151561149757600080fd5b6103e881101580156114aa575061271081105b15156114b557600080fd5b6003600060085481526020019081526020016000206000815480929190600101919050555060006114e73384846108cf565b90508060046000600854815260200190815260200160002060008581526020019081526020016000208190555060056000600854815260200190815260200160002060003373ffffffffffffffffffffffffffffffffffffffff1673ffffffffffffffffffffffffffffffffffffffff1681526020019081526020016000208390806001815401808255809150509060018203906000526020600020016000909192909190915055507f5c6c890314aa0d49059c35b35ff86ffb43efe8f543dc3691558f39dfa4a82011336040516115bf9190611c9b565b60405180910390a16002546003600060085481526020019081526020016000205414156115ef576115ee610a73565b5b505050565b6115fe83836113fe565b8073ffffffffffffffffffffffffffffffffffffffff163373ffffffffffffffffffffffffffffffffffffffff161415151561163957600080fd5b600660008273ffffffffffffffffffffffffffffffffffffffff1673ffffffffffffffffffffffffffffffffffffffff16815260200190815260200160002060008154809291906001019190505550505050565b611695610d68565b15156116d6576040517f08c379a00000000000000000000000000000000000000000000000000000000081526004016116cd90611d64565b60405180910390fd5b6116df81611867565b50565b606060056000600854815260200190815260200160002060008373ffffffffffffffffffffffffffffffffffffffff1673ffffffffffffffffffffffffffffffffffffffff16815260200190815260200160002080548060200260200160405190810160405280929190818152602001828054801561178057602002820191906000526020600020905b81548152602001906001019080831161176c575b50505050509050919050565b6000806000905060008490505b838111151561185c5760007f01000000000000000000000000000000000000000000000000000000000000000260046000600854815260200190815260200160002060008381526020019081526020016000205460006020811015156117fb57fe5b1a7f0100000000000000000000000000000000000000000000000000000000000000027effffffffffffffffffffffffffffffffffffffffffffffffffffffffffffff1916141561184f5781806001019250505b8080600101915050611799565b508091505092915050565b600073ffffffffffffffffffffffffffffffffffffffff168173ffffffffffffffffffffffffffffffffffffffff16141515156118d9576040517f08c379a00000000000000000000000000000000000000000000000000000000081526004016118d090611d44565b60405180910390fd5b8073ffffffffffffffffffffffffffffffffffffffff166000809054906101000a900473ffffffffffffffffffffffffffffffffffffffff1673ffffffffffffffffffffffffffffffffffffffff167f8be0079c531659141344cd1fd0a4f28419497f9722a3daafe3b4186f6b6457e060405160405180910390a3806000806101000a81548173ffffffffffffffffffffffffffffffffffffffff021916908373ffffffffffffffffffffffffffffffffffffffff16021790555050565b60006119a38235611e3e565b905092915050565b60006119b78235611e50565b905092915050565b60006119cb8235611e62565b905092915050565b6000602082840312156119e557600080fd5b60006119f384828501611997565b91505092915050565b600060208284031215611a0e57600080fd5b6000611a1c848285016119ab565b91505092915050565b600080600060608486031215611a3a57600080fd5b6000611a4886828701611997565b9350506020611a59868287016119bf565b9250506040611a6a868287016119bf565b9150509250925092565b600060208284031215611a8657600080fd5b6000611a94848285016119bf565b91505092915050565b60008060408385031215611ab057600080fd5b6000611abe858286016119bf565b9250506020611acf858286016119bf565b9150509250929050565b600080600060608486031215611aee57600080fd5b6000611afc868287016119bf565b9350506020611b0d868287016119bf565b9250506040611b1e86828701611997565b9150509250925092565b611b3181611e6c565b82525050565b611b4081611dd6565b82525050565b611b4f81611dc4565b82525050565b6000611b6082611dac565b808452602084019350611b7283611d9f565b60005b82811015611ba457611b88868351611c71565b611b9182611db7565b9150602086019550600181019050611b75565b50849250505092915050565b611bb981611de8565b82525050565b611bc881611df4565b82525050565b611bd781611e7e565b82525050565b6000602682527f4f776e61626c653a206e6577206f776e657220697320746865207a65726f206160208301527f64647265737300000000000000000000000000000000000000000000000000006040830152606082019050919050565b6000602082527f4f776e61626c653a2063616c6c6572206973206e6f7420746865206f776e65726020830152604082019050919050565b611c7a81611e34565b82525050565b6000602082019050611c956000830184611b46565b92915050565b6000602082019050611cb06000830184611b28565b92915050565b6000602082019050611ccb6000830184611b37565b92915050565b60006020820190508181036000830152611ceb8184611b55565b905092915050565b6000602082019050611d086000830184611bb0565b92915050565b6000602082019050611d236000830184611bbf565b92915050565b6000602082019050611d3e6000830184611bce565b92915050565b60006020820190508181036000830152611d5d81611bdd565b9050919050565b60006020820190508181036000830152611d7d81611c3a565b9050919050565b6000602082019050611d996000830184611c71565b92915050565b6000602082019050919050565b600081519050919050565b6000602082019050919050565b6000611dcf82611e14565b9050919050565b6000611de182611e14565b9050919050565b60008115159050919050565b6000819050919050565b6000600382101515611e0c57fe5b819050919050565b600073ffffffffffffffffffffffffffffffffffffffff82169050919050565b6000819050919050565b6000611e4982611e14565b9050919050565b6000611e5b82611e14565b9050919050565b6000819050919050565b6000611e7782611e90565b9050919050565b6000611e8982611dfe565b9050919050565b6000611e9b82611ea2565b9050919050565b6000611ead82611e14565b905091905056fea265627a7a723058202be6caee5b2a4a07c6b7731722368485bed59f42125954a1cb2e0badacc390eb6c6578706572696d656e74616cf50037",
  "source": "pragma solidity >=0.4.21 <0.6.0;\npragma experimental ABIEncoderV2;\n\nimport \"./Ownable.sol\";\n\ncontract DreamTicket is Ownable {\n\n  event Buy(\n    address buyer\n  );\n\n  enum SoldoutStatus {\n    NOT_SELLING,\n    BUY,\n    REVEALED\n  }\n\n  enum Term {\n    BUY,\n    REVEAL,\n    RESULT\n  }\n\n  ////////////////////////////////////////\n  // Always public\n  ////////////////////////////////////////\n  \n  // A ticket price per a ticket\n  uint private TICKET_PRICE = 1e15;\n\n  // The total number of ticket which is sold in a term\n  uint private TICKET_TOTAL = 5000;\n  // uint private TICKET_TOTAL = 10; // DEV\n\n  // Buy player's number\n  mapping(uint => uint) private buyCount;\n\n  // num => CommitmentHash(BuyerAddress * num * passcode)\n  mapping(uint => mapping(uint => bytes32)) private commitments;\n\n  // BuyerAddress => TicketNumbers\n  mapping(uint => mapping(address => uint[])) private addrToNumsOnBuyTerm;\n\n  // If you enter the introducer, it is incremented\n  mapping(address => uint) internal introducers;\n\n  Term internal term;\n\n  uint internal round;\n\n\n  ////////////////////////////////////////\n  // Public after reveal\n  ////////////////////////////////////////\n\n  // Reveal player's number\n  mapping(uint => uint) private revealCount;\n\n  // TicketNumber => BuyerAddress\n  mapping(uint => mapping(uint => address payable)) private numToAddr;\n\n  // BuyerAddress => TicketNumbers\n  mapping(uint => mapping(address => uint[])) private addrToNumsOnRevealTerm;\n\n  // The current seed which determine the number of winner\n  mapping(uint => bytes32) private seed;\n\n  // The winner of a current game\n  mapping(uint => address payable) private winner;\n\n\n  constructor () public {\n    round = 0;\n    initEntries();\n  }\n\n  /// @notice The game will be reset\n  function initEntries() private {\n    round++;\n    buyCount[round] = 0;\n    revealCount[round] = 0;\n  }\n\n  /// @notice A player can buy a ticket but the process still not be end\n  /// @param _num The ticket number (0-4999)\n  /// @param _passcode This is necessary to create random (1000-9999)\n  function buy (uint _num, uint _passcode) public payable {\n    require(msg.value == TICKET_PRICE);\n    require(_num >= 0 && _num < TICKET_TOTAL);\n    require(term == Term.BUY);\n    require(commitments[round][_num] == 0);\n    require(_passcode >= 1000 && _passcode < 10000);\n\n    buyCount[round]++;\n\n    bytes32 commitment = createCommitment(msg.sender, _num, _passcode);\n    commitments[round][_num] = commitment;\n    addrToNumsOnBuyTerm[round][msg.sender].push(_num);\n\n    emit Buy(msg.sender);\n\n    if (buyCount[round] == TICKET_TOTAL) {\n      nextTerm();\n      // TODO: count down in a week\n    }\n  }\n\n  /// @notice A player can buy a ticket with introducer address\n  /// @param _num The ticket number (0-4999)\n  /// @param _passcode This is necessary to create random (1000-9999)\n  function buyWithIntroducer(uint _num, uint _passcode, address _introducer) public payable {\n    buy(_num, _passcode);\n    require(msg.sender != _introducer);\n    introducers[_introducer]++;\n    // TODO: Introduce Event\n  }\n  \n\n  function createCommitment(address _user, uint _num, uint _passcode) public pure returns (bytes32) {\n    return keccak256(abi.encodePacked(_user, _num, _passcode));\n  }\n\n\n  function reveal (uint _num, uint _passcode) public {\n    require(term == Term.REVEAL);\n    \n    bytes32 commitment = createCommitment(msg.sender, _num, _passcode);\n    require(commitments[round][_num] == commitment);\n\n    // double reveal\n    require(numToAddr[round][_num] != msg.sender);\n\n    seed[round] = keccak256(abi.encodePacked(seed[round], commitment));\n    revealCount[round]++;\n    numToAddr[round][_num] = msg.sender;\n    addrToNumsOnRevealTerm[round][msg.sender].push(_num);\n\n    if (revealCount[round] == TICKET_TOTAL) {\n      nextTerm();\n      drawWinner();\n    }\n  }\n\n  function drawWinner () public payable/*onlyOwner*/ {\n    require(term == Term.RESULT);\n    uint seedIndex = uint(seed[round]) % TICKET_TOTAL;\n    while (numToAddr[round][seedIndex] == address(0)) {\n      seedIndex++;\n      if (seedIndex > TICKET_TOTAL) {\n        seedIndex = 0;\n      }\n    }\n    winner[round] = numToAddr[round][seedIndex];\n    owner().transfer(address(this).balance / 3);\n    winner[round].transfer(address(this).balance);\n  }\n\n  function getSeedIndex () public {\n    uint seedIndex = uint(seed[round]) % TICKET_TOTAL;\n    if (numToAddr[round][seedIndex] == address(0)) {\n      seedIndex++;\n      if (seedIndex > TICKET_TOTAL) {\n        seedIndex = 0;\n      }\n    }\n  }\n\n  function getIntroducedCount(address _user) public view returns (uint) {\n    return introducers[_user];\n  }\n\n  function getRound() public view returns (uint) {\n    return round;\n  }\n\n  function getBuyCount() public view returns (uint) {\n    return buyCount[round];\n  }\n\n  function getRevealCount() public view returns (uint) {\n    return revealCount[round];\n  }\n\n  function getAddress(uint _num) public view returns (address) {\n    return numToAddr[round][_num];\n  }\n\n  function getNumbersOnBuyTerm(address _address) public view returns (uint[] memory) {\n    return addrToNumsOnBuyTerm[round][_address];\n  }\n\n  function getNumbersOnRevealTerm(address _address) public view returns (uint[] memory) {\n    return addrToNumsOnRevealTerm[round][_address];\n  }\n\n  function nextTerm() public /* onlyOwner */ {\n    require(term == Term.BUY || term == Term.REVEAL);\n    if (term == Term.BUY) {\n      term = Term.REVEAL;\n    } else if (term == Term.REVEAL) {\n      term = Term.RESULT;\n      drawWinner();\n    } else {\n      // nothing\n    }\n  }\n\n  function getTerm() public view returns (Term) {\n    return term;\n  }\n\n  function getWinner() public view returns (address) {\n    return winner[round];\n  }\n\n  /// @param _from more than equals\n  /// @param _to less than equals\n  function getSelectableNumbers(uint _from, uint _to) public view returns (uint[] memory) {\n    require(_from < _to);\n    uint diff = getEmptyNumber(_from, _to);\n    uint i = 0;\n    uint[] memory numbers = new uint[](diff);\n    for (uint target = _from; target <= _to; target++) {\n      if (commitments[round][target][0] == 0) {\n        numbers[i] = target;\n        i++;\n      }\n    }\n    return numbers;\n  }\n\n  /// @param _from more than equals\n  /// @param _to less than equals\n  function getNonSelectableNumbers(uint _from, uint _to) public view returns (uint[] memory) {\n    require(_from < _to);\n    uint diff = _to - _from - getEmptyNumber(_from, _to) + 1;\n    uint i = 0;\n    uint[] memory numbers = new uint[](diff);\n    for (uint target = _from; target <= _to; target++) {\n      if (commitments[round][target][0] != 0) {\n        numbers[i] = target;\n        i++;\n      }\n    }\n    return numbers;\n  }\n\n  function getEmptyNumber(uint _from, uint _to) private view returns (uint) {\n    uint diff = 0;\n    for (uint target = _from; target <= _to; target++) {\n      if (commitments[round][target][0] == 0) {\n        diff++;\n      }\n    }\n    return diff;\n  }\n\n  function nextGame () public /* onlyOwner */ {\n    require(term == Term.RESULT);\n    round++;\n    term = Term.BUY;\n  }\n\n  function setPrice (uint price) public {\n    TICKET_PRICE = price;\n  }\n\n  function getPrice () public view returns (uint) {\n    return TICKET_PRICE;\n  }\n\n  function setTicketTotal (uint num) public /* onlyOwner */ {\n    // For Only Test\n    TICKET_TOTAL = num;\n  }\n\n  function getContractBalance() public view returns (uint) {\n    return address(this).balance;\n  }\n}",
  "sourcePath": "/Users/koikeshunpei/Dev/04_lottery/dapp/contracts/DreamTicket.sol",
  "compiler": {
    "name": "solc",
    "version": "0.5.0+commit.1d4f565a.Emscripten.clang"
  },
  "schemaVersion": "3.0.9",
  "updatedAt": "2019-07-21T14:18:22.651Z",
  "devdoc": {
    "methods": {
      "buy(uint256,uint256)": {
        "params": {
          "_num": "The ticket number (0-4999)",
          "_passcode": "This is necessary to create random (1000-9999)"
        }
      },
      "buyWithIntroducer(uint256,uint256,address)": {
        "params": {
          "_num": "The ticket number (0-4999)",
          "_passcode": "This is necessary to create random (1000-9999)"
        }
      },
      "getNonSelectableNumbers(uint256,uint256)": {
        "params": {
          "_from": "more than equals",
          "_to": "less than equals"
        }
      },
      "getSelectableNumbers(uint256,uint256)": {
        "params": {
          "_from": "more than equals",
          "_to": "less than equals"
        }
      },
      "isOwner()": {
        "details": "Returns true if the caller is the current owner."
      },
      "owner()": {
        "details": "Returns the address of the current owner."
      },
      "renounceOwnership()": {
        "details": "Leaves the contract without owner. It will not be possible to call `onlyOwner` functions anymore. Can only be called by the current owner.     * > Note: Renouncing ownership will leave the contract without an owner, thereby removing any functionality that is only available to the owner."
      },
      "transferOwnership(address)": {
        "details": "Transfers ownership of the contract to a new account (`newOwner`). Can only be called by the current owner."
      }
    }
  },
  "userdoc": {
    "methods": {
      "buy(uint256,uint256)": {
        "notice": "A player can buy a ticket but the process still not be end"
      },
      "buyWithIntroducer(uint256,uint256,address)": {
        "notice": "A player can buy a ticket with introducer address"
      }
    }
  }
}