{
  "contractName": "DreamTickets",
  "abi": [
    {
      "constant": false,
      "inputs": [],
      "name": "renounceOwnership",
      "outputs": [],
      "payable": false,
      "stateMutability": "nonpayable",
      "type": "function"
    },
    {
      "constant": true,
      "inputs": [],
      "name": "owner",
      "outputs": [
        {
          "name": "",
          "type": "address"
        }
      ],
      "payable": false,
      "stateMutability": "view",
      "type": "function"
    },
    {
      "constant": true,
      "inputs": [],
      "name": "isOwner",
      "outputs": [
        {
          "name": "",
          "type": "bool"
        }
      ],
      "payable": false,
      "stateMutability": "view",
      "type": "function"
    },
    {
      "constant": false,
      "inputs": [
        {
          "name": "newOwner",
          "type": "address"
        }
      ],
      "name": "transferOwnership",
      "outputs": [],
      "payable": false,
      "stateMutability": "nonpayable",
      "type": "function"
    },
    {
      "inputs": [],
      "payable": false,
      "stateMutability": "nonpayable",
      "type": "constructor"
    },
    {
      "anonymous": false,
      "inputs": [
        {
          "indexed": false,
          "name": "buyer",
          "type": "address"
        }
      ],
      "name": "Buy",
      "type": "event"
    },
    {
      "anonymous": false,
      "inputs": [
        {
          "indexed": true,
          "name": "previousOwner",
          "type": "address"
        },
        {
          "indexed": true,
          "name": "newOwner",
          "type": "address"
        }
      ],
      "name": "OwnershipTransferred",
      "type": "event"
    },
    {
      "constant": false,
      "inputs": [
        {
          "name": "_num",
          "type": "uint256"
        },
        {
          "name": "_passcode",
          "type": "uint256"
        }
      ],
      "name": "buy",
      "outputs": [],
      "payable": true,
      "stateMutability": "payable",
      "type": "function"
    },
    {
      "constant": false,
      "inputs": [
        {
          "name": "_num",
          "type": "uint256"
        },
        {
          "name": "_passcode",
          "type": "uint256"
        },
        {
          "name": "_introducer",
          "type": "address"
        }
      ],
      "name": "buyWithIntroducer",
      "outputs": [],
      "payable": true,
      "stateMutability": "payable",
      "type": "function"
    },
    {
      "constant": true,
      "inputs": [
        {
          "name": "_user",
          "type": "address"
        },
        {
          "name": "_num",
          "type": "uint256"
        },
        {
          "name": "_passcode",
          "type": "uint256"
        }
      ],
      "name": "createCommitment",
      "outputs": [
        {
          "name": "",
          "type": "bytes32"
        }
      ],
      "payable": false,
      "stateMutability": "pure",
      "type": "function"
    },
    {
      "constant": false,
      "inputs": [
        {
          "name": "_num",
          "type": "uint256"
        },
        {
          "name": "_passcode",
          "type": "uint256"
        }
      ],
      "name": "reveal",
      "outputs": [],
      "payable": false,
      "stateMutability": "nonpayable",
      "type": "function"
    },
    {
      "constant": false,
      "inputs": [],
      "name": "drawWinner",
      "outputs": [],
      "payable": false,
      "stateMutability": "nonpayable",
      "type": "function"
    },
    {
      "constant": true,
      "inputs": [
        {
          "name": "_user",
          "type": "address"
        }
      ],
      "name": "getIntroducedCount",
      "outputs": [
        {
          "name": "",
          "type": "uint256"
        }
      ],
      "payable": false,
      "stateMutability": "view",
      "type": "function"
    },
    {
      "constant": true,
      "inputs": [],
      "name": "getRound",
      "outputs": [
        {
          "name": "",
          "type": "uint256"
        }
      ],
      "payable": false,
      "stateMutability": "view",
      "type": "function"
    },
    {
      "constant": true,
      "inputs": [],
      "name": "getBuyCount",
      "outputs": [
        {
          "name": "",
          "type": "uint256"
        }
      ],
      "payable": false,
      "stateMutability": "view",
      "type": "function"
    },
    {
      "constant": true,
      "inputs": [],
      "name": "getRevealCount",
      "outputs": [
        {
          "name": "",
          "type": "uint256"
        }
      ],
      "payable": false,
      "stateMutability": "view",
      "type": "function"
    },
    {
      "constant": true,
      "inputs": [
        {
          "name": "_num",
          "type": "uint256"
        }
      ],
      "name": "getAddress",
      "outputs": [
        {
          "name": "",
          "type": "address"
        }
      ],
      "payable": false,
      "stateMutability": "view",
      "type": "function"
    },
    {
      "constant": true,
      "inputs": [
        {
          "name": "_address",
          "type": "address"
        }
      ],
      "name": "getNumbers",
      "outputs": [
        {
          "name": "",
          "type": "uint256[]"
        }
      ],
      "payable": false,
      "stateMutability": "view",
      "type": "function"
    },
    {
      "constant": false,
      "inputs": [],
      "name": "nextTerm",
      "outputs": [],
      "payable": false,
      "stateMutability": "nonpayable",
      "type": "function"
    },
    {
      "constant": true,
      "inputs": [],
      "name": "getTerm",
      "outputs": [
        {
          "name": "",
          "type": "uint8"
        }
      ],
      "payable": false,
      "stateMutability": "view",
      "type": "function"
    },
    {
      "constant": true,
      "inputs": [],
      "name": "getWinner",
      "outputs": [
        {
          "name": "",
          "type": "address"
        }
      ],
      "payable": false,
      "stateMutability": "view",
      "type": "function"
    },
    {
      "constant": false,
      "inputs": [],
      "name": "nextGame",
      "outputs": [],
      "payable": false,
      "stateMutability": "nonpayable",
      "type": "function"
    },
    {
      "constant": false,
      "inputs": [
        {
          "name": "price",
          "type": "uint256"
        }
      ],
      "name": "setPrice",
      "outputs": [],
      "payable": false,
      "stateMutability": "nonpayable",
      "type": "function"
    },
    {
      "constant": true,
      "inputs": [],
      "name": "getPrice",
      "outputs": [
        {
          "name": "",
          "type": "uint256"
        }
      ],
      "payable": false,
      "stateMutability": "view",
      "type": "function"
    },
    {
      "constant": false,
      "inputs": [
        {
          "name": "num",
          "type": "uint256"
        }
      ],
      "name": "setTicketTotal",
      "outputs": [],
      "payable": false,
      "stateMutability": "nonpayable",
      "type": "function"
    },
    {
      "constant": true,
      "inputs": [],
      "name": "getContractBalance",
      "outputs": [
        {
          "name": "",
          "type": "uint256"
        }
      ],
      "payable": false,
      "stateMutability": "view",
      "type": "function"
    }
  ],
  "bytecode": "0x608060405266038d7ea4c6800060015561138860025534801561002157600080fd5b50336000806101000a81548173ffffffffffffffffffffffffffffffffffffffff021916908373ffffffffffffffffffffffffffffffffffffffff1602179055506000809054906101000a900473ffffffffffffffffffffffffffffffffffffffff1673ffffffffffffffffffffffffffffffffffffffff16600073ffffffffffffffffffffffffffffffffffffffff167f8be0079c531659141344cd1fd0a4f28419497f9722a3daafe3b4186f6b6457e060405160405180910390a360006007819055506100fd610102640100000000026401000000009004565b61014c565b600760008154809291906001019190505550600060036000600754815260200190815260200160002081905550600060086000600754815260200190815260200160002081905550565b6115eb8061015b6000396000f3fe608060405260043610610133576000357c0100000000000000000000000000000000000000000000000000000000900463ffffffff168063020c6fed1461013857806303652dea14610163578063124b65b4146101a057806317e190fa146101cb578063281d62c414610208578063676e26801461021f5780636f9fb98a1461025c578063715018a61461028757806381dda9fa1461029e5780638950ce0b146102b55780638da5cb5b146102de5780638e7ea5b2146103095780638f10fd45146103345780638f32d59b1461035f57806391b7f5ed1461038a5780639348cef7146103b357806398d5fdca146103dc5780639f8743f714610407578063b2185bb114610432578063b93f9b0a14610449578063d6febde814610486578063ed150e78146104a2578063f2fde38b146104be575b600080fd5b34801561014457600080fd5b5061014d6104e7565b60405161015a91906114a5565b60405180910390f35b34801561016f57600080fd5b5061018a60048036036101859190810190611147565b610504565b60405161019791906114a5565b60405180910390f35b3480156101ac57600080fd5b506101b561054d565b6040516101c2919061144a565b60405180910390f35b3480156101d757600080fd5b506101f260048036036101ed9190810190611147565b610564565b6040516101ff91906113f2565b60405180910390f35b34801561021457600080fd5b5061021d61060e565b005b34801561022b57600080fd5b5061024660048036036102419190810190611170565b610679565b604051610253919061142f565b60405180910390f35b34801561026857600080fd5b506102716106f6565b60405161027e91906114a5565b60405180910390f35b34801561029357600080fd5b5061029c610715565b005b3480156102aa57600080fd5b506102b361081d565b005b3480156102c157600080fd5b506102dc60048036036102d791908101906111bf565b610933565b005b3480156102ea57600080fd5b506102f361093d565b60405161030091906113bc565b60405180910390f35b34801561031557600080fd5b5061031e610966565b60405161032b91906113bc565b60405180910390f35b34801561034057600080fd5b506103496109a3565b60405161035691906114a5565b60405180910390f35b34801561036b57600080fd5b506103746109c0565b6040516103819190611414565b60405180910390f35b34801561039657600080fd5b506103b160048036036103ac91908101906111bf565b610a17565b005b3480156103bf57600080fd5b506103da60048036036103d591908101906111e8565b610a21565b005b3480156103e857600080fd5b506103f1610c28565b6040516103fe91906114a5565b60405180910390f35b34801561041357600080fd5b5061041c610c32565b60405161042991906114a5565b60405180910390f35b34801561043e57600080fd5b50610447610c3c565b005b34801561045557600080fd5b50610470600480360361046b91908101906111bf565b610d37565b60405161047d91906113bc565b60405180910390f35b6104a0600480360361049b91908101906111e8565b610d87565b005b6104bc60048036036104b79190810190611224565b610f01565b005b3480156104ca57600080fd5b506104e560048036036104e09190810190611147565b610f9a565b005b600060086000600754815260200190815260200160002054905090565b6000600560008373ffffffffffffffffffffffffffffffffffffffff1673ffffffffffffffffffffffffffffffffffffffff168152602001908152602001600020549050919050565b6000600660009054906101000a900460ff16905090565b6060600a6000600754815260200190815260200160002060008373ffffffffffffffffffffffffffffffffffffffff1673ffffffffffffffffffffffffffffffffffffffff16815260200190815260200160002080548060200260200160405190810160405280929190818152602001828054801561060257602002820191906000526020600020905b8154815260200190600101908083116105ee575b50505050509050919050565b60028081111561061a57fe5b600660009054906101000a900460ff16600281111561063557fe5b14151561064157600080fd5b6007600081548092919060010191905055506000600660006101000a81548160ff0219169083600281111561067257fe5b0217905550565b6000838383604051602001808473ffffffffffffffffffffffffffffffffffffffff1673ffffffffffffffffffffffffffffffffffffffff166c0100000000000000000000000002815260140183815260200182815260200193505050506040516020818303038152906040528051906020012090509392505050565b60003073ffffffffffffffffffffffffffffffffffffffff1631905090565b61071d6109c0565b151561075e576040517f08c379a000000000000000000000000000000000000000000000000000000000815260040161075590611485565b60405180910390fd5b600073ffffffffffffffffffffffffffffffffffffffff166000809054906101000a900473ffffffffffffffffffffffffffffffffffffffff1673ffffffffffffffffffffffffffffffffffffffff167f8be0079c531659141344cd1fd0a4f28419497f9722a3daafe3b4186f6b6457e060405160405180910390a360008060006101000a81548173ffffffffffffffffffffffffffffffffffffffff021916908373ffffffffffffffffffffffffffffffffffffffff160217905550565b6000600281111561082a57fe5b600660009054906101000a900460ff16600281111561084557fe5b148061087657506001600281111561085957fe5b600660009054906101000a900460ff16600281111561087457fe5b145b151561088157600080fd5b6000600281111561088e57fe5b600660009054906101000a900460ff1660028111156108a957fe5b14156108d8576001600660006101000a81548160ff021916908360028111156108ce57fe5b0217905550610931565b600160028111156108e557fe5b600660009054906101000a900460ff16600281111561090057fe5b141561092f576002600660006101000a81548160ff0219169083600281111561092557fe5b0217905550610930565b5b5b565b8060028190555050565b60008060009054906101000a900473ffffffffffffffffffffffffffffffffffffffff16905090565b6000600c6000600754815260200190815260200160002060009054906101000a900473ffffffffffffffffffffffffffffffffffffffff16905090565b600060036000600754815260200190815260200160002054905090565b60008060009054906101000a900473ffffffffffffffffffffffffffffffffffffffff1673ffffffffffffffffffffffffffffffffffffffff163373ffffffffffffffffffffffffffffffffffffffff1614905090565b8060018190555050565b60016002811115610a2e57fe5b600660009054906101000a900460ff166002811115610a4957fe5b141515610a5557600080fd5b6000610a62338484610679565b905080600460006007548152602001908152602001600020600085815260200190815260200160002054141515610a9857600080fd5b600b600060075481526020019081526020016000205481604051602001808381526020018281526020019250505060405160208183030381529060405280519060200120600b60006007548152602001908152602001600020819055506008600060075481526020019081526020016000206000815480929190600101919050555033600960006007548152602001908152602001600020600085815260200190815260200160002060006101000a81548173ffffffffffffffffffffffffffffffffffffffff021916908373ffffffffffffffffffffffffffffffffffffffff160217905550600a6000600754815260200190815260200160002060003373ffffffffffffffffffffffffffffffffffffffff1673ffffffffffffffffffffffffffffffffffffffff168152602001908152602001600020839080600181540180825580915050906001820390600052602060002001600090919290919091505550600254600860006007548152602001908152602001600020541415610c2357610c2261081d565b5b505050565b6000600154905090565b6000600754905090565b600280811115610c4857fe5b600660009054906101000a900460ff166002811115610c6357fe5b141515610c6f57600080fd5b6000600254600b600060075481526020019081526020016000205460019004811515610c9757fe5b069050600960006007548152602001908152602001600020600082815260200190815260200160002060009054906101000a900473ffffffffffffffffffffffffffffffffffffffff16600c6000600754815260200190815260200160002060006101000a81548173ffffffffffffffffffffffffffffffffffffffff021916908373ffffffffffffffffffffffffffffffffffffffff16021790555050565b6000600960006007548152602001908152602001600020600083815260200190815260200160002060009054906101000a900473ffffffffffffffffffffffffffffffffffffffff169050919050565b60015434141515610d9757600080fd5b60008210158015610da9575060025482105b1515610db457600080fd5b60006002811115610dc157fe5b600660009054906101000a900460ff166002811115610ddc57fe5b141515610de857600080fd5b6000600102600460006007548152602001908152602001600020600084815260200190815260200160002054141515610e2057600080fd5b6103e88110158015610e33575061271081105b1515610e3e57600080fd5b600360006007548152602001908152602001600020600081548092919060010191905055506000610e70338484610679565b9050806004600060075481526020019081526020016000206000858152602001908152602001600020819055507f5c6c890314aa0d49059c35b35ff86ffb43efe8f543dc3691558f39dfa4a8201133604051610ecc91906113d7565b60405180910390a1600254600360006007548152602001908152602001600020541415610efc57610efb61081d565b5b505050565b610f0b8383610d87565b8073ffffffffffffffffffffffffffffffffffffffff163373ffffffffffffffffffffffffffffffffffffffff1614151515610f4657600080fd5b600560008273ffffffffffffffffffffffffffffffffffffffff1673ffffffffffffffffffffffffffffffffffffffff16815260200190815260200160002060008154809291906001019190505550505050565b610fa26109c0565b1515610fe3576040517f08c379a0000000000000000000000000000000000000000000000000000000008152600401610fda90611485565b60405180910390fd5b610fec81610fef565b50565b600073ffffffffffffffffffffffffffffffffffffffff168173ffffffffffffffffffffffffffffffffffffffff1614151515611061576040517f08c379a000000000000000000000000000000000000000000000000000000000815260040161105890611465565b60405180910390fd5b8073ffffffffffffffffffffffffffffffffffffffff166000809054906101000a900473ffffffffffffffffffffffffffffffffffffffff1673ffffffffffffffffffffffffffffffffffffffff167f8be0079c531659141344cd1fd0a4f28419497f9722a3daafe3b4186f6b6457e060405160405180910390a3806000806101000a81548173ffffffffffffffffffffffffffffffffffffffff021916908373ffffffffffffffffffffffffffffffffffffffff16021790555050565b600061112b823561154d565b905092915050565b600061113f823561155f565b905092915050565b60006020828403121561115957600080fd5b60006111678482850161111f565b91505092915050565b60008060006060848603121561118557600080fd5b60006111938682870161111f565b93505060206111a486828701611133565b92505060406111b586828701611133565b9150509250925092565b6000602082840312156111d157600080fd5b60006111df84828501611133565b91505092915050565b600080604083850312156111fb57600080fd5b600061120985828601611133565b925050602061121a85828601611133565b9150509250929050565b60008060006060848603121561123957600080fd5b600061124786828701611133565b935050602061125886828701611133565b92505060406112698682870161111f565b9150509250925092565b61127c81611569565b82525050565b61128b816114e5565b82525050565b600061129c826114cd565b8084526020840193506112ae836114c0565b60005b828110156112e0576112c48683516113ad565b6112cd826114d8565b91506020860195506001810190506112b1565b50849250505092915050565b6112f5816114f7565b82525050565b61130481611503565b82525050565b6113138161157b565b82525050565b6000602682527f4f776e61626c653a206e6577206f776e657220697320746865207a65726f206160208301527f64647265737300000000000000000000000000000000000000000000000000006040830152606082019050919050565b6000602082527f4f776e61626c653a2063616c6c6572206973206e6f7420746865206f776e65726020830152604082019050919050565b6113b681611543565b82525050565b60006020820190506113d16000830184611282565b92915050565b60006020820190506113ec6000830184611273565b92915050565b6000602082019050818103600083015261140c8184611291565b905092915050565b600060208201905061142960008301846112ec565b92915050565b600060208201905061144460008301846112fb565b92915050565b600060208201905061145f600083018461130a565b92915050565b6000602082019050818103600083015261147e81611319565b9050919050565b6000602082019050818103600083015261149e81611376565b9050919050565b60006020820190506114ba60008301846113ad565b92915050565b6000602082019050919050565b600081519050919050565b6000602082019050919050565b60006114f082611523565b9050919050565b60008115159050919050565b6000819050919050565b600060038210151561151b57fe5b819050919050565b600073ffffffffffffffffffffffffffffffffffffffff82169050919050565b6000819050919050565b600061155882611523565b9050919050565b6000819050919050565b60006115748261158d565b9050919050565b60006115868261150d565b9050919050565b60006115988261159f565b9050919050565b60006115aa82611523565b905091905056fea265627a7a723058202dd38c0cd7bacbf651f308d74be1f8080a6ab2cf27362a2961cfa4dbb4f1c02f6c6578706572696d656e74616cf50037",
  "source": "pragma solidity >=0.4.21 <0.6.0;\npragma experimental ABIEncoderV2;\n\nimport \"./Ownable.sol\";\n\ncontract DreamTickets is Ownable {\n\n  event Buy(\n    address buyer\n  );\n\n  enum SoldoutStatus {\n    NOT_SELLING,\n    BUY,\n    REVEALED\n  }\n\n  enum Term {\n    BUY,\n    REVEAL,\n    RESULT\n  }\n\n  ////////////////////////////////////////\n  // Always public\n  ////////////////////////////////////////\n  \n  // A ticket price per a ticket\n  uint private TICKET_PRICE = 1e15;\n\n  // The total number of ticket which is sold in a term\n  uint private TICKET_TOTAL = 5000;\n\n  // Buy player's number\n  mapping(uint => uint) private buyCount;\n\n  // num => CommitmentHash(BuyerAddress * num * passcode)\n  mapping(uint => mapping(uint => bytes32)) private commitments;\n\n  // If you enter the introducer, it is incremented\n  mapping(address => uint) private introducers;\n\n  Term private term;\n\n  uint private round;\n\n\n  ////////////////////////////////////////\n  // Public after reveal\n  ////////////////////////////////////////\n\n  // Reveal player's number\n  mapping(uint => uint) private revealCount;\n\n  // TicketNumber => BuyerAddress\n  mapping(uint => mapping(uint => address)) private numToAddr;\n\n  // BuyerAddress => TicketNumbers\n  mapping(uint => mapping(address => uint[])) private addrToNums;\n\n  // The current seed which determine the number of winner\n  mapping(uint => bytes32) private seed;\n\n  // The winner of a current game\n  mapping(uint => address) private winner;\n\n\n  constructor () public {\n    round = 0;\n    initEntries();\n  }\n\n  /// @notice The game will be reset\n  function initEntries() private {\n    round++;\n    buyCount[round] = 0;\n    revealCount[round] = 0;\n  }\n\n  /// @notice A player can buy a ticket but the process still not be end\n  /// @param _num The ticket number (0-4999)\n  /// @param _passcode This is necessary to create random (1000-9999)\n  function buy (uint _num, uint _passcode) public payable {\n    require(msg.value == TICKET_PRICE);\n    require(_num >= 0 && _num < TICKET_TOTAL);\n    require(term == Term.BUY);\n    require(commitments[round][_num] == 0);\n    require(_passcode >= 1000 && _passcode < 10000);\n\n    buyCount[round]++;\n\n    bytes32 commitment = createCommitment(msg.sender, _num, _passcode);\n    commitments[round][_num] = commitment;\n\n    emit Buy(msg.sender);\n\n    if (buyCount[round] == TICKET_TOTAL) {\n      nextTerm();\n      // TODO: count down in a week\n    }\n  }\n\n  /// @notice A player can buy a ticket with introducer address\n  /// @param _num The ticket number (0-4999)\n  /// @param _passcode This is necessary to create random (1000-9999)\n  function buyWithIntroducer(uint _num, uint _passcode, address _introducer) public payable {\n    buy(_num, _passcode);\n    require(msg.sender != _introducer);\n    introducers[_introducer]++;\n    // TODO: Introduce Event\n  }\n  \n\n  function createCommitment(address _user, uint _num, uint _passcode) public pure returns (bytes32) {\n    return keccak256(abi.encodePacked(_user, _num, _passcode));\n  }\n\n\n  function reveal (uint _num, uint _passcode) public {\n    require(term == Term.REVEAL);\n    \n    bytes32 commitment = createCommitment(msg.sender, _num, _passcode);\n    require(commitments[round][_num] == commitment);\n\n    seed[round] = keccak256(abi.encodePacked(seed[round], commitment));\n    revealCount[round]++;\n    numToAddr[round][_num] = msg.sender;\n    addrToNums[round][msg.sender].push(_num);\n\n    if (revealCount[round] == TICKET_TOTAL) {\n      nextTerm();\n    }\n  }\n\n  function drawWinner () public /*onlyOwner*/ {\n    require(term == Term.RESULT);\n    uint seedIndex = uint(seed[round]) % TICKET_TOTAL;\n    winner[round] = numToAddr[round][seedIndex];\n  }\n\n  function getIntroducedCount(address _user) public view returns (uint) {\n    return introducers[_user];\n  }\n\n  function getRound() public view returns (uint) {\n    return round;\n  }\n\n  function getBuyCount() public view returns (uint) {\n    return buyCount[round];\n  }\n\n  function getRevealCount() public view returns (uint) {\n    return revealCount[round];\n  }\n\n  function getAddress(uint _num) public view returns (address) {\n    return numToAddr[round][_num];\n  }\n\n  function getNumbers(address _address) public view returns (uint[] memory) {\n    return addrToNums[round][_address];\n  }\n\n  function nextTerm() public /* onlyOwner */ {\n    require(term == Term.BUY || term == Term.REVEAL);\n    if (term == Term.BUY) {\n      term = Term.REVEAL;\n    } else if (term == Term.REVEAL) {\n      term = Term.RESULT;\n    } else {\n      // nothing\n    }\n  }\n\n  function getTerm() public view returns (Term) {\n    return term;\n  }\n\n  function getWinner() public view returns (address) {\n    return winner[round];\n  }\n\n\n\n\n  function nextGame () public /* onlyOwner */ {\n    require(term == Term.RESULT);\n    round++;\n    term = Term.BUY;\n  }\n\n  \n\n  function setPrice (uint price) public {\n    TICKET_PRICE = price;\n  }\n\n  function getPrice () public view returns (uint) {\n    return TICKET_PRICE;\n  }\n\n  function setTicketTotal (uint num) public /* onlyOwner */ {\n    // For Only Test\n    TICKET_TOTAL = num;\n  }\n\n  function getContractBalance() public view returns (uint) {\n    return address(this).balance;\n  }\n}",
  "sourcePath": "/Users/koikeshunpei/Dev/04_lottery/dapp/contracts/DreamTickets.sol",
  "compiler": {
    "name": "solc",
    "version": "0.5.0+commit.1d4f565a.Emscripten.clang"
  },
  "schemaVersion": "3.0.9",
  "updatedAt": "2019-06-15T08:45:03.078Z",
  "devdoc": {
    "methods": {
      "buy(uint256,uint256)": {
        "params": {
          "_num": "The ticket number (0-4999)",
          "_passcode": "This is necessary to create random (1000-9999)"
        }
      },
      "buyWithIntroducer(uint256,uint256,address)": {
        "params": {
          "_num": "The ticket number (0-4999)",
          "_passcode": "This is necessary to create random (1000-9999)"
        }
      },
      "isOwner()": {
        "details": "Returns true if the caller is the current owner."
      },
      "owner()": {
        "details": "Returns the address of the current owner."
      },
      "renounceOwnership()": {
        "details": "Leaves the contract without owner. It will not be possible to call `onlyOwner` functions anymore. Can only be called by the current owner.     * > Note: Renouncing ownership will leave the contract without an owner, thereby removing any functionality that is only available to the owner."
      },
      "transferOwnership(address)": {
        "details": "Transfers ownership of the contract to a new account (`newOwner`). Can only be called by the current owner."
      }
    }
  },
  "userdoc": {
    "methods": {
      "buy(uint256,uint256)": {
        "notice": "A player can buy a ticket but the process still not be end"
      },
      "buyWithIntroducer(uint256,uint256,address)": {
        "notice": "A player can buy a ticket with introducer address"
      }
    }
  }
}