{
  "contractName": "LuckeyLottery",
  "abi": [
    {
      "constant": false,
      "inputs": [],
      "name": "renounceOwnership",
      "outputs": [],
      "payable": false,
      "stateMutability": "nonpayable",
      "type": "function"
    },
    {
      "constant": true,
      "inputs": [],
      "name": "owner",
      "outputs": [
        {
          "name": "",
          "type": "address"
        }
      ],
      "payable": false,
      "stateMutability": "view",
      "type": "function"
    },
    {
      "constant": true,
      "inputs": [],
      "name": "isOwner",
      "outputs": [
        {
          "name": "",
          "type": "bool"
        }
      ],
      "payable": false,
      "stateMutability": "view",
      "type": "function"
    },
    {
      "constant": false,
      "inputs": [
        {
          "name": "newOwner",
          "type": "address"
        }
      ],
      "name": "transferOwnership",
      "outputs": [],
      "payable": false,
      "stateMutability": "nonpayable",
      "type": "function"
    },
    {
      "inputs": [
        {
          "name": "rand",
          "type": "uint256"
        }
      ],
      "payable": false,
      "stateMutability": "nonpayable",
      "type": "constructor"
    },
    {
      "anonymous": false,
      "inputs": [
        {
          "indexed": false,
          "name": "player",
          "type": "address"
        },
        {
          "indexed": false,
          "name": "value",
          "type": "uint256"
        },
        {
          "indexed": false,
          "name": "win",
          "type": "bool"
        },
        {
          "indexed": false,
          "name": "yourNumber",
          "type": "uint256"
        }
      ],
      "name": "Buy",
      "type": "event"
    },
    {
      "anonymous": false,
      "inputs": [
        {
          "indexed": true,
          "name": "previousOwner",
          "type": "address"
        },
        {
          "indexed": true,
          "name": "newOwner",
          "type": "address"
        }
      ],
      "name": "OwnershipTransferred",
      "type": "event"
    },
    {
      "constant": false,
      "inputs": [
        {
          "name": "price",
          "type": "uint256"
        }
      ],
      "name": "setPrice",
      "outputs": [],
      "payable": false,
      "stateMutability": "nonpayable",
      "type": "function"
    },
    {
      "constant": true,
      "inputs": [],
      "name": "getPrice",
      "outputs": [
        {
          "name": "",
          "type": "uint256"
        }
      ],
      "payable": false,
      "stateMutability": "view",
      "type": "function"
    },
    {
      "constant": false,
      "inputs": [
        {
          "name": "introducer",
          "type": "address"
        }
      ],
      "name": "buyWithIntroducer",
      "outputs": [],
      "payable": true,
      "stateMutability": "payable",
      "type": "function"
    },
    {
      "constant": false,
      "inputs": [],
      "name": "buy",
      "outputs": [],
      "payable": true,
      "stateMutability": "payable",
      "type": "function"
    },
    {
      "constant": true,
      "inputs": [],
      "name": "getTotalQuantity",
      "outputs": [
        {
          "name": "",
          "type": "uint256"
        }
      ],
      "payable": false,
      "stateMutability": "view",
      "type": "function"
    },
    {
      "constant": true,
      "inputs": [],
      "name": "getEntries",
      "outputs": [
        {
          "components": [
            {
              "name": "buyer",
              "type": "address"
            },
            {
              "name": "quantity",
              "type": "uint256"
            }
          ],
          "name": "",
          "type": "tuple[]"
        }
      ],
      "payable": false,
      "stateMutability": "view",
      "type": "function"
    },
    {
      "constant": true,
      "inputs": [],
      "name": "getDepositedAmount",
      "outputs": [
        {
          "name": "",
          "type": "uint256"
        }
      ],
      "payable": false,
      "stateMutability": "view",
      "type": "function"
    },
    {
      "constant": true,
      "inputs": [
        {
          "name": "num",
          "type": "uint256"
        }
      ],
      "name": "getNunber",
      "outputs": [
        {
          "name": "",
          "type": "bool"
        }
      ],
      "payable": false,
      "stateMutability": "view",
      "type": "function"
    },
    {
      "constant": true,
      "inputs": [
        {
          "name": "num",
          "type": "uint256"
        }
      ],
      "name": "getIntroducer",
      "outputs": [
        {
          "name": "",
          "type": "address"
        }
      ],
      "payable": false,
      "stateMutability": "view",
      "type": "function"
    },
    {
      "constant": true,
      "inputs": [],
      "name": "getBalance",
      "outputs": [
        {
          "name": "",
          "type": "uint256"
        }
      ],
      "payable": false,
      "stateMutability": "view",
      "type": "function"
    }
  ],
  "bytecode": "0x608060405266038d7ea4c68000600155600060035534801561002057600080fd5b50604051602080610f37833981018060405261003f919081019061019b565b336000806101000a81548173ffffffffffffffffffffffffffffffffffffffff021916908373ffffffffffffffffffffffffffffffffffffffff1602179055506000809054906101000a900473ffffffffffffffffffffffffffffffffffffffff1673ffffffffffffffffffffffffffffffffffffffff16600073ffffffffffffffffffffffffffffffffffffffff167f8be0079c531659141344cd1fd0a4f28419497f9722a3daafe3b4186f6b6457e060405160405180910390a3600061138890505b61138881101561018057818114156101465760016005600083815260200190815260200160002060006101000a81548160ff021916908315150217905550610173565b60006005600083815260200190815260200160002060006101000a81548160ff0219169083151502179055505b8080600101915050610103565b50506101ce565b600061019382516101c4565b905092915050565b6000602082840312156101ad57600080fd5b60006101bb84828501610187565b91505092915050565b6000819050919050565b610d5a806101dd6000396000f3fe6080604052600436106100d0576000357c0100000000000000000000000000000000000000000000000000000000900463ffffffff16806312065fe0146100d557806317be85c3146101005780631986edf31461012b578063322ba9f3146101475780635a8df22214610172578063715018a6146101af57806373fe9fc1146101c65780637474e331146102035780638da5cb5b1461022e5780638f32d59b1461025957806391b7f5ed1461028457806398d5fdca146102ad578063a6f2ae3a146102d8578063f2fde38b146102e2575b600080fd5b3480156100e157600080fd5b506100ea61030b565b6040516100f79190610c34565b60405180910390f35b34801561010c57600080fd5b5061011561032a565b6040516101229190610bb7565b60405180910390f35b6101456004803603610140919081019061099c565b6103e9565b005b34801561015357600080fd5b5061015c61045a565b6040516101699190610c34565b60405180910390f35b34801561017e57600080fd5b50610199600480360361019491908101906109c5565b610464565b6040516101a69190610b57565b60405180910390f35b3480156101bb57600080fd5b506101c46104a7565b005b3480156101d257600080fd5b506101ed60048036036101e891908101906109c5565b6105af565b6040516101fa9190610bd9565b60405180910390f35b34801561020f57600080fd5b506102186105d9565b6040516102259190610c34565b60405180910390f35b34801561023a57600080fd5b506102436105e3565b6040516102509190610b57565b60405180910390f35b34801561026557600080fd5b5061026e61060c565b60405161027b9190610bd9565b60405180910390f35b34801561029057600080fd5b506102ab60048036036102a691908101906109c5565b610663565b005b3480156102b957600080fd5b506102c261066d565b6040516102cf9190610c34565b60405180910390f35b6102e0610677565b005b3480156102ee57600080fd5b506103096004803603610304919081019061099c565b6107bf565b005b60003073ffffffffffffffffffffffffffffffffffffffff1631905090565b60606004805480602002602001604051908101604052809291908181526020016000905b828210156103e057838290600052602060002090600202016040805190810160405290816000820160009054906101000a900473ffffffffffffffffffffffffffffffffffffffff1673ffffffffffffffffffffffffffffffffffffffff1673ffffffffffffffffffffffffffffffffffffffff1681526020016001820154815250508152602001906001019061034e565b50505050905090565b6103f1610677565b60068190806001815401808255809150509060018203906000526020600020016000909192909190916101000a81548173ffffffffffffffffffffffffffffffffffffffff021916908373ffffffffffffffffffffffffffffffffffffffff1602179055505050565b6000600354905090565b600060068281548110151561047557fe5b9060005260206000200160009054906101000a900473ffffffffffffffffffffffffffffffffffffffff169050919050565b6104af61060c565b15156104f0576040517f08c379a00000000000000000000000000000000000000000000000000000000081526004016104e790610c14565b60405180910390fd5b600073ffffffffffffffffffffffffffffffffffffffff166000809054906101000a900473ffffffffffffffffffffffffffffffffffffffff1673ffffffffffffffffffffffffffffffffffffffff167f8be0079c531659141344cd1fd0a4f28419497f9722a3daafe3b4186f6b6457e060405160405180910390a360008060006101000a81548173ffffffffffffffffffffffffffffffffffffffff021916908373ffffffffffffffffffffffffffffffffffffffff160217905550565b60006005600083815260200190815260200160002060009054906101000a900460ff169050919050565b6000600254905090565b60008060009054906101000a900473ffffffffffffffffffffffffffffffffffffffff16905090565b60008060009054906101000a900473ffffffffffffffffffffffffffffffffffffffff1673ffffffffffffffffffffffffffffffffffffffff163373ffffffffffffffffffffffffffffffffffffffff1614905090565b8060018190555050565b6000600154905090565b60006001543481151561068657fe5b0614151561069357600080fd5b6000600154348115156106a257fe5b04905080600260008282540192505081905550346003600082825401925050819055506106cd610944565b60408051908101604052803373ffffffffffffffffffffffffffffffffffffffff1681526020018381525090506004819080600181540180825580915050906001820390600052602060002090600202016000909192909190915060008201518160000160006101000a81548173ffffffffffffffffffffffffffffffffffffffff021916908373ffffffffffffffffffffffffffffffffffffffff160217905550602082015181600101555050507f0261151a7784321c0b49e79b25a33288d9ddeb79bde1de0842c27553200bff5c3334600060046040516107b39493929190610b72565b60405180910390a15050565b6107c761060c565b1515610808576040517f08c379a00000000000000000000000000000000000000000000000000000000081526004016107ff90610c14565b60405180910390fd5b61081181610814565b50565b600073ffffffffffffffffffffffffffffffffffffffff168173ffffffffffffffffffffffffffffffffffffffff1614151515610886576040517f08c379a000000000000000000000000000000000000000000000000000000000815260040161087d90610bf4565b60405180910390fd5b8073ffffffffffffffffffffffffffffffffffffffff166000809054906101000a900473ffffffffffffffffffffffffffffffffffffffff1673ffffffffffffffffffffffffffffffffffffffff167f8be0079c531659141344cd1fd0a4f28419497f9722a3daafe3b4186f6b6457e060405160405180910390a3806000806101000a81548173ffffffffffffffffffffffffffffffffffffffff021916908373ffffffffffffffffffffffffffffffffffffffff16021790555050565b6040805190810160405280600073ffffffffffffffffffffffffffffffffffffffff168152602001600081525090565b60006109808235610cbc565b905092915050565b60006109948235610cce565b905092915050565b6000602082840312156109ae57600080fd5b60006109bc84828501610974565b91505092915050565b6000602082840312156109d757600080fd5b60006109e584828501610988565b91505092915050565b6109f781610cd8565b82525050565b610a0681610c74565b82525050565b6000610a1782610c5c565b808452602084019350610a2983610c4f565b60005b82811015610a5b57610a3f868351610b19565b610a4882610c67565b9150604086019550600181019050610a2c565b50849250505092915050565b610a7081610c86565b82525050565b610a7f81610cea565b82525050565b6000602682527f4f776e61626c653a206e6577206f776e657220697320746865207a65726f206160208301527f64647265737300000000000000000000000000000000000000000000000000006040830152606082019050919050565b6000602082527f4f776e61626c653a2063616c6c6572206973206e6f7420746865206f776e65726020830152604082019050919050565b604082016000820151610b2f60008501826109fd565b506020820151610b426020850182610b48565b50505050565b610b5181610cb2565b82525050565b6000602082019050610b6c60008301846109fd565b92915050565b6000608082019050610b8760008301876109ee565b610b946020830186610b48565b610ba16040830185610a67565b610bae6060830184610a76565b95945050505050565b60006020820190508181036000830152610bd18184610a0c565b905092915050565b6000602082019050610bee6000830184610a67565b92915050565b60006020820190508181036000830152610c0d81610a85565b9050919050565b60006020820190508181036000830152610c2d81610ae2565b9050919050565b6000602082019050610c496000830184610b48565b92915050565b6000602082019050919050565b600081519050919050565b6000602082019050919050565b6000610c7f82610c92565b9050919050565b60008115159050919050565b600073ffffffffffffffffffffffffffffffffffffffff82169050919050565b6000819050919050565b6000610cc782610c92565b9050919050565b6000819050919050565b6000610ce382610cfc565b9050919050565b6000610cf582610cb2565b9050919050565b6000610d0782610d0e565b9050919050565b6000610d1982610c92565b905091905056fea265627a7a72305820911f021d7fb8563591ac3826a5c0f28357b2fb3c8793b074b9119fae8c1b44236c6578706572696d656e74616cf50037",
  "source": "pragma solidity >=0.4.21 <0.6.0;\npragma experimental ABIEncoderV2;\n\nimport \"./Ownable.sol\";\n\ncontract LuckeyLottery is Ownable {\n\n  event Buy(\n    address player,\n    uint value,\n    bool win,\n    uint yourNumber\n  );\n\n  struct Entry {\n    address buyer;\n    uint quantity;\n  }\n\n  uint private lotteryPrice = 1e15;\n  uint private totalQuantity;\n  uint private depositedAmount = 0;\n  Entry[] private entries;\n\n  // This is the card of the winner;\n  mapping(uint => bool) numbers;\n\n  // If you enter the introducer, it is stocked.\n  address[] private introducers;\n\n  constructor (uint rand) public {\n    for (uint i = 5000; i < 5000; i++) {\n      if (i == rand) {\n        numbers[i] = true;\n      } else {\n        numbers[i] = false;\n      }\n    }\n  }\n\n  function setPrice (uint price) public {\n    lotteryPrice = price;\n  }\n\n  function getPrice () public view returns (uint) {\n    return lotteryPrice;\n  }\n\n  function buyWithIntroducer (address introducer) public payable {\n    \n    buy();\n\n    // Register introducer\n    introducers.push(introducer);\n  }\n\n  function buy () public payable {\n    require(msg.value % lotteryPrice == 0);\n\n    // TODO: should we choose the number of ticket?\n    uint quantity = msg.value / lotteryPrice;\n    totalQuantity += quantity;\n    depositedAmount += msg.value;\n\n    Entry memory entry = Entry(msg.sender, quantity);\n    entries.push(entry);\n\n    // TODO: roulet loginc\n\n    emit Buy(msg.sender, msg.value, false, 4);\n  }\n \n  function getTotalQuantity () public view returns (uint) {\n    return totalQuantity;\n  }\n\n  function getEntries () public view returns (Entry[] memory) {\n    return entries;\n  }\n\n  function getDepositedAmount () public view returns (uint) {\n    return depositedAmount;\n  }\n\n  function getNunber(uint num) public view returns (bool) {\n    return numbers[num];\n  }\n\n  function getIntroducer(uint num) public view returns (address) {\n    return introducers[num];\n  }\n\n  function getBalance() public view returns (uint) {\n    return address(this).balance;\n  }\n}\n\n// Probably this is my misunderstand.\n// address(uint160(address(this))).transfer(msg.value);\n\n// Send ETH to contract address\n// address payable contractAddress = address(uint160(address(this)));\n// contractAddress.transfer(msg.value);",
  "sourcePath": "/Users/koikeshunpei/Dev/04_lottery/dapp/contracts/LockeyLottery.sol",
  "compiler": {
    "name": "solc",
    "version": "0.5.0+commit.1d4f565a.Emscripten.clang"
  },
  "schemaVersion": "3.0.9",
  "updatedAt": "2019-06-08T17:18:42.162Z",
  "devdoc": {
    "methods": {
      "isOwner()": {
        "details": "Returns true if the caller is the current owner."
      },
      "owner()": {
        "details": "Returns the address of the current owner."
      },
      "renounceOwnership()": {
        "details": "Leaves the contract without owner. It will not be possible to call `onlyOwner` functions anymore. Can only be called by the current owner.     * > Note: Renouncing ownership will leave the contract without an owner, thereby removing any functionality that is only available to the owner."
      },
      "transferOwnership(address)": {
        "details": "Transfers ownership of the contract to a new account (`newOwner`). Can only be called by the current owner."
      }
    }
  },
  "userdoc": {
    "methods": {}
  }
}