{
  "contractName": "SecondDream",
  "abi": [
    {
      "constant": true,
      "inputs": [],
      "name": "getRevealCount",
      "outputs": [
        {
          "name": "",
          "type": "uint256"
        }
      ],
      "payable": false,
      "stateMutability": "view",
      "type": "function"
    },
    {
      "constant": true,
      "inputs": [
        {
          "name": "_user",
          "type": "address"
        }
      ],
      "name": "getIntroducedCount",
      "outputs": [
        {
          "name": "",
          "type": "uint256"
        }
      ],
      "payable": false,
      "stateMutability": "view",
      "type": "function"
    },
    {
      "constant": true,
      "inputs": [],
      "name": "getBlocktime",
      "outputs": [
        {
          "name": "",
          "type": "uint256"
        }
      ],
      "payable": false,
      "stateMutability": "view",
      "type": "function"
    },
    {
      "constant": false,
      "inputs": [],
      "name": "getSeedIndex",
      "outputs": [],
      "payable": false,
      "stateMutability": "nonpayable",
      "type": "function"
    },
    {
      "constant": true,
      "inputs": [],
      "name": "getTerm",
      "outputs": [
        {
          "name": "",
          "type": "uint8"
        }
      ],
      "payable": false,
      "stateMutability": "view",
      "type": "function"
    },
    {
      "constant": true,
      "inputs": [
        {
          "name": "_from",
          "type": "uint256"
        },
        {
          "name": "_to",
          "type": "uint256"
        }
      ],
      "name": "getNonSelectableNumbers",
      "outputs": [
        {
          "name": "",
          "type": "uint256[]"
        }
      ],
      "payable": false,
      "stateMutability": "view",
      "type": "function"
    },
    {
      "constant": false,
      "inputs": [],
      "name": "nextGame",
      "outputs": [],
      "payable": false,
      "stateMutability": "nonpayable",
      "type": "function"
    },
    {
      "constant": true,
      "inputs": [
        {
          "name": "_user",
          "type": "address"
        },
        {
          "name": "_num",
          "type": "uint256"
        },
        {
          "name": "_passcode",
          "type": "uint256"
        }
      ],
      "name": "createCommitment",
      "outputs": [
        {
          "name": "",
          "type": "bytes32"
        }
      ],
      "payable": false,
      "stateMutability": "pure",
      "type": "function"
    },
    {
      "constant": true,
      "inputs": [],
      "name": "getContractBalance",
      "outputs": [
        {
          "name": "",
          "type": "uint256"
        }
      ],
      "payable": false,
      "stateMutability": "view",
      "type": "function"
    },
    {
      "constant": false,
      "inputs": [],
      "name": "renounceOwnership",
      "outputs": [],
      "payable": false,
      "stateMutability": "nonpayable",
      "type": "function"
    },
    {
      "constant": false,
      "inputs": [],
      "name": "timepolling",
      "outputs": [],
      "payable": false,
      "stateMutability": "nonpayable",
      "type": "function"
    },
    {
      "constant": false,
      "inputs": [],
      "name": "nextTerm",
      "outputs": [],
      "payable": false,
      "stateMutability": "nonpayable",
      "type": "function"
    },
    {
      "constant": true,
      "inputs": [
        {
          "name": "_from",
          "type": "uint256"
        },
        {
          "name": "_to",
          "type": "uint256"
        }
      ],
      "name": "getSelectableNumbers",
      "outputs": [
        {
          "name": "",
          "type": "uint256[]"
        }
      ],
      "payable": false,
      "stateMutability": "view",
      "type": "function"
    },
    {
      "constant": false,
      "inputs": [
        {
          "name": "num",
          "type": "uint256"
        }
      ],
      "name": "setTicketTotal",
      "outputs": [],
      "payable": false,
      "stateMutability": "nonpayable",
      "type": "function"
    },
    {
      "constant": true,
      "inputs": [],
      "name": "owner",
      "outputs": [
        {
          "name": "",
          "type": "address"
        }
      ],
      "payable": false,
      "stateMutability": "view",
      "type": "function"
    },
    {
      "constant": true,
      "inputs": [],
      "name": "getWinner",
      "outputs": [
        {
          "name": "",
          "type": "address"
        }
      ],
      "payable": false,
      "stateMutability": "view",
      "type": "function"
    },
    {
      "constant": true,
      "inputs": [],
      "name": "getBuyCount",
      "outputs": [
        {
          "name": "",
          "type": "uint256"
        }
      ],
      "payable": false,
      "stateMutability": "view",
      "type": "function"
    },
    {
      "constant": true,
      "inputs": [],
      "name": "isOwner",
      "outputs": [
        {
          "name": "",
          "type": "bool"
        }
      ],
      "payable": false,
      "stateMutability": "view",
      "type": "function"
    },
    {
      "constant": false,
      "inputs": [
        {
          "name": "price",
          "type": "uint256"
        }
      ],
      "name": "setPrice",
      "outputs": [],
      "payable": false,
      "stateMutability": "nonpayable",
      "type": "function"
    },
    {
      "constant": false,
      "inputs": [
        {
          "name": "_num",
          "type": "uint256"
        },
        {
          "name": "_passcode",
          "type": "uint256"
        }
      ],
      "name": "reveal",
      "outputs": [],
      "payable": false,
      "stateMutability": "nonpayable",
      "type": "function"
    },
    {
      "constant": true,
      "inputs": [],
      "name": "getPrice",
      "outputs": [
        {
          "name": "",
          "type": "uint256"
        }
      ],
      "payable": false,
      "stateMutability": "view",
      "type": "function"
    },
    {
      "constant": true,
      "inputs": [],
      "name": "getRound",
      "outputs": [
        {
          "name": "",
          "type": "uint256"
        }
      ],
      "payable": false,
      "stateMutability": "view",
      "type": "function"
    },
    {
      "constant": false,
      "inputs": [],
      "name": "drawWinner",
      "outputs": [],
      "payable": true,
      "stateMutability": "payable",
      "type": "function"
    },
    {
      "constant": true,
      "inputs": [
        {
          "name": "_num",
          "type": "uint256"
        }
      ],
      "name": "getAddress",
      "outputs": [
        {
          "name": "",
          "type": "address"
        }
      ],
      "payable": false,
      "stateMutability": "view",
      "type": "function"
    },
    {
      "constant": true,
      "inputs": [
        {
          "name": "_address",
          "type": "address"
        }
      ],
      "name": "getNumbersOnRevealTerm",
      "outputs": [
        {
          "name": "",
          "type": "uint256[]"
        }
      ],
      "payable": false,
      "stateMutability": "view",
      "type": "function"
    },
    {
      "constant": false,
      "inputs": [
        {
          "name": "_num",
          "type": "uint256"
        },
        {
          "name": "_passcode",
          "type": "uint256"
        }
      ],
      "name": "buy",
      "outputs": [],
      "payable": true,
      "stateMutability": "payable",
      "type": "function"
    },
    {
      "constant": false,
      "inputs": [
        {
          "name": "_num",
          "type": "uint256"
        },
        {
          "name": "_passcode",
          "type": "uint256"
        },
        {
          "name": "_introducer",
          "type": "address"
        }
      ],
      "name": "buyWithIntroducer",
      "outputs": [],
      "payable": true,
      "stateMutability": "payable",
      "type": "function"
    },
    {
      "constant": false,
      "inputs": [
        {
          "name": "newOwner",
          "type": "address"
        }
      ],
      "name": "transferOwnership",
      "outputs": [],
      "payable": false,
      "stateMutability": "nonpayable",
      "type": "function"
    },
    {
      "constant": true,
      "inputs": [
        {
          "name": "_address",
          "type": "address"
        }
      ],
      "name": "getNumbersOnBuyTerm",
      "outputs": [
        {
          "name": "",
          "type": "uint256[]"
        }
      ],
      "payable": false,
      "stateMutability": "view",
      "type": "function"
    },
    {
      "inputs": [
        {
          "name": "ticketTotal",
          "type": "uint256"
        }
      ],
      "payable": false,
      "stateMutability": "nonpayable",
      "type": "constructor"
    },
    {
      "anonymous": false,
      "inputs": [
        {
          "indexed": false,
          "name": "player",
          "type": "address"
        }
      ],
      "name": "Challenge",
      "type": "event"
    },
    {
      "anonymous": false,
      "inputs": [
        {
          "indexed": false,
          "name": "buyer",
          "type": "address"
        }
      ],
      "name": "Buy",
      "type": "event"
    },
    {
      "anonymous": false,
      "inputs": [
        {
          "indexed": true,
          "name": "previousOwner",
          "type": "address"
        },
        {
          "indexed": true,
          "name": "newOwner",
          "type": "address"
        }
      ],
      "name": "OwnershipTransferred",
      "type": "event"
    },
    {
      "constant": false,
      "inputs": [],
      "name": "challenge",
      "outputs": [],
      "payable": true,
      "stateMutability": "payable",
      "type": "function"
    },
    {
      "constant": true,
      "inputs": [],
      "name": "getApplicants",
      "outputs": [
        {
          "name": "",
          "type": "address[]"
        }
      ],
      "payable": false,
      "stateMutability": "view",
      "type": "function"
    },
    {
      "constant": false,
      "inputs": [],
      "name": "drawSecondDreamWinner",
      "outputs": [],
      "payable": false,
      "stateMutability": "nonpayable",
      "type": "function"
    }
  ],
  "bytecode": "0x608060405266038d7ea4c6800060015562127500600355620d2f0060045534801561002957600080fd5b506040516020806126808339810180604052602081101561004957600080fd5b810190808051906020019092919050505080336000806101000a81548173ffffffffffffffffffffffffffffffffffffffff021916908373ffffffffffffffffffffffffffffffffffffffff1602179055506000809054906101000a900473ffffffffffffffffffffffffffffffffffffffff1673ffffffffffffffffffffffffffffffffffffffff16600073ffffffffffffffffffffffffffffffffffffffff167f8be0079c531659141344cd1fd0a4f28419497f9722a3daafe3b4186f6b6457e060405160405180910390a3806002819055506000600b8190555061013d610144640100000000026401000000009004565b50506101d0565b600b600081548092919060010191905055506000429050600060056000600b54815260200190815260200160002081905550600354810160066000600b548152602001908152602001600020819055506004548101600d6000600b548152602001908152602001600020819055506000600c6000600b5481526020019081526020016000208190555050565b6124a1806101df6000396000f3fe608060405260043610610196576000357c0100000000000000000000000000000000000000000000000000000000900463ffffffff168063020c6fed1461019b57806303652dea146101c65780630501b79f1461022b57806305eaf6d514610256578063124b65b41461026d5780631ab04352146102a6578063281d62c414610340578063455772d214610357578063676e2680146103c35780636f9fb98a1461043c578063715018a61461046757806376179ae41461047e57806381dda9fa14610495578063871933e2146104ac5780638950ce0b146105465780638da5cb5b146105815780638e7ea5b2146105d85780638f10fd451461062f5780638f32d59b1461065a57806391b7f5ed146106895780639348cef7146106c457806398d5fdca146107095780639f8743f714610734578063a111ece71461075f578063b2185bb114610776578063b93f9b0a14610780578063cd91b030146107fb578063d2ef7398146108a1578063d6febde8146108ab578063ed150e78146108e3578063f2fde38b1461093b578063f4ff66711461098c575b600080fd5b3480156101a757600080fd5b506101b0610a32565b6040518082815260200191505060405180910390f35b3480156101d257600080fd5b50610215600480360360208110156101e957600080fd5b81019080803573ffffffffffffffffffffffffffffffffffffffff169060200190929190505050610a4f565b6040518082815260200191505060405180910390f35b34801561023757600080fd5b50610240610a98565b6040518082815260200191505060405180910390f35b34801561026257600080fd5b5061026b610aa0565b005b34801561027957600080fd5b50610282610b61565b6040518082600281111561029257fe5b60ff16815260200191505060405180910390f35b3480156102b257600080fd5b506102e9600480360360408110156102c957600080fd5b810190808035906020019092919080359060200190929190505050610b78565b6040518080602001828103825283818151815260200191508051906020019060200280838360005b8381101561032c578082015181840152602081019050610311565b505050509050019250505060405180910390f35b34801561034c57600080fd5b50610355610cca565b005b34801561036357600080fd5b5061036c610d35565b6040518080602001828103825283818151815260200191508051906020019060200280838360005b838110156103af578082015181840152602081019050610394565b505050509050019250505060405180910390f35b3480156103cf57600080fd5b50610426600480360360608110156103e657600080fd5b81019080803573ffffffffffffffffffffffffffffffffffffffff1690602001909291908035906020019092919080359060200190929190505050610dd6565b6040518082815260200191505060405180910390f35b34801561044857600080fd5b50610451610e53565b6040518082815260200191505060405180910390f35b34801561047357600080fd5b5061047c610e72565b005b34801561048a57600080fd5b50610493610fad565b005b3480156104a157600080fd5b506104aa611118565b005b3480156104b857600080fd5b506104ef600480360360408110156104cf57600080fd5b810190808035906020019092919080359060200190929190505050611236565b6040518080602001828103825283818151815260200191508051906020019060200280838360005b83811015610532578082015181840152602081019050610517565b505050509050019250505060405180910390f35b34801561055257600080fd5b5061057f6004803603602081101561056957600080fd5b8101908080359060200190929190505050611380565b005b34801561058d57600080fd5b5061059661138a565b604051808273ffffffffffffffffffffffffffffffffffffffff1673ffffffffffffffffffffffffffffffffffffffff16815260200191505060405180910390f35b3480156105e457600080fd5b506105ed6113b3565b604051808273ffffffffffffffffffffffffffffffffffffffff1673ffffffffffffffffffffffffffffffffffffffff16815260200191505060405180910390f35b34801561063b57600080fd5b506106446113f0565b6040518082815260200191505060405180910390f35b34801561066657600080fd5b5061066f61140d565b604051808215151515815260200191505060405180910390f35b34801561069557600080fd5b506106c2600480360360208110156106ac57600080fd5b8101908080359060200190929190505050611464565b005b3480156106d057600080fd5b50610707600480360360408110156106e757600080fd5b81019080803590602001909291908035906020019092919050505061146e565b005b34801561071557600080fd5b5061071e6116ce565b6040518082815260200191505060405180910390f35b34801561074057600080fd5b506107496116d8565b6040518082815260200191505060405180910390f35b34801561076b57600080fd5b506107746116e2565b005b61077e6117f6565b005b34801561078c57600080fd5b506107b9600480360360208110156107a357600080fd5b8101908080359060200190929190505050611a8d565b604051808273ffffffffffffffffffffffffffffffffffffffff1673ffffffffffffffffffffffffffffffffffffffff16815260200191505060405180910390f35b34801561080757600080fd5b5061084a6004803603602081101561081e57600080fd5b81019080803573ffffffffffffffffffffffffffffffffffffffff169060200190929190505050611add565b6040518080602001828103825283818151815260200191508051906020019060200280838360005b8381101561088d578082015181840152602081019050610872565b505050509050019250505060405180910390f35b6108a9611b87565b005b6108e1600480360360408110156108c157600080fd5b810190808035906020019092919080359060200190929190505050611e24565b005b610939600480360360608110156108f957600080fd5b810190808035906020019092919080359060200190929190803573ffffffffffffffffffffffffffffffffffffffff169060200190929190505050612046565b005b34801561094757600080fd5b5061098a6004803603602081101561095e57600080fd5b81019080803573ffffffffffffffffffffffffffffffffffffffff1690602001909291905050506120df565b005b34801561099857600080fd5b506109db600480360360208110156109af57600080fd5b81019080803573ffffffffffffffffffffffffffffffffffffffff169060200190929190505050612167565b6040518080602001828103825283818151815260200191508051906020019060200280838360005b83811015610a1e578082015181840152602081019050610a03565b505050509050019250505060405180910390f35b6000600c6000600b54815260200190815260200160002054905090565b6000600960008373ffffffffffffffffffffffffffffffffffffffff1673ffffffffffffffffffffffffffffffffffffffff168152602001908152602001600020549050919050565b600042905090565b600060025460106000600b5481526020019081526020016000205460019004811515610ac857fe5b069050600073ffffffffffffffffffffffffffffffffffffffff16600e6000600b548152602001908152602001600020600083815260200190815260200160002060009054906101000a900473ffffffffffffffffffffffffffffffffffffffff1673ffffffffffffffffffffffffffffffffffffffff161415610b5e578080600101915050600254811115610b5d57600090505b5b50565b6000600a60009054906101000a900460ff16905090565b60608183101515610b8857600080fd5b60006001610b968585612211565b858503030190506000809050606082604051908082528060200260200182016040528015610bd35781602001602082028038833980820191505090505b50905060008690505b8581111515610cbd5760007f01000000000000000000000000000000000000000000000000000000000000000260076000600b5481526020019081526020016000206000838152602001908152602001600020546000602081101515610c3e57fe5b1a7f0100000000000000000000000000000000000000000000000000000000000000027effffffffffffffffffffffffffffffffffffffffffffffffffffffffffffff1916141515610cb057808284815181101515610c9957fe5b906020019060200201818152505082806001019350505b8080600101915050610bdc565b5080935050505092915050565b600280811115610cd657fe5b600a60009054906101000a900460ff166002811115610cf157fe5b141515610cfd57600080fd5b600b600081548092919060010191905055506000600a60006101000a81548160ff02191690836002811115610d2e57fe5b0217905550565b606060126000600b548152602001908152602001600020805480602002602001604051908101604052809291908181526020018280548015610dcc57602002820191906000526020600020905b8160009054906101000a900473ffffffffffffffffffffffffffffffffffffffff1673ffffffffffffffffffffffffffffffffffffffff1681526020019060010190808311610d82575b5050505050905090565b6000838383604051602001808473ffffffffffffffffffffffffffffffffffffffff1673ffffffffffffffffffffffffffffffffffffffff166c0100000000000000000000000002815260140183815260200182815260200193505050506040516020818303038152906040528051906020012090509392505050565b60003073ffffffffffffffffffffffffffffffffffffffff1631905090565b610e7a61140d565b1515610eee576040517f08c379a00000000000000000000000000000000000000000000000000000000081526004018080602001828103825260208152602001807f4f776e61626c653a2063616c6c6572206973206e6f7420746865206f776e657281525060200191505060405180910390fd5b600073ffffffffffffffffffffffffffffffffffffffff166000809054906101000a900473ffffffffffffffffffffffffffffffffffffffff1673ffffffffffffffffffffffffffffffffffffffff167f8be0079c531659141344cd1fd0a4f28419497f9722a3daafe3b4186f6b6457e060405160405180910390a360008060006101000a81548173ffffffffffffffffffffffffffffffffffffffff021916908373ffffffffffffffffffffffffffffffffffffffff160217905550565b600042905060006002811115610fbf57fe5b600a60009054906101000a900460ff166002811115610fda57fe5b141561109d5760066000600b548152602001908152602001600020548111156110985760056000600b548152602001908152602001600020546002541415611045576001600a60006101000a81548160ff0219169083600281111561103b57fe5b0217905550611092565b6202a30060066000600b548152602001908152602001600020600082825401925050819055506202a300600d6000600b548152602001908152602001600020600082825401925050819055505b50611116565b611114565b600160028111156110aa57fe5b600a60009054906101000a900460ff1660028111156110c557fe5b141561111357600d6000600b54815260200190815260200160002054811115611112576002600a60006101000a81548160ff0219169083600281111561110757fe5b021790555050611116565b5b5b505b565b6000600281111561112557fe5b600a60009054906101000a900460ff16600281111561114057fe5b148061117157506001600281111561115457fe5b600a60009054906101000a900460ff16600281111561116f57fe5b145b151561117c57600080fd5b6000600281111561118957fe5b600a60009054906101000a900460ff1660028111156111a457fe5b14156111d3576001600a60006101000a81548160ff021916908360028111156111c957fe5b0217905550611234565b600160028111156111e057fe5b600a60009054906101000a900460ff1660028111156111fb57fe5b1415611232576002600a60006101000a81548160ff0219169083600281111561122057fe5b021790555061122d6117f6565b611233565b5b5b565b6060818310151561124657600080fd5b60006112528484612211565b9050600080905060608260405190808252806020026020018201604052801561128a5781602001602082028038833980820191505090505b50905060008690505b85811115156113735760007f01000000000000000000000000000000000000000000000000000000000000000260076000600b54815260200190815260200160002060008381526020019081526020016000205460006020811015156112f557fe5b1a7f0100000000000000000000000000000000000000000000000000000000000000027effffffffffffffffffffffffffffffffffffffffffffffffffffffffffffff191614156113665780828481518110151561134f57fe5b906020019060200201818152505082806001019350505b8080600101915050611293565b5080935050505092915050565b8060028190555050565b60008060009054906101000a900473ffffffffffffffffffffffffffffffffffffffff16905090565b600060116000600b54815260200190815260200160002060009054906101000a900473ffffffffffffffffffffffffffffffffffffffff16905090565b600060056000600b54815260200190815260200160002054905090565b60008060009054906101000a900473ffffffffffffffffffffffffffffffffffffffff1673ffffffffffffffffffffffffffffffffffffffff163373ffffffffffffffffffffffffffffffffffffffff1614905090565b8060018190555050565b6001600281111561147b57fe5b600a60009054906101000a900460ff16600281111561149657fe5b1415156114a257600080fd5b60006114af338484610dd6565b90508060076000600b5481526020019081526020016000206000858152602001908152602001600020541415156114e557600080fd5b3373ffffffffffffffffffffffffffffffffffffffff16600e6000600b548152602001908152602001600020600085815260200190815260200160002060009054906101000a900473ffffffffffffffffffffffffffffffffffffffff1673ffffffffffffffffffffffffffffffffffffffff161415151561156657600080fd5b60106000600b548152602001908152602001600020548160405160200180838152602001828152602001925050506040516020818303038152906040528051906020012060106000600b54815260200190815260200160002081905550600c6000600b5481526020019081526020016000206000815480929190600101919050555033600e6000600b548152602001908152602001600020600085815260200190815260200160002060006101000a81548173ffffffffffffffffffffffffffffffffffffffff021916908373ffffffffffffffffffffffffffffffffffffffff160217905550600f6000600b54815260200190815260200160002060003373ffffffffffffffffffffffffffffffffffffffff1673ffffffffffffffffffffffffffffffffffffffff168152602001908152602001600020839080600181540180825580915050906001820390600052602060002001600090919290919091505550505050565b6000600154905090565b6000600b54905090565b6002808111156116ee57fe5b600a60009054906101000a900460ff16600281111561170957fe5b14151561171557600080fd5b600060146000600b5481526020019081526020016000205460136000600b548152602001908152602001600020546001900481151561175057fe5b06905060126000600b5481526020019081526020016000208181548110151561177557fe5b9060005260206000200160009054906101000a900473ffffffffffffffffffffffffffffffffffffffff1660156000600b54815260200190815260200160002060006101000a81548173ffffffffffffffffffffffffffffffffffffffff021916908373ffffffffffffffffffffffffffffffffffffffff16021790555050565b60028081111561180257fe5b600a60009054906101000a900460ff16600281111561181d57fe5b14151561182957600080fd5b600060025460106000600b548152602001908152602001600020546001900481151561185157fe5b0690505b600073ffffffffffffffffffffffffffffffffffffffff16600e6000600b548152602001908152602001600020600083815260200190815260200160002060009054906101000a900473ffffffffffffffffffffffffffffffffffffffff1673ffffffffffffffffffffffffffffffffffffffff1614156118ec5780806001019150506002548111156118e757600090505b611855565b600e6000600b548152602001908152602001600020600082815260200190815260200160002060009054906101000a900473ffffffffffffffffffffffffffffffffffffffff1660116000600b54815260200190815260200160002060006101000a81548173ffffffffffffffffffffffffffffffffffffffff021916908373ffffffffffffffffffffffffffffffffffffffff16021790555061198e61138a565b73ffffffffffffffffffffffffffffffffffffffff166108fc60033073ffffffffffffffffffffffffffffffffffffffff16318115156119ca57fe5b049081150290604051600060405180830381858888f193505050501580156119f6573d6000803e3d6000fd5b5060116000600b54815260200190815260200160002060009054906101000a900473ffffffffffffffffffffffffffffffffffffffff1673ffffffffffffffffffffffffffffffffffffffff166108fc3073ffffffffffffffffffffffffffffffffffffffff16319081150290604051600060405180830381858888f19350505050158015611a89573d6000803e3d6000fd5b5050565b6000600e6000600b548152602001908152602001600020600083815260200190815260200160002060009054906101000a900473ffffffffffffffffffffffffffffffffffffffff169050919050565b6060600f6000600b54815260200190815260200160002060008373ffffffffffffffffffffffffffffffffffffffff1673ffffffffffffffffffffffffffffffffffffffff168152602001908152602001600020805480602002602001604051908101604052809291908181526020018280548015611b7b57602002820191906000526020600020905b815481526020019060010190808311611b67575b50505050509050919050565b60006002811115611b9457fe5b600a60009054906101000a900460ff166002811115611baf57fe5b1480611be0575060016002811115611bc357fe5b600a60009054906101000a900460ff166002811115611bde57fe5b145b1515611beb57600080fd5b6000600960003373ffffffffffffffffffffffffffffffffffffffff1673ffffffffffffffffffffffffffffffffffffffff16815260200190815260200160002054111515611c3957600080fd5b60126000600b5481526020019081526020016000203390806001815401808255809150509060018203906000526020600020016000909192909190916101000a81548173ffffffffffffffffffffffffffffffffffffffff021916908373ffffffffffffffffffffffffffffffffffffffff16021790555050600960003373ffffffffffffffffffffffffffffffffffffffff1673ffffffffffffffffffffffffffffffffffffffff168152602001908152602001600020600081548092919060019003919050555060136000600b5481526020019081526020016000205433604051602001808381526020018273ffffffffffffffffffffffffffffffffffffffff1673ffffffffffffffffffffffffffffffffffffffff166c01000000000000000000000000028152601401925050506040516020818303038152906040528051906020012060136000600b5481526020019081526020016000208190555060146000600b548152602001908152602001600020600081548092919060010191905055507fc21b87340588bdc78634253d4b0c2c02f475010edc0dc0c201bb0db913fa51a033604051808273ffffffffffffffffffffffffffffffffffffffff1673ffffffffffffffffffffffffffffffffffffffff16815260200191505060405180910390a1565b60015434141515611e3457600080fd5b60008210158015611e46575060025482105b1515611e5157600080fd5b60006002811115611e5e57fe5b600a60009054906101000a900460ff166002811115611e7957fe5b141515611e8557600080fd5b600060010260076000600b548152602001908152602001600020600084815260200190815260200160002054141515611ebd57600080fd5b6103e88110158015611ed0575061271081105b1515611edb57600080fd5b60056000600b548152602001908152602001600020600081548092919060010191905055506000611f0d338484610dd6565b90508060076000600b54815260200190815260200160002060008581526020019081526020016000208190555060086000600b54815260200190815260200160002060003373ffffffffffffffffffffffffffffffffffffffff1673ffffffffffffffffffffffffffffffffffffffff1681526020019081526020016000208390806001815401808255809150509060018203906000526020600020016000909192909190915055507f5c6c890314aa0d49059c35b35ff86ffb43efe8f543dc3691558f39dfa4a8201133604051808273ffffffffffffffffffffffffffffffffffffffff1673ffffffffffffffffffffffffffffffffffffffff16815260200191505060405180910390a160025460056000600b54815260200190815260200160002054141561204157612040611118565b5b505050565b6120508383611e24565b8073ffffffffffffffffffffffffffffffffffffffff163373ffffffffffffffffffffffffffffffffffffffff161415151561208b57600080fd5b600960008273ffffffffffffffffffffffffffffffffffffffff1673ffffffffffffffffffffffffffffffffffffffff16815260200190815260200160002060008154809291906001019190505550505050565b6120e761140d565b151561215b576040517f08c379a00000000000000000000000000000000000000000000000000000000081526004018080602001828103825260208152602001807f4f776e61626c653a2063616c6c6572206973206e6f7420746865206f776e657281525060200191505060405180910390fd5b612164816122ec565b50565b606060086000600b54815260200190815260200160002060008373ffffffffffffffffffffffffffffffffffffffff1673ffffffffffffffffffffffffffffffffffffffff16815260200190815260200160002080548060200260200160405190810160405280929190818152602001828054801561220557602002820191906000526020600020905b8154815260200190600101908083116121f1575b50505050509050919050565b6000806000905060008490505b83811115156122e15760007f01000000000000000000000000000000000000000000000000000000000000000260076000600b548152602001908152602001600020600083815260200190815260200160002054600060208110151561228057fe5b1a7f0100000000000000000000000000000000000000000000000000000000000000027effffffffffffffffffffffffffffffffffffffffffffffffffffffffffffff191614156122d45781806001019250505b808060010191505061221e565b508091505092915050565b600073ffffffffffffffffffffffffffffffffffffffff168173ffffffffffffffffffffffffffffffffffffffff16141515156123b7576040517f08c379a00000000000000000000000000000000000000000000000000000000081526004018080602001828103825260268152602001807f4f776e61626c653a206e6577206f776e657220697320746865207a65726f206181526020017f646472657373000000000000000000000000000000000000000000000000000081525060400191505060405180910390fd5b8073ffffffffffffffffffffffffffffffffffffffff166000809054906101000a900473ffffffffffffffffffffffffffffffffffffffff1673ffffffffffffffffffffffffffffffffffffffff167f8be0079c531659141344cd1fd0a4f28419497f9722a3daafe3b4186f6b6457e060405160405180910390a3806000806101000a81548173ffffffffffffffffffffffffffffffffffffffff021916908373ffffffffffffffffffffffffffffffffffffffff1602179055505056fea165627a7a72305820477ccf2ff50d7221b9d9776015b3fd2a7b2fdbfd2827feb5c0ab12c4eb7e3ffa0029",
  "source": "pragma solidity >=0.4.21 <0.6.0;\n\nimport \"./DreamTicket.sol\";\n\ncontract SecondDream is DreamTicket {\n\n  // TODO: write test code\n\n  constructor (uint ticketTotal) DreamTicket(ticketTotal) public {\n  }\n  \n  event Challenge(\n    address player\n  );\n\n  mapping(uint => address[]) private applicants;\n\n  mapping(uint => bytes32) private seed;\n\n  mapping(uint => uint) private applicantsNum;\n\n  mapping(uint => address) private winner;\n\n  /**\n   * It doesn't decide who is winner.\n   */\n  function challenge() public payable {\n    require(term == Term.BUY || term == Term.REVEAL);\n    require(introducers[msg.sender] > 0);\n    applicants[round].push(msg.sender);\n    introducers[msg.sender]--;\n    seed[round] = keccak256(abi.encodePacked(seed[round], msg.sender));\n    applicantsNum[round]++;\n    emit Challenge(msg.sender);\n  }\n\n  function getApplicants() public view returns (address[] memory) {\n    return applicants[round];\n  }\n\n  function drawSecondDreamWinner() public {\n    require(term == Term.RESULT);\n    uint seedIndex = uint(seed[round]) % applicantsNum[round];\n    winner[round] = applicants[round][seedIndex];\n  }\n}",
  "sourcePath": "/Users/koikeshunpei/Dev/04_lottery/dapp/contracts/SecondDream.sol",
  "compiler": {
    "name": "solc",
    "version": "0.5.0+commit.1d4f565a.Emscripten.clang"
  },
  "schemaVersion": "3.0.9",
  "updatedAt": "2019-07-27T13:21:17.212Z",
  "devdoc": {
    "methods": {
      "buy(uint256,uint256)": {
        "params": {
          "_num": "The ticket number (0-4999)",
          "_passcode": "This is necessary to create random (1000-9999)"
        }
      },
      "buyWithIntroducer(uint256,uint256,address)": {
        "params": {
          "_num": "The ticket number (0-4999)",
          "_passcode": "This is necessary to create random (1000-9999)"
        }
      },
      "getNonSelectableNumbers(uint256,uint256)": {
        "params": {
          "_from": "more than equals",
          "_to": "less than equals"
        }
      },
      "getSelectableNumbers(uint256,uint256)": {
        "params": {
          "_from": "more than equals",
          "_to": "less than equals"
        }
      },
      "isOwner()": {
        "details": "Returns true if the caller is the current owner."
      },
      "owner()": {
        "details": "Returns the address of the current owner."
      },
      "renounceOwnership()": {
        "details": "Leaves the contract without owner. It will not be possible to call `onlyOwner` functions anymore. Can only be called by the current owner.     * > Note: Renouncing ownership will leave the contract without an owner, thereby removing any functionality that is only available to the owner."
      },
      "transferOwnership(address)": {
        "details": "Transfers ownership of the contract to a new account (`newOwner`). Can only be called by the current owner."
      }
    }
  },
  "userdoc": {
    "methods": {
      "buy(uint256,uint256)": {
        "notice": "A player can buy a ticket but the process still not be end"
      },
      "buyWithIntroducer(uint256,uint256,address)": {
        "notice": "A player can buy a ticket with introducer address"
      },
      "challenge()": {
        "notice": "It doesn't decide who is winner."
      }
    }
  }
}