{
  "contractName": "SecondDream",
  "abi": [
    {
      "anonymous": false,
      "inputs": [
        {
          "indexed": false,
          "name": "player",
          "type": "address"
        }
      ],
      "name": "Challenge",
      "type": "event"
    },
    {
      "constant": false,
      "inputs": [],
      "name": "challenge",
      "outputs": [],
      "payable": true,
      "stateMutability": "payable",
      "type": "function"
    },
    {
      "constant": true,
      "inputs": [],
      "name": "getApplicants",
      "outputs": [
        {
          "name": "",
          "type": "address[]"
        }
      ],
      "payable": false,
      "stateMutability": "view",
      "type": "function"
    },
    {
      "constant": false,
      "inputs": [],
      "name": "decideWinner",
      "outputs": [],
      "payable": false,
      "stateMutability": "nonpayable",
      "type": "function"
    },
    {
      "constant": true,
      "inputs": [
        {
          "name": "_data",
          "type": "bytes32"
        }
      ],
      "name": "toBytes",
      "outputs": [
        {
          "name": "",
          "type": "bytes"
        }
      ],
      "payable": false,
      "stateMutability": "pure",
      "type": "function"
    }
  ],
  "bytecode": "0x608060405234801561001057600080fd5b506105d8806100206000396000f3fe608060405260043610610062576000357c0100000000000000000000000000000000000000000000000000000000900463ffffffff16806325402e7414610067578063326cf61c1461007e578063455772d214610132578063d2ef73981461019e575b600080fd5b34801561007357600080fd5b5061007c6101a8565b005b34801561008a57600080fd5b506100b7600480360360208110156100a157600080fd5b81019080803590602001909291905050506101de565b6040518080602001828103825283818151815260200191508051906020019080838360005b838110156100f75780820151818401526020810190506100dc565b50505050905090810190601f1680156101245780820380516001836020036101000a031916815260200191505b509250505060405180910390f35b34801561013e57600080fd5b50610147610207565b6040518080602001828103825283818151815260200191508051906020019060200280838360005b8381101561018a57808201518184015260208101905061016f565b505050509050019250505060405180910390f35b6101a6610295565b005b60006101b2610360565b905060008160019004905060606101c88361038c565b9050600080816101d89190610510565b50505050565b606081604051602001808281526020019150506040516020818303038152906040529050919050565b6060600080548060200260200160405190810160405280929190818152602001828054801561028b57602002820191906000526020600020905b8160009054906101000a900473ffffffffffffffffffffffffffffffffffffffff1673ffffffffffffffffffffffffffffffffffffffff1681526020019060010190808311610241575b5050505050905090565b60003390806001815401808255809150509060018203906000526020600020016000909192909190916101000a81548173ffffffffffffffffffffffffffffffffffffffff021916908373ffffffffffffffffffffffffffffffffffffffff160217905550507fc21b87340588bdc78634253d4b0c2c02f475010edc0dc0c201bb0db913fa51a033604051808273ffffffffffffffffffffffffffffffffffffffff1673ffffffffffffffffffffffffffffffffffffffff16815260200191505060405180910390a1565b600080600143034090506060610375826101de565b905060008180519060200120905080935050505090565b60606000606483600190048115156103a057fe5b0690506103ab61053c565b606060405190810160405280603c60ff168152602001601e60ff168152602001600a60ff1681525090506103dd61055f565b6060604051908101604052806040805190810160405280600181526020017f410000000000000000000000000000000000000000000000000000000000000081525081526020016040805190810160405280600181526020017f420000000000000000000000000000000000000000000000000000000000000081525081526020016040805190810160405280600181526020017f43000000000000000000000000000000000000000000000000000000000000008152508152509050600080905060008090505b60038160ff16101561050557838160ff166003811015156104c257fe5b602002015160ff1682019150818510156104f857828160ff166003811015156104e757fe5b60200201519550505050505061050b565b80806001019150506104a5565b50505050505b919050565b815481835581811115610537578183600052602060002091820191016105369190610587565b5b505050565b606060405190810160405280600390602082028038833980820191505090505090565b6060604051908101604052806003905b606081526020019060019003908161056f5790505090565b6105a991905b808211156105a557600081600090555060010161058d565b5090565b9056fea165627a7a723058204233423dd56312c20ea1ec70d3ad99ceb6a6e7b64c8703bc34c0cba64157a63b0029",
  "source": "pragma solidity >=0.4.21 <0.6.0;\n\ncontract SecondDream {\n\n  event Challenge(\n    address player\n  );\n\n  // mapping(address => string)\n\n  address[] private applicants;\n\n\n  /**\n   * It doesn't decide who is winner.\n   */\n  function challenge() public payable {\n    // validate\n    applicants.push(msg.sender);\n    emit Challenge(msg.sender);\n  }\n\n  function getApplicants() public view returns (address[] memory) {\n    return applicants;\n  }\n\n  function decideWinner() public {\n    // only owner\n\n    // devide logic\n    bytes32 rand = getRand();\n    uint randInt = uint(rand);\n    string memory judge = judge(rand);\n\n    // init applicants\n    applicants.length = 0;\n  }\n\n  function getRand () private view returns (bytes32) {\n    bytes32 blockhash32 = blockhash(block.number - 1);\n    bytes memory blockhashbyte = toBytes(blockhash32);\n    bytes32 rand = keccak256(blockhashbyte);\n    return rand;\n  }\n\n  function judge (bytes32 rand) private pure returns (string memory) {\n    uint randInt = uint(rand) % 100;\n    uint8[3] memory probabilities = [60, 30, 10];\n    string[3] memory rewards = [\"A\", \"B\", \"C\"];\n\n    uint tempSum = 0;\n    for (uint8 i = 0; i < probabilities.length; i++) {\n      tempSum += probabilities[i];\n      if (randInt < tempSum) {\n        return rewards[i];\n      }\n    }\n  }\n\n  function toBytes(bytes32 _data) public pure returns (bytes memory) {\n    return abi.encodePacked(_data);\n  }\n}",
  "sourcePath": "/Users/koikeshunpei/Dev/04_lottery/dapp/contracts/SecondDream.sol",
  "compiler": {
    "name": "solc",
    "version": "0.5.0+commit.1d4f565a.Emscripten.clang"
  },
  "schemaVersion": "3.0.9",
  "updatedAt": "2019-06-22T10:39:03.426Z",
  "devdoc": {
    "methods": {}
  },
  "userdoc": {
    "methods": {
      "challenge()": {
        "notice": "It doesn't decide who is winner."
      }
    }
  }
}