{
  "contractName": "SecondDream",
  "abi": [
    {
      "constant": true,
      "inputs": [],
      "name": "getRevealCount",
      "outputs": [
        {
          "name": "",
          "type": "uint256"
        }
      ],
      "payable": false,
      "stateMutability": "view",
      "type": "function"
    },
    {
      "constant": true,
      "inputs": [
        {
          "name": "_user",
          "type": "address"
        }
      ],
      "name": "getIntroducedCount",
      "outputs": [
        {
          "name": "",
          "type": "uint256"
        }
      ],
      "payable": false,
      "stateMutability": "view",
      "type": "function"
    },
    {
      "constant": false,
      "inputs": [],
      "name": "getSeedIndex",
      "outputs": [],
      "payable": false,
      "stateMutability": "nonpayable",
      "type": "function"
    },
    {
      "constant": true,
      "inputs": [],
      "name": "getTerm",
      "outputs": [
        {
          "name": "",
          "type": "uint8"
        }
      ],
      "payable": false,
      "stateMutability": "view",
      "type": "function"
    },
    {
      "constant": true,
      "inputs": [
        {
          "name": "_from",
          "type": "uint256"
        },
        {
          "name": "_to",
          "type": "uint256"
        }
      ],
      "name": "getNonSelectableNumbers",
      "outputs": [
        {
          "name": "",
          "type": "uint256[]"
        }
      ],
      "payable": false,
      "stateMutability": "view",
      "type": "function"
    },
    {
      "constant": false,
      "inputs": [],
      "name": "nextGame",
      "outputs": [],
      "payable": false,
      "stateMutability": "nonpayable",
      "type": "function"
    },
    {
      "constant": true,
      "inputs": [
        {
          "name": "_user",
          "type": "address"
        },
        {
          "name": "_num",
          "type": "uint256"
        },
        {
          "name": "_passcode",
          "type": "uint256"
        }
      ],
      "name": "createCommitment",
      "outputs": [
        {
          "name": "",
          "type": "bytes32"
        }
      ],
      "payable": false,
      "stateMutability": "pure",
      "type": "function"
    },
    {
      "constant": true,
      "inputs": [],
      "name": "getContractBalance",
      "outputs": [
        {
          "name": "",
          "type": "uint256"
        }
      ],
      "payable": false,
      "stateMutability": "view",
      "type": "function"
    },
    {
      "constant": false,
      "inputs": [],
      "name": "renounceOwnership",
      "outputs": [],
      "payable": false,
      "stateMutability": "nonpayable",
      "type": "function"
    },
    {
      "constant": false,
      "inputs": [],
      "name": "nextTerm",
      "outputs": [],
      "payable": false,
      "stateMutability": "nonpayable",
      "type": "function"
    },
    {
      "constant": true,
      "inputs": [
        {
          "name": "_from",
          "type": "uint256"
        },
        {
          "name": "_to",
          "type": "uint256"
        }
      ],
      "name": "getSelectableNumbers",
      "outputs": [
        {
          "name": "",
          "type": "uint256[]"
        }
      ],
      "payable": false,
      "stateMutability": "view",
      "type": "function"
    },
    {
      "constant": false,
      "inputs": [
        {
          "name": "num",
          "type": "uint256"
        }
      ],
      "name": "setTicketTotal",
      "outputs": [],
      "payable": false,
      "stateMutability": "nonpayable",
      "type": "function"
    },
    {
      "constant": true,
      "inputs": [],
      "name": "owner",
      "outputs": [
        {
          "name": "",
          "type": "address"
        }
      ],
      "payable": false,
      "stateMutability": "view",
      "type": "function"
    },
    {
      "constant": true,
      "inputs": [],
      "name": "getWinner",
      "outputs": [
        {
          "name": "",
          "type": "address"
        }
      ],
      "payable": false,
      "stateMutability": "view",
      "type": "function"
    },
    {
      "constant": true,
      "inputs": [],
      "name": "getBuyCount",
      "outputs": [
        {
          "name": "",
          "type": "uint256"
        }
      ],
      "payable": false,
      "stateMutability": "view",
      "type": "function"
    },
    {
      "constant": true,
      "inputs": [],
      "name": "isOwner",
      "outputs": [
        {
          "name": "",
          "type": "bool"
        }
      ],
      "payable": false,
      "stateMutability": "view",
      "type": "function"
    },
    {
      "constant": false,
      "inputs": [
        {
          "name": "price",
          "type": "uint256"
        }
      ],
      "name": "setPrice",
      "outputs": [],
      "payable": false,
      "stateMutability": "nonpayable",
      "type": "function"
    },
    {
      "constant": false,
      "inputs": [
        {
          "name": "_num",
          "type": "uint256"
        },
        {
          "name": "_passcode",
          "type": "uint256"
        }
      ],
      "name": "reveal",
      "outputs": [],
      "payable": false,
      "stateMutability": "nonpayable",
      "type": "function"
    },
    {
      "constant": true,
      "inputs": [],
      "name": "getPrice",
      "outputs": [
        {
          "name": "",
          "type": "uint256"
        }
      ],
      "payable": false,
      "stateMutability": "view",
      "type": "function"
    },
    {
      "constant": true,
      "inputs": [],
      "name": "getRound",
      "outputs": [
        {
          "name": "",
          "type": "uint256"
        }
      ],
      "payable": false,
      "stateMutability": "view",
      "type": "function"
    },
    {
      "constant": false,
      "inputs": [],
      "name": "drawWinner",
      "outputs": [],
      "payable": true,
      "stateMutability": "payable",
      "type": "function"
    },
    {
      "constant": true,
      "inputs": [
        {
          "name": "_num",
          "type": "uint256"
        }
      ],
      "name": "getAddress",
      "outputs": [
        {
          "name": "",
          "type": "address"
        }
      ],
      "payable": false,
      "stateMutability": "view",
      "type": "function"
    },
    {
      "constant": true,
      "inputs": [
        {
          "name": "_address",
          "type": "address"
        }
      ],
      "name": "getNumbersOnRevealTerm",
      "outputs": [
        {
          "name": "",
          "type": "uint256[]"
        }
      ],
      "payable": false,
      "stateMutability": "view",
      "type": "function"
    },
    {
      "constant": false,
      "inputs": [
        {
          "name": "_num",
          "type": "uint256"
        },
        {
          "name": "_passcode",
          "type": "uint256"
        }
      ],
      "name": "buy",
      "outputs": [],
      "payable": true,
      "stateMutability": "payable",
      "type": "function"
    },
    {
      "constant": false,
      "inputs": [
        {
          "name": "_num",
          "type": "uint256"
        },
        {
          "name": "_passcode",
          "type": "uint256"
        },
        {
          "name": "_introducer",
          "type": "address"
        }
      ],
      "name": "buyWithIntroducer",
      "outputs": [],
      "payable": true,
      "stateMutability": "payable",
      "type": "function"
    },
    {
      "constant": false,
      "inputs": [
        {
          "name": "newOwner",
          "type": "address"
        }
      ],
      "name": "transferOwnership",
      "outputs": [],
      "payable": false,
      "stateMutability": "nonpayable",
      "type": "function"
    },
    {
      "constant": true,
      "inputs": [
        {
          "name": "_address",
          "type": "address"
        }
      ],
      "name": "getNumbersOnBuyTerm",
      "outputs": [
        {
          "name": "",
          "type": "uint256[]"
        }
      ],
      "payable": false,
      "stateMutability": "view",
      "type": "function"
    },
    {
      "anonymous": false,
      "inputs": [
        {
          "indexed": false,
          "name": "player",
          "type": "address"
        }
      ],
      "name": "Challenge",
      "type": "event"
    },
    {
      "anonymous": false,
      "inputs": [
        {
          "indexed": false,
          "name": "buyer",
          "type": "address"
        }
      ],
      "name": "Buy",
      "type": "event"
    },
    {
      "anonymous": false,
      "inputs": [
        {
          "indexed": true,
          "name": "previousOwner",
          "type": "address"
        },
        {
          "indexed": true,
          "name": "newOwner",
          "type": "address"
        }
      ],
      "name": "OwnershipTransferred",
      "type": "event"
    },
    {
      "constant": false,
      "inputs": [],
      "name": "challenge",
      "outputs": [],
      "payable": true,
      "stateMutability": "payable",
      "type": "function"
    },
    {
      "constant": true,
      "inputs": [],
      "name": "getApplicants",
      "outputs": [
        {
          "name": "",
          "type": "address[]"
        }
      ],
      "payable": false,
      "stateMutability": "view",
      "type": "function"
    },
    {
      "constant": false,
      "inputs": [],
      "name": "drawSecondDreamWinner",
      "outputs": [],
      "payable": false,
      "stateMutability": "nonpayable",
      "type": "function"
    }
  ],
  "bytecode": "0x608060405266038d7ea4c68000600155611388600255336000806101000a81548173ffffffffffffffffffffffffffffffffffffffff021916908373ffffffffffffffffffffffffffffffffffffffff1602179055506000809054906101000a900473ffffffffffffffffffffffffffffffffffffffff1673ffffffffffffffffffffffffffffffffffffffff16600073ffffffffffffffffffffffffffffffffffffffff167f8be0079c531659141344cd1fd0a4f28419497f9722a3daafe3b4186f6b6457e060405160405180910390a360006008819055506100f06100f5640100000000026401000000009004565b61013f565b600860008154809291906001019190505550600060036000600854815260200190815260200160002081905550600060096000600854815260200190815260200160002081905550565b6123068061014e6000396000f3fe608060405260043610610180576000357c0100000000000000000000000000000000000000000000000000000000900463ffffffff168063020c6fed1461018557806303652dea146101b057806305eaf6d514610215578063124b65b41461022c5780631ab0435214610265578063281d62c4146102ff578063455772d214610316578063676e2680146103825780636f9fb98a146103fb578063715018a61461042657806381dda9fa1461043d578063871933e2146104545780638950ce0b146104ee5780638da5cb5b146105295780638e7ea5b2146105805780638f10fd45146105d75780638f32d59b1461060257806391b7f5ed146106315780639348cef71461066c57806398d5fdca146106b15780639f8743f7146106dc578063a111ece714610707578063b2185bb11461071e578063b93f9b0a14610728578063cd91b030146107a3578063d2ef739814610849578063d6febde814610853578063ed150e781461088b578063f2fde38b146108e3578063f4ff667114610934575b600080fd5b34801561019157600080fd5b5061019a6109da565b6040518082815260200191505060405180910390f35b3480156101bc57600080fd5b506101ff600480360360208110156101d357600080fd5b81019080803573ffffffffffffffffffffffffffffffffffffffff1690602001909291905050506109f7565b6040518082815260200191505060405180910390f35b34801561022157600080fd5b5061022a610a40565b005b34801561023857600080fd5b50610241610b01565b6040518082600281111561025157fe5b60ff16815260200191505060405180910390f35b34801561027157600080fd5b506102a86004803603604081101561028857600080fd5b810190808035906020019092919080359060200190929190505050610b18565b6040518080602001828103825283818151815260200191508051906020019060200280838360005b838110156102eb5780820151818401526020810190506102d0565b505050509050019250505060405180910390f35b34801561030b57600080fd5b50610314610c6a565b005b34801561032257600080fd5b5061032b610cd5565b6040518080602001828103825283818151815260200191508051906020019060200280838360005b8381101561036e578082015181840152602081019050610353565b505050509050019250505060405180910390f35b34801561038e57600080fd5b506103e5600480360360608110156103a557600080fd5b81019080803573ffffffffffffffffffffffffffffffffffffffff1690602001909291908035906020019092919080359060200190929190505050610d76565b6040518082815260200191505060405180910390f35b34801561040757600080fd5b50610410610df3565b6040518082815260200191505060405180910390f35b34801561043257600080fd5b5061043b610e12565b005b34801561044957600080fd5b50610452610f4d565b005b34801561046057600080fd5b506104976004803603604081101561047757600080fd5b81019080803590602001909291908035906020019092919050505061106b565b6040518080602001828103825283818151815260200191508051906020019060200280838360005b838110156104da5780820151818401526020810190506104bf565b505050509050019250505060405180910390f35b3480156104fa57600080fd5b506105276004803603602081101561051157600080fd5b81019080803590602001909291905050506111b5565b005b34801561053557600080fd5b5061053e6111bf565b604051808273ffffffffffffffffffffffffffffffffffffffff1673ffffffffffffffffffffffffffffffffffffffff16815260200191505060405180910390f35b34801561058c57600080fd5b506105956111e8565b604051808273ffffffffffffffffffffffffffffffffffffffff1673ffffffffffffffffffffffffffffffffffffffff16815260200191505060405180910390f35b3480156105e357600080fd5b506105ec611225565b6040518082815260200191505060405180910390f35b34801561060e57600080fd5b50610617611242565b604051808215151515815260200191505060405180910390f35b34801561063d57600080fd5b5061066a6004803603602081101561065457600080fd5b8101908080359060200190929190505050611299565b005b34801561067857600080fd5b506106af6004803603604081101561068f57600080fd5b8101908080359060200190929190803590602001909291905050506112a3565b005b3480156106bd57600080fd5b506106c6611533565b6040518082815260200191505060405180910390f35b3480156106e857600080fd5b506106f161153d565b6040518082815260200191505060405180910390f35b34801561071357600080fd5b5061071c611547565b005b61072661165b565b005b34801561073457600080fd5b506107616004803603602081101561074b57600080fd5b81019080803590602001909291905050506118f2565b604051808273ffffffffffffffffffffffffffffffffffffffff1673ffffffffffffffffffffffffffffffffffffffff16815260200191505060405180910390f35b3480156107af57600080fd5b506107f2600480360360208110156107c657600080fd5b81019080803573ffffffffffffffffffffffffffffffffffffffff169060200190929190505050611942565b6040518080602001828103825283818151815260200191508051906020019060200280838360005b8381101561083557808201518184015260208101905061081a565b505050509050019250505060405180910390f35b6108516119ec565b005b6108896004803603604081101561086957600080fd5b810190808035906020019092919080359060200190929190505050611c89565b005b6108e1600480360360608110156108a157600080fd5b810190808035906020019092919080359060200190929190803573ffffffffffffffffffffffffffffffffffffffff169060200190929190505050611eab565b005b3480156108ef57600080fd5b506109326004803603602081101561090657600080fd5b81019080803573ffffffffffffffffffffffffffffffffffffffff169060200190929190505050611f44565b005b34801561094057600080fd5b506109836004803603602081101561095757600080fd5b81019080803573ffffffffffffffffffffffffffffffffffffffff169060200190929190505050611fcc565b6040518080602001828103825283818151815260200191508051906020019060200280838360005b838110156109c65780820151818401526020810190506109ab565b505050509050019250505060405180910390f35b600060096000600854815260200190815260200160002054905090565b6000600660008373ffffffffffffffffffffffffffffffffffffffff1673ffffffffffffffffffffffffffffffffffffffff168152602001908152602001600020549050919050565b6000600254600c600060085481526020019081526020016000205460019004811515610a6857fe5b069050600073ffffffffffffffffffffffffffffffffffffffff16600a60006008548152602001908152602001600020600083815260200190815260200160002060009054906101000a900473ffffffffffffffffffffffffffffffffffffffff1673ffffffffffffffffffffffffffffffffffffffff161415610afe578080600101915050600254811115610afd57600090505b5b50565b6000600760009054906101000a900460ff16905090565b60608183101515610b2857600080fd5b60006001610b368585612076565b858503030190506000809050606082604051908082528060200260200182016040528015610b735781602001602082028038833980820191505090505b50905060008690505b8581111515610c5d5760007f0100000000000000000000000000000000000000000000000000000000000000026004600060085481526020019081526020016000206000838152602001908152602001600020546000602081101515610bde57fe5b1a7f0100000000000000000000000000000000000000000000000000000000000000027effffffffffffffffffffffffffffffffffffffffffffffffffffffffffffff1916141515610c5057808284815181101515610c3957fe5b906020019060200201818152505082806001019350505b8080600101915050610b7c565b5080935050505092915050565b600280811115610c7657fe5b600760009054906101000a900460ff166002811115610c9157fe5b141515610c9d57600080fd5b6008600081548092919060010191905055506000600760006101000a81548160ff02191690836002811115610cce57fe5b0217905550565b6060600e60006008548152602001908152602001600020805480602002602001604051908101604052809291908181526020018280548015610d6c57602002820191906000526020600020905b8160009054906101000a900473ffffffffffffffffffffffffffffffffffffffff1673ffffffffffffffffffffffffffffffffffffffff1681526020019060010190808311610d22575b5050505050905090565b6000838383604051602001808473ffffffffffffffffffffffffffffffffffffffff1673ffffffffffffffffffffffffffffffffffffffff166c0100000000000000000000000002815260140183815260200182815260200193505050506040516020818303038152906040528051906020012090509392505050565b60003073ffffffffffffffffffffffffffffffffffffffff1631905090565b610e1a611242565b1515610e8e576040517f08c379a00000000000000000000000000000000000000000000000000000000081526004018080602001828103825260208152602001807f4f776e61626c653a2063616c6c6572206973206e6f7420746865206f776e657281525060200191505060405180910390fd5b600073ffffffffffffffffffffffffffffffffffffffff166000809054906101000a900473ffffffffffffffffffffffffffffffffffffffff1673ffffffffffffffffffffffffffffffffffffffff167f8be0079c531659141344cd1fd0a4f28419497f9722a3daafe3b4186f6b6457e060405160405180910390a360008060006101000a81548173ffffffffffffffffffffffffffffffffffffffff021916908373ffffffffffffffffffffffffffffffffffffffff160217905550565b60006002811115610f5a57fe5b600760009054906101000a900460ff166002811115610f7557fe5b1480610fa6575060016002811115610f8957fe5b600760009054906101000a900460ff166002811115610fa457fe5b145b1515610fb157600080fd5b60006002811115610fbe57fe5b600760009054906101000a900460ff166002811115610fd957fe5b1415611008576001600760006101000a81548160ff02191690836002811115610ffe57fe5b0217905550611069565b6001600281111561101557fe5b600760009054906101000a900460ff16600281111561103057fe5b1415611067576002600760006101000a81548160ff0219169083600281111561105557fe5b021790555061106261165b565b611068565b5b5b565b6060818310151561107b57600080fd5b60006110878484612076565b905060008090506060826040519080825280602002602001820160405280156110bf5781602001602082028038833980820191505090505b50905060008690505b85811115156111a85760007f010000000000000000000000000000000000000000000000000000000000000002600460006008548152602001908152602001600020600083815260200190815260200160002054600060208110151561112a57fe5b1a7f0100000000000000000000000000000000000000000000000000000000000000027effffffffffffffffffffffffffffffffffffffffffffffffffffffffffffff1916141561119b5780828481518110151561118457fe5b906020019060200201818152505082806001019350505b80806001019150506110c8565b5080935050505092915050565b8060028190555050565b60008060009054906101000a900473ffffffffffffffffffffffffffffffffffffffff16905090565b6000600d6000600854815260200190815260200160002060009054906101000a900473ffffffffffffffffffffffffffffffffffffffff16905090565b600060036000600854815260200190815260200160002054905090565b60008060009054906101000a900473ffffffffffffffffffffffffffffffffffffffff1673ffffffffffffffffffffffffffffffffffffffff163373ffffffffffffffffffffffffffffffffffffffff1614905090565b8060018190555050565b600160028111156112b057fe5b600760009054906101000a900460ff1660028111156112cb57fe5b1415156112d757600080fd5b60006112e4338484610d76565b90508060046000600854815260200190815260200160002060008581526020019081526020016000205414151561131a57600080fd5b3373ffffffffffffffffffffffffffffffffffffffff16600a60006008548152602001908152602001600020600085815260200190815260200160002060009054906101000a900473ffffffffffffffffffffffffffffffffffffffff1673ffffffffffffffffffffffffffffffffffffffff161415151561139b57600080fd5b600c600060085481526020019081526020016000205481604051602001808381526020018281526020019250505060405160208183030381529060405280519060200120600c60006008548152602001908152602001600020819055506009600060085481526020019081526020016000206000815480929190600101919050555033600a60006008548152602001908152602001600020600085815260200190815260200160002060006101000a81548173ffffffffffffffffffffffffffffffffffffffff021916908373ffffffffffffffffffffffffffffffffffffffff160217905550600b6000600854815260200190815260200160002060003373ffffffffffffffffffffffffffffffffffffffff1673ffffffffffffffffffffffffffffffffffffffff16815260200190815260200160002083908060018154018082558091505090600182039060005260206000200160009091929091909150555060025460096000600854815260200190815260200160002054141561152e57611525610f4d565b61152d61165b565b5b505050565b6000600154905090565b6000600854905090565b60028081111561155357fe5b600760009054906101000a900460ff16600281111561156e57fe5b14151561157a57600080fd5b600060106000600854815260200190815260200160002054600f6000600854815260200190815260200160002054600190048115156115b557fe5b069050600e60006008548152602001908152602001600020818154811015156115da57fe5b9060005260206000200160009054906101000a900473ffffffffffffffffffffffffffffffffffffffff1660116000600854815260200190815260200160002060006101000a81548173ffffffffffffffffffffffffffffffffffffffff021916908373ffffffffffffffffffffffffffffffffffffffff16021790555050565b60028081111561166757fe5b600760009054906101000a900460ff16600281111561168257fe5b14151561168e57600080fd5b6000600254600c6000600854815260200190815260200160002054600190048115156116b657fe5b0690505b600073ffffffffffffffffffffffffffffffffffffffff16600a60006008548152602001908152602001600020600083815260200190815260200160002060009054906101000a900473ffffffffffffffffffffffffffffffffffffffff1673ffffffffffffffffffffffffffffffffffffffff16141561175157808060010191505060025481111561174c57600090505b6116ba565b600a60006008548152602001908152602001600020600082815260200190815260200160002060009054906101000a900473ffffffffffffffffffffffffffffffffffffffff16600d6000600854815260200190815260200160002060006101000a81548173ffffffffffffffffffffffffffffffffffffffff021916908373ffffffffffffffffffffffffffffffffffffffff1602179055506117f36111bf565b73ffffffffffffffffffffffffffffffffffffffff166108fc60033073ffffffffffffffffffffffffffffffffffffffff163181151561182f57fe5b049081150290604051600060405180830381858888f1935050505015801561185b573d6000803e3d6000fd5b50600d6000600854815260200190815260200160002060009054906101000a900473ffffffffffffffffffffffffffffffffffffffff1673ffffffffffffffffffffffffffffffffffffffff166108fc3073ffffffffffffffffffffffffffffffffffffffff16319081150290604051600060405180830381858888f193505050501580156118ee573d6000803e3d6000fd5b5050565b6000600a60006008548152602001908152602001600020600083815260200190815260200160002060009054906101000a900473ffffffffffffffffffffffffffffffffffffffff169050919050565b6060600b6000600854815260200190815260200160002060008373ffffffffffffffffffffffffffffffffffffffff1673ffffffffffffffffffffffffffffffffffffffff1681526020019081526020016000208054806020026020016040519081016040528092919081815260200182805480156119e057602002820191906000526020600020905b8154815260200190600101908083116119cc575b50505050509050919050565b600060028111156119f957fe5b600760009054906101000a900460ff166002811115611a1457fe5b1480611a45575060016002811115611a2857fe5b600760009054906101000a900460ff166002811115611a4357fe5b145b1515611a5057600080fd5b6000600660003373ffffffffffffffffffffffffffffffffffffffff1673ffffffffffffffffffffffffffffffffffffffff16815260200190815260200160002054111515611a9e57600080fd5b600e600060085481526020019081526020016000203390806001815401808255809150509060018203906000526020600020016000909192909190916101000a81548173ffffffffffffffffffffffffffffffffffffffff021916908373ffffffffffffffffffffffffffffffffffffffff16021790555050600660003373ffffffffffffffffffffffffffffffffffffffff1673ffffffffffffffffffffffffffffffffffffffff1681526020019081526020016000206000815480929190600190039190505550600f600060085481526020019081526020016000205433604051602001808381526020018273ffffffffffffffffffffffffffffffffffffffff1673ffffffffffffffffffffffffffffffffffffffff166c010000000000000000000000000281526014019250505060405160208183030381529060405280519060200120600f6000600854815260200190815260200160002081905550601060006008548152602001908152602001600020600081548092919060010191905055507fc21b87340588bdc78634253d4b0c2c02f475010edc0dc0c201bb0db913fa51a033604051808273ffffffffffffffffffffffffffffffffffffffff1673ffffffffffffffffffffffffffffffffffffffff16815260200191505060405180910390a1565b60015434141515611c9957600080fd5b60008210158015611cab575060025482105b1515611cb657600080fd5b60006002811115611cc357fe5b600760009054906101000a900460ff166002811115611cde57fe5b141515611cea57600080fd5b6000600102600460006008548152602001908152602001600020600084815260200190815260200160002054141515611d2257600080fd5b6103e88110158015611d35575061271081105b1515611d4057600080fd5b600360006008548152602001908152602001600020600081548092919060010191905055506000611d72338484610d76565b90508060046000600854815260200190815260200160002060008581526020019081526020016000208190555060056000600854815260200190815260200160002060003373ffffffffffffffffffffffffffffffffffffffff1673ffffffffffffffffffffffffffffffffffffffff1681526020019081526020016000208390806001815401808255809150509060018203906000526020600020016000909192909190915055507f5c6c890314aa0d49059c35b35ff86ffb43efe8f543dc3691558f39dfa4a8201133604051808273ffffffffffffffffffffffffffffffffffffffff1673ffffffffffffffffffffffffffffffffffffffff16815260200191505060405180910390a1600254600360006008548152602001908152602001600020541415611ea657611ea5610f4d565b5b505050565b611eb58383611c89565b8073ffffffffffffffffffffffffffffffffffffffff163373ffffffffffffffffffffffffffffffffffffffff1614151515611ef057600080fd5b600660008273ffffffffffffffffffffffffffffffffffffffff1673ffffffffffffffffffffffffffffffffffffffff16815260200190815260200160002060008154809291906001019190505550505050565b611f4c611242565b1515611fc0576040517f08c379a00000000000000000000000000000000000000000000000000000000081526004018080602001828103825260208152602001807f4f776e61626c653a2063616c6c6572206973206e6f7420746865206f776e657281525060200191505060405180910390fd5b611fc981612151565b50565b606060056000600854815260200190815260200160002060008373ffffffffffffffffffffffffffffffffffffffff1673ffffffffffffffffffffffffffffffffffffffff16815260200190815260200160002080548060200260200160405190810160405280929190818152602001828054801561206a57602002820191906000526020600020905b815481526020019060010190808311612056575b50505050509050919050565b6000806000905060008490505b83811115156121465760007f01000000000000000000000000000000000000000000000000000000000000000260046000600854815260200190815260200160002060008381526020019081526020016000205460006020811015156120e557fe5b1a7f0100000000000000000000000000000000000000000000000000000000000000027effffffffffffffffffffffffffffffffffffffffffffffffffffffffffffff191614156121395781806001019250505b8080600101915050612083565b508091505092915050565b600073ffffffffffffffffffffffffffffffffffffffff168173ffffffffffffffffffffffffffffffffffffffff161415151561221c576040517f08c379a00000000000000000000000000000000000000000000000000000000081526004018080602001828103825260268152602001807f4f776e61626c653a206e6577206f776e657220697320746865207a65726f206181526020017f646472657373000000000000000000000000000000000000000000000000000081525060400191505060405180910390fd5b8073ffffffffffffffffffffffffffffffffffffffff166000809054906101000a900473ffffffffffffffffffffffffffffffffffffffff1673ffffffffffffffffffffffffffffffffffffffff167f8be0079c531659141344cd1fd0a4f28419497f9722a3daafe3b4186f6b6457e060405160405180910390a3806000806101000a81548173ffffffffffffffffffffffffffffffffffffffff021916908373ffffffffffffffffffffffffffffffffffffffff1602179055505056fea165627a7a72305820132a6e6766cddb5acd6c87fe7cb26cdc8e16b7bc7aca0bba59b081799c80015a0029",
  "source": "pragma solidity >=0.4.21 <0.6.0;\n\nimport \"./DreamTicket.sol\";\n\ncontract SecondDream is DreamTicket {\n\n  // TODO: write test code\n  \n  event Challenge(\n    address player\n  );\n\n  mapping(uint => address[]) private applicants;\n\n  mapping(uint => bytes32) private seed;\n\n  mapping(uint => uint) private applicantsNum;\n\n  mapping(uint => address) private winner;\n\n  /**\n   * It doesn't decide who is winner.\n   */\n  function challenge() public payable {\n    require(term == Term.BUY || term == Term.REVEAL);\n    require(introducers[msg.sender] > 0);\n    applicants[round].push(msg.sender);\n    introducers[msg.sender]--;\n    seed[round] = keccak256(abi.encodePacked(seed[round], msg.sender));\n    applicantsNum[round]++;\n    emit Challenge(msg.sender);\n  }\n\n  function getApplicants() public view returns (address[] memory) {\n    return applicants[round];\n  }\n\n  function drawSecondDreamWinner() public {\n    require(term == Term.RESULT);\n    uint seedIndex = uint(seed[round]) % applicantsNum[round];\n    winner[round] = applicants[round][seedIndex];\n  }\n}",
  "sourcePath": "/Users/koikeshunpei/Dev/04_lottery/dapp/contracts/SecondDream.sol",
  "compiler": {
    "name": "solc",
    "version": "0.5.0+commit.1d4f565a.Emscripten.clang"
  },
  "schemaVersion": "3.0.9",
  "updatedAt": "2019-07-21T14:18:22.963Z",
  "devdoc": {
    "methods": {
      "buy(uint256,uint256)": {
        "params": {
          "_num": "The ticket number (0-4999)",
          "_passcode": "This is necessary to create random (1000-9999)"
        }
      },
      "buyWithIntroducer(uint256,uint256,address)": {
        "params": {
          "_num": "The ticket number (0-4999)",
          "_passcode": "This is necessary to create random (1000-9999)"
        }
      },
      "getNonSelectableNumbers(uint256,uint256)": {
        "params": {
          "_from": "more than equals",
          "_to": "less than equals"
        }
      },
      "getSelectableNumbers(uint256,uint256)": {
        "params": {
          "_from": "more than equals",
          "_to": "less than equals"
        }
      },
      "isOwner()": {
        "details": "Returns true if the caller is the current owner."
      },
      "owner()": {
        "details": "Returns the address of the current owner."
      },
      "renounceOwnership()": {
        "details": "Leaves the contract without owner. It will not be possible to call `onlyOwner` functions anymore. Can only be called by the current owner.     * > Note: Renouncing ownership will leave the contract without an owner, thereby removing any functionality that is only available to the owner."
      },
      "transferOwnership(address)": {
        "details": "Transfers ownership of the contract to a new account (`newOwner`). Can only be called by the current owner."
      }
    }
  },
  "userdoc": {
    "methods": {
      "buy(uint256,uint256)": {
        "notice": "A player can buy a ticket but the process still not be end"
      },
      "buyWithIntroducer(uint256,uint256,address)": {
        "notice": "A player can buy a ticket with introducer address"
      },
      "challenge()": {
        "notice": "It doesn't decide who is winner."
      }
    }
  }
}