{
  "contractName": "SimpleLottery",
  "abi": [
    {
      "constant": true,
      "inputs": [],
      "name": "TICKET_PRICE",
      "outputs": [
        {
          "name": "",
          "type": "uint256"
        }
      ],
      "payable": false,
      "stateMutability": "view",
      "type": "function"
    },
    {
      "constant": true,
      "inputs": [
        {
          "name": "",
          "type": "uint256"
        }
      ],
      "name": "tickets",
      "outputs": [
        {
          "name": "",
          "type": "address"
        }
      ],
      "payable": false,
      "stateMutability": "view",
      "type": "function"
    },
    {
      "constant": true,
      "inputs": [],
      "name": "winner",
      "outputs": [
        {
          "name": "",
          "type": "address"
        }
      ],
      "payable": false,
      "stateMutability": "view",
      "type": "function"
    },
    {
      "constant": true,
      "inputs": [],
      "name": "ticketingCloses",
      "outputs": [
        {
          "name": "",
          "type": "uint256"
        }
      ],
      "payable": false,
      "stateMutability": "view",
      "type": "function"
    },
    {
      "inputs": [
        {
          "name": "duration",
          "type": "uint256"
        }
      ],
      "payable": false,
      "stateMutability": "nonpayable",
      "type": "constructor"
    },
    {
      "payable": true,
      "stateMutability": "payable",
      "type": "fallback"
    },
    {
      "constant": true,
      "inputs": [],
      "name": "getName",
      "outputs": [
        {
          "name": "",
          "type": "string"
        }
      ],
      "payable": false,
      "stateMutability": "view",
      "type": "function"
    },
    {
      "constant": true,
      "inputs": [],
      "name": "getRand",
      "outputs": [
        {
          "name": "",
          "type": "bytes32"
        }
      ],
      "payable": false,
      "stateMutability": "view",
      "type": "function"
    },
    {
      "constant": false,
      "inputs": [],
      "name": "buy",
      "outputs": [],
      "payable": true,
      "stateMutability": "payable",
      "type": "function"
    },
    {
      "constant": false,
      "inputs": [],
      "name": "drawWinner",
      "outputs": [],
      "payable": false,
      "stateMutability": "nonpayable",
      "type": "function"
    },
    {
      "constant": false,
      "inputs": [],
      "name": "withdraw",
      "outputs": [],
      "payable": false,
      "stateMutability": "nonpayable",
      "type": "function"
    },
    {
      "constant": true,
      "inputs": [
        {
          "name": "_data",
          "type": "bytes32"
        }
      ],
      "name": "toBytes",
      "outputs": [
        {
          "name": "",
          "type": "bytes"
        }
      ],
      "payable": false,
      "stateMutability": "pure",
      "type": "function"
    }
  ],
  "bytecode": "0x60806040526040805190810160405280600d81526020017f53696d706c654c6f7474657279000000000000000000000000000000000000008152506003908051906020019061004f92919061009c565b5034801561005c57600080fd5b506040516020806108d38339810180604052602081101561007c57600080fd5b810190808051906020019092919050505080420160028190555050610141565b828054600181600116156101000203166002900490600052602060002090601f016020900481019282601f106100dd57805160ff191683800117855561010b565b8280016001018555821561010b579182015b8281111561010a5782518255916020019190600101906100ef565b5b509050610118919061011c565b5090565b61013e91905b8082111561013a576000816000905550600101610122565b5090565b90565b610783806101506000396000f3fe6080604052600436106100a4576000357c0100000000000000000000000000000000000000000000000000000000900463ffffffff16806317d7de7c146100ae5780631a95f15f1461013e578063326cf61c146101695780633ccfd60b1461021d57806350b4471214610234578063600bc4ea146102af578063a6f2ae3a146102da578063b2185bb1146102e4578063dfbf53ae146102fb578063fdbbfbc614610352575b6100ac61037d565b005b3480156100ba57600080fd5b506100c361040a565b6040518080602001828103825283818151815260200191508051906020019080838360005b838110156101035780820151818401526020810190506100e8565b50505050905090810190601f1680156101305780820380516001836020036101000a031916815260200191505b509250505060405180910390f35b34801561014a57600080fd5b506101536104ac565b6040518082815260200191505060405180910390f35b34801561017557600080fd5b506101a26004803603602081101561018c57600080fd5b81019080803590602001909291905050506104b7565b6040518080602001828103825283818151815260200191508051906020019080838360005b838110156101e25780820151818401526020810190506101c7565b50505050905090810190601f16801561020f5780820380516001836020036101000a031916815260200191505b509250505060405180910390f35b34801561022957600080fd5b506102326104e0565b005b34801561024057600080fd5b5061026d6004803603602081101561025757600080fd5b810190808035906020019092919050505061059c565b604051808273ffffffffffffffffffffffffffffffffffffffff1673ffffffffffffffffffffffffffffffffffffffff16815260200191505060405180910390f35b3480156102bb57600080fd5b506102c46105da565b6040518082815260200191505060405180910390f35b6102e261037d565b005b3480156102f057600080fd5b506102f9610606565b005b34801561030757600080fd5b5061031061072b565b604051808273ffffffffffffffffffffffffffffffffffffffff1673ffffffffffffffffffffffffffffffffffffffff16815260200191505060405180910390f35b34801561035e57600080fd5b50610367610751565b6040518082815260200191505060405180910390f35b662386f26fc100003414151561039257600080fd5b600254421015156103a257600080fd5b60003390806001815401808255809150509060018203906000526020600020016000909192909190916101000a81548173ffffffffffffffffffffffffffffffffffffffff021916908373ffffffffffffffffffffffffffffffffffffffff16021790555050565b606060038054600181600116156101000203166002900480601f0160208091040260200160405190810160405280929190818152602001828054600181600116156101000203166002900480156104a25780601f10610477576101008083540402835291602001916104a2565b820191906000526020600020905b81548152906001019060200180831161048557829003601f168201915b5050505050905090565b662386f26fc1000081565b606081604051602001808281526020019150506040516020818303038152906040529050919050565b600160009054906101000a900473ffffffffffffffffffffffffffffffffffffffff1673ffffffffffffffffffffffffffffffffffffffff163373ffffffffffffffffffffffffffffffffffffffff1614151561053c57600080fd5b3373ffffffffffffffffffffffffffffffffffffffff166108fc3073ffffffffffffffffffffffffffffffffffffffff16319081150290604051600060405180830381858888f19350505050158015610599573d6000803e3d6000fd5b50565b6000818154811015156105ab57fe5b906000526020600020016000915054906101000a900473ffffffffffffffffffffffffffffffffffffffff1681565b6000806001430340905060606105ef826104b7565b905060008180519060200120905080935050505090565b61012c600254014211151561061a57600080fd5b600073ffffffffffffffffffffffffffffffffffffffff16600160009054906101000a900473ffffffffffffffffffffffffffffffffffffffff1673ffffffffffffffffffffffffffffffffffffffff1614151561067757600080fd5b600060014303409050606061068b826104b7565b90506000818051906020012090506000808054905082600190048115156106ae57fe5b068154811015156106bb57fe5b9060005260206000200160009054906101000a900473ffffffffffffffffffffffffffffffffffffffff16600160006101000a81548173ffffffffffffffffffffffffffffffffffffffff021916908373ffffffffffffffffffffffffffffffffffffffff160217905550505050565b600160009054906101000a900473ffffffffffffffffffffffffffffffffffffffff1681565b6002548156fea165627a7a7230582023dd0d617e05ec9a7e6c3398942b7bebd57719116c989321b877a9e8bf7db6f80029",
  "source": "pragma solidity >=0.4.21 <0.6.0;\n\ncontract SimpleLottery {\n  uint public constant TICKET_PRICE = 1e16; // 0.01 ether\n\n  address[] public tickets;\n  address public winner;\n  uint public ticketingCloses;\n  string name = \"SimpleLottery\";\n\n  constructor (uint duration) public {\n    ticketingCloses = now + duration;\n  }\n\n  function getName() public view returns (string memory) {\n    return name;\n  }\n\n  function getRand () public view returns (bytes32) {\n    bytes32 blockhash32 = blockhash(block.number -1);\n    bytes memory blockhash = toBytes(blockhash32);\n    bytes32 rand = keccak256(blockhash);\n    return rand;\n  }\n\n  function buy () public payable {\n    require(msg.value == TICKET_PRICE);\n    require(now < ticketingCloses);\n\n    tickets.push(msg.sender);\n  }\n\n  function drawWinner () public {\n    require(now > ticketingCloses + 5 minutes);\n    require(winner == address(0));\n\n    bytes32 blockhash32 = blockhash(block.number -1);\n    bytes memory blockhash = toBytes(blockhash32);\n    bytes32 rand = keccak256(blockhash);\n    winner = tickets[uint(rand) % tickets.length];\n  }\n\n  function withdraw () public {\n    require(msg.sender == winner);\n    msg.sender.transfer(address(this).balance);\n  }\n\n  function () payable external {\n    buy();\n  }\n\n  function toBytes(bytes32 _data) public pure returns (bytes memory) {\n    return abi.encodePacked(_data);\n  }\n}",
  "sourcePath": "/Users/koikeshunpei/Dev/04_lottery/dapp/contracts/SimpleLottery.sol",
  "compiler": {
    "name": "solc",
    "version": "0.5.0+commit.1d4f565a.Emscripten.clang"
  },
  "schemaVersion": "3.0.9",
  "updatedAt": "2019-06-07T15:32:51.835Z",
  "devdoc": {
    "methods": {}
  },
  "userdoc": {
    "methods": {}
  }
}